{
  "_format": "hh-sol-artifact-1",
  "contractName": "TeamLeaderNFT",
  "sourceName": "contracts/TeamLeaderNFT.sol",
  "abi": [
    {
      "inputs": [],
      "stateMutability": "nonpayable",
      "type": "constructor"
    },
    {
      "inputs": [
        {
          "internalType": "address",
          "name": "sender",
          "type": "address"
        },
        {
          "internalType": "uint256",
          "name": "tokenId",
          "type": "uint256"
        },
        {
          "internalType": "address",
          "name": "owner",
          "type": "address"
        }
      ],
      "name": "ERC721IncorrectOwner",
      "type": "error"
    },
    {
      "inputs": [
        {
          "internalType": "address",
          "name": "operator",
          "type": "address"
        },
        {
          "internalType": "uint256",
          "name": "tokenId",
          "type": "uint256"
        }
      ],
      "name": "ERC721InsufficientApproval",
      "type": "error"
    },
    {
      "inputs": [
        {
          "internalType": "address",
          "name": "approver",
          "type": "address"
        }
      ],
      "name": "ERC721InvalidApprover",
      "type": "error"
    },
    {
      "inputs": [
        {
          "internalType": "address",
          "name": "operator",
          "type": "address"
        }
      ],
      "name": "ERC721InvalidOperator",
      "type": "error"
    },
    {
      "inputs": [
        {
          "internalType": "address",
          "name": "owner",
          "type": "address"
        }
      ],
      "name": "ERC721InvalidOwner",
      "type": "error"
    },
    {
      "inputs": [
        {
          "internalType": "address",
          "name": "receiver",
          "type": "address"
        }
      ],
      "name": "ERC721InvalidReceiver",
      "type": "error"
    },
    {
      "inputs": [
        {
          "internalType": "address",
          "name": "sender",
          "type": "address"
        }
      ],
      "name": "ERC721InvalidSender",
      "type": "error"
    },
    {
      "inputs": [
        {
          "internalType": "uint256",
          "name": "tokenId",
          "type": "uint256"
        }
      ],
      "name": "ERC721NonexistentToken",
      "type": "error"
    },
    {
      "inputs": [
        {
          "internalType": "address",
          "name": "owner",
          "type": "address"
        }
      ],
      "name": "OwnableInvalidOwner",
      "type": "error"
    },
    {
      "inputs": [
        {
          "internalType": "address",
          "name": "account",
          "type": "address"
        }
      ],
      "name": "OwnableUnauthorizedAccount",
      "type": "error"
    },
    {
      "anonymous": false,
      "inputs": [
        {
          "indexed": true,
          "internalType": "address",
          "name": "owner",
          "type": "address"
        },
        {
          "indexed": true,
          "internalType": "address",
          "name": "approved",
          "type": "address"
        },
        {
          "indexed": true,
          "internalType": "uint256",
          "name": "tokenId",
          "type": "uint256"
        }
      ],
      "name": "Approval",
      "type": "event"
    },
    {
      "anonymous": false,
      "inputs": [
        {
          "indexed": true,
          "internalType": "address",
          "name": "owner",
          "type": "address"
        },
        {
          "indexed": true,
          "internalType": "address",
          "name": "operator",
          "type": "address"
        },
        {
          "indexed": false,
          "internalType": "bool",
          "name": "approved",
          "type": "bool"
        }
      ],
      "name": "ApprovalForAll",
      "type": "event"
    },
    {
      "anonymous": false,
      "inputs": [
        {
          "indexed": true,
          "internalType": "uint256",
          "name": "tokenId",
          "type": "uint256"
        },
        {
          "indexed": false,
          "internalType": "uint256",
          "name": "damage",
          "type": "uint256"
        },
        {
          "indexed": false,
          "internalType": "bool",
          "name": "won",
          "type": "bool"
        }
      ],
      "name": "BattleCompleted",
      "type": "event"
    },
    {
      "anonymous": false,
      "inputs": [
        {
          "indexed": true,
          "internalType": "address",
          "name": "owner",
          "type": "address"
        },
        {
          "indexed": false,
          "internalType": "uint256",
          "name": "tokenId",
          "type": "uint256"
        }
      ],
      "name": "LeaderActivated",
      "type": "event"
    },
    {
      "anonymous": false,
      "inputs": [
        {
          "indexed": true,
          "internalType": "address",
          "name": "buyer",
          "type": "address"
        },
        {
          "indexed": false,
          "internalType": "uint256",
          "name": "tokenId",
          "type": "uint256"
        },
        {
          "indexed": false,
          "internalType": "string",
          "name": "character",
          "type": "string"
        }
      ],
      "name": "LeaderPurchased",
      "type": "event"
    },
    {
      "anonymous": false,
      "inputs": [
        {
          "indexed": true,
          "internalType": "address",
          "name": "previousOwner",
          "type": "address"
        },
        {
          "indexed": true,
          "internalType": "address",
          "name": "newOwner",
          "type": "address"
        }
      ],
      "name": "OwnershipTransferred",
      "type": "event"
    },
    {
      "anonymous": false,
      "inputs": [
        {
          "indexed": true,
          "internalType": "address",
          "name": "from",
          "type": "address"
        },
        {
          "indexed": true,
          "internalType": "address",
          "name": "to",
          "type": "address"
        },
        {
          "indexed": true,
          "internalType": "uint256",
          "name": "tokenId",
          "type": "uint256"
        }
      ],
      "name": "Transfer",
      "type": "event"
    },
    {
      "inputs": [],
      "name": "LEADER_PRICE",
      "outputs": [
        {
          "internalType": "uint256",
          "name": "",
          "type": "uint256"
        }
      ],
      "stateMutability": "view",
      "type": "function"
    },
    {
      "inputs": [],
      "name": "MAX_LEADERS",
      "outputs": [
        {
          "internalType": "uint256",
          "name": "",
          "type": "uint256"
        }
      ],
      "stateMutability": "view",
      "type": "function"
    },
    {
      "inputs": [
        {
          "internalType": "uint256",
          "name": "tokenId",
          "type": "uint256"
        }
      ],
      "name": "activateLeader",
      "outputs": [],
      "stateMutability": "nonpayable",
      "type": "function"
    },
    {
      "inputs": [
        {
          "internalType": "address",
          "name": "to",
          "type": "address"
        },
        {
          "internalType": "uint256",
          "name": "tokenId",
          "type": "uint256"
        }
      ],
      "name": "approve",
      "outputs": [],
      "stateMutability": "nonpayable",
      "type": "function"
    },
    {
      "inputs": [
        {
          "internalType": "address",
          "name": "owner",
          "type": "address"
        }
      ],
      "name": "balanceOf",
      "outputs": [
        {
          "internalType": "uint256",
          "name": "",
          "type": "uint256"
        }
      ],
      "stateMutability": "view",
      "type": "function"
    },
    {
      "inputs": [
        {
          "internalType": "uint256",
          "name": "tokenId",
          "type": "uint256"
        }
      ],
      "name": "deactivateLeader",
      "outputs": [],
      "stateMutability": "nonpayable",
      "type": "function"
    },
    {
      "inputs": [
        {
          "internalType": "address",
          "name": "owner",
          "type": "address"
        }
      ],
      "name": "getActiveLeader",
      "outputs": [
        {
          "internalType": "uint256",
          "name": "",
          "type": "uint256"
        }
      ],
      "stateMutability": "view",
      "type": "function"
    },
    {
      "inputs": [
        {
          "internalType": "uint256",
          "name": "tokenId",
          "type": "uint256"
        }
      ],
      "name": "getApproved",
      "outputs": [
        {
          "internalType": "address",
          "name": "",
          "type": "address"
        }
      ],
      "stateMutability": "view",
      "type": "function"
    },
    {
      "inputs": [
        {
          "internalType": "uint256",
          "name": "tokenId",
          "type": "uint256"
        }
      ],
      "name": "getLeaderData",
      "outputs": [
        {
          "components": [
            {
              "internalType": "string",
              "name": "characterName",
              "type": "string"
            },
            {
              "internalType": "uint256",
              "name": "purchaseTime",
              "type": "uint256"
            },
            {
              "internalType": "uint256",
              "name": "battlesWon",
              "type": "uint256"
            },
            {
              "internalType": "uint256",
              "name": "totalDamage",
              "type": "uint256"
            },
            {
              "internalType": "bool",
              "name": "isActive",
              "type": "bool"
            }
          ],
          "internalType": "struct TeamLeaderNFT.LeaderData",
          "name": "",
          "type": "tuple"
        }
      ],
      "stateMutability": "view",
      "type": "function"
    },
    {
      "inputs": [
        {
          "internalType": "address",
          "name": "owner",
          "type": "address"
        }
      ],
      "name": "getOwnerTokens",
      "outputs": [
        {
          "internalType": "uint256[]",
          "name": "",
          "type": "uint256[]"
        }
      ],
      "stateMutability": "view",
      "type": "function"
    },
    {
      "inputs": [
        {
          "internalType": "address",
          "name": "",
          "type": "address"
        }
      ],
      "name": "hasActiveLeader",
      "outputs": [
        {
          "internalType": "bool",
          "name": "",
          "type": "bool"
        }
      ],
      "stateMutability": "view",
      "type": "function"
    },
    {
      "inputs": [
        {
          "internalType": "address",
          "name": "owner",
          "type": "address"
        },
        {
          "internalType": "address",
          "name": "operator",
          "type": "address"
        }
      ],
      "name": "isApprovedForAll",
      "outputs": [
        {
          "internalType": "bool",
          "name": "",
          "type": "bool"
        }
      ],
      "stateMutability": "view",
      "type": "function"
    },
    {
      "inputs": [
        {
          "internalType": "uint256",
          "name": "",
          "type": "uint256"
        }
      ],
      "name": "leaders",
      "outputs": [
        {
          "internalType": "string",
          "name": "characterName",
          "type": "string"
        },
        {
          "internalType": "uint256",
          "name": "purchaseTime",
          "type": "uint256"
        },
        {
          "internalType": "uint256",
          "name": "battlesWon",
          "type": "uint256"
        },
        {
          "internalType": "uint256",
          "name": "totalDamage",
          "type": "uint256"
        },
        {
          "internalType": "bool",
          "name": "isActive",
          "type": "bool"
        }
      ],
      "stateMutability": "view",
      "type": "function"
    },
    {
      "inputs": [],
      "name": "name",
      "outputs": [
        {
          "internalType": "string",
          "name": "",
          "type": "string"
        }
      ],
      "stateMutability": "view",
      "type": "function"
    },
    {
      "inputs": [],
      "name": "owner",
      "outputs": [
        {
          "internalType": "address",
          "name": "",
          "type": "address"
        }
      ],
      "stateMutability": "view",
      "type": "function"
    },
    {
      "inputs": [
        {
          "internalType": "uint256",
          "name": "tokenId",
          "type": "uint256"
        }
      ],
      "name": "ownerOf",
      "outputs": [
        {
          "internalType": "address",
          "name": "",
          "type": "address"
        }
      ],
      "stateMutability": "view",
      "type": "function"
    },
    {
      "inputs": [
        {
          "internalType": "address",
          "name": "",
          "type": "address"
        },
        {
          "internalType": "uint256",
          "name": "",
          "type": "uint256"
        }
      ],
      "name": "ownerToTokens",
      "outputs": [
        {
          "internalType": "uint256",
          "name": "",
          "type": "uint256"
        }
      ],
      "stateMutability": "view",
      "type": "function"
    },
    {
      "inputs": [
        {
          "internalType": "string",
          "name": "characterName",
          "type": "string"
        }
      ],
      "name": "purchaseLeader",
      "outputs": [],
      "stateMutability": "payable",
      "type": "function"
    },
    {
      "inputs": [
        {
          "internalType": "uint256",
          "name": "tokenId",
          "type": "uint256"
        },
        {
          "internalType": "uint256",
          "name": "damage",
          "type": "uint256"
        },
        {
          "internalType": "bool",
          "name": "won",
          "type": "bool"
        }
      ],
      "name": "recordBattle",
      "outputs": [],
      "stateMutability": "nonpayable",
      "type": "function"
    },
    {
      "inputs": [],
      "name": "renounceOwnership",
      "outputs": [],
      "stateMutability": "nonpayable",
      "type": "function"
    },
    {
      "inputs": [
        {
          "internalType": "address",
          "name": "from",
          "type": "address"
        },
        {
          "internalType": "address",
          "name": "to",
          "type": "address"
        },
        {
          "internalType": "uint256",
          "name": "tokenId",
          "type": "uint256"
        }
      ],
      "name": "safeTransferFrom",
      "outputs": [],
      "stateMutability": "nonpayable",
      "type": "function"
    },
    {
      "inputs": [
        {
          "internalType": "address",
          "name": "from",
          "type": "address"
        },
        {
          "internalType": "address",
          "name": "to",
          "type": "address"
        },
        {
          "internalType": "uint256",
          "name": "tokenId",
          "type": "uint256"
        },
        {
          "internalType": "bytes",
          "name": "data",
          "type": "bytes"
        }
      ],
      "name": "safeTransferFrom",
      "outputs": [],
      "stateMutability": "nonpayable",
      "type": "function"
    },
    {
      "inputs": [
        {
          "internalType": "address",
          "name": "operator",
          "type": "address"
        },
        {
          "internalType": "bool",
          "name": "approved",
          "type": "bool"
        }
      ],
      "name": "setApprovalForAll",
      "outputs": [],
      "stateMutability": "nonpayable",
      "type": "function"
    },
    {
      "inputs": [
        {
          "internalType": "bytes4",
          "name": "interfaceId",
          "type": "bytes4"
        }
      ],
      "name": "supportsInterface",
      "outputs": [
        {
          "internalType": "bool",
          "name": "",
          "type": "bool"
        }
      ],
      "stateMutability": "view",
      "type": "function"
    },
    {
      "inputs": [],
      "name": "symbol",
      "outputs": [
        {
          "internalType": "string",
          "name": "",
          "type": "string"
        }
      ],
      "stateMutability": "view",
      "type": "function"
    },
    {
      "inputs": [
        {
          "internalType": "uint256",
          "name": "tokenId",
          "type": "uint256"
        }
      ],
      "name": "tokenURI",
      "outputs": [
        {
          "internalType": "string",
          "name": "",
          "type": "string"
        }
      ],
      "stateMutability": "view",
      "type": "function"
    },
    {
      "inputs": [],
      "name": "totalSupply",
      "outputs": [
        {
          "internalType": "uint256",
          "name": "",
          "type": "uint256"
        }
      ],
      "stateMutability": "view",
      "type": "function"
    },
    {
      "inputs": [
        {
          "internalType": "address",
          "name": "from",
          "type": "address"
        },
        {
          "internalType": "address",
          "name": "to",
          "type": "address"
        },
        {
          "internalType": "uint256",
          "name": "tokenId",
          "type": "uint256"
        }
      ],
      "name": "transferFrom",
      "outputs": [],
      "stateMutability": "nonpayable",
      "type": "function"
    },
    {
      "inputs": [
        {
          "internalType": "address",
          "name": "newOwner",
          "type": "address"
        }
      ],
      "name": "transferOwnership",
      "outputs": [],
      "stateMutability": "nonpayable",
      "type": "function"
    },
    {
      "inputs": [],
      "name": "withdraw",
      "outputs": [],
      "stateMutability": "nonpayable",
      "type": "function"
    }
  ],
  "bytecode": "0x60806040523480156200001157600080fd5b50336040518060400160405280601a81526020017f537472616e6765725468696e6773205465616d204c65616465720000000000008152506040518060400160405280600481526020016314d5151360e21b8152508160009081620000779190620001c3565b506001620000868282620001c3565b5050506001600160a01b038116620000b857604051631e4fbdf760e01b81526000600482015260240160405180910390fd5b620000c381620000ca565b506200028f565b600680546001600160a01b038381166001600160a01b0319831681179093556040519116919082907f8be0079c531659141344cd1fd0a4f28419497f9722a3daafe3b4186f6b6457e090600090a35050565b634e487b7160e01b600052604160045260246000fd5b600181811c908216806200014757607f821691505b6020821081036200016857634e487b7160e01b600052602260045260246000fd5b50919050565b601f821115620001be576000816000526020600020601f850160051c81016020861015620001995750805b601f850160051c820191505b81811015620001ba57828155600101620001a5565b5050505b505050565b81516001600160401b03811115620001df57620001df6200011c565b620001f781620001f0845462000132565b846200016e565b602080601f8311600181146200022f5760008415620002165750858301515b600019600386901b1c1916600185901b178555620001ba565b600085815260208120601f198616915b8281101562000260578886015182559484019460019091019084016200023f565b50858210156200027f5787850151600019600388901b60f8161c191681555b5050505050600190811b01905550565b611f6d806200029f6000396000f3fe6080604052600436106101cc5760003560e01c80636352211e116100f7578063a36e657711610095578063ca1cbd1c11610064578063ca1cbd1c14610534578063d63d4af014610554578063e985e9c514610581578063f2fde38b146105a157600080fd5b8063a36e6577146104a8578063b88d4fde146104d9578063c87b56dd146104f9578063c9cfe5711461051957600080fd5b80638da5cb5b116100d15780638da5cb5b1461043557806395703e221461045357806395d89b4114610473578063a22cb4651461048857600080fd5b80636352211e146103e057806370a0823114610400578063715018a61461042057600080fd5b806318160ddd1161016f57806342842e0e1161013e57806342842e0e1461035057806344e650b01461037057806350f4d2551461039d578063574d61e9146103cd57600080fd5b806318160ddd146102e65780631a1fea0d146102fb57806323b872dd1461031b5780633ccfd60b1461033b57600080fd5b806306fdde03116101ab57806306fdde031461024c578063081812fc1461026e578063095ea7b3146102a65780630d828fe0146102c657600080fd5b80629e5a22146101d157806301ffc9a7146101fa57806305aa0f641461022a575b600080fd5b3480156101dd57600080fd5b506101e76103e881565b6040519081526020015b60405180910390f35b34801561020657600080fd5b5061021a610215366004611903565b6105c1565b60405190151581526020016101f1565b34801561023657600080fd5b5061024a610245366004611935565b610613565b005b34801561025857600080fd5b5061026161070b565b6040516101f191906119ba565b34801561027a57600080fd5b5061028e6102893660046119cd565b61079d565b6040516001600160a01b0390911681526020016101f1565b3480156102b257600080fd5b5061024a6102c13660046119fd565b6107c6565b3480156102d257600080fd5b506101e76102e13660046119fd565b6107d5565b3480156102f257600080fd5b506007546101e7565b34801561030757600080fd5b5061024a6103163660046119cd565b610806565b34801561032757600080fd5b5061024a610336366004611a27565b6108e0565b34801561034757600080fd5b5061024a61096b565b34801561035c57600080fd5b5061024a61036b366004611a27565b6109af565b34801561037c57600080fd5b5061039061038b3660046119cd565b6109cf565b6040516101f19190611a63565b3480156103a957600080fd5b5061021a6103b8366004611ab5565b600a6020526000908152604090205460ff1681565b61024a6103db366004611b5c565b610b3c565b3480156103ec57600080fd5b5061028e6103fb3660046119cd565b610d2a565b34801561040c57600080fd5b506101e761041b366004611ab5565b610d35565b34801561042c57600080fd5b5061024a610d7d565b34801561044157600080fd5b506006546001600160a01b031661028e565b34801561045f57600080fd5b506101e761046e366004611ab5565b610d91565b34801561047f57600080fd5b50610261610e72565b34801561049457600080fd5b5061024a6104a3366004611ba5565b610e81565b3480156104b457600080fd5b506104c86104c33660046119cd565b610e8c565b6040516101f1959493929190611bd8565b3480156104e557600080fd5b5061024a6104f4366004611c11565b610f46565b34801561050557600080fd5b506102616105143660046119cd565b610f5e565b34801561052557600080fd5b506101e7662386f26fc1000081565b34801561054057600080fd5b5061024a61054f3660046119cd565b610fd3565b34801561056057600080fd5b5061057461056f366004611ab5565b6110f0565b6040516101f19190611c8d565b34801561058d57600080fd5b5061021a61059c366004611cd1565b61115c565b3480156105ad57600080fd5b5061024a6105bc366004611ab5565b61118a565b60006001600160e01b031982166380ac58cd60e01b14806105f257506001600160e01b03198216635b5e139f60e01b145b8061060d57506301ffc9a760e01b6001600160e01b03198316145b92915050565b61061b6111c5565b6000838152600260205260409020546001600160a01b031661067b5760405162461bcd60e51b8152602060048201526014602482015273151bdad95b88191bd95cc81b9bdd08195e1a5cdd60621b60448201526064015b60405180910390fd5b6000838152600860205260408120600301805484929061069c908490611d11565b909155505080156106ca5760008381526008602052604081206002018054916106c483611d24565b91905055505b60408051838152821515602082015284917f7cd054335bb55bb2638e23a495f06dbb0d3aa3d9f4e43d3eff6f36635a47b9e6910160405180910390a2505050565b60606000805461071a90611d3d565b80601f016020809104026020016040519081016040528092919081815260200182805461074690611d3d565b80156107935780601f1061076857610100808354040283529160200191610793565b820191906000526020600020905b81548152906001019060200180831161077657829003601f168201915b5050505050905090565b60006107a8826111f2565b506000828152600460205260409020546001600160a01b031661060d565b6107d182823361122b565b5050565b600960205281600052604060002081815481106107f157600080fd5b90600052602060002001600091509150505481565b3361081082610d2a565b6001600160a01b0316146108585760405162461bcd60e51b815260206004820152600f60248201526e2737ba103a37b5b2b71037bbb732b960891b6044820152606401610672565b60008181526008602052604090206004015460ff166108ad5760405162461bcd60e51b81526020600482015260116024820152704c6561646572206e6f742061637469766560781b6044820152606401610672565b6000908152600860209081526040808320600401805460ff19908116909155338452600a90925290912080549091169055565b6001600160a01b03821661090a57604051633250574960e11b815260006004820152602401610672565b6000610917838333611238565b9050836001600160a01b0316816001600160a01b031614610965576040516364283d7b60e01b81526001600160a01b0380861660048301526024820184905282166044820152606401610672565b50505050565b6109736111c5565b6006546040516001600160a01b03909116904780156108fc02916000818181858888f193505050501580156109ac573d6000803e3d6000fd5b50565b6109ca83838360405180602001604052806000815250610f46565b505050565b610a036040518060a00160405280606081526020016000815260200160008152602001600081526020016000151581525090565b6000828152600260205260409020546001600160a01b0316610a5e5760405162461bcd60e51b8152602060048201526014602482015273151bdad95b88191bd95cc81b9bdd08195e1a5cdd60621b6044820152606401610672565b60008281526008602052604090819020815160a08101909252805482908290610a8690611d3d565b80601f0160208091040260200160405190810160405280929190818152602001828054610ab290611d3d565b8015610aff5780601f10610ad457610100808354040283529160200191610aff565b820191906000526020600020905b815481529060010190602001808311610ae257829003601f168201915b505050918352505060018201546020820152600282015460408201526003820154606082015260049091015460ff16151560809091015292915050565b662386f26fc10000341015610b8a5760405162461bcd60e51b8152602060048201526014602482015273125b9cdd59999a58da595b9d081c185e5b595b9d60621b6044820152606401610672565b6103e860075410610bd35760405162461bcd60e51b815260206004820152601360248201527213585e081b195859195c9cc81c995858da1959606a1b6044820152606401610672565b6000815111610c245760405162461bcd60e51b815260206004820152601760248201527f436861726163746572206e616d652072657175697265640000000000000000006044820152606401610672565b60078054906000610c3483611d24565b9091555050600754610c463382611331565b6040805160a081018252838152426020808301919091526000828401819052606083018190526080830181905284815260089091529190912081518190610c8d9082611dbf565b506020828101516001838101919091556040808501516002850155606085015160038501556080909401516004909301805460ff191693151593909317909255336000818152600983528481208054948501815581529190912090910183905590517f23510047bad2a72b587269820cc61df07213faa331035c894dd8fd0a85958fcb90610d1e9084908690611e7f565b60405180910390a25050565b600061060d826111f2565b60006001600160a01b038216610d61576040516322718ad960e21b815260006004820152602401610672565b506001600160a01b031660009081526003602052604090205490565b610d856111c5565b610d8f6000611396565b565b6001600160a01b038116600090815260096020908152604080832080548251818502810185019093528083528493830182828015610dee57602002820191906000526020600020905b815481526020019060010190808311610dda575b5050505050905060005b8151811015610e685760086000838381518110610e1757610e17611e98565b60209081029190910181015182528101919091526040016000206004015460ff1615610e6057818181518110610e4f57610e4f611e98565b602002602001015192505050919050565b600101610df8565b5060009392505050565b60606001805461071a90611d3d565b6107d13383836113e8565b600860205260009081526040902080548190610ea790611d3d565b80601f0160208091040260200160405190810160405280929190818152602001828054610ed390611d3d565b8015610f205780601f10610ef557610100808354040283529160200191610f20565b820191906000526020600020905b815481529060010190602001808311610f0357829003601f168201915b505050506001830154600284015460038501546004909501549394919390925060ff1685565b610f518484846108e0565b6109653385858585611487565b6060610f69826111f2565b506000610f8160408051602081019091526000815290565b90506000815111610fa15760405180602001604052806000815250610fcc565b80610fab846115b2565b604051602001610fbc929190611eae565b6040516020818303038152906040525b9392505050565b33610fdd82610d2a565b6001600160a01b0316146110255760405162461bcd60e51b815260206004820152600f60248201526e2737ba103a37b5b2b71037bbb732b960891b6044820152606401610672565b336000908152600a602052604090205460ff16156110855760405162461bcd60e51b815260206004820152601960248201527f416c72656164792068617320616374697665206c6561646572000000000000006044820152606401610672565b60008181526008602090815260408083206004018054600160ff19918216811790925533808652600a85529483902080549091169091179055518381527fdb88aa2ab7407e337422d6d08cb09dc6101211e9a45d0a9b185196b690c625a7910160405180910390a250565b6001600160a01b03811660009081526009602090815260409182902080548351818402810184019094528084526060939283018282801561115057602002820191906000526020600020905b81548152602001906001019080831161113c575b50505050509050919050565b6001600160a01b03918216600090815260056020908152604080832093909416825291909152205460ff1690565b6111926111c5565b6001600160a01b0381166111bc57604051631e4fbdf760e01b815260006004820152602401610672565b6109ac81611396565b6006546001600160a01b03163314610d8f5760405163118cdaa760e01b8152336004820152602401610672565b6000818152600260205260408120546001600160a01b03168061060d57604051637e27328960e01b815260048101849052602401610672565b6109ca8383836001611645565b6000828152600260205260408120546001600160a01b03908116908316156112655761126581848661174b565b6001600160a01b038116156112a357611282600085600080611645565b6001600160a01b038116600090815260036020526040902080546000190190555b6001600160a01b038516156112d2576001600160a01b0385166000908152600360205260409020805460010190555b60008481526002602052604080822080546001600160a01b0319166001600160a01b0389811691821790925591518793918516917fddf252ad1be2c89b69c2b068fc378daa952ba7f163c4a11628f55a4df523b3ef91a4949350505050565b6001600160a01b03821661135b57604051633250574960e11b815260006004820152602401610672565b600061136983836000611238565b90506001600160a01b038116156109ca576040516339e3563760e11b815260006004820152602401610672565b600680546001600160a01b038381166001600160a01b0319831681179093556040519116919082907f8be0079c531659141344cd1fd0a4f28419497f9722a3daafe3b4186f6b6457e090600090a35050565b6001600160a01b03821661141a57604051630b61174360e31b81526001600160a01b0383166004820152602401610672565b6001600160a01b03838116600081815260056020908152604080832094871680845294825291829020805460ff191686151590811790915591519182527f17307eab39ab6107e8899845ad3d59bd9653f200f220920489ca2b5937696c31910160405180910390a3505050565b6001600160a01b0383163b156115ab57604051630a85bd0160e11b81526001600160a01b0384169063150b7a02906114c9908890889087908790600401611edd565b6020604051808303816000875af1925050508015611504575060408051601f3d908101601f1916820190925261150191810190611f1a565b60015b61156d573d808015611532576040519150601f19603f3d011682016040523d82523d6000602084013e611537565b606091505b50805160000361156557604051633250574960e11b81526001600160a01b0385166004820152602401610672565b805160208201fd5b6001600160e01b03198116630a85bd0160e11b146115a957604051633250574960e11b81526001600160a01b0385166004820152602401610672565b505b5050505050565b606060006115bf836117af565b600101905060008167ffffffffffffffff8111156115df576115df611ad0565b6040519080825280601f01601f191660200182016040528015611609576020820181803683370190505b5090508181016020015b600019016f181899199a1a9b1b9c1cb0b131b232b360811b600a86061a8153600a850494508461161357509392505050565b808061165957506001600160a01b03821615155b1561171b576000611669846111f2565b90506001600160a01b038316158015906116955750826001600160a01b0316816001600160a01b031614155b80156116a857506116a6818461115c565b155b156116d15760405163a9fbf51f60e01b81526001600160a01b0384166004820152602401610672565b81156117195783856001600160a01b0316826001600160a01b03167f8c5be1e5ebec7d5bd14f71427d1e84f3dd0314c0f7b2291e5b200ac8c7c3b92560405160405180910390a45b505b5050600090815260046020526040902080546001600160a01b0319166001600160a01b0392909216919091179055565b611756838383611887565b6109ca576001600160a01b03831661178457604051637e27328960e01b815260048101829052602401610672565b60405163177e802f60e01b81526001600160a01b038316600482015260248101829052604401610672565b60008072184f03e93ff9f4daa797ed6e38ed64bf6a1f0160401b83106117ee5772184f03e93ff9f4daa797ed6e38ed64bf6a1f0160401b830492506040015b6d04ee2d6d415b85acef8100000000831061181a576d04ee2d6d415b85acef8100000000830492506020015b662386f26fc10000831061183857662386f26fc10000830492506010015b6305f5e1008310611850576305f5e100830492506008015b612710831061186457612710830492506004015b60648310611876576064830492506002015b600a831061060d5760010192915050565b60006001600160a01b038316158015906118e55750826001600160a01b0316846001600160a01b031614806118c157506118c1848461115c565b806118e557506000828152600460205260409020546001600160a01b038481169116145b949350505050565b6001600160e01b0319811681146109ac57600080fd5b60006020828403121561191557600080fd5b8135610fcc816118ed565b8035801515811461193057600080fd5b919050565b60008060006060848603121561194a57600080fd5b833592506020840135915061196160408501611920565b90509250925092565b60005b8381101561198557818101518382015260200161196d565b50506000910152565b600081518084526119a681602086016020860161196a565b601f01601f19169290920160200192915050565b602081526000610fcc602083018461198e565b6000602082840312156119df57600080fd5b5035919050565b80356001600160a01b038116811461193057600080fd5b60008060408385031215611a1057600080fd5b611a19836119e6565b946020939093013593505050565b600080600060608486031215611a3c57600080fd5b611a45846119e6565b9250611a53602085016119e6565b9150604084013590509250925092565b602081526000825160a06020840152611a7f60c084018261198e565b90506020840151604084015260408401516060840152606084015160808401526080840151151560a08401528091505092915050565b600060208284031215611ac757600080fd5b610fcc826119e6565b634e487b7160e01b600052604160045260246000fd5b600067ffffffffffffffff80841115611b0157611b01611ad0565b604051601f8501601f19908116603f01168101908282118183101715611b2957611b29611ad0565b81604052809350858152868686011115611b4257600080fd5b858560208301376000602087830101525050509392505050565b600060208284031215611b6e57600080fd5b813567ffffffffffffffff811115611b8557600080fd5b8201601f81018413611b9657600080fd5b6118e584823560208401611ae6565b60008060408385031215611bb857600080fd5b611bc1836119e6565b9150611bcf60208401611920565b90509250929050565b60a081526000611beb60a083018861198e565b905085602083015284604083015283606083015282151560808301529695505050505050565b60008060008060808587031215611c2757600080fd5b611c30856119e6565b9350611c3e602086016119e6565b925060408501359150606085013567ffffffffffffffff811115611c6157600080fd5b8501601f81018713611c7257600080fd5b611c8187823560208401611ae6565b91505092959194509250565b6020808252825182820181905260009190848201906040850190845b81811015611cc557835183529284019291840191600101611ca9565b50909695505050505050565b60008060408385031215611ce457600080fd5b611ced836119e6565b9150611bcf602084016119e6565b634e487b7160e01b600052601160045260246000fd5b8082018082111561060d5761060d611cfb565b600060018201611d3657611d36611cfb565b5060010190565b600181811c90821680611d5157607f821691505b602082108103611d7157634e487b7160e01b600052602260045260246000fd5b50919050565b601f8211156109ca576000816000526020600020601f850160051c81016020861015611da05750805b601f850160051c820191505b818110156115a957828155600101611dac565b815167ffffffffffffffff811115611dd957611dd9611ad0565b611ded81611de78454611d3d565b84611d77565b602080601f831160018114611e225760008415611e0a5750858301515b600019600386901b1c1916600185901b1785556115a9565b600085815260208120601f198616915b82811015611e5157888601518255948401946001909101908401611e32565b5085821015611e6f5787850151600019600388901b60f8161c191681555b5050505050600190811b01905550565b8281526040602082015260006118e5604083018461198e565b634e487b7160e01b600052603260045260246000fd5b60008351611ec081846020880161196a565b835190830190611ed481836020880161196a565b01949350505050565b6001600160a01b0385811682528416602082015260408101839052608060608201819052600090611f109083018461198e565b9695505050505050565b600060208284031215611f2c57600080fd5b8151610fcc816118ed56fea2646970667358221220bd8ccfa9f462dd282b898513795379f3a3209025c53c3d7cb3bfad42fd22aaf264736f6c63430008170033",
  "linkReferences": {},
  "deployedLinkReferences": {}
}