{
  "_format": "hh-sol-artifact-1",
  "contractName": "GameRegistry",
  "sourceName": "contracts/GameRegistry.sol",
  "abi": [
    {
      "inputs": [],
      "name": "InsufficientGold",
      "type": "error"
    },
    {
      "inputs": [],
      "name": "InvalidItemId",
      "type": "error"
    },
    {
      "inputs": [],
      "name": "InvalidLevel",
      "type": "error"
    },
    {
      "inputs": [],
      "name": "InvalidQuantity",
      "type": "error"
    },
    {
      "anonymous": false,
      "inputs": [
        {
          "indexed": true,
          "internalType": "address",
          "name": "player",
          "type": "address"
        },
        {
          "indexed": false,
          "internalType": "uint256",
          "name": "amount",
          "type": "uint256"
        }
      ],
      "name": "ExperienceGained",
      "type": "event"
    },
    {
      "anonymous": false,
      "inputs": [
        {
          "indexed": true,
          "internalType": "address",
          "name": "player",
          "type": "address"
        },
        {
          "indexed": false,
          "internalType": "uint256",
          "name": "amount",
          "type": "uint256"
        }
      ],
      "name": "GoldEarned",
      "type": "event"
    },
    {
      "anonymous": false,
      "inputs": [
        {
          "indexed": true,
          "internalType": "address",
          "name": "player",
          "type": "address"
        },
        {
          "indexed": false,
          "internalType": "uint256",
          "name": "itemId",
          "type": "uint256"
        },
        {
          "indexed": false,
          "internalType": "uint256",
          "name": "quantity",
          "type": "uint256"
        }
      ],
      "name": "ItemMinted",
      "type": "event"
    },
    {
      "anonymous": false,
      "inputs": [
        {
          "indexed": true,
          "internalType": "address",
          "name": "player",
          "type": "address"
        },
        {
          "indexed": false,
          "internalType": "uint256",
          "name": "newLevel",
          "type": "uint256"
        }
      ],
      "name": "LevelUp",
      "type": "event"
    },
    {
      "anonymous": false,
      "inputs": [
        {
          "indexed": true,
          "internalType": "address",
          "name": "player",
          "type": "address"
        },
        {
          "indexed": false,
          "internalType": "uint256",
          "name": "level",
          "type": "uint256"
        },
        {
          "indexed": false,
          "internalType": "uint256",
          "name": "experience",
          "type": "uint256"
        },
        {
          "indexed": false,
          "internalType": "uint256",
          "name": "gold",
          "type": "uint256"
        }
      ],
      "name": "PlayerStateUpdated",
      "type": "event"
    },
    {
      "inputs": [
        {
          "internalType": "uint256[]",
          "name": "itemIds",
          "type": "uint256[]"
        },
        {
          "internalType": "uint256[]",
          "name": "quantities",
          "type": "uint256[]"
        },
        {
          "internalType": "uint256",
          "name": "goldReward",
          "type": "uint256"
        },
        {
          "internalType": "uint256",
          "name": "expReward",
          "type": "uint256"
        }
      ],
      "name": "batchClaimRewards",
      "outputs": [],
      "stateMutability": "nonpayable",
      "type": "function"
    },
    {
      "inputs": [
        {
          "internalType": "uint256",
          "name": "itemId",
          "type": "uint256"
        },
        {
          "internalType": "uint256",
          "name": "goldReward",
          "type": "uint256"
        }
      ],
      "name": "claimReward",
      "outputs": [],
      "stateMutability": "nonpayable",
      "type": "function"
    },
    {
      "inputs": [
        {
          "internalType": "uint256",
          "name": "expAmount",
          "type": "uint256"
        }
      ],
      "name": "gainExperience",
      "outputs": [],
      "stateMutability": "nonpayable",
      "type": "function"
    },
    {
      "inputs": [
        {
          "internalType": "address",
          "name": "player",
          "type": "address"
        },
        {
          "internalType": "uint256",
          "name": "itemId",
          "type": "uint256"
        }
      ],
      "name": "getItemQuantity",
      "outputs": [
        {
          "internalType": "uint256",
          "name": "",
          "type": "uint256"
        }
      ],
      "stateMutability": "view",
      "type": "function"
    },
    {
      "inputs": [
        {
          "internalType": "address",
          "name": "player",
          "type": "address"
        }
      ],
      "name": "getPlayerStats",
      "outputs": [
        {
          "internalType": "uint256",
          "name": "gold",
          "type": "uint256"
        },
        {
          "internalType": "uint256",
          "name": "experience",
          "type": "uint256"
        },
        {
          "internalType": "uint256",
          "name": "level",
          "type": "uint256"
        }
      ],
      "stateMutability": "view",
      "type": "function"
    },
    {
      "inputs": [
        {
          "internalType": "address",
          "name": "player",
          "type": "address"
        },
        {
          "internalType": "uint256",
          "name": "itemId",
          "type": "uint256"
        }
      ],
      "name": "hasItem",
      "outputs": [
        {
          "internalType": "bool",
          "name": "",
          "type": "bool"
        }
      ],
      "stateMutability": "view",
      "type": "function"
    },
    {
      "inputs": [
        {
          "internalType": "uint256",
          "name": "itemId",
          "type": "uint256"
        },
        {
          "internalType": "uint256",
          "name": "quantity",
          "type": "uint256"
        }
      ],
      "name": "mintItem",
      "outputs": [],
      "stateMutability": "nonpayable",
      "type": "function"
    },
    {
      "inputs": [
        {
          "internalType": "address",
          "name": "",
          "type": "address"
        }
      ],
      "name": "players",
      "outputs": [
        {
          "internalType": "uint256",
          "name": "gold",
          "type": "uint256"
        },
        {
          "internalType": "uint256",
          "name": "experience",
          "type": "uint256"
        },
        {
          "internalType": "uint256",
          "name": "level",
          "type": "uint256"
        }
      ],
      "stateMutability": "view",
      "type": "function"
    },
    {
      "inputs": [
        {
          "internalType": "uint256",
          "name": "newLevel",
          "type": "uint256"
        },
        {
          "internalType": "uint256",
          "name": "newExp",
          "type": "uint256"
        },
        {
          "internalType": "int256",
          "name": "goldChange",
          "type": "int256"
        }
      ],
      "name": "updatePlayerState",
      "outputs": [],
      "stateMutability": "nonpayable",
      "type": "function"
    }
  ],
  "bytecode": "0x608060405234801561001057600080fd5b50610b9c806100206000396000f3fe608060405234801561001057600080fd5b50600436106100935760003560e01c806386bb8f371161006657806386bb8f3714610139578063963c49c81461014c578063d1aad8041461015f578063e2eb41ff14610172578063fa5d7833146101a157600080fd5b80631a78656b14610098578063449de779146100ad5780634fd66eae146100c05780635baf068714610116575b600080fd5b6100ab6100a636600461093d565b6101e7565b005b6100ab6100bb366004610969565b6103b2565b6100f66100ce3660046109a7565b6001600160a01b03166000908152602081905260409020805460018201546002909201549092565b604080519384526020840192909252908201526060015b60405180910390f35b6101296101243660046109c9565b61047b565b604051901515815260200161010d565b6100ab610147366004610969565b6104aa565b6100ab61015a3660046109f3565b61059b565b6100ab61016d366004610a58565b610661565b6100f66101803660046109a7565b60006020819052908152604090208054600182015460029092015490919083565b6101d96101af3660046109c9565b6001600160a01b039190911660009081526020818152604080832093835260049093019052205490565b60405190815260200161010d565b336000908152602081905260409020600281015484101561021b5760405163d1459f7960e01b815260040160405180910390fd5b8060020154841115610264576002810184905560405184815233907f91e51c29e7e87a74ad3b8ccba98538970f50a4309242735467f41e27c6b0fbac9060200160405180910390a25b806001015483146102ac5760018101839055337ffc88aaf1c80f854cdb8d2c6f22b8c5bdc0390fa19b2bfe229d648637d668d0c7600060405190815260200160405180910390a25b600082131561030857818160000160008282546102c99190610aff565b909155505060405182815233907fbb3c0c38ea23914d108ee8b9dfa181efc58d5f81463c78178093ab51a04313db9060200160405180910390a261035e565b600082121561035e57600061031c83610b12565b905080826000015410156103435760405163113a164560e01b815260040160405180910390fd5b808260000160008282546103579190610aec565b9091555050505b6002810154600182015482546040805193845260208401929092529082015233907f080172b19b45176e5f32e488c1c79f6b916341d71a62525dd81b74bb23a560239060600160405180910390a250505050565b816000036103d35760405163a2ade61f60e01b815260040160405180910390fd5b806000036103f45760405163524f409b60e01b815260040160405180910390fd5b33600090815260208181526040808320858452600381018352818420805460ff19166001179055600481019092528220805491928492610435908490610aff565b9091555050604080518481526020810184905233917fd9be9c40c7e99dfc974fa3fe3b790af02afd2939b5dedfccb1ba12933eb27a8e91015b60405180910390a2505050565b6001600160a01b03821660009081526020818152604080832084845260030190915290205460ff165b92915050565b816000036104cb5760405163a2ade61f60e01b815260040160405180910390fd5b33600090815260208181526040808320858452600381018352818420805460ff1916600190811790915560048201909352908320805491939091610510908490610aff565b9091555050805482908290600090610529908490610aff565b9091555050604080518481526001602082015233917fd9be9c40c7e99dfc974fa3fe3b790af02afd2939b5dedfccb1ba12933eb27a8e910160405180910390a260405182815233907fbb3c0c38ea23914d108ee8b9dfa181efc58d5f81463c78178093ab51a04313db9060200161046e565b806000036105a65750565b336000908152602081905260408120600181018054919284926105ca908490610aff565b909155505060018101546000906105e4906103e890610b2e565b9050816002015481111561062f576002820181905560405181815233907f91e51c29e7e87a74ad3b8ccba98538970f50a4309242735467f41e27c6b0fbac9060200160405180910390a25b60405183815233907ffc88aaf1c80f854cdb8d2c6f22b8c5bdc0390fa19b2bfe229d648637d668d0c79060200161046e565b8483146106815760405163524f409b60e01b815260040160405180910390fd5b336000908152602081905260408120905b86811015610828578787828181106106ac576106ac610b50565b905060200201356000036106d35760405163a2ade61f60e01b815260040160405180910390fd5b8585828181106106e5576106e5610b50565b9050602002013560000361070c5760405163524f409b60e01b815260040160405180910390fd5b60018260030160008a8a8581811061072657610726610b50565b90506020020135815260200190815260200160002060006101000a81548160ff02191690831515021790555085858281811061076457610764610b50565b905060200201358260040160008a8a8581811061078357610783610b50565b90506020020135815260200190815260200160002060008282546107a79190610aff565b909155503390507fd9be9c40c7e99dfc974fa3fe3b790af02afd2939b5dedfccb1ba12933eb27a8e8989848181106107e1576107e1610b50565b905060200201358888858181106107fa576107fa610b50565b90506020020135604051610818929190918252602082015260400190565b60405180910390a2600101610692565b50821561087e57828160000160008282546108439190610aff565b909155505060405183815233907fbb3c0c38ea23914d108ee8b9dfa181efc58d5f81463c78178093ab51a04313db9060200160405180910390a25b811561093457818160010160008282546108989190610aff565b909155505060018101546000906108b2906103e890610b2e565b905081600201548111156108fd576002820181905560405181815233907f91e51c29e7e87a74ad3b8ccba98538970f50a4309242735467f41e27c6b0fbac9060200160405180910390a25b60405183815233907ffc88aaf1c80f854cdb8d2c6f22b8c5bdc0390fa19b2bfe229d648637d668d0c79060200160405180910390a2505b50505050505050565b60008060006060848603121561095257600080fd5b505081359360208301359350604090920135919050565b6000806040838503121561097c57600080fd5b50508035926020909101359150565b80356001600160a01b03811681146109a257600080fd5b919050565b6000602082840312156109b957600080fd5b6109c28261098b565b9392505050565b600080604083850312156109dc57600080fd5b6109e58361098b565b946020939093013593505050565b600060208284031215610a0557600080fd5b5035919050565b60008083601f840112610a1e57600080fd5b50813567ffffffffffffffff811115610a3657600080fd5b6020830191508360208260051b8501011115610a5157600080fd5b9250929050565b60008060008060008060808789031215610a7157600080fd5b863567ffffffffffffffff80821115610a8957600080fd5b610a958a838b01610a0c565b90985096506020890135915080821115610aae57600080fd5b50610abb89828a01610a0c565b979a9699509760408101359660609091013595509350505050565b634e487b7160e01b600052601160045260246000fd5b818103818111156104a4576104a4610ad6565b808201808211156104a4576104a4610ad6565b6000600160ff1b8201610b2757610b27610ad6565b5060000390565b600082610b4b57634e487b7160e01b600052601260045260246000fd5b500490565b634e487b7160e01b600052603260045260246000fdfea2646970667358221220a24130e0ef0a6e3836fa491bef5e12191b83ee95b1f4fe21d46b831b153603b564736f6c63430008170033",
  "linkReferences": {},
  "deployedLinkReferences": {}
}