{
  "_format": "hh-sol-artifact-1",
  "contractName": "TeamDelegation",
  "sourceName": "contracts/TeamDelegation.sol",
  "abi": [
    {
      "anonymous": false,
      "inputs": [
        {
          "indexed": true,
          "internalType": "address",
          "name": "owner",
          "type": "address"
        },
        {
          "indexed": true,
          "internalType": "address",
          "name": "delegate",
          "type": "address"
        },
        {
          "indexed": false,
          "internalType": "uint256",
          "name": "amount",
          "type": "uint256"
        }
      ],
      "name": "DelegatedSpend",
      "type": "event"
    },
    {
      "anonymous": false,
      "inputs": [
        {
          "indexed": true,
          "internalType": "address",
          "name": "owner",
          "type": "address"
        },
        {
          "indexed": true,
          "internalType": "address",
          "name": "delegate",
          "type": "address"
        },
        {
          "indexed": false,
          "internalType": "uint256",
          "name": "amount",
          "type": "uint256"
        },
        {
          "indexed": false,
          "internalType": "uint256",
          "name": "expiry",
          "type": "uint256"
        }
      ],
      "name": "PermissionDelegated",
      "type": "event"
    },
    {
      "anonymous": false,
      "inputs": [
        {
          "indexed": true,
          "internalType": "address",
          "name": "owner",
          "type": "address"
        },
        {
          "indexed": true,
          "internalType": "address",
          "name": "delegate",
          "type": "address"
        }
      ],
      "name": "PermissionRevoked",
      "type": "event"
    },
    {
      "anonymous": false,
      "inputs": [
        {
          "indexed": true,
          "internalType": "address",
          "name": "leader",
          "type": "address"
        },
        {
          "indexed": false,
          "internalType": "uint256",
          "name": "totalAmount",
          "type": "uint256"
        },
        {
          "indexed": false,
          "internalType": "uint256",
          "name": "memberCount",
          "type": "uint256"
        }
      ],
      "name": "TeamActionExecuted",
      "type": "event"
    },
    {
      "inputs": [
        {
          "internalType": "address",
          "name": "delegate",
          "type": "address"
        },
        {
          "internalType": "uint256",
          "name": "duration",
          "type": "uint256"
        }
      ],
      "name": "delegateToLeader",
      "outputs": [],
      "stateMutability": "payable",
      "type": "function"
    },
    {
      "inputs": [
        {
          "internalType": "address",
          "name": "",
          "type": "address"
        },
        {
          "internalType": "address",
          "name": "",
          "type": "address"
        }
      ],
      "name": "delegations",
      "outputs": [
        {
          "internalType": "uint256",
          "name": "amount",
          "type": "uint256"
        },
        {
          "internalType": "uint256",
          "name": "expiry",
          "type": "uint256"
        },
        {
          "internalType": "uint256",
          "name": "spent",
          "type": "uint256"
        },
        {
          "internalType": "bool",
          "name": "active",
          "type": "bool"
        }
      ],
      "stateMutability": "view",
      "type": "function"
    },
    {
      "inputs": [
        {
          "internalType": "address[]",
          "name": "owners",
          "type": "address[]"
        },
        {
          "internalType": "uint256[]",
          "name": "amounts",
          "type": "uint256[]"
        }
      ],
      "name": "executeTeamAction",
      "outputs": [],
      "stateMutability": "nonpayable",
      "type": "function"
    },
    {
      "inputs": [
        {
          "internalType": "address",
          "name": "owner",
          "type": "address"
        },
        {
          "internalType": "address",
          "name": "delegate",
          "type": "address"
        }
      ],
      "name": "getAvailableAmount",
      "outputs": [
        {
          "internalType": "uint256",
          "name": "",
          "type": "uint256"
        }
      ],
      "stateMutability": "view",
      "type": "function"
    },
    {
      "inputs": [
        {
          "internalType": "address",
          "name": "owner",
          "type": "address"
        },
        {
          "internalType": "address",
          "name": "delegate",
          "type": "address"
        }
      ],
      "name": "getDelegation",
      "outputs": [
        {
          "internalType": "uint256",
          "name": "amount",
          "type": "uint256"
        },
        {
          "internalType": "uint256",
          "name": "expiry",
          "type": "uint256"
        },
        {
          "internalType": "uint256",
          "name": "spent",
          "type": "uint256"
        },
        {
          "internalType": "bool",
          "name": "active",
          "type": "bool"
        },
        {
          "internalType": "uint256",
          "name": "available",
          "type": "uint256"
        }
      ],
      "stateMutability": "view",
      "type": "function"
    },
    {
      "inputs": [
        {
          "internalType": "address",
          "name": "leader",
          "type": "address"
        },
        {
          "internalType": "address[]",
          "name": "members",
          "type": "address[]"
        }
      ],
      "name": "getTotalPool",
      "outputs": [
        {
          "internalType": "uint256",
          "name": "",
          "type": "uint256"
        }
      ],
      "stateMutability": "view",
      "type": "function"
    },
    {
      "inputs": [
        {
          "internalType": "address",
          "name": "delegate",
          "type": "address"
        }
      ],
      "name": "revokePermission",
      "outputs": [],
      "stateMutability": "nonpayable",
      "type": "function"
    }
  ],
  "bytecode": "0x608060405234801561001057600080fd5b50610bbd806100206000396000f3fe6080604052600436106100705760003560e01c80637371edaa1161004e5780637371edaa146100f9578063a3bf5b9a14610127578063a88a32c214610147578063c64814dd1461016757600080fd5b806315049a5a1461007557806357e3822a146100c4578063643706d7146100d9575b600080fd5b34801561008157600080fd5b506100956100903660046109ab565b6101d6565b6040805195865260208601949094529284019190915215156060830152608082015260a0015b60405180910390f35b6100d76100d23660046109de565b610291565b005b3480156100e557600080fd5b506100d76100f4366004610a54565b61043e565b34801561010557600080fd5b506101196101143660046109ab565b61071e565b6040519081526020016100bb565b34801561013357600080fd5b506100d7610142366004610ac0565b6107b4565b34801561015357600080fd5b50610119610162366004610ae2565b6108b1565b34801561017357600080fd5b506101b46101823660046109ab565b600060208181529281526040808220909352908152208054600182015460028301546003909301549192909160ff1684565b60408051948552602085019390935291830152151560608201526080016100bb565b6001600160a01b03808316600090815260208181526040808320938516835292815282822083516080810185528154815260018201549281019290925260028101549382019390935260039092015460ff161580156060840181905291928392839283928392909183919061024e5750816020015142105b905060008161025e57600061026f565b6040830151835161026f9190610b4b565b83516020850151604090950151909c949b509950919750909550909350505050565b6001600160a01b0382166102df5760405162461bcd60e51b815260206004820152601060248201526f496e76616c69642064656c656761746560801b60448201526064015b60405180910390fd5b6000341161032f5760405162461bcd60e51b815260206004820152601960248201527f4d7573742073656e642045544820746f2064656c65676174650000000000000060448201526064016102d6565b600081116103725760405162461bcd60e51b815260206004820152601060248201526f24b73b30b634b210323ab930ba34b7b760811b60448201526064016102d6565b6040518060800160405280348152602001824261038f9190610b5e565b81526000602080830182905260016040938401819052338084528383528484206001600160a01b038916808652908452938590208651815592860151918301919091559284015160028201556060909301516003909301805460ff1916931515939093179092557f2408e3886c8d4c063e572f3e70905be35b1290f56ec47cc9ca2087062d3d20b8346104228542610b5e565b6040805192835260208301919091520160405180910390a35050565b82811461047f5760405162461bcd60e51b815260206004820152600f60248201526e098cadccee8d040dad2e6dac2e8c6d608b1b60448201526064016102d6565b826104c25760405162461bcd60e51b8152602060048201526013602482015272139bc81bdddb995c9cc81cdc1958da599a5959606a1b60448201526064016102d6565b6000805b848110156106ad5760008686838181106104e2576104e2610b71565b90506020020160208101906104f79190610ac0565b9050600085858481811061050d5761050d610b71565b6001600160a01b03851660009081526020818152604080832033845282529091206003810154929091029390930135935060ff1690506105875760405162461bcd60e51b815260206004820152601560248201527444656c65676174696f6e206e6f742061637469766560581b60448201526064016102d6565b806001015442106105cf5760405162461bcd60e51b815260206004820152601260248201527111195b1959d85d1a5bdb88195e1c1a5c995960721b60448201526064016102d6565b805460028201546105e1908490610b5e565b111561062f5760405162461bcd60e51b815260206004820152601d60248201527f496e73756666696369656e742064656c65676174656420616d6f756e7400000060448201526064016102d6565b818160020160008282546106439190610b5e565b9091555061065390508286610b5e565b9450336001600160a01b0316836001600160a01b03167fae37c5263af3024e9f2967c85acc14a7cd8aedbac0b3e1c79c66618dfd4c5a218460405161069a91815260200190565b60405180910390a35050506001016104c6565b50604051339082156108fc029083906000818181858888f193505050501580156106db573d6000803e3d6000fd5b50604080518281526020810186905233917f616d645823135ef16cc7628f8ed2dcefa184a73064cf6b7b60c007c497bd7421910160405180910390a25050505050565b6001600160a01b03808316600090815260208181526040808320938516835292815282822083516080810185528154815260018201549281019290925260028101549382019390935260039092015460ff1615801560608401529091908061078a575080602001514210155b156107995760009150506107ae565b604081015181516107aa9190610b4b565b9150505b92915050565b336000908152602081815260408083206001600160a01b03851684529091529020600381015460ff166108205760405162461bcd60e51b815260206004820152601460248201527327379030b1ba34bb32903232b632b3b0ba34b7b760611b60448201526064016102d6565b6002810154815460009161083391610b4b565b60038301805460ff191690559050801561087657604051339082156108fc029083906000818181858888f19350505050158015610874573d6000803e3d6000fd5b505b6040516001600160a01b0384169033907f5f708ef9fc37d19d88246c264788c8cdf640c9ff500bd168e941ea1421c4f6c490600090a3505050565b600080805b838110156109865760008060008787858181106108d5576108d5610b71565b90506020020160208101906108ea9190610ac0565b6001600160a01b03908116825260208083019390935260409182016000908120918b1681529083528190208151608081018352815481526001820154938101939093526002810154918301919091526003015460ff161580156060830181905291925061095a5750806020015142105b1561097d57604081015181516109709190610b4b565b61097a9084610b5e565b92505b506001016108b6565b50949350505050565b80356001600160a01b03811681146109a657600080fd5b919050565b600080604083850312156109be57600080fd5b6109c78361098f565b91506109d56020840161098f565b90509250929050565b600080604083850312156109f157600080fd5b6109fa8361098f565b946020939093013593505050565b60008083601f840112610a1a57600080fd5b50813567ffffffffffffffff811115610a3257600080fd5b6020830191508360208260051b8501011115610a4d57600080fd5b9250929050565b60008060008060408587031215610a6a57600080fd5b843567ffffffffffffffff80821115610a8257600080fd5b610a8e88838901610a08565b90965094506020870135915080821115610aa757600080fd5b50610ab487828801610a08565b95989497509550505050565b600060208284031215610ad257600080fd5b610adb8261098f565b9392505050565b600080600060408486031215610af757600080fd5b610b008461098f565b9250602084013567ffffffffffffffff811115610b1c57600080fd5b610b2886828701610a08565b9497909650939450505050565b634e487b7160e01b600052601160045260246000fd5b818103818111156107ae576107ae610b35565b808201808211156107ae576107ae610b35565b634e487b7160e01b600052603260045260246000fdfea264697066735822122014c88d09f59d082d868002d7ffef078c1ae86ad1c2e8cde1ff9894f67719f33d64736f6c63430008170033",
  "linkReferences": {},
  "deployedLinkReferences": {}
}