{
  "_format": "hh-sol-artifact-1",
  "contractName": "TeamPermissions",
  "sourceName": "contracts/TeamPermissions.sol",
  "abi": [
    {
      "anonymous": false,
      "inputs": [
        {
          "indexed": true,
          "internalType": "address",
          "name": "owner",
          "type": "address"
        },
        {
          "indexed": true,
          "internalType": "address",
          "name": "delegate",
          "type": "address"
        },
        {
          "indexed": false,
          "internalType": "uint256",
          "name": "amount",
          "type": "uint256"
        }
      ],
      "name": "FundsSpent",
      "type": "event"
    },
    {
      "anonymous": false,
      "inputs": [
        {
          "indexed": true,
          "internalType": "address",
          "name": "owner",
          "type": "address"
        },
        {
          "indexed": true,
          "internalType": "address",
          "name": "delegate",
          "type": "address"
        },
        {
          "indexed": false,
          "internalType": "uint256",
          "name": "maxAmount",
          "type": "uint256"
        },
        {
          "indexed": false,
          "internalType": "uint256",
          "name": "expiry",
          "type": "uint256"
        }
      ],
      "name": "PermissionGranted",
      "type": "event"
    },
    {
      "anonymous": false,
      "inputs": [
        {
          "indexed": true,
          "internalType": "address",
          "name": "owner",
          "type": "address"
        },
        {
          "indexed": true,
          "internalType": "address",
          "name": "delegate",
          "type": "address"
        }
      ],
      "name": "PermissionRevoked",
      "type": "event"
    },
    {
      "anonymous": false,
      "inputs": [
        {
          "indexed": true,
          "internalType": "address",
          "name": "leader",
          "type": "address"
        },
        {
          "indexed": false,
          "internalType": "uint256",
          "name": "totalAmount",
          "type": "uint256"
        },
        {
          "indexed": false,
          "internalType": "uint256",
          "name": "memberCount",
          "type": "uint256"
        }
      ],
      "name": "TeamActionExecuted",
      "type": "event"
    },
    {
      "inputs": [
        {
          "internalType": "address",
          "name": "owner",
          "type": "address"
        },
        {
          "internalType": "address",
          "name": "delegate",
          "type": "address"
        }
      ],
      "name": "getAvailableAmount",
      "outputs": [
        {
          "internalType": "uint256",
          "name": "",
          "type": "uint256"
        }
      ],
      "stateMutability": "view",
      "type": "function"
    },
    {
      "inputs": [
        {
          "internalType": "address",
          "name": "owner",
          "type": "address"
        },
        {
          "internalType": "address",
          "name": "delegate",
          "type": "address"
        }
      ],
      "name": "getPermission",
      "outputs": [
        {
          "internalType": "uint256",
          "name": "maxAmount",
          "type": "uint256"
        },
        {
          "internalType": "uint256",
          "name": "spent",
          "type": "uint256"
        },
        {
          "internalType": "uint256",
          "name": "expiry",
          "type": "uint256"
        },
        {
          "internalType": "bool",
          "name": "active",
          "type": "bool"
        },
        {
          "internalType": "uint256",
          "name": "available",
          "type": "uint256"
        }
      ],
      "stateMutability": "view",
      "type": "function"
    },
    {
      "inputs": [
        {
          "internalType": "address",
          "name": "leader",
          "type": "address"
        },
        {
          "internalType": "address[]",
          "name": "members",
          "type": "address[]"
        }
      ],
      "name": "getTotalPool",
      "outputs": [
        {
          "internalType": "uint256",
          "name": "",
          "type": "uint256"
        }
      ],
      "stateMutability": "view",
      "type": "function"
    },
    {
      "inputs": [
        {
          "internalType": "address",
          "name": "delegate",
          "type": "address"
        },
        {
          "internalType": "uint256",
          "name": "maxAmount",
          "type": "uint256"
        },
        {
          "internalType": "uint256",
          "name": "duration",
          "type": "uint256"
        }
      ],
      "name": "grantPermission",
      "outputs": [],
      "stateMutability": "nonpayable",
      "type": "function"
    },
    {
      "inputs": [
        {
          "internalType": "address",
          "name": "delegate",
          "type": "address"
        },
        {
          "internalType": "uint256",
          "name": "additionalAmount",
          "type": "uint256"
        }
      ],
      "name": "increasePermission",
      "outputs": [],
      "stateMutability": "nonpayable",
      "type": "function"
    },
    {
      "inputs": [
        {
          "internalType": "address",
          "name": "",
          "type": "address"
        },
        {
          "internalType": "address",
          "name": "",
          "type": "address"
        }
      ],
      "name": "permissions",
      "outputs": [
        {
          "internalType": "uint256",
          "name": "maxAmount",
          "type": "uint256"
        },
        {
          "internalType": "uint256",
          "name": "spent",
          "type": "uint256"
        },
        {
          "internalType": "uint256",
          "name": "expiry",
          "type": "uint256"
        },
        {
          "internalType": "bool",
          "name": "active",
          "type": "bool"
        }
      ],
      "stateMutability": "view",
      "type": "function"
    },
    {
      "inputs": [
        {
          "internalType": "address",
          "name": "delegate",
          "type": "address"
        }
      ],
      "name": "revokePermission",
      "outputs": [],
      "stateMutability": "nonpayable",
      "type": "function"
    },
    {
      "inputs": [
        {
          "internalType": "address payable[]",
          "name": "owners",
          "type": "address[]"
        },
        {
          "internalType": "uint256[]",
          "name": "amounts",
          "type": "uint256[]"
        }
      ],
      "name": "spendFromTeam",
      "outputs": [],
      "stateMutability": "nonpayable",
      "type": "function"
    }
  ],
  "bytecode": "0x608060405234801561001057600080fd5b50610cb9806100206000396000f3fe608060405234801561001057600080fd5b50600436106100885760003560e01c80637371edaa1161005b5780637371edaa1461012f578063910185dd14610150578063a3bf5b9a1461018d578063a88a32c2146101a057600080fd5b80631f9838b51461008d5780632aa77d45146100f4578063599986ba146101095780635ee2429b1461011c575b600080fd5b6100cd61009b366004610a66565b600060208181529281526040808220909352908152208054600182015460028301546003909301549192909160ff1684565b60408051948552602085019390935291830152151560608201526080015b60405180910390f35b610107610102366004610a9f565b6101b3565b005b610107610117366004610b17565b6102d9565b61010761012a366004610b83565b6105dc565b61014261013d366004610a66565b61076d565b6040519081526020016100eb565b61016361015e366004610a66565b610803565b6040805195865260208601949094529284019190915215156060830152608082015260a0016100eb565b61010761019b366004610bb8565b6108be565b6101426101ae366004610bdc565b610970565b336000908152602081815260408083206001600160a01b03861684529091529020600381015460ff166102245760405162461bcd60e51b815260206004820152601460248201527327379030b1ba34bb32903832b936b4b9b9b4b7b760611b60448201526064015b60405180910390fd5b8060020154421061026c5760405162461bcd60e51b815260206004820152601260248201527114195c9b5a5cdcda5bdb88195e1c1a5c995960721b604482015260640161021b565b818160000160008282546102809190610c47565b9091555050805460028201546040805192835260208301919091526001600160a01b0385169133917f47e8fe1cf951ed6c2bd6e674655fb4f681a72e9a2a7bcb56fddfecb4c23afcc591015b60405180910390a3505050565b82811461031a5760405162461bcd60e51b815260206004820152600f60248201526e098cadccee8d040dad2e6dac2e8c6d608b1b604482015260640161021b565b8261035d5760405162461bcd60e51b8152602060048201526013602482015272139bc81bdddb995c9cc81cdc1958da599a5959606a1b604482015260640161021b565b6000805b8481101561059957600086868381811061037d5761037d610c5a565b90506020020160208101906103929190610bb8565b905060008585848181106103a8576103a8610c5a565b6001600160a01b03851660009081526020818152604080832033845282529091206003810154929091029390930135935060ff1690506104225760405162461bcd60e51b81526020600482015260156024820152745065726d697373696f6e206e6f742061637469766560581b604482015260640161021b565b8060020154421061046a5760405162461bcd60e51b815260206004820152601260248201527114195c9b5a5cdcda5bdb88195e1c1a5c995960721b604482015260640161021b565b8054600182015461047c908490610c47565b11156104ca5760405162461bcd60e51b815260206004820152601860248201527f45786365656473207065726d697474656420616d6f756e740000000000000000604482015260640161021b565b81836001600160a01b031631101561051b5760405162461bcd60e51b8152602060048201526014602482015273496e73756666696369656e742062616c616e636560601b604482015260640161021b565b8181600101600082825461052f9190610c47565b9091555061053f90508286610c47565b9450336001600160a01b0316836001600160a01b03167fa6b5ff986627794655ee0966b919cb8ce3b7b374629f5e71b1ba4f4598da1bba8460405161058691815260200190565b60405180910390a3505050600101610361565b50604080518281526020810186905233917f616d645823135ef16cc7628f8ed2dcefa184a73064cf6b7b60c007c497bd7421910160405180910390a25050505050565b6001600160a01b0383166106255760405162461bcd60e51b815260206004820152601060248201526f496e76616c69642064656c656761746560801b604482015260640161021b565b600082116106665760405162461bcd60e51b815260206004820152600e60248201526d125b9d985b1a5908185b5bdd5b9d60921b604482015260640161021b565b600081116106a95760405162461bcd60e51b815260206004820152601060248201526f24b73b30b634b210323ab930ba34b7b760811b604482015260640161021b565b60408051608081018252838152600060208201529081016106ca8342610c47565b81526001602091820181905233600081815280845260408082206001600160a01b038a16808452908652918190208651815594860151938501939093559184015160028401556060909301516003909201805460ff191692151592909217909155907f47e8fe1cf951ed6c2bd6e674655fb4f681a72e9a2a7bcb56fddfecb4c23afcc5846107588542610c47565b604080519283526020830191909152016102cc565b6001600160a01b03808316600090815260208181526040808320938516835292815282822083516080810185528154815260018201549281019290925260028101549382019390935260039092015460ff161580156060840152909190806107d9575080604001514210155b156107e85760009150506107fd565b602081015181516107f99190610c70565b9150505b92915050565b6001600160a01b03808316600090815260208181526040808320938516835292815282822083516080810185528154815260018201549281019290925260028101549382019390935260039092015460ff161580156060840181905291928392839283928392909183919061087b5750816040015142105b905060008161088b57600061089c565b6020830151835161089c9190610c70565b83516020850151604090950151909c949b509950919750909550909350505050565b336000908152602081815260408083206001600160a01b03851684529091529020600381015460ff1661092a5760405162461bcd60e51b815260206004820152601460248201527327379030b1ba34bb32903832b936b4b9b9b4b7b760611b604482015260640161021b565b60038101805460ff191690556040516001600160a01b0383169033907f5f708ef9fc37d19d88246c264788c8cdf640c9ff500bd168e941ea1421c4f6c490600090a35050565b600080805b83811015610a4557600080600087878581811061099457610994610c5a565b90506020020160208101906109a99190610bb8565b6001600160a01b03908116825260208083019390935260409182016000908120918b1681529083528190208151608081018352815481526001820154938101939093526002810154918301919091526003015460ff1615801560608301819052919250610a195750806040015142105b15610a3c5760208101518151610a2f9190610c70565b610a399084610c47565b92505b50600101610975565b50949350505050565b6001600160a01b0381168114610a6357600080fd5b50565b60008060408385031215610a7957600080fd5b8235610a8481610a4e565b91506020830135610a9481610a4e565b809150509250929050565b60008060408385031215610ab257600080fd5b8235610abd81610a4e565b946020939093013593505050565b60008083601f840112610add57600080fd5b50813567ffffffffffffffff811115610af557600080fd5b6020830191508360208260051b8501011115610b1057600080fd5b9250929050565b60008060008060408587031215610b2d57600080fd5b843567ffffffffffffffff80821115610b4557600080fd5b610b5188838901610acb565b90965094506020870135915080821115610b6a57600080fd5b50610b7787828801610acb565b95989497509550505050565b600080600060608486031215610b9857600080fd5b8335610ba381610a4e565b95602085013595506040909401359392505050565b600060208284031215610bca57600080fd5b8135610bd581610a4e565b9392505050565b600080600060408486031215610bf157600080fd5b8335610bfc81610a4e565b9250602084013567ffffffffffffffff811115610c1857600080fd5b610c2486828701610acb565b9497909650939450505050565b634e487b7160e01b600052601160045260246000fd5b808201808211156107fd576107fd610c31565b634e487b7160e01b600052603260045260246000fd5b818103818111156107fd576107fd610c3156fea26469706673582212200c43132c57bb59d29d2e94294206f7b407d05ba6b1fb086c7b95372696afb0ab64736f6c63430008170033",
  "linkReferences": {},
  "deployedLinkReferences": {}
}