{
  "_format": "hh-sol-artifact-1",
  "contractName": "ERC20Permissions",
  "sourceName": "contracts/ERC20Permissions.sol",
  "abi": [
    {
      "inputs": [
        {
          "internalType": "address",
          "name": "_token",
          "type": "address"
        }
      ],
      "stateMutability": "nonpayable",
      "type": "constructor"
    },
    {
      "anonymous": false,
      "inputs": [
        {
          "indexed": true,
          "internalType": "address",
          "name": "owner",
          "type": "address"
        },
        {
          "indexed": true,
          "internalType": "address",
          "name": "delegate",
          "type": "address"
        },
        {
          "indexed": false,
          "internalType": "uint256",
          "name": "amount",
          "type": "uint256"
        }
      ],
      "name": "FundsSpent",
      "type": "event"
    },
    {
      "anonymous": false,
      "inputs": [
        {
          "indexed": true,
          "internalType": "address",
          "name": "owner",
          "type": "address"
        },
        {
          "indexed": true,
          "internalType": "address",
          "name": "delegate",
          "type": "address"
        },
        {
          "indexed": false,
          "internalType": "uint256",
          "name": "maxAmount",
          "type": "uint256"
        },
        {
          "indexed": false,
          "internalType": "uint256",
          "name": "expiry",
          "type": "uint256"
        }
      ],
      "name": "PermissionGranted",
      "type": "event"
    },
    {
      "anonymous": false,
      "inputs": [
        {
          "indexed": true,
          "internalType": "address",
          "name": "owner",
          "type": "address"
        },
        {
          "indexed": true,
          "internalType": "address",
          "name": "delegate",
          "type": "address"
        },
        {
          "indexed": false,
          "internalType": "uint256",
          "name": "newMaxAmount",
          "type": "uint256"
        }
      ],
      "name": "PermissionIncreased",
      "type": "event"
    },
    {
      "anonymous": false,
      "inputs": [
        {
          "indexed": true,
          "internalType": "address",
          "name": "owner",
          "type": "address"
        },
        {
          "indexed": true,
          "internalType": "address",
          "name": "delegate",
          "type": "address"
        }
      ],
      "name": "PermissionRevoked",
      "type": "event"
    },
    {
      "anonymous": false,
      "inputs": [
        {
          "indexed": true,
          "internalType": "address",
          "name": "leader",
          "type": "address"
        },
        {
          "indexed": false,
          "internalType": "uint256",
          "name": "totalAmount",
          "type": "uint256"
        },
        {
          "indexed": false,
          "internalType": "uint256",
          "name": "memberCount",
          "type": "uint256"
        }
      ],
      "name": "TeamActionExecuted",
      "type": "event"
    },
    {
      "inputs": [
        {
          "internalType": "address[]",
          "name": "owners",
          "type": "address[]"
        },
        {
          "internalType": "uint256[]",
          "name": "amounts",
          "type": "uint256[]"
        }
      ],
      "name": "executeTeamAction",
      "outputs": [],
      "stateMutability": "nonpayable",
      "type": "function"
    },
    {
      "inputs": [
        {
          "internalType": "address",
          "name": "owner",
          "type": "address"
        },
        {
          "internalType": "address",
          "name": "delegate",
          "type": "address"
        }
      ],
      "name": "getAvailableAmount",
      "outputs": [
        {
          "internalType": "uint256",
          "name": "",
          "type": "uint256"
        }
      ],
      "stateMutability": "view",
      "type": "function"
    },
    {
      "inputs": [
        {
          "internalType": "address",
          "name": "owner",
          "type": "address"
        },
        {
          "internalType": "address",
          "name": "delegate",
          "type": "address"
        }
      ],
      "name": "getPermission",
      "outputs": [
        {
          "internalType": "uint256",
          "name": "maxAmount",
          "type": "uint256"
        },
        {
          "internalType": "uint256",
          "name": "spent",
          "type": "uint256"
        },
        {
          "internalType": "uint256",
          "name": "expiry",
          "type": "uint256"
        },
        {
          "internalType": "bool",
          "name": "active",
          "type": "bool"
        },
        {
          "internalType": "uint256",
          "name": "available",
          "type": "uint256"
        }
      ],
      "stateMutability": "view",
      "type": "function"
    },
    {
      "inputs": [
        {
          "internalType": "address",
          "name": "leader",
          "type": "address"
        },
        {
          "internalType": "address[]",
          "name": "members",
          "type": "address[]"
        }
      ],
      "name": "getTotalPool",
      "outputs": [
        {
          "internalType": "uint256",
          "name": "",
          "type": "uint256"
        }
      ],
      "stateMutability": "view",
      "type": "function"
    },
    {
      "inputs": [
        {
          "internalType": "address",
          "name": "delegate",
          "type": "address"
        },
        {
          "internalType": "uint256",
          "name": "maxAmount",
          "type": "uint256"
        },
        {
          "internalType": "uint256",
          "name": "duration",
          "type": "uint256"
        }
      ],
      "name": "grantPermission",
      "outputs": [],
      "stateMutability": "nonpayable",
      "type": "function"
    },
    {
      "inputs": [
        {
          "internalType": "address",
          "name": "delegate",
          "type": "address"
        },
        {
          "internalType": "uint256",
          "name": "additionalAmount",
          "type": "uint256"
        }
      ],
      "name": "increasePermission",
      "outputs": [],
      "stateMutability": "nonpayable",
      "type": "function"
    },
    {
      "inputs": [
        {
          "internalType": "address",
          "name": "",
          "type": "address"
        },
        {
          "internalType": "address",
          "name": "",
          "type": "address"
        }
      ],
      "name": "permissions",
      "outputs": [
        {
          "internalType": "uint256",
          "name": "maxAmount",
          "type": "uint256"
        },
        {
          "internalType": "uint256",
          "name": "spent",
          "type": "uint256"
        },
        {
          "internalType": "uint256",
          "name": "expiry",
          "type": "uint256"
        },
        {
          "internalType": "bool",
          "name": "active",
          "type": "bool"
        }
      ],
      "stateMutability": "view",
      "type": "function"
    },
    {
      "inputs": [
        {
          "internalType": "address",
          "name": "delegate",
          "type": "address"
        }
      ],
      "name": "revokePermission",
      "outputs": [],
      "stateMutability": "nonpayable",
      "type": "function"
    },
    {
      "inputs": [],
      "name": "token",
      "outputs": [
        {
          "internalType": "contract IERC20",
          "name": "",
          "type": "address"
        }
      ],
      "stateMutability": "view",
      "type": "function"
    }
  ],
  "bytecode": "0x60a060405234801561001057600080fd5b506040516111c53803806111c583398101604081905261002f9161008a565b6001600160a01b0381166100795760405162461bcd60e51b815260206004820152600d60248201526c24b73b30b634b2103a37b5b2b760991b604482015260640160405180910390fd5b6001600160a01b03166080526100ba565b60006020828403121561009c57600080fd5b81516001600160a01b03811681146100b357600080fd5b9392505050565b6080516110d46100f1600039600081816101c3015281816102d101528181610505015281816105e201526109db01526110d46000f3fe608060405234801561001057600080fd5b50600436106100935760003560e01c80637371edaa116100665780637371edaa1461013a578063910185dd1461015b578063a3bf5b9a14610198578063a88a32c2146101ab578063fc0c546a146101be57600080fd5b80631f9838b5146100985780632aa77d45146100ff5780635ee2429b14610114578063643706d714610127575b600080fd5b6100d86100a6366004610e54565b600060208181529281526040808220909352908152208054600182015460028301546003909301549192909160ff1684565b60408051948552602085019390935291830152151560608201526080015b60405180910390f35b61011261010d366004610e87565b6101fd565b005b610112610122366004610eb1565b610412565b610112610135366004610f30565b6107c5565b61014d610148366004610e54565b610b57565b6040519081526020016100f6565b61016e610169366004610e54565b610bed565b6040805195865260208601949094529284019190915215156060830152608082015260a0016100f6565b6101126101a6366004610f9c565b610ca8565b61014d6101b9366004610fbe565b610d5a565b6101e57f000000000000000000000000000000000000000000000000000000000000000081565b6040516001600160a01b0390911681526020016100f6565b600081116102475760405162461bcd60e51b81526020600482015260126024820152710416d6f756e74206d757374206265203e20360741b60448201526064015b60405180910390fd5b336000908152602081815260408083206001600160a01b03861684529091529020600381015460ff166102b35760405162461bcd60e51b815260206004820152601460248201527327379030b1ba34bb32903832b936b4b9b9b4b7b760611b604482015260640161023e565b604051636eb1769f60e11b81523360048201523060248201526000907f00000000000000000000000000000000000000000000000000000000000000006001600160a01b03169063dd62ed3e90604401602060405180830381865afa158015610320573d6000803e3d6000fd5b505050506040513d601f19601f820116820180604052508101906103449190611011565b905060008260010154836000015461035c9190611040565b90506103688482611053565b8210156103b05760405162461bcd60e51b8152602060048201526016602482015275496e73756666696369656e7420616c6c6f77616e636560501b604482015260640161023e565b838360000160008282546103c49190611053565b909155505082546040519081526001600160a01b0386169033907fd0079448be1fcced370f8bac10087f0cd361ff575b87c7b23da6f4f5cc7e03889060200160405180910390a35050505050565b6001600160a01b03831661045b5760405162461bcd60e51b815260206004820152601060248201526f496e76616c69642064656c656761746560801b604482015260640161023e565b600082116104a45760405162461bcd60e51b815260206004820152601660248201527504d617820616d6f756e74206d757374206265203e20360541b604482015260640161023e565b600081116104e75760405162461bcd60e51b815260206004820152601060248201526f24b73b30b634b210323ab930ba34b7b760811b604482015260640161023e565b604051636eb1769f60e11b81523360048201523060248201526000907f00000000000000000000000000000000000000000000000000000000000000006001600160a01b03169063dd62ed3e90604401602060405180830381865afa158015610554573d6000803e3d6000fd5b505050506040513d601f19601f820116820180604052508101906105789190611011565b9050828110156105ca5760405162461bcd60e51b815260206004820152601c60248201527f496e73756666696369656e7420746f6b656e20616c6c6f77616e636500000000604482015260640161023e565b6040516370a0823160e01b81523360048201526000907f00000000000000000000000000000000000000000000000000000000000000006001600160a01b0316906370a0823190602401602060405180830381865afa158015610631573d6000803e3d6000fd5b505050506040513d601f19601f820116820180604052508101906106559190611011565b9050838110156106a75760405162461bcd60e51b815260206004820152601a60248201527f496e73756666696369656e7420746f6b656e2062616c616e6365000000000000604482015260640161023e565b336000908152602081815260408083206001600160a01b03891684529091529020600381015460ff161561074557848160000160008282546106e99190611053565b909155506106f990508442611053565b600282015580546040519081526001600160a01b0387169033907fd0079448be1fcced370f8bac10087f0cd361ff575b87c7b23da6f4f5cc7e03889060200160405180910390a36107bd565b848155600060018201556107598442611053565b600282015560038101805460ff191660011790556001600160a01b038616337f47e8fe1cf951ed6c2bd6e674655fb4f681a72e9a2a7bcb56fddfecb4c23afcc5876107a48842611053565b6040805192835260208301919091520160405180910390a35b505050505050565b8281146108065760405162461bcd60e51b815260206004820152600f60248201526e098cadccee8d040dad2e6dac2e8c6d608b1b604482015260640161023e565b8261083f5760405162461bcd60e51b81526020600482015260096024820152684e6f206f776e65727360b81b604482015260640161023e565b6000805b84811015610b1457600086868381811061085f5761085f611066565b90506020020160208101906108749190610f9c565b9050600085858481811061088a5761088a611066565b6001600160a01b03851660009081526020818152604080832033845282529091206003810154929091029390930135935060ff1690506109045760405162461bcd60e51b81526020600482015260156024820152745065726d697373696f6e206e6f742061637469766560581b604482015260640161023e565b8060020154421061094c5760405162461bcd60e51b815260206004820152601260248201527114195c9b5a5cdcda5bdb88195e1c1a5c995960721b604482015260640161023e565b8054600182015461095e908490611053565b11156109ac5760405162461bcd60e51b815260206004820152601860248201527f45786365656473207065726d697373696f6e206c696d69740000000000000000604482015260640161023e565b6040516323b872dd60e01b81526001600160a01b038481166004830152336024830152604482018490526000917f0000000000000000000000000000000000000000000000000000000000000000909116906323b872dd906064016020604051808303816000875af1158015610a26573d6000803e3d6000fd5b505050506040513d601f19601f82011682018060405250810190610a4a919061107c565b905080610a915760405162461bcd60e51b8152602060048201526015602482015274151bdad95b881d1c985b9cd9995c8819985a5b1959605a1b604482015260640161023e565b82826001016000828254610aa59190611053565b90915550610ab590508387611053565b9550336001600160a01b0316846001600160a01b03167fa6b5ff986627794655ee0966b919cb8ce3b7b374629f5e71b1ba4f4598da1bba85604051610afc91815260200190565b60405180910390a35050600190920191506108439050565b50604080518281526020810186905233917f616d645823135ef16cc7628f8ed2dcefa184a73064cf6b7b60c007c497bd7421910160405180910390a25050505050565b6001600160a01b03808316600090815260208181526040808320938516835292815282822083516080810185528154815260018201549281019290925260028101549382019390935260039092015460ff16158015606084015290919080610bc3575080604001514210155b15610bd2576000915050610be7565b60208101518151610be39190611040565b9150505b92915050565b6001600160a01b03808316600090815260208181526040808320938516835292815282822083516080810185528154815260018201549281019290925260028101549382019390935260039092015460ff1615801560608401819052919283928392839283929091839190610c655750816040015142105b9050600081610c75576000610c86565b60208301518351610c869190611040565b83516020850151604090950151909c949b509950919750909550909350505050565b336000908152602081815260408083206001600160a01b03851684529091529020600381015460ff16610d145760405162461bcd60e51b815260206004820152601460248201527327379030b1ba34bb32903832b936b4b9b9b4b7b760611b604482015260640161023e565b60038101805460ff191690556040516001600160a01b0383169033907f5f708ef9fc37d19d88246c264788c8cdf640c9ff500bd168e941ea1421c4f6c490600090a35050565b600080805b83811015610e2f576000806000878785818110610d7e57610d7e611066565b9050602002016020810190610d939190610f9c565b6001600160a01b03908116825260208083019390935260409182016000908120918b1681529083528190208151608081018352815481526001820154938101939093526002810154918301919091526003015460ff1615801560608301819052919250610e035750806040015142105b15610e265760208101518151610e199190611040565b610e239084611053565b92505b50600101610d5f565b50949350505050565b80356001600160a01b0381168114610e4f57600080fd5b919050565b60008060408385031215610e6757600080fd5b610e7083610e38565b9150610e7e60208401610e38565b90509250929050565b60008060408385031215610e9a57600080fd5b610ea383610e38565b946020939093013593505050565b600080600060608486031215610ec657600080fd5b610ecf84610e38565b95602085013595506040909401359392505050565b60008083601f840112610ef657600080fd5b50813567ffffffffffffffff811115610f0e57600080fd5b6020830191508360208260051b8501011115610f2957600080fd5b9250929050565b60008060008060408587031215610f4657600080fd5b843567ffffffffffffffff80821115610f5e57600080fd5b610f6a88838901610ee4565b90965094506020870135915080821115610f8357600080fd5b50610f9087828801610ee4565b95989497509550505050565b600060208284031215610fae57600080fd5b610fb782610e38565b9392505050565b600080600060408486031215610fd357600080fd5b610fdc84610e38565b9250602084013567ffffffffffffffff811115610ff857600080fd5b61100486828701610ee4565b9497909650939450505050565b60006020828403121561102357600080fd5b5051919050565b634e487b7160e01b600052601160045260246000fd5b81810381811115610be757610be761102a565b80820180821115610be757610be761102a565b634e487b7160e01b600052603260045260246000fd5b60006020828403121561108e57600080fd5b81518015158114610fb757600080fdfea26469706673582212205f0834f11999aeb5bfe552fa8b5e2d4b28cad8c97749cab45e836499b0e07e7864736f6c63430008170033",
  "linkReferences": {},
  "deployedLinkReferences": {}
}