{
  "_format": "hh-sol-artifact-1",
  "contractName": "AdvancedPermissions",
  "sourceName": "contracts/AdvancedPermissions.sol",
  "abi": [
    {
      "anonymous": false,
      "inputs": [
        {
          "indexed": true,
          "internalType": "address",
          "name": "owner",
          "type": "address"
        },
        {
          "indexed": true,
          "internalType": "address",
          "name": "delegate",
          "type": "address"
        },
        {
          "indexed": false,
          "internalType": "uint256",
          "name": "amount",
          "type": "uint256"
        }
      ],
      "name": "FundsSpent",
      "type": "event"
    },
    {
      "anonymous": false,
      "inputs": [
        {
          "indexed": true,
          "internalType": "address",
          "name": "owner",
          "type": "address"
        },
        {
          "indexed": true,
          "internalType": "address",
          "name": "delegate",
          "type": "address"
        },
        {
          "indexed": false,
          "internalType": "uint256",
          "name": "maxAmount",
          "type": "uint256"
        },
        {
          "indexed": false,
          "internalType": "uint256",
          "name": "expiry",
          "type": "uint256"
        }
      ],
      "name": "PermissionGranted",
      "type": "event"
    },
    {
      "anonymous": false,
      "inputs": [
        {
          "indexed": true,
          "internalType": "address",
          "name": "owner",
          "type": "address"
        },
        {
          "indexed": true,
          "internalType": "address",
          "name": "delegate",
          "type": "address"
        }
      ],
      "name": "PermissionRevoked",
      "type": "event"
    },
    {
      "anonymous": false,
      "inputs": [
        {
          "indexed": true,
          "internalType": "address",
          "name": "leader",
          "type": "address"
        },
        {
          "indexed": false,
          "internalType": "uint256",
          "name": "totalAmount",
          "type": "uint256"
        },
        {
          "indexed": false,
          "internalType": "uint256",
          "name": "memberCount",
          "type": "uint256"
        }
      ],
      "name": "TeamActionExecuted",
      "type": "event"
    },
    {
      "inputs": [
        {
          "internalType": "address[]",
          "name": "owners",
          "type": "address[]"
        },
        {
          "internalType": "uint256[]",
          "name": "amounts",
          "type": "uint256[]"
        }
      ],
      "name": "executeTeamAction",
      "outputs": [],
      "stateMutability": "payable",
      "type": "function"
    },
    {
      "inputs": [
        {
          "internalType": "address",
          "name": "owner",
          "type": "address"
        },
        {
          "internalType": "address",
          "name": "delegate",
          "type": "address"
        }
      ],
      "name": "getAvailableAmount",
      "outputs": [
        {
          "internalType": "uint256",
          "name": "",
          "type": "uint256"
        }
      ],
      "stateMutability": "view",
      "type": "function"
    },
    {
      "inputs": [
        {
          "internalType": "address",
          "name": "owner",
          "type": "address"
        },
        {
          "internalType": "address",
          "name": "delegate",
          "type": "address"
        }
      ],
      "name": "getPermission",
      "outputs": [
        {
          "internalType": "uint256",
          "name": "maxAmount",
          "type": "uint256"
        },
        {
          "internalType": "uint256",
          "name": "spent",
          "type": "uint256"
        },
        {
          "internalType": "uint256",
          "name": "expiry",
          "type": "uint256"
        },
        {
          "internalType": "bool",
          "name": "active",
          "type": "bool"
        },
        {
          "internalType": "uint256",
          "name": "available",
          "type": "uint256"
        }
      ],
      "stateMutability": "view",
      "type": "function"
    },
    {
      "inputs": [
        {
          "internalType": "address",
          "name": "leader",
          "type": "address"
        },
        {
          "internalType": "address[]",
          "name": "members",
          "type": "address[]"
        }
      ],
      "name": "getTotalPool",
      "outputs": [
        {
          "internalType": "uint256",
          "name": "",
          "type": "uint256"
        }
      ],
      "stateMutability": "view",
      "type": "function"
    },
    {
      "inputs": [
        {
          "internalType": "address",
          "name": "delegate",
          "type": "address"
        },
        {
          "internalType": "uint256",
          "name": "maxAmount",
          "type": "uint256"
        },
        {
          "internalType": "uint256",
          "name": "duration",
          "type": "uint256"
        }
      ],
      "name": "grantPermission",
      "outputs": [],
      "stateMutability": "nonpayable",
      "type": "function"
    },
    {
      "inputs": [
        {
          "internalType": "address",
          "name": "delegate",
          "type": "address"
        },
        {
          "internalType": "uint256",
          "name": "additionalAmount",
          "type": "uint256"
        }
      ],
      "name": "increasePermission",
      "outputs": [],
      "stateMutability": "nonpayable",
      "type": "function"
    },
    {
      "inputs": [
        {
          "internalType": "address",
          "name": "",
          "type": "address"
        },
        {
          "internalType": "address",
          "name": "",
          "type": "address"
        }
      ],
      "name": "permissions",
      "outputs": [
        {
          "internalType": "uint256",
          "name": "maxAmount",
          "type": "uint256"
        },
        {
          "internalType": "uint256",
          "name": "spent",
          "type": "uint256"
        },
        {
          "internalType": "uint256",
          "name": "expiry",
          "type": "uint256"
        },
        {
          "internalType": "bool",
          "name": "active",
          "type": "bool"
        }
      ],
      "stateMutability": "view",
      "type": "function"
    },
    {
      "inputs": [
        {
          "internalType": "address",
          "name": "delegate",
          "type": "address"
        }
      ],
      "name": "revokePermission",
      "outputs": [],
      "stateMutability": "nonpayable",
      "type": "function"
    }
  ],
  "bytecode": "0x608060405234801561001057600080fd5b50610d76806100206000396000f3fe60806040526004361061007b5760003560e01c80637371edaa1161004e5780637371edaa14610149578063910185dd14610177578063a3bf5b9a146101c1578063a88a32c2146101e157600080fd5b80631f9838b5146100805780632aa77d45146100f45780635ee2429b14610116578063643706d714610136575b600080fd5b34801561008c57600080fd5b506100cd61009b366004610b31565b600060208181529281526040808220909352908152208054600182015460028301546003909301549192909160ff1684565b60408051948552602085019390935291830152151560608201526080015b60405180910390f35b34801561010057600080fd5b5061011461010f366004610b64565b610201565b005b34801561012257600080fd5b50610114610131366004610b8e565b61036c565b610114610144366004610c0d565b610505565b34801561015557600080fd5b50610169610164366004610b31565b610834565b6040519081526020016100eb565b34801561018357600080fd5b50610197610192366004610b31565b6108ca565b6040805195865260208601949094529284019190915215156060830152608082015260a0016100eb565b3480156101cd57600080fd5b506101146101dc366004610c79565b610985565b3480156101ed57600080fd5b506101696101fc366004610c9b565b610a37565b336000908152602081815260408083206001600160a01b03861684529091529020600381015460ff166102725760405162461bcd60e51b815260206004820152601460248201527327379030b1ba34bb32903832b936b4b9b9b4b7b760611b60448201526064015b60405180910390fd5b806002015442106102ba5760405162461bcd60e51b815260206004820152601260248201527114195c9b5a5cdcda5bdb88195e1c1a5c995960721b6044820152606401610269565b600082116102ff5760405162461bcd60e51b81526020600482015260126024820152710416d6f756e74206d757374206265203e20360741b6044820152606401610269565b818160000160008282546103139190610d04565b9091555050805460028201546040805192835260208301919091526001600160a01b0385169133917f47e8fe1cf951ed6c2bd6e674655fb4f681a72e9a2a7bcb56fddfecb4c23afcc591015b60405180910390a3505050565b6001600160a01b0383166103b55760405162461bcd60e51b815260206004820152601060248201526f496e76616c69642064656c656761746560801b6044820152606401610269565b600082116103fe5760405162461bcd60e51b815260206004820152601660248201527504d617820616d6f756e74206d757374206265203e20360541b6044820152606401610269565b600081116104415760405162461bcd60e51b815260206004820152601060248201526f24b73b30b634b210323ab930ba34b7b760811b6044820152606401610269565b60408051608081018252838152600060208201529081016104628342610d04565b81526001602091820181905233600081815280845260408082206001600160a01b038a16808452908652918190208651815594860151938501939093559184015160028401556060909301516003909201805460ff191692151592909217909155907f47e8fe1cf951ed6c2bd6e674655fb4f681a72e9a2a7bcb56fddfecb4c23afcc5846104f08542610d04565b6040805192835260208301919091520161035f565b8281146105465760405162461bcd60e51b815260206004820152600f60248201526e098cadccee8d040dad2e6dac2e8c6d608b1b6044820152606401610269565b826105895760405162461bcd60e51b8152602060048201526013602482015272139bc81bdddb995c9cc81cdc1958da599a5959606a1b6044820152606401610269565b6000805b848110156107745760008686838181106105a9576105a9610d17565b90506020020160208101906105be9190610c79565b905060008585848181106105d4576105d4610d17565b6001600160a01b03851660009081526020818152604080832033845282529091206003810154929091029390930135935060ff16905061064e5760405162461bcd60e51b81526020600482015260156024820152745065726d697373696f6e206e6f742061637469766560581b6044820152606401610269565b806002015442106106965760405162461bcd60e51b815260206004820152601260248201527114195c9b5a5cdcda5bdb88195e1c1a5c995960721b6044820152606401610269565b805460018201546106a8908490610d04565b11156106f65760405162461bcd60e51b815260206004820152601860248201527f45786365656473207065726d697373696f6e206c696d697400000000000000006044820152606401610269565b8181600101600082825461070a9190610d04565b9091555061071a90508286610d04565b9450336001600160a01b0316836001600160a01b03167fa6b5ff986627794655ee0966b919cb8ce3b7b374629f5e71b1ba4f4598da1bba8460405161076191815260200190565b60405180910390a350505060010161058d565b508034146107c45760405162461bcd60e51b815260206004820152601c60248201527f4d7573742073656e6420657861637420746f74616c20616d6f756e74000000006044820152606401610269565b604051339082156108fc029083906000818181858888f193505050501580156107f1573d6000803e3d6000fd5b50604080518281526020810186905233917f616d645823135ef16cc7628f8ed2dcefa184a73064cf6b7b60c007c497bd7421910160405180910390a25050505050565b6001600160a01b03808316600090815260208181526040808320938516835292815282822083516080810185528154815260018201549281019290925260028101549382019390935260039092015460ff161580156060840152909190806108a0575080604001514210155b156108af5760009150506108c4565b602081015181516108c09190610d2d565b9150505b92915050565b6001600160a01b03808316600090815260208181526040808320938516835292815282822083516080810185528154815260018201549281019290925260028101549382019390935260039092015460ff16158015606084018190529192839283928392839290918391906109425750816040015142105b9050600081610952576000610963565b602083015183516109639190610d2d565b83516020850151604090950151909c949b509950919750909550909350505050565b336000908152602081815260408083206001600160a01b03851684529091529020600381015460ff166109f15760405162461bcd60e51b815260206004820152601460248201527327379030b1ba34bb32903832b936b4b9b9b4b7b760611b6044820152606401610269565b60038101805460ff191690556040516001600160a01b0383169033907f5f708ef9fc37d19d88246c264788c8cdf640c9ff500bd168e941ea1421c4f6c490600090a35050565b600080805b83811015610b0c576000806000878785818110610a5b57610a5b610d17565b9050602002016020810190610a709190610c79565b6001600160a01b03908116825260208083019390935260409182016000908120918b1681529083528190208151608081018352815481526001820154938101939093526002810154918301919091526003015460ff1615801560608301819052919250610ae05750806040015142105b15610b035760208101518151610af69190610d2d565b610b009084610d04565b92505b50600101610a3c565b50949350505050565b80356001600160a01b0381168114610b2c57600080fd5b919050565b60008060408385031215610b4457600080fd5b610b4d83610b15565b9150610b5b60208401610b15565b90509250929050565b60008060408385031215610b7757600080fd5b610b8083610b15565b946020939093013593505050565b600080600060608486031215610ba357600080fd5b610bac84610b15565b95602085013595506040909401359392505050565b60008083601f840112610bd357600080fd5b50813567ffffffffffffffff811115610beb57600080fd5b6020830191508360208260051b8501011115610c0657600080fd5b9250929050565b60008060008060408587031215610c2357600080fd5b843567ffffffffffffffff80821115610c3b57600080fd5b610c4788838901610bc1565b90965094506020870135915080821115610c6057600080fd5b50610c6d87828801610bc1565b95989497509550505050565b600060208284031215610c8b57600080fd5b610c9482610b15565b9392505050565b600080600060408486031215610cb057600080fd5b610cb984610b15565b9250602084013567ffffffffffffffff811115610cd557600080fd5b610ce186828701610bc1565b9497909650939450505050565b634e487b7160e01b600052601160045260246000fd5b808201808211156108c4576108c4610cee565b634e487b7160e01b600052603260045260246000fd5b818103818111156108c4576108c4610cee56fea264697066735822122033ef34727128f10fc880668c0b6903bae9e7fa595873c24a24d5117e6274b98164736f6c63430008170033",
  "linkReferences": {},
  "deployedLinkReferences": {}
}