{
  "_format": "hh-sol-artifact-1",
  "contractName": "AdvancedPermissions",
  "sourceName": "contracts/AdvancedPermissions.sol",
  "abi": [
    {
      "inputs": [],
      "stateMutability": "nonpayable",
      "type": "constructor"
    },
    {
      "anonymous": false,
      "inputs": [
        {
          "indexed": true,
          "internalType": "address",
          "name": "owner",
          "type": "address"
        },
        {
          "indexed": true,
          "internalType": "address",
          "name": "delegate",
          "type": "address"
        },
        {
          "indexed": false,
          "internalType": "uint256",
          "name": "amount",
          "type": "uint256"
        }
      ],
      "name": "FundsSpent",
      "type": "event"
    },
    {
      "anonymous": false,
      "inputs": [
        {
          "indexed": true,
          "internalType": "address",
          "name": "owner",
          "type": "address"
        },
        {
          "indexed": true,
          "internalType": "address",
          "name": "delegate",
          "type": "address"
        },
        {
          "indexed": false,
          "internalType": "uint256",
          "name": "maxAmount",
          "type": "uint256"
        },
        {
          "indexed": false,
          "internalType": "uint256",
          "name": "expiry",
          "type": "uint256"
        }
      ],
      "name": "PermissionGranted",
      "type": "event"
    },
    {
      "anonymous": false,
      "inputs": [
        {
          "indexed": true,
          "internalType": "address",
          "name": "owner",
          "type": "address"
        },
        {
          "indexed": true,
          "internalType": "address",
          "name": "delegate",
          "type": "address"
        }
      ],
      "name": "PermissionRevoked",
      "type": "event"
    },
    {
      "anonymous": false,
      "inputs": [
        {
          "indexed": true,
          "internalType": "address",
          "name": "leader",
          "type": "address"
        },
        {
          "indexed": false,
          "internalType": "uint256",
          "name": "totalAmount",
          "type": "uint256"
        }
      ],
      "name": "TeamActionExecuted",
      "type": "event"
    },
    {
      "inputs": [],
      "name": "DOMAIN_SEPARATOR",
      "outputs": [
        {
          "internalType": "bytes32",
          "name": "",
          "type": "bytes32"
        }
      ],
      "stateMutability": "view",
      "type": "function"
    },
    {
      "inputs": [],
      "name": "SPEND_TYPEHASH",
      "outputs": [
        {
          "internalType": "bytes32",
          "name": "",
          "type": "bytes32"
        }
      ],
      "stateMutability": "view",
      "type": "function"
    },
    {
      "inputs": [
        {
          "internalType": "address[]",
          "name": "owners",
          "type": "address[]"
        },
        {
          "internalType": "uint256[]",
          "name": "amounts",
          "type": "uint256[]"
        }
      ],
      "name": "executeTeamAction",
      "outputs": [],
      "stateMutability": "payable",
      "type": "function"
    },
    {
      "inputs": [
        {
          "internalType": "address payable[]",
          "name": "owners",
          "type": "address[]"
        },
        {
          "internalType": "uint256[]",
          "name": "amounts",
          "type": "uint256[]"
        },
        {
          "internalType": "uint8[]",
          "name": "v",
          "type": "uint8[]"
        },
        {
          "internalType": "bytes32[]",
          "name": "r",
          "type": "bytes32[]"
        },
        {
          "internalType": "bytes32[]",
          "name": "s",
          "type": "bytes32[]"
        }
      ],
      "name": "executeWithSignatures",
      "outputs": [],
      "stateMutability": "payable",
      "type": "function"
    },
    {
      "inputs": [
        {
          "internalType": "address",
          "name": "owner",
          "type": "address"
        },
        {
          "internalType": "address",
          "name": "delegate",
          "type": "address"
        }
      ],
      "name": "getAvailableAmount",
      "outputs": [
        {
          "internalType": "uint256",
          "name": "",
          "type": "uint256"
        }
      ],
      "stateMutability": "view",
      "type": "function"
    },
    {
      "inputs": [
        {
          "internalType": "address",
          "name": "owner",
          "type": "address"
        },
        {
          "internalType": "address",
          "name": "delegate",
          "type": "address"
        }
      ],
      "name": "getPermission",
      "outputs": [
        {
          "internalType": "uint256",
          "name": "maxAmount",
          "type": "uint256"
        },
        {
          "internalType": "uint256",
          "name": "spent",
          "type": "uint256"
        },
        {
          "internalType": "uint256",
          "name": "expiry",
          "type": "uint256"
        },
        {
          "internalType": "bool",
          "name": "active",
          "type": "bool"
        },
        {
          "internalType": "uint256",
          "name": "available",
          "type": "uint256"
        }
      ],
      "stateMutability": "view",
      "type": "function"
    },
    {
      "inputs": [
        {
          "internalType": "address",
          "name": "delegate",
          "type": "address"
        },
        {
          "internalType": "uint256",
          "name": "maxAmount",
          "type": "uint256"
        },
        {
          "internalType": "uint256",
          "name": "duration",
          "type": "uint256"
        }
      ],
      "name": "grantPermission",
      "outputs": [],
      "stateMutability": "nonpayable",
      "type": "function"
    },
    {
      "inputs": [
        {
          "internalType": "address",
          "name": "",
          "type": "address"
        }
      ],
      "name": "nonces",
      "outputs": [
        {
          "internalType": "uint256",
          "name": "",
          "type": "uint256"
        }
      ],
      "stateMutability": "view",
      "type": "function"
    },
    {
      "inputs": [
        {
          "internalType": "address",
          "name": "",
          "type": "address"
        },
        {
          "internalType": "address",
          "name": "",
          "type": "address"
        }
      ],
      "name": "permissions",
      "outputs": [
        {
          "internalType": "uint256",
          "name": "maxAmount",
          "type": "uint256"
        },
        {
          "internalType": "uint256",
          "name": "spent",
          "type": "uint256"
        },
        {
          "internalType": "uint256",
          "name": "expiry",
          "type": "uint256"
        },
        {
          "internalType": "bool",
          "name": "active",
          "type": "bool"
        }
      ],
      "stateMutability": "view",
      "type": "function"
    },
    {
      "inputs": [
        {
          "internalType": "address",
          "name": "delegate",
          "type": "address"
        }
      ],
      "name": "revokePermission",
      "outputs": [],
      "stateMutability": "nonpayable",
      "type": "function"
    }
  ],
  "bytecode": "0x60a060405234801561001057600080fd5b50604080518082018252601381527f416476616e6365645065726d697373696f6e73000000000000000000000000006020918201528151808301835260018152603160f81b9082015281517f8b73c3c69bb8fe3d512ecc4cf759cc79239f7b179b0ffacaa9a75d522b39400f918101919091527fb25dfd651f0082e3a923d6468bac2d33fd13bbb9dd4f436dd7cad1799c8120f1918101919091527fc89efdaa54c0f20c7adf612882df0950f5a951637e0307cdcb4c672f298b8bc660608201524660808201523060a082015260c00160408051601f1981840301815291905280516020909101206080526080516110d561011d6000396000818161011c0152610b5101526110d56000f3fe6080604052600436106100915760003560e01c80637371edaa116100595780637371edaa146101b55780637ecebe00146101d5578063910185dd14610202578063a3bf5b9a1461024c578063fe38c28e1461026c57600080fd5b80631f9838b5146100965780633644e5151461010a5780635ee2429b1461014c578063642428871461016e578063643706d7146101a2575b600080fd5b3480156100a257600080fd5b506100e36100b1366004610dd6565b600060208181529281526040808220909352908152208054600182015460028301546003909301549192909160ff1684565b60408051948552602085019390935291830152151560608201526080015b60405180910390f35b34801561011657600080fd5b5061013e7f000000000000000000000000000000000000000000000000000000000000000081565b604051908152602001610101565b34801561015857600080fd5b5061016c610167366004610e0f565b61027f565b005b34801561017a57600080fd5b5061013e7fb773031c326e9a9653ea5403e505d242e5f355672ef686bc348acd0d95eb2acf81565b61016c6101b0366004610e90565b6103da565b3480156101c157600080fd5b5061013e6101d0366004610dd6565b61070d565b3480156101e157600080fd5b5061013e6101f0366004610efc565b60016020526000908152604090205481565b34801561020e57600080fd5b5061022261021d366004610dd6565b6107a3565b6040805195865260208601949094529284019190915215156060830152608082015260a001610101565b34801561025857600080fd5b5061016c610267366004610efc565b61085e565b61016c61027a366004610f20565b6108b5565b6001600160a01b0383166102cd5760405162461bcd60e51b815260206004820152601060248201526f496e76616c69642064656c656761746560801b60448201526064015b60405180910390fd5b6000821161030e5760405162461bcd60e51b815260206004820152600e60248201526d125b9d985b1a5908185b5bdd5b9d60921b60448201526064016102c4565b604080516080810182528381526000602082015290810161032f8342611027565b81526001602091820181905233600081815280845260408082206001600160a01b038a16808452908652918190208651815594860151938501939093559184015160028401556060909301516003909201805460ff191692151592909217909155907f47e8fe1cf951ed6c2bd6e674655fb4f681a72e9a2a7bcb56fddfecb4c23afcc5846103bd8542611027565b6040805192835260208301919091520160405180910390a3505050565b82811461041b5760405162461bcd60e51b815260206004820152600f60248201526e098cadccee8d040dad2e6dac2e8c6d608b1b60448201526064016102c4565b6000805b8481101561066057600080600088888581811061043e5761043e61103a565b90506020020160208101906104539190610efc565b6001600160a01b03168152602080820192909252604090810160009081203382529092529020600381015490915060ff166104c85760405162461bcd60e51b81526020600482015260156024820152745065726d697373696f6e206e6f742061637469766560581b60448201526064016102c4565b806002015442106105105760405162461bcd60e51b815260206004820152601260248201527114195c9b5a5cdcda5bdb88195e1c1a5c995960721b60448201526064016102c4565b80548585848181106105245761052461103a565b90506020020135826001015461053a9190611027565b111561057d5760405162461bcd60e51b8152602060048201526012602482015271115e18d959591cc81b585e08185b5bdd5b9d60721b60448201526064016102c4565b84848381811061058f5761058f61103a565b905060200201358160010160008282546105a99190611027565b9091555085905084838181106105c1576105c161103a565b90506020020135836105d39190611027565b9250338787848181106105e8576105e861103a565b90506020020160208101906105fd9190610efc565b6001600160a01b03167fa6b5ff986627794655ee0966b919cb8ce3b7b374629f5e71b1ba4f4598da1bba8787868181106106395761063961103a565b9050602002013560405161064f91815260200190565b60405180910390a35060010161041f565b508034146106a45760405162461bcd60e51b8152602060048201526011602482015270125b98dbdc9c9958dd081c185e5b595b9d607a1b60448201526064016102c4565b60405133903480156108fc02916000818181858888f193505050501580156106d0573d6000803e3d6000fd5b5060405181815233907f9ff994879aa5395e64075c2f2cf1c6785b14ebbf574c5b2a708975e2c1e741579060200160405180910390a25050505050565b6001600160a01b03808316600090815260208181526040808320938516835292815282822083516080810185528154815260018201549281019290925260028101549382019390935260039092015460ff16158015606084015290919080610779575080604001514210155b1561078857600091505061079d565b602081015181516107999190611050565b9150505b92915050565b6001600160a01b03808316600090815260208181526040808320938516835292815282822083516080810185528154815260018201549281019290925260028101549382019390935260039092015460ff161580156060840181905291928392839283928392909183919061081b5750816040015142105b905060008161082b57600061083c565b6020830151835161083c9190611050565b83516020850151604090950151909c949b509950919750909550909350505050565b336000818152602081815260408083206001600160a01b0386168085529252808320600301805460ff19169055519092917f5f708ef9fc37d19d88246c264788c8cdf640c9ff500bd168e941ea1421c4f6c491a350565b8887146108f65760405162461bcd60e51b815260206004820152600f60248201526e098cadccee8d040dad2e6dac2e8c6d608b1b60448201526064016102c4565b8885146109455760405162461bcd60e51b815260206004820152601960248201527f5369676e6174757265206c656e677468206d69736d617463680000000000000060448201526064016102c4565b6000805b8a811015610d385760008c8c838181106109655761096561103a565b905060200201602081019061097a9190610efc565b905060008b8b848181106109905761099061103a565b6001600160a01b03851660009081526020818152604080832033845282529091206003810154929091029390930135935060ff169050610a0a5760405162461bcd60e51b81526020600482015260156024820152745065726d697373696f6e206e6f742061637469766560581b60448201526064016102c4565b80600201544210610a525760405162461bcd60e51b815260206004820152601260248201527114195c9b5a5cdcda5bdb88195e1c1a5c995960721b60448201526064016102c4565b80546001820154610a64908490611027565b1115610aa75760405162461bcd60e51b8152602060048201526012602482015271115e18d959591cc81b585e08185b5bdd5b9d60721b60448201526064016102c4565b6001600160a01b038316600090815260016020526040812080547fb773031c326e9a9653ea5403e505d242e5f355672ef686bc348acd0d95eb2acf918691339187919086610af483611063565b909155506040805160208101969096526001600160a01b0394851690860152929091166060840152608083015260a082015260c00160408051601f1981840301815290829052805160209182012061190160f01b918301919091527f0000000000000000000000000000000000000000000000000000000000000000602283015260428201819052915060009060620160405160208183030381529060405280519060200120905060006001828f8f8a818110610bb357610bb361103a565b9050602002016020810190610bc8919061107c565b8e8e8b818110610bda57610bda61103a565b905060200201358d8d8c818110610bf357610bf361103a565b9050602002013560405160008152602001604052604051610c30949392919093845260ff9290921660208401526040830152606082015260800190565b6020604051602081039080840390855afa158015610c52573d6000803e3d6000fd5b505050602060405103519050856001600160a01b0316816001600160a01b031614610cb35760405162461bcd60e51b8152602060048201526011602482015270496e76616c6964207369676e617475726560781b60448201526064016102c4565b84846001016000828254610cc79190611027565b90915550610cd790508589611027565b9750336001600160a01b0316866001600160a01b03167fa6b5ff986627794655ee0966b919cb8ce3b7b374629f5e71b1ba4f4598da1bba87604051610d1e91815260200190565b60405180910390a350506001909401935061094992505050565b50803414610d7c5760405162461bcd60e51b8152602060048201526011602482015270125b98dbdc9c9958dd081c185e5b595b9d607a1b60448201526064016102c4565b60405181815233907f9ff994879aa5395e64075c2f2cf1c6785b14ebbf574c5b2a708975e2c1e741579060200160405180910390a25050505050505050505050565b6001600160a01b0381168114610dd357600080fd5b50565b60008060408385031215610de957600080fd5b8235610df481610dbe565b91506020830135610e0481610dbe565b809150509250929050565b600080600060608486031215610e2457600080fd5b8335610e2f81610dbe565b95602085013595506040909401359392505050565b60008083601f840112610e5657600080fd5b50813567ffffffffffffffff811115610e6e57600080fd5b6020830191508360208260051b8501011115610e8957600080fd5b9250929050565b60008060008060408587031215610ea657600080fd5b843567ffffffffffffffff80821115610ebe57600080fd5b610eca88838901610e44565b90965094506020870135915080821115610ee357600080fd5b50610ef087828801610e44565b95989497509550505050565b600060208284031215610f0e57600080fd5b8135610f1981610dbe565b9392505050565b60008060008060008060008060008060a08b8d031215610f3f57600080fd5b8a3567ffffffffffffffff80821115610f5757600080fd5b610f638e838f01610e44565b909c509a5060208d0135915080821115610f7c57600080fd5b610f888e838f01610e44565b909a50985060408d0135915080821115610fa157600080fd5b610fad8e838f01610e44565b909850965060608d0135915080821115610fc657600080fd5b610fd28e838f01610e44565b909650945060808d0135915080821115610feb57600080fd5b50610ff88d828e01610e44565b915080935050809150509295989b9194979a5092959850565b634e487b7160e01b600052601160045260246000fd5b8082018082111561079d5761079d611011565b634e487b7160e01b600052603260045260246000fd5b8181038181111561079d5761079d611011565b60006001820161107557611075611011565b5060010190565b60006020828403121561108e57600080fd5b813560ff81168114610f1957600080fdfea26469706673582212205b2471bef71b76573c4604bf8ce6a5ebfab69a8e02750399c53f4003c2086cca64736f6c63430008170033",
  "linkReferences": {},
  "deployedLinkReferences": {}
}