{
  "_format": "hh-sol-artifact-1",
  "contractName": "PracticalERC7715",
  "sourceName": "contracts/PracticalERC7715.sol",
  "abi": [
    {
      "anonymous": false,
      "inputs": [
        {
          "indexed": true,
          "internalType": "address",
          "name": "owner",
          "type": "address"
        },
        {
          "indexed": true,
          "internalType": "address",
          "name": "delegate",
          "type": "address"
        },
        {
          "indexed": false,
          "internalType": "uint256",
          "name": "amount",
          "type": "uint256"
        }
      ],
      "name": "FundsSpent",
      "type": "event"
    },
    {
      "anonymous": false,
      "inputs": [
        {
          "indexed": true,
          "internalType": "address",
          "name": "owner",
          "type": "address"
        },
        {
          "indexed": true,
          "internalType": "address",
          "name": "delegate",
          "type": "address"
        },
        {
          "indexed": false,
          "internalType": "uint256",
          "name": "maxAmount",
          "type": "uint256"
        },
        {
          "indexed": false,
          "internalType": "uint256",
          "name": "expiry",
          "type": "uint256"
        }
      ],
      "name": "PermissionGranted",
      "type": "event"
    },
    {
      "anonymous": false,
      "inputs": [
        {
          "indexed": true,
          "internalType": "address",
          "name": "owner",
          "type": "address"
        },
        {
          "indexed": true,
          "internalType": "address",
          "name": "delegate",
          "type": "address"
        },
        {
          "indexed": false,
          "internalType": "uint256",
          "name": "newMaxAmount",
          "type": "uint256"
        }
      ],
      "name": "PermissionIncreased",
      "type": "event"
    },
    {
      "anonymous": false,
      "inputs": [
        {
          "indexed": true,
          "internalType": "address",
          "name": "owner",
          "type": "address"
        },
        {
          "indexed": true,
          "internalType": "address",
          "name": "delegate",
          "type": "address"
        },
        {
          "indexed": false,
          "internalType": "uint256",
          "name": "refundAmount",
          "type": "uint256"
        }
      ],
      "name": "PermissionRevoked",
      "type": "event"
    },
    {
      "anonymous": false,
      "inputs": [
        {
          "indexed": true,
          "internalType": "address",
          "name": "leader",
          "type": "address"
        },
        {
          "indexed": false,
          "internalType": "uint256",
          "name": "totalAmount",
          "type": "uint256"
        },
        {
          "indexed": false,
          "internalType": "uint256",
          "name": "memberCount",
          "type": "uint256"
        }
      ],
      "name": "TeamActionExecuted",
      "type": "event"
    },
    {
      "inputs": [
        {
          "internalType": "address[]",
          "name": "owners",
          "type": "address[]"
        },
        {
          "internalType": "uint256[]",
          "name": "amounts",
          "type": "uint256[]"
        }
      ],
      "name": "executeTeamAction",
      "outputs": [],
      "stateMutability": "nonpayable",
      "type": "function"
    },
    {
      "inputs": [
        {
          "internalType": "address",
          "name": "owner",
          "type": "address"
        },
        {
          "internalType": "address",
          "name": "delegate",
          "type": "address"
        }
      ],
      "name": "getAvailableAmount",
      "outputs": [
        {
          "internalType": "uint256",
          "name": "",
          "type": "uint256"
        }
      ],
      "stateMutability": "view",
      "type": "function"
    },
    {
      "inputs": [
        {
          "internalType": "address",
          "name": "owner",
          "type": "address"
        },
        {
          "internalType": "address",
          "name": "delegate",
          "type": "address"
        }
      ],
      "name": "getPermission",
      "outputs": [
        {
          "internalType": "uint256",
          "name": "maxAmount",
          "type": "uint256"
        },
        {
          "internalType": "uint256",
          "name": "spent",
          "type": "uint256"
        },
        {
          "internalType": "uint256",
          "name": "expiry",
          "type": "uint256"
        },
        {
          "internalType": "bool",
          "name": "active",
          "type": "bool"
        },
        {
          "internalType": "uint256",
          "name": "available",
          "type": "uint256"
        }
      ],
      "stateMutability": "view",
      "type": "function"
    },
    {
      "inputs": [
        {
          "internalType": "address",
          "name": "leader",
          "type": "address"
        },
        {
          "internalType": "address[]",
          "name": "members",
          "type": "address[]"
        }
      ],
      "name": "getTotalPool",
      "outputs": [
        {
          "internalType": "uint256",
          "name": "",
          "type": "uint256"
        }
      ],
      "stateMutability": "view",
      "type": "function"
    },
    {
      "inputs": [
        {
          "internalType": "address",
          "name": "delegate",
          "type": "address"
        },
        {
          "internalType": "uint256",
          "name": "duration",
          "type": "uint256"
        }
      ],
      "name": "grantPermission",
      "outputs": [],
      "stateMutability": "payable",
      "type": "function"
    },
    {
      "inputs": [
        {
          "internalType": "address",
          "name": "delegate",
          "type": "address"
        }
      ],
      "name": "increasePermission",
      "outputs": [],
      "stateMutability": "payable",
      "type": "function"
    },
    {
      "inputs": [
        {
          "internalType": "address",
          "name": "",
          "type": "address"
        },
        {
          "internalType": "address",
          "name": "",
          "type": "address"
        }
      ],
      "name": "permissions",
      "outputs": [
        {
          "internalType": "uint256",
          "name": "maxAmount",
          "type": "uint256"
        },
        {
          "internalType": "uint256",
          "name": "spent",
          "type": "uint256"
        },
        {
          "internalType": "uint256",
          "name": "expiry",
          "type": "uint256"
        },
        {
          "internalType": "bool",
          "name": "active",
          "type": "bool"
        }
      ],
      "stateMutability": "view",
      "type": "function"
    },
    {
      "inputs": [
        {
          "internalType": "address",
          "name": "delegate",
          "type": "address"
        }
      ],
      "name": "revokePermission",
      "outputs": [],
      "stateMutability": "nonpayable",
      "type": "function"
    }
  ],
  "bytecode": "0x608060405234801561001057600080fd5b50610d25806100206000396000f3fe60806040526004361061007b5760003560e01c80637371edaa1161004e5780637371edaa1461013c578063910185dd1461016a578063a3bf5b9a146101b4578063a88a32c2146101d457600080fd5b806303c37db5146100805780631f9838b514610095578063643706d7146101095780636fe3492014610129575b600080fd5b61009361008e366004610b13565b6101f4565b005b3480156100a157600080fd5b506100e26100b0366004610b35565b600060208181529281526040808220909352908152208054600182015460028301546003909301549192909160ff1684565b60408051948552602085019390935291830152151560608201526080015b60405180910390f35b34801561011557600080fd5b50610093610124366004610bb4565b610304565b610093610137366004610c20565b6105da565b34801561014857600080fd5b5061015c610157366004610b35565b6107c9565b604051908152602001610100565b34801561017657600080fd5b5061018a610185366004610b35565b61085f565b6040805195865260208601949094529284019190915215156060830152608082015260a001610100565b3480156101c057600080fd5b506100936101cf366004610b13565b61091a565b3480156101e057600080fd5b5061015c6101ef366004610c4a565b610a19565b600034116102395760405162461bcd60e51b815260206004820152600d60248201526c135d5cdd081cd95b9908135395609a1b60448201526064015b60405180910390fd5b336000908152602081815260408083206001600160a01b03851684529091529020600381015460ff166102a55760405162461bcd60e51b815260206004820152601460248201527327379030b1ba34bb32903832b936b4b9b9b4b7b760611b6044820152606401610230565b348160000160008282546102b99190610cb3565b909155505080546040519081526001600160a01b0383169033907fd0079448be1fcced370f8bac10087f0cd361ff575b87c7b23da6f4f5cc7e03889060200160405180910390a35050565b8281146103455760405162461bcd60e51b815260206004820152600f60248201526e098cadccee8d040dad2e6dac2e8c6d608b1b6044820152606401610230565b8261037e5760405162461bcd60e51b81526020600482015260096024820152684e6f206f776e65727360b81b6044820152606401610230565b6000805b8481101561056957600086868381811061039e5761039e610cc6565b90506020020160208101906103b39190610b13565b905060008585848181106103c9576103c9610cc6565b6001600160a01b03851660009081526020818152604080832033845282529091206003810154929091029390930135935060ff1690506104435760405162461bcd60e51b81526020600482015260156024820152745065726d697373696f6e206e6f742061637469766560581b6044820152606401610230565b8060020154421061048b5760405162461bcd60e51b815260206004820152601260248201527114195c9b5a5cdcda5bdb88195e1c1a5c995960721b6044820152606401610230565b8054600182015461049d908490610cb3565b11156104eb5760405162461bcd60e51b815260206004820152601860248201527f45786365656473207065726d697373696f6e206c696d697400000000000000006044820152606401610230565b818160010160008282546104ff9190610cb3565b9091555061050f90508286610cb3565b9450336001600160a01b0316836001600160a01b03167fa6b5ff986627794655ee0966b919cb8ce3b7b374629f5e71b1ba4f4598da1bba8460405161055691815260200190565b60405180910390a3505050600101610382565b50604051339082156108fc029083906000818181858888f19350505050158015610597573d6000803e3d6000fd5b50604080518281526020810186905233917f616d645823135ef16cc7628f8ed2dcefa184a73064cf6b7b60c007c497bd7421910160405180910390a25050505050565b6001600160a01b0382166106235760405162461bcd60e51b815260206004820152601060248201526f496e76616c69642064656c656761746560801b6044820152606401610230565b600034116106735760405162461bcd60e51b815260206004820152601760248201527f4d757374206465706f73697420636f6c6c61746572616c0000000000000000006044820152606401610230565b600081116106b65760405162461bcd60e51b815260206004820152601060248201526f24b73b30b634b210323ab930ba34b7b760811b6044820152606401610230565b336000908152602081815260408083206001600160a01b03861684529091529020600381015460ff161561075557348160000160008282546106f89190610cb3565b9091555061070890508242610cb3565b600282015580546040519081526001600160a01b0384169033907fd0079448be1fcced370f8bac10087f0cd361ff575b87c7b23da6f4f5cc7e0388906020015b60405180910390a3505050565b348155600060018201556107698242610cb3565b600282015560038101805460ff191660011790556001600160a01b038316337f47e8fe1cf951ed6c2bd6e674655fb4f681a72e9a2a7bcb56fddfecb4c23afcc5346107b48642610cb3565b60408051928352602083019190915201610748565b6001600160a01b03808316600090815260208181526040808320938516835292815282822083516080810185528154815260018201549281019290925260028101549382019390935260039092015460ff16158015606084015290919080610835575080604001514210155b15610844576000915050610859565b602081015181516108559190610cdc565b9150505b92915050565b6001600160a01b03808316600090815260208181526040808320938516835292815282822083516080810185528154815260018201549281019290925260028101549382019390935260039092015460ff16158015606084018190529192839283928392839290918391906108d75750816040015142105b90506000816108e75760006108f8565b602083015183516108f89190610cdc565b83516020850151604090950151909c949b509950919750909550909350505050565b336000908152602081815260408083206001600160a01b03851684529091529020600381015460ff166109865760405162461bcd60e51b815260206004820152601460248201527327379030b1ba34bb32903832b936b4b9b9b4b7b760611b6044820152606401610230565b6001810154815460009161099991610cdc565b60038301805460ff19169055905080156109dc57604051339082156108fc029083906000818181858888f193505050501580156109da573d6000803e3d6000fd5b505b6040518181526001600160a01b0384169033907fddc354b2e01a1c04d0ff3f0a82abd6226f186a7e8d03cea079c60c6cd960018990602001610748565b600080805b83811015610aee576000806000878785818110610a3d57610a3d610cc6565b9050602002016020810190610a529190610b13565b6001600160a01b03908116825260208083019390935260409182016000908120918b1681529083528190208151608081018352815481526001820154938101939093526002810154918301919091526003015460ff1615801560608301819052919250610ac25750806040015142105b15610ae55760208101518151610ad89190610cdc565b610ae29084610cb3565b92505b50600101610a1e565b50949350505050565b80356001600160a01b0381168114610b0e57600080fd5b919050565b600060208284031215610b2557600080fd5b610b2e82610af7565b9392505050565b60008060408385031215610b4857600080fd5b610b5183610af7565b9150610b5f60208401610af7565b90509250929050565b60008083601f840112610b7a57600080fd5b50813567ffffffffffffffff811115610b9257600080fd5b6020830191508360208260051b8501011115610bad57600080fd5b9250929050565b60008060008060408587031215610bca57600080fd5b843567ffffffffffffffff80821115610be257600080fd5b610bee88838901610b68565b90965094506020870135915080821115610c0757600080fd5b50610c1487828801610b68565b95989497509550505050565b60008060408385031215610c3357600080fd5b610c3c83610af7565b946020939093013593505050565b600080600060408486031215610c5f57600080fd5b610c6884610af7565b9250602084013567ffffffffffffffff811115610c8457600080fd5b610c9086828701610b68565b9497909650939450505050565b634e487b7160e01b600052601160045260246000fd5b8082018082111561085957610859610c9d565b634e487b7160e01b600052603260045260246000fd5b8181038181111561085957610859610c9d56fea26469706673582212201c8f0537b11b4d42276f84646dd2be2a01738c8cdd0378dc81f649f872b43a4c64736f6c63430008170033",
  "linkReferences": {},
  "deployedLinkReferences": {}
}