{"contracts/GameRegistry.sol":{"GameRegistry":{"abi":[{"inputs":[],"name":"InsufficientGold","type":"error"},{"inputs":[],"name":"InvalidItemId","type":"error"},{"inputs":[],"name":"InvalidLevel","type":"error"},{"inputs":[],"name":"InvalidQuantity","type":"error"},{"anonymous":false,"inputs":[{"indexed":true,"internalType":"address","name":"player","type":"address"},{"indexed":false,"internalType":"uint256","name":"amount","type":"uint256"}],"name":"ExperienceGained","type":"event"},{"anonymous":false,"inputs":[{"indexed":true,"internalType":"address","name":"player","type":"address"},{"indexed":false,"internalType":"uint256","name":"amount","type":"uint256"}],"name":"GoldEarned","type":"event"},{"anonymous":false,"inputs":[{"indexed":true,"internalType":"address","name":"player","type":"address"},{"indexed":false,"internalType":"uint256","name":"itemId","type":"uint256"},{"indexed":false,"internalType":"uint256","name":"quantity","type":"uint256"}],"name":"ItemMinted","type":"event"},{"anonymous":false,"inputs":[{"indexed":true,"internalType":"address","name":"player","type":"address"},{"indexed":false,"internalType":"uint256","name":"newLevel","type":"uint256"}],"name":"LevelUp","type":"event"},{"anonymous":false,"inputs":[{"indexed":true,"internalType":"address","name":"player","type":"address"},{"indexed":false,"internalType":"uint256","name":"level","type":"uint256"},{"indexed":false,"internalType":"uint256","name":"experience","type":"uint256"},{"indexed":false,"internalType":"uint256","name":"gold","type":"uint256"}],"name":"PlayerStateUpdated","type":"event"},{"inputs":[{"internalType":"uint256[]","name":"itemIds","type":"uint256[]"},{"internalType":"uint256[]","name":"quantities","type":"uint256[]"},{"internalType":"uint256","name":"goldReward","type":"uint256"},{"internalType":"uint256","name":"expReward","type":"uint256"}],"name":"batchClaimRewards","outputs":[],"stateMutability":"nonpayable","type":"function"},{"inputs":[{"internalType":"uint256","name":"itemId","type":"uint256"},{"internalType":"uint256","name":"goldReward","type":"uint256"}],"name":"claimReward","outputs":[],"stateMutability":"nonpayable","type":"function"},{"inputs":[{"internalType":"uint256","name":"expAmount","type":"uint256"}],"name":"gainExperience","outputs":[],"stateMutability":"nonpayable","type":"function"},{"inputs":[{"internalType":"address","name":"player","type":"address"},{"internalType":"uint256","name":"itemId","type":"uint256"}],"name":"getItemQuantity","outputs":[{"internalType":"uint256","name":"","type":"uint256"}],"stateMutability":"view","type":"function"},{"inputs":[{"internalType":"address","name":"player","type":"address"}],"name":"getPlayerStats","outputs":[{"internalType":"uint256","name":"gold","type":"uint256"},{"internalType":"uint256","name":"experience","type":"uint256"},{"internalType":"uint256","name":"level","type":"uint256"}],"stateMutability":"view","type":"function"},{"inputs":[{"internalType":"address","name":"player","type":"address"},{"internalType":"uint256","name":"itemId","type":"uint256"}],"name":"hasItem","outputs":[{"internalType":"bool","name":"","type":"bool"}],"stateMutability":"view","type":"function"},{"inputs":[{"internalType":"uint256","name":"itemId","type":"uint256"},{"internalType":"uint256","name":"quantity","type":"uint256"}],"name":"mintItem","outputs":[],"stateMutability":"nonpayable","type":"function"},{"inputs":[{"internalType":"address","name":"","type":"address"}],"name":"players","outputs":[{"internalType":"uint256","name":"gold","type":"uint256"},{"internalType":"uint256","name":"experience","type":"uint256"},{"internalType":"uint256","name":"level","type":"uint256"}],"stateMutability":"view","type":"function"},{"inputs":[{"internalType":"uint256","name":"newLevel","type":"uint256"},{"internalType":"uint256","name":"newExp","type":"uint256"},{"internalType":"int256","name":"goldChange","type":"int256"}],"name":"updatePlayerState","outputs":[],"stateMutability":"nonpayable","type":"function"}],"evm":{"bytecode":{"linkReferences":{},"object":"608060405234801561001057600080fd5b50610b9c806100206000396000f3fe608060405234801561001057600080fd5b50600436106100935760003560e01c806386bb8f371161006657806386bb8f3714610139578063963c49c81461014c578063d1aad8041461015f578063e2eb41ff14610172578063fa5d7833146101a157600080fd5b80631a78656b14610098578063449de779146100ad5780634fd66eae146100c05780635baf068714610116575b600080fd5b6100ab6100a636600461093d565b6101e7565b005b6100ab6100bb366004610969565b6103b2565b6100f66100ce3660046109a7565b6001600160a01b03166000908152602081905260409020805460018201546002909201549092565b604080519384526020840192909252908201526060015b60405180910390f35b6101296101243660046109c9565b61047b565b604051901515815260200161010d565b6100ab610147366004610969565b6104aa565b6100ab61015a3660046109f3565b61059b565b6100ab61016d366004610a58565b610661565b6100f66101803660046109a7565b60006020819052908152604090208054600182015460029092015490919083565b6101d96101af3660046109c9565b6001600160a01b039190911660009081526020818152604080832093835260049093019052205490565b60405190815260200161010d565b336000908152602081905260409020600281015484101561021b5760405163d1459f7960e01b815260040160405180910390fd5b8060020154841115610264576002810184905560405184815233907f91e51c29e7e87a74ad3b8ccba98538970f50a4309242735467f41e27c6b0fbac9060200160405180910390a25b806001015483146102ac5760018101839055337ffc88aaf1c80f854cdb8d2c6f22b8c5bdc0390fa19b2bfe229d648637d668d0c7600060405190815260200160405180910390a25b600082131561030857818160000160008282546102c99190610aff565b909155505060405182815233907fbb3c0c38ea23914d108ee8b9dfa181efc58d5f81463c78178093ab51a04313db9060200160405180910390a261035e565b600082121561035e57600061031c83610b12565b905080826000015410156103435760405163113a164560e01b815260040160405180910390fd5b808260000160008282546103579190610aec565b9091555050505b6002810154600182015482546040805193845260208401929092529082015233907f080172b19b45176e5f32e488c1c79f6b916341d71a62525dd81b74bb23a560239060600160405180910390a250505050565b816000036103d35760405163a2ade61f60e01b815260040160405180910390fd5b806000036103f45760405163524f409b60e01b815260040160405180910390fd5b33600090815260208181526040808320858452600381018352818420805460ff19166001179055600481019092528220805491928492610435908490610aff565b9091555050604080518481526020810184905233917fd9be9c40c7e99dfc974fa3fe3b790af02afd2939b5dedfccb1ba12933eb27a8e91015b60405180910390a2505050565b6001600160a01b03821660009081526020818152604080832084845260030190915290205460ff165b92915050565b816000036104cb5760405163a2ade61f60e01b815260040160405180910390fd5b33600090815260208181526040808320858452600381018352818420805460ff1916600190811790915560048201909352908320805491939091610510908490610aff565b9091555050805482908290600090610529908490610aff565b9091555050604080518481526001602082015233917fd9be9c40c7e99dfc974fa3fe3b790af02afd2939b5dedfccb1ba12933eb27a8e910160405180910390a260405182815233907fbb3c0c38ea23914d108ee8b9dfa181efc58d5f81463c78178093ab51a04313db9060200161046e565b806000036105a65750565b336000908152602081905260408120600181018054919284926105ca908490610aff565b909155505060018101546000906105e4906103e890610b2e565b9050816002015481111561062f576002820181905560405181815233907f91e51c29e7e87a74ad3b8ccba98538970f50a4309242735467f41e27c6b0fbac9060200160405180910390a25b60405183815233907ffc88aaf1c80f854cdb8d2c6f22b8c5bdc0390fa19b2bfe229d648637d668d0c79060200161046e565b8483146106815760405163524f409b60e01b815260040160405180910390fd5b336000908152602081905260408120905b86811015610828578787828181106106ac576106ac610b50565b905060200201356000036106d35760405163a2ade61f60e01b815260040160405180910390fd5b8585828181106106e5576106e5610b50565b9050602002013560000361070c5760405163524f409b60e01b815260040160405180910390fd5b60018260030160008a8a8581811061072657610726610b50565b90506020020135815260200190815260200160002060006101000a81548160ff02191690831515021790555085858281811061076457610764610b50565b905060200201358260040160008a8a8581811061078357610783610b50565b90506020020135815260200190815260200160002060008282546107a79190610aff565b909155503390507fd9be9c40c7e99dfc974fa3fe3b790af02afd2939b5dedfccb1ba12933eb27a8e8989848181106107e1576107e1610b50565b905060200201358888858181106107fa576107fa610b50565b90506020020135604051610818929190918252602082015260400190565b60405180910390a2600101610692565b50821561087e57828160000160008282546108439190610aff565b909155505060405183815233907fbb3c0c38ea23914d108ee8b9dfa181efc58d5f81463c78178093ab51a04313db9060200160405180910390a25b811561093457818160010160008282546108989190610aff565b909155505060018101546000906108b2906103e890610b2e565b905081600201548111156108fd576002820181905560405181815233907f91e51c29e7e87a74ad3b8ccba98538970f50a4309242735467f41e27c6b0fbac9060200160405180910390a25b60405183815233907ffc88aaf1c80f854cdb8d2c6f22b8c5bdc0390fa19b2bfe229d648637d668d0c79060200160405180910390a2505b50505050505050565b60008060006060848603121561095257600080fd5b505081359360208301359350604090920135919050565b6000806040838503121561097c57600080fd5b50508035926020909101359150565b80356001600160a01b03811681146109a257600080fd5b919050565b6000602082840312156109b957600080fd5b6109c28261098b565b9392505050565b600080604083850312156109dc57600080fd5b6109e58361098b565b946020939093013593505050565b600060208284031215610a0557600080fd5b5035919050565b60008083601f840112610a1e57600080fd5b50813567ffffffffffffffff811115610a3657600080fd5b6020830191508360208260051b8501011115610a5157600080fd5b9250929050565b60008060008060008060808789031215610a7157600080fd5b863567ffffffffffffffff80821115610a8957600080fd5b610a958a838b01610a0c565b90985096506020890135915080821115610aae57600080fd5b50610abb89828a01610a0c565b979a9699509760408101359660609091013595509350505050565b634e487b7160e01b600052601160045260246000fd5b818103818111156104a4576104a4610ad6565b808201808211156104a4576104a4610ad6565b6000600160ff1b8201610b2757610b27610ad6565b5060000390565b600082610b4b57634e487b7160e01b600052601260045260246000fd5b500490565b634e487b7160e01b600052603260045260246000fdfea2646970667358221220a24130e0ef0a6e3836fa491bef5e12191b83ee95b1f4fe21d46b831b153603b564736f6c63430008170033","opcodes":"PUSH1 0x80 PUSH1 0x40 MSTORE CALLVALUE DUP1 ISZERO PUSH2 0x10 JUMPI PUSH1 0x0 DUP1 REVERT JUMPDEST POP PUSH2 0xB9C DUP1 PUSH2 0x20 PUSH1 0x0 CODECOPY PUSH1 0x0 RETURN INVALID PUSH1 0x80 PUSH1 0x40 MSTORE CALLVALUE DUP1 ISZERO PUSH2 0x10 JUMPI PUSH1 0x0 DUP1 REVERT JUMPDEST POP PUSH1 0x4 CALLDATASIZE LT PUSH2 0x93 JUMPI PUSH1 0x0 CALLDATALOAD PUSH1 0xE0 SHR DUP1 PUSH4 0x86BB8F37 GT PUSH2 0x66 JUMPI DUP1 PUSH4 0x86BB8F37 EQ PUSH2 0x139 JUMPI DUP1 PUSH4 0x963C49C8 EQ PUSH2 0x14C JUMPI DUP1 PUSH4 0xD1AAD804 EQ PUSH2 0x15F JUMPI DUP1 PUSH4 0xE2EB41FF EQ PUSH2 0x172 JUMPI DUP1 PUSH4 0xFA5D7833 EQ PUSH2 0x1A1 JUMPI PUSH1 0x0 DUP1 REVERT JUMPDEST DUP1 PUSH4 0x1A78656B EQ PUSH2 0x98 JUMPI DUP1 PUSH4 0x449DE779 EQ PUSH2 0xAD JUMPI DUP1 PUSH4 0x4FD66EAE EQ PUSH2 0xC0 JUMPI DUP1 PUSH4 0x5BAF0687 EQ PUSH2 0x116 JUMPI JUMPDEST PUSH1 0x0 DUP1 REVERT JUMPDEST PUSH2 0xAB PUSH2 0xA6 CALLDATASIZE PUSH1 0x4 PUSH2 0x93D JUMP JUMPDEST PUSH2 0x1E7 JUMP JUMPDEST STOP JUMPDEST PUSH2 0xAB PUSH2 0xBB CALLDATASIZE PUSH1 0x4 PUSH2 0x969 JUMP JUMPDEST PUSH2 0x3B2 JUMP JUMPDEST PUSH2 0xF6 PUSH2 0xCE CALLDATASIZE PUSH1 0x4 PUSH2 0x9A7 JUMP JUMPDEST PUSH1 0x1 PUSH1 0x1 PUSH1 0xA0 SHL SUB AND PUSH1 0x0 SWAP1 DUP2 MSTORE PUSH1 0x20 DUP2 SWAP1 MSTORE PUSH1 0x40 SWAP1 KECCAK256 DUP1 SLOAD PUSH1 0x1 DUP3 ADD SLOAD PUSH1 0x2 SWAP1 SWAP3 ADD SLOAD SWAP1 SWAP3 JUMP JUMPDEST PUSH1 0x40 DUP1 MLOAD SWAP4 DUP5 MSTORE PUSH1 0x20 DUP5 ADD SWAP3 SWAP1 SWAP3 MSTORE SWAP1 DUP3 ADD MSTORE PUSH1 0x60 ADD JUMPDEST PUSH1 0x40 MLOAD DUP1 SWAP2 SUB SWAP1 RETURN JUMPDEST PUSH2 0x129 PUSH2 0x124 CALLDATASIZE PUSH1 0x4 PUSH2 0x9C9 JUMP JUMPDEST PUSH2 0x47B JUMP JUMPDEST PUSH1 0x40 MLOAD SWAP1 ISZERO ISZERO DUP2 MSTORE PUSH1 0x20 ADD PUSH2 0x10D JUMP JUMPDEST PUSH2 0xAB PUSH2 0x147 CALLDATASIZE PUSH1 0x4 PUSH2 0x969 JUMP JUMPDEST PUSH2 0x4AA JUMP JUMPDEST PUSH2 0xAB PUSH2 0x15A CALLDATASIZE PUSH1 0x4 PUSH2 0x9F3 JUMP JUMPDEST PUSH2 0x59B JUMP JUMPDEST PUSH2 0xAB PUSH2 0x16D CALLDATASIZE PUSH1 0x4 PUSH2 0xA58 JUMP JUMPDEST PUSH2 0x661 JUMP JUMPDEST PUSH2 0xF6 PUSH2 0x180 CALLDATASIZE PUSH1 0x4 PUSH2 0x9A7 JUMP JUMPDEST PUSH1 0x0 PUSH1 0x20 DUP2 SWAP1 MSTORE SWAP1 DUP2 MSTORE PUSH1 0x40 SWAP1 KECCAK256 DUP1 SLOAD PUSH1 0x1 DUP3 ADD SLOAD PUSH1 0x2 SWAP1 SWAP3 ADD SLOAD SWAP1 SWAP2 SWAP1 DUP4 JUMP JUMPDEST PUSH2 0x1D9 PUSH2 0x1AF CALLDATASIZE PUSH1 0x4 PUSH2 0x9C9 JUMP JUMPDEST PUSH1 0x1 PUSH1 0x1 PUSH1 0xA0 SHL SUB SWAP2 SWAP1 SWAP2 AND PUSH1 0x0 SWAP1 DUP2 MSTORE PUSH1 0x20 DUP2 DUP2 MSTORE PUSH1 0x40 DUP1 DUP4 KECCAK256 SWAP4 DUP4 MSTORE PUSH1 0x4 SWAP1 SWAP4 ADD SWAP1 MSTORE KECCAK256 SLOAD SWAP1 JUMP JUMPDEST PUSH1 0x40 MLOAD SWAP1 DUP2 MSTORE PUSH1 0x20 ADD PUSH2 0x10D JUMP JUMPDEST CALLER PUSH1 0x0 SWAP1 DUP2 MSTORE PUSH1 0x20 DUP2 SWAP1 MSTORE PUSH1 0x40 SWAP1 KECCAK256 PUSH1 0x2 DUP2 ADD SLOAD DUP5 LT ISZERO PUSH2 0x21B JUMPI PUSH1 0x40 MLOAD PUSH4 0xD1459F79 PUSH1 0xE0 SHL DUP2 MSTORE PUSH1 0x4 ADD PUSH1 0x40 MLOAD DUP1 SWAP2 SUB SWAP1 REVERT JUMPDEST DUP1 PUSH1 0x2 ADD SLOAD DUP5 GT ISZERO PUSH2 0x264 JUMPI PUSH1 0x2 DUP2 ADD DUP5 SWAP1 SSTORE PUSH1 0x40 MLOAD DUP5 DUP2 MSTORE CALLER SWAP1 PUSH32 0x91E51C29E7E87A74AD3B8CCBA98538970F50A4309242735467F41E27C6B0FBAC SWAP1 PUSH1 0x20 ADD PUSH1 0x40 MLOAD DUP1 SWAP2 SUB SWAP1 LOG2 JUMPDEST DUP1 PUSH1 0x1 ADD SLOAD DUP4 EQ PUSH2 0x2AC JUMPI PUSH1 0x1 DUP2 ADD DUP4 SWAP1 SSTORE CALLER PUSH32 0xFC88AAF1C80F854CDB8D2C6F22B8C5BDC0390FA19B2BFE229D648637D668D0C7 PUSH1 0x0 PUSH1 0x40 MLOAD SWAP1 DUP2 MSTORE PUSH1 0x20 ADD PUSH1 0x40 MLOAD DUP1 SWAP2 SUB SWAP1 LOG2 JUMPDEST PUSH1 0x0 DUP3 SGT ISZERO PUSH2 0x308 JUMPI DUP2 DUP2 PUSH1 0x0 ADD PUSH1 0x0 DUP3 DUP3 SLOAD PUSH2 0x2C9 SWAP2 SWAP1 PUSH2 0xAFF JUMP JUMPDEST SWAP1 SWAP2 SSTORE POP POP PUSH1 0x40 MLOAD DUP3 DUP2 MSTORE CALLER SWAP1 PUSH32 0xBB3C0C38EA23914D108EE8B9DFA181EFC58D5F81463C78178093AB51A04313DB SWAP1 PUSH1 0x20 ADD PUSH1 0x40 MLOAD DUP1 SWAP2 SUB SWAP1 LOG2 PUSH2 0x35E JUMP JUMPDEST PUSH1 0x0 DUP3 SLT ISZERO PUSH2 0x35E JUMPI PUSH1 0x0 PUSH2 0x31C DUP4 PUSH2 0xB12 JUMP JUMPDEST SWAP1 POP DUP1 DUP3 PUSH1 0x0 ADD SLOAD LT ISZERO PUSH2 0x343 JUMPI PUSH1 0x40 MLOAD PUSH4 0x113A1645 PUSH1 0xE0 SHL DUP2 MSTORE PUSH1 0x4 ADD PUSH1 0x40 MLOAD DUP1 SWAP2 SUB SWAP1 REVERT JUMPDEST DUP1 DUP3 PUSH1 0x0 ADD PUSH1 0x0 DUP3 DUP3 SLOAD PUSH2 0x357 SWAP2 SWAP1 PUSH2 0xAEC JUMP JUMPDEST SWAP1 SWAP2 SSTORE POP POP POP JUMPDEST PUSH1 0x2 DUP2 ADD SLOAD PUSH1 0x1 DUP3 ADD SLOAD DUP3 SLOAD PUSH1 0x40 DUP1 MLOAD SWAP4 DUP5 MSTORE PUSH1 0x20 DUP5 ADD SWAP3 SWAP1 SWAP3 MSTORE SWAP1 DUP3 ADD MSTORE CALLER SWAP1 PUSH32 0x80172B19B45176E5F32E488C1C79F6B916341D71A62525DD81B74BB23A56023 SWAP1 PUSH1 0x60 ADD PUSH1 0x40 MLOAD DUP1 SWAP2 SUB SWAP1 LOG2 POP POP POP POP JUMP JUMPDEST DUP2 PUSH1 0x0 SUB PUSH2 0x3D3 JUMPI PUSH1 0x40 MLOAD PUSH4 0xA2ADE61F PUSH1 0xE0 SHL DUP2 MSTORE PUSH1 0x4 ADD PUSH1 0x40 MLOAD DUP1 SWAP2 SUB SWAP1 REVERT JUMPDEST DUP1 PUSH1 0x0 SUB PUSH2 0x3F4 JUMPI PUSH1 0x40 MLOAD PUSH4 0x524F409B PUSH1 0xE0 SHL DUP2 MSTORE PUSH1 0x4 ADD PUSH1 0x40 MLOAD DUP1 SWAP2 SUB SWAP1 REVERT JUMPDEST CALLER PUSH1 0x0 SWAP1 DUP2 MSTORE PUSH1 0x20 DUP2 DUP2 MSTORE PUSH1 0x40 DUP1 DUP4 KECCAK256 DUP6 DUP5 MSTORE PUSH1 0x3 DUP2 ADD DUP4 MSTORE DUP2 DUP5 KECCAK256 DUP1 SLOAD PUSH1 0xFF NOT AND PUSH1 0x1 OR SWAP1 SSTORE PUSH1 0x4 DUP2 ADD SWAP1 SWAP3 MSTORE DUP3 KECCAK256 DUP1 SLOAD SWAP2 SWAP3 DUP5 SWAP3 PUSH2 0x435 SWAP1 DUP5 SWAP1 PUSH2 0xAFF JUMP JUMPDEST SWAP1 SWAP2 SSTORE POP POP PUSH1 0x40 DUP1 MLOAD DUP5 DUP2 MSTORE PUSH1 0x20 DUP2 ADD DUP5 SWAP1 MSTORE CALLER SWAP2 PUSH32 0xD9BE9C40C7E99DFC974FA3FE3B790AF02AFD2939B5DEDFCCB1BA12933EB27A8E SWAP2 ADD JUMPDEST PUSH1 0x40 MLOAD DUP1 SWAP2 SUB SWAP1 LOG2 POP POP POP JUMP JUMPDEST PUSH1 0x1 PUSH1 0x1 PUSH1 0xA0 SHL SUB DUP3 AND PUSH1 0x0 SWAP1 DUP2 MSTORE PUSH1 0x20 DUP2 DUP2 MSTORE PUSH1 0x40 DUP1 DUP4 KECCAK256 DUP5 DUP5 MSTORE PUSH1 0x3 ADD SWAP1 SWAP2 MSTORE SWAP1 KECCAK256 SLOAD PUSH1 0xFF AND JUMPDEST SWAP3 SWAP2 POP POP JUMP JUMPDEST DUP2 PUSH1 0x0 SUB PUSH2 0x4CB JUMPI PUSH1 0x40 MLOAD PUSH4 0xA2ADE61F PUSH1 0xE0 SHL DUP2 MSTORE PUSH1 0x4 ADD PUSH1 0x40 MLOAD DUP1 SWAP2 SUB SWAP1 REVERT JUMPDEST CALLER PUSH1 0x0 SWAP1 DUP2 MSTORE PUSH1 0x20 DUP2 DUP2 MSTORE PUSH1 0x40 DUP1 DUP4 KECCAK256 DUP6 DUP5 MSTORE PUSH1 0x3 DUP2 ADD DUP4 MSTORE DUP2 DUP5 KECCAK256 DUP1 SLOAD PUSH1 0xFF NOT AND PUSH1 0x1 SWAP1 DUP2 OR SWAP1 SWAP2 SSTORE PUSH1 0x4 DUP3 ADD SWAP1 SWAP4 MSTORE SWAP1 DUP4 KECCAK256 DUP1 SLOAD SWAP2 SWAP4 SWAP1 SWAP2 PUSH2 0x510 SWAP1 DUP5 SWAP1 PUSH2 0xAFF JUMP JUMPDEST SWAP1 SWAP2 SSTORE POP POP DUP1 SLOAD DUP3 SWAP1 DUP3 SWAP1 PUSH1 0x0 SWAP1 PUSH2 0x529 SWAP1 DUP5 SWAP1 PUSH2 0xAFF JUMP JUMPDEST SWAP1 SWAP2 SSTORE POP POP PUSH1 0x40 DUP1 MLOAD DUP5 DUP2 MSTORE PUSH1 0x1 PUSH1 0x20 DUP3 ADD MSTORE CALLER SWAP2 PUSH32 0xD9BE9C40C7E99DFC974FA3FE3B790AF02AFD2939B5DEDFCCB1BA12933EB27A8E SWAP2 ADD PUSH1 0x40 MLOAD DUP1 SWAP2 SUB SWAP1 LOG2 PUSH1 0x40 MLOAD DUP3 DUP2 MSTORE CALLER SWAP1 PUSH32 0xBB3C0C38EA23914D108EE8B9DFA181EFC58D5F81463C78178093AB51A04313DB SWAP1 PUSH1 0x20 ADD PUSH2 0x46E JUMP JUMPDEST DUP1 PUSH1 0x0 SUB PUSH2 0x5A6 JUMPI POP JUMP JUMPDEST CALLER PUSH1 0x0 SWAP1 DUP2 MSTORE PUSH1 0x20 DUP2 SWAP1 MSTORE PUSH1 0x40 DUP2 KECCAK256 PUSH1 0x1 DUP2 ADD DUP1 SLOAD SWAP2 SWAP3 DUP5 SWAP3 PUSH2 0x5CA SWAP1 DUP5 SWAP1 PUSH2 0xAFF JUMP JUMPDEST SWAP1 SWAP2 SSTORE POP POP PUSH1 0x1 DUP2 ADD SLOAD PUSH1 0x0 SWAP1 PUSH2 0x5E4 SWAP1 PUSH2 0x3E8 SWAP1 PUSH2 0xB2E JUMP JUMPDEST SWAP1 POP DUP2 PUSH1 0x2 ADD SLOAD DUP2 GT ISZERO PUSH2 0x62F JUMPI PUSH1 0x2 DUP3 ADD DUP2 SWAP1 SSTORE PUSH1 0x40 MLOAD DUP2 DUP2 MSTORE CALLER SWAP1 PUSH32 0x91E51C29E7E87A74AD3B8CCBA98538970F50A4309242735467F41E27C6B0FBAC SWAP1 PUSH1 0x20 ADD PUSH1 0x40 MLOAD DUP1 SWAP2 SUB SWAP1 LOG2 JUMPDEST PUSH1 0x40 MLOAD DUP4 DUP2 MSTORE CALLER SWAP1 PUSH32 0xFC88AAF1C80F854CDB8D2C6F22B8C5BDC0390FA19B2BFE229D648637D668D0C7 SWAP1 PUSH1 0x20 ADD PUSH2 0x46E JUMP JUMPDEST DUP5 DUP4 EQ PUSH2 0x681 JUMPI PUSH1 0x40 MLOAD PUSH4 0x524F409B PUSH1 0xE0 SHL DUP2 MSTORE PUSH1 0x4 ADD PUSH1 0x40 MLOAD DUP1 SWAP2 SUB SWAP1 REVERT JUMPDEST CALLER PUSH1 0x0 SWAP1 DUP2 MSTORE PUSH1 0x20 DUP2 SWAP1 MSTORE PUSH1 0x40 DUP2 KECCAK256 SWAP1 JUMPDEST DUP7 DUP2 LT ISZERO PUSH2 0x828 JUMPI DUP8 DUP8 DUP3 DUP2 DUP2 LT PUSH2 0x6AC JUMPI PUSH2 0x6AC PUSH2 0xB50 JUMP JUMPDEST SWAP1 POP PUSH1 0x20 MUL ADD CALLDATALOAD PUSH1 0x0 SUB PUSH2 0x6D3 JUMPI PUSH1 0x40 MLOAD PUSH4 0xA2ADE61F PUSH1 0xE0 SHL DUP2 MSTORE PUSH1 0x4 ADD PUSH1 0x40 MLOAD DUP1 SWAP2 SUB SWAP1 REVERT JUMPDEST DUP6 DUP6 DUP3 DUP2 DUP2 LT PUSH2 0x6E5 JUMPI PUSH2 0x6E5 PUSH2 0xB50 JUMP JUMPDEST SWAP1 POP PUSH1 0x20 MUL ADD CALLDATALOAD PUSH1 0x0 SUB PUSH2 0x70C JUMPI PUSH1 0x40 MLOAD PUSH4 0x524F409B PUSH1 0xE0 SHL DUP2 MSTORE PUSH1 0x4 ADD PUSH1 0x40 MLOAD DUP1 SWAP2 SUB SWAP1 REVERT JUMPDEST PUSH1 0x1 DUP3 PUSH1 0x3 ADD PUSH1 0x0 DUP11 DUP11 DUP6 DUP2 DUP2 LT PUSH2 0x726 JUMPI PUSH2 0x726 PUSH2 0xB50 JUMP JUMPDEST SWAP1 POP PUSH1 0x20 MUL ADD CALLDATALOAD DUP2 MSTORE PUSH1 0x20 ADD SWAP1 DUP2 MSTORE PUSH1 0x20 ADD PUSH1 0x0 KECCAK256 PUSH1 0x0 PUSH2 0x100 EXP DUP2 SLOAD DUP2 PUSH1 0xFF MUL NOT AND SWAP1 DUP4 ISZERO ISZERO MUL OR SWAP1 SSTORE POP DUP6 DUP6 DUP3 DUP2 DUP2 LT PUSH2 0x764 JUMPI PUSH2 0x764 PUSH2 0xB50 JUMP JUMPDEST SWAP1 POP PUSH1 0x20 MUL ADD CALLDATALOAD DUP3 PUSH1 0x4 ADD PUSH1 0x0 DUP11 DUP11 DUP6 DUP2 DUP2 LT PUSH2 0x783 JUMPI PUSH2 0x783 PUSH2 0xB50 JUMP JUMPDEST SWAP1 POP PUSH1 0x20 MUL ADD CALLDATALOAD DUP2 MSTORE PUSH1 0x20 ADD SWAP1 DUP2 MSTORE PUSH1 0x20 ADD PUSH1 0x0 KECCAK256 PUSH1 0x0 DUP3 DUP3 SLOAD PUSH2 0x7A7 SWAP2 SWAP1 PUSH2 0xAFF JUMP JUMPDEST SWAP1 SWAP2 SSTORE POP CALLER SWAP1 POP PUSH32 0xD9BE9C40C7E99DFC974FA3FE3B790AF02AFD2939B5DEDFCCB1BA12933EB27A8E DUP10 DUP10 DUP5 DUP2 DUP2 LT PUSH2 0x7E1 JUMPI PUSH2 0x7E1 PUSH2 0xB50 JUMP JUMPDEST SWAP1 POP PUSH1 0x20 MUL ADD CALLDATALOAD DUP9 DUP9 DUP6 DUP2 DUP2 LT PUSH2 0x7FA JUMPI PUSH2 0x7FA PUSH2 0xB50 JUMP JUMPDEST SWAP1 POP PUSH1 0x20 MUL ADD CALLDATALOAD PUSH1 0x40 MLOAD PUSH2 0x818 SWAP3 SWAP2 SWAP1 SWAP2 DUP3 MSTORE PUSH1 0x20 DUP3 ADD MSTORE PUSH1 0x40 ADD SWAP1 JUMP JUMPDEST PUSH1 0x40 MLOAD DUP1 SWAP2 SUB SWAP1 LOG2 PUSH1 0x1 ADD PUSH2 0x692 JUMP JUMPDEST POP DUP3 ISZERO PUSH2 0x87E JUMPI DUP3 DUP2 PUSH1 0x0 ADD PUSH1 0x0 DUP3 DUP3 SLOAD PUSH2 0x843 SWAP2 SWAP1 PUSH2 0xAFF JUMP JUMPDEST SWAP1 SWAP2 SSTORE POP POP PUSH1 0x40 MLOAD DUP4 DUP2 MSTORE CALLER SWAP1 PUSH32 0xBB3C0C38EA23914D108EE8B9DFA181EFC58D5F81463C78178093AB51A04313DB SWAP1 PUSH1 0x20 ADD PUSH1 0x40 MLOAD DUP1 SWAP2 SUB SWAP1 LOG2 JUMPDEST DUP2 ISZERO PUSH2 0x934 JUMPI DUP2 DUP2 PUSH1 0x1 ADD PUSH1 0x0 DUP3 DUP3 SLOAD PUSH2 0x898 SWAP2 SWAP1 PUSH2 0xAFF JUMP JUMPDEST SWAP1 SWAP2 SSTORE POP POP PUSH1 0x1 DUP2 ADD SLOAD PUSH1 0x0 SWAP1 PUSH2 0x8B2 SWAP1 PUSH2 0x3E8 SWAP1 PUSH2 0xB2E JUMP JUMPDEST SWAP1 POP DUP2 PUSH1 0x2 ADD SLOAD DUP2 GT ISZERO PUSH2 0x8FD JUMPI PUSH1 0x2 DUP3 ADD DUP2 SWAP1 SSTORE PUSH1 0x40 MLOAD DUP2 DUP2 MSTORE CALLER SWAP1 PUSH32 0x91E51C29E7E87A74AD3B8CCBA98538970F50A4309242735467F41E27C6B0FBAC SWAP1 PUSH1 0x20 ADD PUSH1 0x40 MLOAD DUP1 SWAP2 SUB SWAP1 LOG2 JUMPDEST PUSH1 0x40 MLOAD DUP4 DUP2 MSTORE CALLER SWAP1 PUSH32 0xFC88AAF1C80F854CDB8D2C6F22B8C5BDC0390FA19B2BFE229D648637D668D0C7 SWAP1 PUSH1 0x20 ADD PUSH1 0x40 MLOAD DUP1 SWAP2 SUB SWAP1 LOG2 POP JUMPDEST POP POP POP POP POP POP POP JUMP JUMPDEST PUSH1 0x0 DUP1 PUSH1 0x0 PUSH1 0x60 DUP5 DUP7 SUB SLT ISZERO PUSH2 0x952 JUMPI PUSH1 0x0 DUP1 REVERT JUMPDEST POP POP DUP2 CALLDATALOAD SWAP4 PUSH1 0x20 DUP4 ADD CALLDATALOAD SWAP4 POP PUSH1 0x40 SWAP1 SWAP3 ADD CALLDATALOAD SWAP2 SWAP1 POP JUMP JUMPDEST PUSH1 0x0 DUP1 PUSH1 0x40 DUP4 DUP6 SUB SLT ISZERO PUSH2 0x97C JUMPI PUSH1 0x0 DUP1 REVERT JUMPDEST POP POP DUP1 CALLDATALOAD SWAP3 PUSH1 0x20 SWAP1 SWAP2 ADD CALLDATALOAD SWAP2 POP JUMP JUMPDEST DUP1 CALLDATALOAD PUSH1 0x1 PUSH1 0x1 PUSH1 0xA0 SHL SUB DUP2 AND DUP2 EQ PUSH2 0x9A2 JUMPI PUSH1 0x0 DUP1 REVERT JUMPDEST SWAP2 SWAP1 POP JUMP JUMPDEST PUSH1 0x0 PUSH1 0x20 DUP3 DUP5 SUB SLT ISZERO PUSH2 0x9B9 JUMPI PUSH1 0x0 DUP1 REVERT JUMPDEST PUSH2 0x9C2 DUP3 PUSH2 0x98B JUMP JUMPDEST SWAP4 SWAP3 POP POP POP JUMP JUMPDEST PUSH1 0x0 DUP1 PUSH1 0x40 DUP4 DUP6 SUB SLT ISZERO PUSH2 0x9DC JUMPI PUSH1 0x0 DUP1 REVERT JUMPDEST PUSH2 0x9E5 DUP4 PUSH2 0x98B JUMP JUMPDEST SWAP5 PUSH1 0x20 SWAP4 SWAP1 SWAP4 ADD CALLDATALOAD SWAP4 POP POP POP JUMP JUMPDEST PUSH1 0x0 PUSH1 0x20 DUP3 DUP5 SUB SLT ISZERO PUSH2 0xA05 JUMPI PUSH1 0x0 DUP1 REVERT JUMPDEST POP CALLDATALOAD SWAP2 SWAP1 POP JUMP JUMPDEST PUSH1 0x0 DUP1 DUP4 PUSH1 0x1F DUP5 ADD SLT PUSH2 0xA1E JUMPI PUSH1 0x0 DUP1 REVERT JUMPDEST POP DUP2 CALLDATALOAD PUSH8 0xFFFFFFFFFFFFFFFF DUP2 GT ISZERO PUSH2 0xA36 JUMPI PUSH1 0x0 DUP1 REVERT JUMPDEST PUSH1 0x20 DUP4 ADD SWAP2 POP DUP4 PUSH1 0x20 DUP3 PUSH1 0x5 SHL DUP6 ADD ADD GT ISZERO PUSH2 0xA51 JUMPI PUSH1 0x0 DUP1 REVERT JUMPDEST SWAP3 POP SWAP3 SWAP1 POP JUMP JUMPDEST PUSH1 0x0 DUP1 PUSH1 0x0 DUP1 PUSH1 0x0 DUP1 PUSH1 0x80 DUP8 DUP10 SUB SLT ISZERO PUSH2 0xA71 JUMPI PUSH1 0x0 DUP1 REVERT JUMPDEST DUP7 CALLDATALOAD PUSH8 0xFFFFFFFFFFFFFFFF DUP1 DUP3 GT ISZERO PUSH2 0xA89 JUMPI PUSH1 0x0 DUP1 REVERT JUMPDEST PUSH2 0xA95 DUP11 DUP4 DUP12 ADD PUSH2 0xA0C JUMP JUMPDEST SWAP1 SWAP9 POP SWAP7 POP PUSH1 0x20 DUP10 ADD CALLDATALOAD SWAP2 POP DUP1 DUP3 GT ISZERO PUSH2 0xAAE JUMPI PUSH1 0x0 DUP1 REVERT JUMPDEST POP PUSH2 0xABB DUP10 DUP3 DUP11 ADD PUSH2 0xA0C JUMP JUMPDEST SWAP8 SWAP11 SWAP7 SWAP10 POP SWAP8 PUSH1 0x40 DUP2 ADD CALLDATALOAD SWAP7 PUSH1 0x60 SWAP1 SWAP2 ADD CALLDATALOAD SWAP6 POP SWAP4 POP POP POP POP JUMP JUMPDEST PUSH4 0x4E487B71 PUSH1 0xE0 SHL PUSH1 0x0 MSTORE PUSH1 0x11 PUSH1 0x4 MSTORE PUSH1 0x24 PUSH1 0x0 REVERT JUMPDEST DUP2 DUP2 SUB DUP2 DUP2 GT ISZERO PUSH2 0x4A4 JUMPI PUSH2 0x4A4 PUSH2 0xAD6 JUMP JUMPDEST DUP1 DUP3 ADD DUP1 DUP3 GT ISZERO PUSH2 0x4A4 JUMPI PUSH2 0x4A4 PUSH2 0xAD6 JUMP JUMPDEST PUSH1 0x0 PUSH1 0x1 PUSH1 0xFF SHL DUP3 ADD PUSH2 0xB27 JUMPI PUSH2 0xB27 PUSH2 0xAD6 JUMP JUMPDEST POP PUSH1 0x0 SUB SWAP1 JUMP JUMPDEST PUSH1 0x0 DUP3 PUSH2 0xB4B JUMPI PUSH4 0x4E487B71 PUSH1 0xE0 SHL PUSH1 0x0 MSTORE PUSH1 0x12 PUSH1 0x4 MSTORE PUSH1 0x24 PUSH1 0x0 REVERT JUMPDEST POP DIV SWAP1 JUMP JUMPDEST PUSH4 0x4E487B71 PUSH1 0xE0 SHL PUSH1 0x0 MSTORE PUSH1 0x32 PUSH1 0x4 MSTORE PUSH1 0x24 PUSH1 0x0 REVERT INVALID LOG2 PUSH5 0x6970667358 0x22 SLT KECCAK256 LOG2 COINBASE ADDRESS 0xE0 0xEF EXP PUSH15 0x3836FA491BEF5E12191B83EE95B1F4 INVALID 0x21 0xD4 PUSH12 0x831B153603B564736F6C6343 STOP ADDMOD OR STOP CALLER "},"methodIdentifiers":{"batchClaimRewards(uint256[],uint256[],uint256,uint256)":"d1aad804","claimReward(uint256,uint256)":"86bb8f37","gainExperience(uint256)":"963c49c8","getItemQuantity(address,uint256)":"fa5d7833","getPlayerStats(address)":"4fd66eae","hasItem(address,uint256)":"5baf0687","mintItem(uint256,uint256)":"449de779","players(address)":"e2eb41ff","updatePlayerState(uint256,uint256,int256)":"1a78656b"}}}}}