{"contracts/GhostSessionDelegate.sol":{"GhostSessionDelegate":{"abi":[{"inputs":[],"name":"ExecutionFailed","type":"error"},{"inputs":[],"name":"InvalidDuration","type":"error"},{"inputs":[],"name":"InvalidSpendLimit","type":"error"},{"inputs":[],"name":"SessionExpired","type":"error"},{"inputs":[],"name":"SessionInactive","type":"error"},{"inputs":[],"name":"SpendingLimitExceededError","type":"error"},{"inputs":[],"name":"UnauthorizedAgent","type":"error"},{"anonymous":false,"inputs":[{"indexed":false,"internalType":"uint256","name":"maxSpendLimit","type":"uint256"},{"indexed":false,"internalType":"uint256","name":"expiresAt","type":"uint256"}],"name":"DelegationSessionCreated","type":"event"},{"anonymous":false,"inputs":[],"name":"DelegationSessionRevoked","type":"event"},{"anonymous":false,"inputs":[{"indexed":true,"internalType":"address","name":"targetContract","type":"address"},{"indexed":true,"internalType":"bytes4","name":"methodSelector","type":"bytes4"},{"indexed":false,"internalType":"bool","name":"success","type":"bool"}],"name":"GameActionExecuted","type":"event"},{"anonymous":false,"inputs":[{"indexed":false,"internalType":"uint256","name":"attempted","type":"uint256"},{"indexed":false,"internalType":"uint256","name":"remaining","type":"uint256"}],"name":"SpendingLimitExceeded","type":"event"},{"inputs":[],"name":"AGENT_ADDRESS","outputs":[{"internalType":"address","name":"","type":"address"}],"stateMutability":"view","type":"function"},{"inputs":[{"internalType":"address[]","name":"targetContracts","type":"address[]"},{"internalType":"bytes[]","name":"callsData","type":"bytes[]"},{"internalType":"uint256[]","name":"values","type":"uint256[]"}],"name":"batchExecuteGameActions","outputs":[],"stateMutability":"payable","type":"function"},{"inputs":[],"name":"emergencyWithdraw","outputs":[],"stateMutability":"nonpayable","type":"function"},{"inputs":[{"internalType":"address","name":"targetContract","type":"address"},{"internalType":"bytes","name":"data","type":"bytes"}],"name":"executeGameAction","outputs":[],"stateMutability":"payable","type":"function"},{"inputs":[{"internalType":"uint256","name":"additionalDuration","type":"uint256"}],"name":"extendSession","outputs":[],"stateMutability":"nonpayable","type":"function"},{"inputs":[],"name":"getAuthorizedAgent","outputs":[{"internalType":"address","name":"","type":"address"}],"stateMutability":"pure","type":"function"},{"inputs":[],"name":"getSessionInfo","outputs":[{"internalType":"uint256","name":"maxSpendLimit","type":"uint256"},{"internalType":"uint256","name":"currentSpent","type":"uint256"},{"internalType":"uint256","name":"expiresAt","type":"uint256"},{"internalType":"bool","name":"isActive","type":"bool"},{"internalType":"uint256","name":"nonce","type":"uint256"},{"internalType":"uint256","name":"remainingLimit","type":"uint256"},{"internalType":"uint256","name":"timeRemaining","type":"uint256"}],"stateMutability":"view","type":"function"},{"inputs":[{"internalType":"uint256","name":"additionalLimit","type":"uint256"}],"name":"increaseSpendingLimit","outputs":[],"stateMutability":"nonpayable","type":"function"},{"inputs":[{"internalType":"uint256","name":"maxSpendLimit","type":"uint256"},{"internalType":"uint256","name":"duration","type":"uint256"}],"name":"initializeSession","outputs":[],"stateMutability":"nonpayable","type":"function"},{"inputs":[],"name":"isSessionValid","outputs":[{"internalType":"bool","name":"","type":"bool"}],"stateMutability":"view","type":"function"},{"inputs":[],"name":"revokeSession","outputs":[],"stateMutability":"nonpayable","type":"function"},{"inputs":[],"name":"session","outputs":[{"internalType":"uint256","name":"maxSpendLimit","type":"uint256"},{"internalType":"uint256","name":"currentSpent","type":"uint256"},{"internalType":"uint256","name":"expiresAt","type":"uint256"},{"internalType":"bool","name":"isActive","type":"bool"},{"internalType":"uint256","name":"nonce","type":"uint256"}],"stateMutability":"view","type":"function"},{"stateMutability":"payable","type":"receive"}],"evm":{"bytecode":{"linkReferences":{},"object":"608060405234801561001057600080fd5b50610e74806100206000396000f3fe6080604052600436106100aa5760003560e01c806369bd69a61161006457806369bd69a6146101c45780639463b1cd146101e4578063c4605d8c1461022e578063cd5e944d14610243578063db1683481461026b578063db2e21bc1461027e57600080fd5b8062782173146100b6578063251d10b0146100cb57806328f58b92146100eb57806332b9708c1461010b57806345bb46341461014b5780635e3568b81461017057600080fd5b366100b157005b600080fd5b6100c96100c4366004610b86565b610293565b005b3480156100d757600080fd5b506100c96100e6366004610c20565b61057b565b3480156100f757600080fd5b506100c9610106366004610c20565b610607565b34801561011757600080fd5b507363e3f5a1fc6432b44a579de55858aaaa00c6e0815b6040516001600160a01b0390911681526020015b60405180910390f35b34801561015757600080fd5b5061016061067e565b6040519015158152602001610142565b34801561017c57600080fd5b5060005460015460025460035460045461019a9493929160ff169085565b6040805195865260208601949094529284019190915215156060830152608082015260a001610142565b3480156101d057600080fd5b506100c96101df366004610c39565b61069a565b3480156101f057600080fd5b506101f96107b2565b604080519788526020880196909652948601939093529015156060850152608084015260a083015260c082015260e001610142565b34801561023a57600080fd5b506100c9610813565b34801561024f57600080fd5b5061012e7363e3f5a1fc6432b44a579de55858aaaa00c6e08181565b6100c9610279366004610c77565b610889565b34801561028a57600080fd5b506100c9610aa6565b337363e3f5a1fc6432b44a579de55858aaaa00c6e081146102c657604051624b0ebd60e41b815260040160405180910390fd5b60035460ff1615806102d9575060025442115b156102f757604051630fe82d2560e11b815260040160405180910390fd5b84831415806103065750828114155b1561032457604051632b3f6d1160e21b815260040160405180910390fd5b6000805b8281101561035e5783838281811061034257610342610cfa565b90506020020135826103549190610d26565b9150600101610328565b5080156103b057600054600154610376908390610d26565b111561039557604051630f52e9bb60e41b815260040160405180910390fd5b80600060010160008282546103aa9190610d26565b90915550505b600480549060006103c083610d3f565b919050555060005b868110156105715760008888838181106103e4576103e4610cfa565b90506020020160208101906103f99190610d58565b6001600160a01b031685858481811061041457610414610cfa565b9050602002013588888581811061042d5761042d610cfa565b905060200281019061043f9190610d7a565b60405161044d929190610dc1565b60006040518083038185875af1925050503d806000811461048a576040519150601f19603f3d011682016040523d82523d6000602084013e61048f565b606091505b50509050806104b157604051632b3f6d1160e21b815260040160405180910390fd5b60008787848181106104c5576104c5610cfa565b90506020028101906104d79190610d7a565b6104e691600491600091610dd1565b6104ef91610dfb565b90506001600160e01b031981168a8a8581811061050e5761050e610cfa565b90506020020160208101906105239190610d58565b6001600160a01b03167f324742d34a8340672f51f63c91bbf1f55ca1d8d580c455a92cf45f5413f2eaf08460405161055f911515815260200190565b60405180910390a350506001016103c8565b5050505050505050565b33301461059a57604051624b0ebd60e41b815260040160405180910390fd5b60035460ff166105bd5760405163f9be14df60e01b815260040160405180910390fd5b8015806105cc575062278d0081115b156105ea57604051637616640160e01b815260040160405180910390fd5b80600060020160008282546105ff9190610d26565b909155505050565b33301461062657604051624b0ebd60e41b815260040160405180910390fd5b60035460ff166106495760405163f9be14df60e01b815260040160405180910390fd5b8060000361066a57604051632ae9bdc160e01b815260040160405180910390fd5b806000800160008282546105ff9190610d26565b60035460009060ff16801561069557506002544211155b905090565b3330146106b957604051624b0ebd60e41b815260040160405180910390fd5b816000036106da57604051632ae9bdc160e01b815260040160405180910390fd5b8015806106e9575062278d0081115b1561070757604051637616640160e01b815260040160405180910390fd5b6040805160a081018252838152600060208201529081016107288342610d26565b8152600160208083018290526000604093840181905284519055830151905581015160025560608101516003805460ff1916911515919091179055608001516004557f2e1901bcdbeab5bf92d0e1f1dcd6b9717408a294041ced63216a67092ae60704826107968342610d26565b6040805192835260208301919091520160405180910390a15050565b6000805460015460025460035460045485948594859485948594859493929160ff16906107df8486610e2b565b60025442106107ef5760006107fd565b6002546107fd904290610e2b565b959d949c50929a50909850965094509092509050565b3330148015906108375750337363e3f5a1fc6432b44a579de55858aaaa00c6e08114155b1561085457604051624b0ebd60e41b815260040160405180910390fd5b6003805460ff191690556040517fe73077badcf39777feed76de1d1ddbd647feffcb6b2ff8388aa5b49c38467f7b90600090a1565b337363e3f5a1fc6432b44a579de55858aaaa00c6e081146108bc57604051624b0ebd60e41b815260040160405180910390fd5b60035460ff166108df5760405163f9be14df60e01b815260040160405180910390fd5b60025442111561090257604051630fe82d2560e11b815260040160405180910390fd5b341561099f57600054600154610919903490610d26565b1115610984576001546000547f4557d1656832972695937c4c01908c84bb87a66221f162f093115077c6987a189134916109539190610e2b565b6040805192835260208301919091520160405180910390a1604051630f52e9bb60e41b815260040160405180910390fd5b34600060010160008282546109999190610d26565b90915550505b600480549060006109af83610d3f565b91905055506000836001600160a01b03163484846040516109d1929190610dc1565b60006040518083038185875af1925050503d8060008114610a0e576040519150601f19603f3d011682016040523d82523d6000602084013e610a13565b606091505b5050905080610a3557604051632b3f6d1160e21b815260040160405180910390fd5b6000610a446004828587610dd1565b610a4d91610dfb565b9050806001600160e01b031916856001600160a01b03167f324742d34a8340672f51f63c91bbf1f55ca1d8d580c455a92cf45f5413f2eaf084604051610a97911515815260200190565b60405180910390a35050505050565b333014610ac557604051624b0ebd60e41b815260040160405180910390fd5b478015610b3757604051600090309083908381818185875af1925050503d8060008114610b0e576040519150601f19603f3d011682016040523d82523d6000602084013e610b13565b606091505b5050905080610b3557604051632b3f6d1160e21b815260040160405180910390fd5b505b50565b60008083601f840112610b4c57600080fd5b50813567ffffffffffffffff811115610b6457600080fd5b6020830191508360208260051b8501011115610b7f57600080fd5b9250929050565b60008060008060008060608789031215610b9f57600080fd5b863567ffffffffffffffff80821115610bb757600080fd5b610bc38a838b01610b3a565b90985096506020890135915080821115610bdc57600080fd5b610be88a838b01610b3a565b90965094506040890135915080821115610c0157600080fd5b50610c0e89828a01610b3a565b979a9699509497509295939492505050565b600060208284031215610c3257600080fd5b5035919050565b60008060408385031215610c4c57600080fd5b50508035926020909101359150565b80356001600160a01b0381168114610c7257600080fd5b919050565b600080600060408486031215610c8c57600080fd5b610c9584610c5b565b9250602084013567ffffffffffffffff80821115610cb257600080fd5b818601915086601f830112610cc657600080fd5b813581811115610cd557600080fd5b876020828501011115610ce757600080fd5b6020830194508093505050509250925092565b634e487b7160e01b600052603260045260246000fd5b634e487b7160e01b600052601160045260246000fd5b80820180821115610d3957610d39610d10565b92915050565b600060018201610d5157610d51610d10565b5060010190565b600060208284031215610d6a57600080fd5b610d7382610c5b565b9392505050565b6000808335601e19843603018112610d9157600080fd5b83018035915067ffffffffffffffff821115610dac57600080fd5b602001915036819003821315610b7f57600080fd5b8183823760009101908152919050565b60008085851115610de157600080fd5b83861115610dee57600080fd5b5050820193919092039150565b6001600160e01b03198135818116916004851015610e235780818660040360031b1b83161692505b505092915050565b81810381811115610d3957610d39610d1056fea2646970667358221220e2385e25098c3467aabcd2380814e1abbeca4ab688eb7fbaf788cc8dc398faef64736f6c63430008170033","opcodes":"PUSH1 0x80 PUSH1 0x40 MSTORE CALLVALUE DUP1 ISZERO PUSH2 0x10 JUMPI PUSH1 0x0 DUP1 REVERT JUMPDEST POP PUSH2 0xE74 DUP1 PUSH2 0x20 PUSH1 0x0 CODECOPY PUSH1 0x0 RETURN INVALID PUSH1 0x80 PUSH1 0x40 MSTORE PUSH1 0x4 CALLDATASIZE LT PUSH2 0xAA JUMPI PUSH1 0x0 CALLDATALOAD PUSH1 0xE0 SHR DUP1 PUSH4 0x69BD69A6 GT PUSH2 0x64 JUMPI DUP1 PUSH4 0x69BD69A6 EQ PUSH2 0x1C4 JUMPI DUP1 PUSH4 0x9463B1CD EQ PUSH2 0x1E4 JUMPI DUP1 PUSH4 0xC4605D8C EQ PUSH2 0x22E JUMPI DUP1 PUSH4 0xCD5E944D EQ PUSH2 0x243 JUMPI DUP1 PUSH4 0xDB168348 EQ PUSH2 0x26B JUMPI DUP1 PUSH4 0xDB2E21BC EQ PUSH2 0x27E JUMPI PUSH1 0x0 DUP1 REVERT JUMPDEST DUP1 PUSH3 0x782173 EQ PUSH2 0xB6 JUMPI DUP1 PUSH4 0x251D10B0 EQ PUSH2 0xCB JUMPI DUP1 PUSH4 0x28F58B92 EQ PUSH2 0xEB JUMPI DUP1 PUSH4 0x32B9708C EQ PUSH2 0x10B JUMPI DUP1 PUSH4 0x45BB4634 EQ PUSH2 0x14B JUMPI DUP1 PUSH4 0x5E3568B8 EQ PUSH2 0x170 JUMPI PUSH1 0x0 DUP1 REVERT JUMPDEST CALLDATASIZE PUSH2 0xB1 JUMPI STOP JUMPDEST PUSH1 0x0 DUP1 REVERT JUMPDEST PUSH2 0xC9 PUSH2 0xC4 CALLDATASIZE PUSH1 0x4 PUSH2 0xB86 JUMP JUMPDEST PUSH2 0x293 JUMP JUMPDEST STOP JUMPDEST CALLVALUE DUP1 ISZERO PUSH2 0xD7 JUMPI PUSH1 0x0 DUP1 REVERT JUMPDEST POP PUSH2 0xC9 PUSH2 0xE6 CALLDATASIZE PUSH1 0x4 PUSH2 0xC20 JUMP JUMPDEST PUSH2 0x57B JUMP JUMPDEST CALLVALUE DUP1 ISZERO PUSH2 0xF7 JUMPI PUSH1 0x0 DUP1 REVERT JUMPDEST POP PUSH2 0xC9 PUSH2 0x106 CALLDATASIZE PUSH1 0x4 PUSH2 0xC20 JUMP JUMPDEST PUSH2 0x607 JUMP JUMPDEST CALLVALUE DUP1 ISZERO PUSH2 0x117 JUMPI PUSH1 0x0 DUP1 REVERT JUMPDEST POP PUSH20 0x63E3F5A1FC6432B44A579DE55858AAAA00C6E081 JUMPDEST PUSH1 0x40 MLOAD PUSH1 0x1 PUSH1 0x1 PUSH1 0xA0 SHL SUB SWAP1 SWAP2 AND DUP2 MSTORE PUSH1 0x20 ADD JUMPDEST PUSH1 0x40 MLOAD DUP1 SWAP2 SUB SWAP1 RETURN JUMPDEST CALLVALUE DUP1 ISZERO PUSH2 0x157 JUMPI PUSH1 0x0 DUP1 REVERT JUMPDEST POP PUSH2 0x160 PUSH2 0x67E JUMP JUMPDEST PUSH1 0x40 MLOAD SWAP1 ISZERO ISZERO DUP2 MSTORE PUSH1 0x20 ADD PUSH2 0x142 JUMP JUMPDEST CALLVALUE DUP1 ISZERO PUSH2 0x17C JUMPI PUSH1 0x0 DUP1 REVERT JUMPDEST POP PUSH1 0x0 SLOAD PUSH1 0x1 SLOAD PUSH1 0x2 SLOAD PUSH1 0x3 SLOAD PUSH1 0x4 SLOAD PUSH2 0x19A SWAP5 SWAP4 SWAP3 SWAP2 PUSH1 0xFF AND SWAP1 DUP6 JUMP JUMPDEST PUSH1 0x40 DUP1 MLOAD SWAP6 DUP7 MSTORE PUSH1 0x20 DUP7 ADD SWAP5 SWAP1 SWAP5 MSTORE SWAP3 DUP5 ADD SWAP2 SWAP1 SWAP2 MSTORE ISZERO ISZERO PUSH1 0x60 DUP4 ADD MSTORE PUSH1 0x80 DUP3 ADD MSTORE PUSH1 0xA0 ADD PUSH2 0x142 JUMP JUMPDEST CALLVALUE DUP1 ISZERO PUSH2 0x1D0 JUMPI PUSH1 0x0 DUP1 REVERT JUMPDEST POP PUSH2 0xC9 PUSH2 0x1DF CALLDATASIZE PUSH1 0x4 PUSH2 0xC39 JUMP JUMPDEST PUSH2 0x69A JUMP JUMPDEST CALLVALUE DUP1 ISZERO PUSH2 0x1F0 JUMPI PUSH1 0x0 DUP1 REVERT JUMPDEST POP PUSH2 0x1F9 PUSH2 0x7B2 JUMP JUMPDEST PUSH1 0x40 DUP1 MLOAD SWAP8 DUP9 MSTORE PUSH1 0x20 DUP9 ADD SWAP7 SWAP1 SWAP7 MSTORE SWAP5 DUP7 ADD SWAP4 SWAP1 SWAP4 MSTORE SWAP1 ISZERO ISZERO PUSH1 0x60 DUP6 ADD MSTORE PUSH1 0x80 DUP5 ADD MSTORE PUSH1 0xA0 DUP4 ADD MSTORE PUSH1 0xC0 DUP3 ADD MSTORE PUSH1 0xE0 ADD PUSH2 0x142 JUMP JUMPDEST CALLVALUE DUP1 ISZERO PUSH2 0x23A JUMPI PUSH1 0x0 DUP1 REVERT JUMPDEST POP PUSH2 0xC9 PUSH2 0x813 JUMP JUMPDEST CALLVALUE DUP1 ISZERO PUSH2 0x24F JUMPI PUSH1 0x0 DUP1 REVERT JUMPDEST POP PUSH2 0x12E PUSH20 0x63E3F5A1FC6432B44A579DE55858AAAA00C6E081 DUP2 JUMP JUMPDEST PUSH2 0xC9 PUSH2 0x279 CALLDATASIZE PUSH1 0x4 PUSH2 0xC77 JUMP JUMPDEST PUSH2 0x889 JUMP JUMPDEST CALLVALUE DUP1 ISZERO PUSH2 0x28A JUMPI PUSH1 0x0 DUP1 REVERT JUMPDEST POP PUSH2 0xC9 PUSH2 0xAA6 JUMP JUMPDEST CALLER PUSH20 0x63E3F5A1FC6432B44A579DE55858AAAA00C6E081 EQ PUSH2 0x2C6 JUMPI PUSH1 0x40 MLOAD PUSH3 0x4B0EBD PUSH1 0xE4 SHL DUP2 MSTORE PUSH1 0x4 ADD PUSH1 0x40 MLOAD DUP1 SWAP2 SUB SWAP1 REVERT JUMPDEST PUSH1 0x3 SLOAD PUSH1 0xFF AND ISZERO DUP1 PUSH2 0x2D9 JUMPI POP PUSH1 0x2 SLOAD TIMESTAMP GT JUMPDEST ISZERO PUSH2 0x2F7 JUMPI PUSH1 0x40 MLOAD PUSH4 0xFE82D25 PUSH1 0xE1 SHL DUP2 MSTORE PUSH1 0x4 ADD PUSH1 0x40 MLOAD DUP1 SWAP2 SUB SWAP1 REVERT JUMPDEST DUP5 DUP4 EQ ISZERO DUP1 PUSH2 0x306 JUMPI POP DUP3 DUP2 EQ ISZERO JUMPDEST ISZERO PUSH2 0x324 JUMPI PUSH1 0x40 MLOAD PUSH4 0x2B3F6D11 PUSH1 0xE2 SHL DUP2 MSTORE PUSH1 0x4 ADD PUSH1 0x40 MLOAD DUP1 SWAP2 SUB SWAP1 REVERT JUMPDEST PUSH1 0x0 DUP1 JUMPDEST DUP3 DUP2 LT ISZERO PUSH2 0x35E JUMPI DUP4 DUP4 DUP3 DUP2 DUP2 LT PUSH2 0x342 JUMPI PUSH2 0x342 PUSH2 0xCFA JUMP JUMPDEST SWAP1 POP PUSH1 0x20 MUL ADD CALLDATALOAD DUP3 PUSH2 0x354 SWAP2 SWAP1 PUSH2 0xD26 JUMP JUMPDEST SWAP2 POP PUSH1 0x1 ADD PUSH2 0x328 JUMP JUMPDEST POP DUP1 ISZERO PUSH2 0x3B0 JUMPI PUSH1 0x0 SLOAD PUSH1 0x1 SLOAD PUSH2 0x376 SWAP1 DUP4 SWAP1 PUSH2 0xD26 JUMP JUMPDEST GT ISZERO PUSH2 0x395 JUMPI PUSH1 0x40 MLOAD PUSH4 0xF52E9BB PUSH1 0xE4 SHL DUP2 MSTORE PUSH1 0x4 ADD PUSH1 0x40 MLOAD DUP1 SWAP2 SUB SWAP1 REVERT JUMPDEST DUP1 PUSH1 0x0 PUSH1 0x1 ADD PUSH1 0x0 DUP3 DUP3 SLOAD PUSH2 0x3AA SWAP2 SWAP1 PUSH2 0xD26 JUMP JUMPDEST SWAP1 SWAP2 SSTORE POP POP JUMPDEST PUSH1 0x4 DUP1 SLOAD SWAP1 PUSH1 0x0 PUSH2 0x3C0 DUP4 PUSH2 0xD3F JUMP JUMPDEST SWAP2 SWAP1 POP SSTORE POP PUSH1 0x0 JUMPDEST DUP7 DUP2 LT ISZERO PUSH2 0x571 JUMPI PUSH1 0x0 DUP9 DUP9 DUP4 DUP2 DUP2 LT PUSH2 0x3E4 JUMPI PUSH2 0x3E4 PUSH2 0xCFA JUMP JUMPDEST SWAP1 POP PUSH1 0x20 MUL ADD PUSH1 0x20 DUP2 ADD SWAP1 PUSH2 0x3F9 SWAP2 SWAP1 PUSH2 0xD58 JUMP JUMPDEST PUSH1 0x1 PUSH1 0x1 PUSH1 0xA0 SHL SUB AND DUP6 DUP6 DUP5 DUP2 DUP2 LT PUSH2 0x414 JUMPI PUSH2 0x414 PUSH2 0xCFA JUMP JUMPDEST SWAP1 POP PUSH1 0x20 MUL ADD CALLDATALOAD DUP9 DUP9 DUP6 DUP2 DUP2 LT PUSH2 0x42D JUMPI PUSH2 0x42D PUSH2 0xCFA JUMP JUMPDEST SWAP1 POP PUSH1 0x20 MUL DUP2 ADD SWAP1 PUSH2 0x43F SWAP2 SWAP1 PUSH2 0xD7A JUMP JUMPDEST PUSH1 0x40 MLOAD PUSH2 0x44D SWAP3 SWAP2 SWAP1 PUSH2 0xDC1 JUMP JUMPDEST PUSH1 0x0 PUSH1 0x40 MLOAD DUP1 DUP4 SUB DUP2 DUP6 DUP8 GAS CALL SWAP3 POP POP POP RETURNDATASIZE DUP1 PUSH1 0x0 DUP2 EQ PUSH2 0x48A JUMPI PUSH1 0x40 MLOAD SWAP2 POP PUSH1 0x1F NOT PUSH1 0x3F RETURNDATASIZE ADD AND DUP3 ADD PUSH1 0x40 MSTORE RETURNDATASIZE DUP3 MSTORE RETURNDATASIZE PUSH1 0x0 PUSH1 0x20 DUP5 ADD RETURNDATACOPY PUSH2 0x48F JUMP JUMPDEST PUSH1 0x60 SWAP2 POP JUMPDEST POP POP SWAP1 POP DUP1 PUSH2 0x4B1 JUMPI PUSH1 0x40 MLOAD PUSH4 0x2B3F6D11 PUSH1 0xE2 SHL DUP2 MSTORE PUSH1 0x4 ADD PUSH1 0x40 MLOAD DUP1 SWAP2 SUB SWAP1 REVERT JUMPDEST PUSH1 0x0 DUP8 DUP8 DUP5 DUP2 DUP2 LT PUSH2 0x4C5 JUMPI PUSH2 0x4C5 PUSH2 0xCFA JUMP JUMPDEST SWAP1 POP PUSH1 0x20 MUL DUP2 ADD SWAP1 PUSH2 0x4D7 SWAP2 SWAP1 PUSH2 0xD7A JUMP JUMPDEST PUSH2 0x4E6 SWAP2 PUSH1 0x4 SWAP2 PUSH1 0x0 SWAP2 PUSH2 0xDD1 JUMP JUMPDEST PUSH2 0x4EF SWAP2 PUSH2 0xDFB JUMP JUMPDEST SWAP1 POP PUSH1 0x1 PUSH1 0x1 PUSH1 0xE0 SHL SUB NOT DUP2 AND DUP11 DUP11 DUP6 DUP2 DUP2 LT PUSH2 0x50E JUMPI PUSH2 0x50E PUSH2 0xCFA JUMP JUMPDEST SWAP1 POP PUSH1 0x20 MUL ADD PUSH1 0x20 DUP2 ADD SWAP1 PUSH2 0x523 SWAP2 SWAP1 PUSH2 0xD58 JUMP JUMPDEST PUSH1 0x1 PUSH1 0x1 PUSH1 0xA0 SHL SUB AND PUSH32 0x324742D34A8340672F51F63C91BBF1F55CA1D8D580C455A92CF45F5413F2EAF0 DUP5 PUSH1 0x40 MLOAD PUSH2 0x55F SWAP2 ISZERO ISZERO DUP2 MSTORE PUSH1 0x20 ADD SWAP1 JUMP JUMPDEST PUSH1 0x40 MLOAD DUP1 SWAP2 SUB SWAP1 LOG3 POP POP PUSH1 0x1 ADD PUSH2 0x3C8 JUMP JUMPDEST POP POP POP POP POP POP POP POP JUMP JUMPDEST CALLER ADDRESS EQ PUSH2 0x59A JUMPI PUSH1 0x40 MLOAD PUSH3 0x4B0EBD PUSH1 0xE4 SHL DUP2 MSTORE PUSH1 0x4 ADD PUSH1 0x40 MLOAD DUP1 SWAP2 SUB SWAP1 REVERT JUMPDEST PUSH1 0x3 SLOAD PUSH1 0xFF AND PUSH2 0x5BD JUMPI PUSH1 0x40 MLOAD PUSH4 0xF9BE14DF PUSH1 0xE0 SHL DUP2 MSTORE PUSH1 0x4 ADD PUSH1 0x40 MLOAD DUP1 SWAP2 SUB SWAP1 REVERT JUMPDEST DUP1 ISZERO DUP1 PUSH2 0x5CC JUMPI POP PUSH3 0x278D00 DUP2 GT JUMPDEST ISZERO PUSH2 0x5EA JUMPI PUSH1 0x40 MLOAD PUSH4 0x76166401 PUSH1 0xE0 SHL DUP2 MSTORE PUSH1 0x4 ADD PUSH1 0x40 MLOAD DUP1 SWAP2 SUB SWAP1 REVERT JUMPDEST DUP1 PUSH1 0x0 PUSH1 0x2 ADD PUSH1 0x0 DUP3 DUP3 SLOAD PUSH2 0x5FF SWAP2 SWAP1 PUSH2 0xD26 JUMP JUMPDEST SWAP1 SWAP2 SSTORE POP POP POP JUMP JUMPDEST CALLER ADDRESS EQ PUSH2 0x626 JUMPI PUSH1 0x40 MLOAD PUSH3 0x4B0EBD PUSH1 0xE4 SHL DUP2 MSTORE PUSH1 0x4 ADD PUSH1 0x40 MLOAD DUP1 SWAP2 SUB SWAP1 REVERT JUMPDEST PUSH1 0x3 SLOAD PUSH1 0xFF AND PUSH2 0x649 JUMPI PUSH1 0x40 MLOAD PUSH4 0xF9BE14DF PUSH1 0xE0 SHL DUP2 MSTORE PUSH1 0x4 ADD PUSH1 0x40 MLOAD DUP1 SWAP2 SUB SWAP1 REVERT JUMPDEST DUP1 PUSH1 0x0 SUB PUSH2 0x66A JUMPI PUSH1 0x40 MLOAD PUSH4 0x2AE9BDC1 PUSH1 0xE0 SHL DUP2 MSTORE PUSH1 0x4 ADD PUSH1 0x40 MLOAD DUP1 SWAP2 SUB SWAP1 REVERT JUMPDEST DUP1 PUSH1 0x0 DUP1 ADD PUSH1 0x0 DUP3 DUP3 SLOAD PUSH2 0x5FF SWAP2 SWAP1 PUSH2 0xD26 JUMP JUMPDEST PUSH1 0x3 SLOAD PUSH1 0x0 SWAP1 PUSH1 0xFF AND DUP1 ISZERO PUSH2 0x695 JUMPI POP PUSH1 0x2 SLOAD TIMESTAMP GT ISZERO JUMPDEST SWAP1 POP SWAP1 JUMP JUMPDEST CALLER ADDRESS EQ PUSH2 0x6B9 JUMPI PUSH1 0x40 MLOAD PUSH3 0x4B0EBD PUSH1 0xE4 SHL DUP2 MSTORE PUSH1 0x4 ADD PUSH1 0x40 MLOAD DUP1 SWAP2 SUB SWAP1 REVERT JUMPDEST DUP2 PUSH1 0x0 SUB PUSH2 0x6DA JUMPI PUSH1 0x40 MLOAD PUSH4 0x2AE9BDC1 PUSH1 0xE0 SHL DUP2 MSTORE PUSH1 0x4 ADD PUSH1 0x40 MLOAD DUP1 SWAP2 SUB SWAP1 REVERT JUMPDEST DUP1 ISZERO DUP1 PUSH2 0x6E9 JUMPI POP PUSH3 0x278D00 DUP2 GT JUMPDEST ISZERO PUSH2 0x707 JUMPI PUSH1 0x40 MLOAD PUSH4 0x76166401 PUSH1 0xE0 SHL DUP2 MSTORE PUSH1 0x4 ADD PUSH1 0x40 MLOAD DUP1 SWAP2 SUB SWAP1 REVERT JUMPDEST PUSH1 0x40 DUP1 MLOAD PUSH1 0xA0 DUP2 ADD DUP3 MSTORE DUP4 DUP2 MSTORE PUSH1 0x0 PUSH1 0x20 DUP3 ADD MSTORE SWAP1 DUP2 ADD PUSH2 0x728 DUP4 TIMESTAMP PUSH2 0xD26 JUMP JUMPDEST DUP2 MSTORE PUSH1 0x1 PUSH1 0x20 DUP1 DUP4 ADD DUP3 SWAP1 MSTORE PUSH1 0x0 PUSH1 0x40 SWAP4 DUP5 ADD DUP2 SWAP1 MSTORE DUP5 MLOAD SWAP1 SSTORE DUP4 ADD MLOAD SWAP1 SSTORE DUP2 ADD MLOAD PUSH1 0x2 SSTORE PUSH1 0x60 DUP2 ADD MLOAD PUSH1 0x3 DUP1 SLOAD PUSH1 0xFF NOT AND SWAP2 ISZERO ISZERO SWAP2 SWAP1 SWAP2 OR SWAP1 SSTORE PUSH1 0x80 ADD MLOAD PUSH1 0x4 SSTORE PUSH32 0x2E1901BCDBEAB5BF92D0E1F1DCD6B9717408A294041CED63216A67092AE60704 DUP3 PUSH2 0x796 DUP4 TIMESTAMP PUSH2 0xD26 JUMP JUMPDEST PUSH1 0x40 DUP1 MLOAD SWAP3 DUP4 MSTORE PUSH1 0x20 DUP4 ADD SWAP2 SWAP1 SWAP2 MSTORE ADD PUSH1 0x40 MLOAD DUP1 SWAP2 SUB SWAP1 LOG1 POP POP JUMP JUMPDEST PUSH1 0x0 DUP1 SLOAD PUSH1 0x1 SLOAD PUSH1 0x2 SLOAD PUSH1 0x3 SLOAD PUSH1 0x4 SLOAD DUP6 SWAP5 DUP6 SWAP5 DUP6 SWAP5 DUP6 SWAP5 DUP6 SWAP5 DUP6 SWAP5 SWAP4 SWAP3 SWAP2 PUSH1 0xFF AND SWAP1 PUSH2 0x7DF DUP5 DUP7 PUSH2 0xE2B JUMP JUMPDEST PUSH1 0x2 SLOAD TIMESTAMP LT PUSH2 0x7EF JUMPI PUSH1 0x0 PUSH2 0x7FD JUMP JUMPDEST PUSH1 0x2 SLOAD PUSH2 0x7FD SWAP1 TIMESTAMP SWAP1 PUSH2 0xE2B JUMP JUMPDEST SWAP6 SWAP14 SWAP5 SWAP13 POP SWAP3 SWAP11 POP SWAP1 SWAP9 POP SWAP7 POP SWAP5 POP SWAP1 SWAP3 POP SWAP1 POP JUMP JUMPDEST CALLER ADDRESS EQ DUP1 ISZERO SWAP1 PUSH2 0x837 JUMPI POP CALLER PUSH20 0x63E3F5A1FC6432B44A579DE55858AAAA00C6E081 EQ ISZERO JUMPDEST ISZERO PUSH2 0x854 JUMPI PUSH1 0x40 MLOAD PUSH3 0x4B0EBD PUSH1 0xE4 SHL DUP2 MSTORE PUSH1 0x4 ADD PUSH1 0x40 MLOAD DUP1 SWAP2 SUB SWAP1 REVERT JUMPDEST PUSH1 0x3 DUP1 SLOAD PUSH1 0xFF NOT AND SWAP1 SSTORE PUSH1 0x40 MLOAD PUSH32 0xE73077BADCF39777FEED76DE1D1DDBD647FEFFCB6B2FF8388AA5B49C38467F7B SWAP1 PUSH1 0x0 SWAP1 LOG1 JUMP JUMPDEST CALLER PUSH20 0x63E3F5A1FC6432B44A579DE55858AAAA00C6E081 EQ PUSH2 0x8BC JUMPI PUSH1 0x40 MLOAD PUSH3 0x4B0EBD PUSH1 0xE4 SHL DUP2 MSTORE PUSH1 0x4 ADD PUSH1 0x40 MLOAD DUP1 SWAP2 SUB SWAP1 REVERT JUMPDEST PUSH1 0x3 SLOAD PUSH1 0xFF AND PUSH2 0x8DF JUMPI PUSH1 0x40 MLOAD PUSH4 0xF9BE14DF PUSH1 0xE0 SHL DUP2 MSTORE PUSH1 0x4 ADD PUSH1 0x40 MLOAD DUP1 SWAP2 SUB SWAP1 REVERT JUMPDEST PUSH1 0x2 SLOAD TIMESTAMP GT ISZERO PUSH2 0x902 JUMPI PUSH1 0x40 MLOAD PUSH4 0xFE82D25 PUSH1 0xE1 SHL DUP2 MSTORE PUSH1 0x4 ADD PUSH1 0x40 MLOAD DUP1 SWAP2 SUB SWAP1 REVERT JUMPDEST CALLVALUE ISZERO PUSH2 0x99F JUMPI PUSH1 0x0 SLOAD PUSH1 0x1 SLOAD PUSH2 0x919 SWAP1 CALLVALUE SWAP1 PUSH2 0xD26 JUMP JUMPDEST GT ISZERO PUSH2 0x984 JUMPI PUSH1 0x1 SLOAD PUSH1 0x0 SLOAD PUSH32 0x4557D1656832972695937C4C01908C84BB87A66221F162F093115077C6987A18 SWAP2 CALLVALUE SWAP2 PUSH2 0x953 SWAP2 SWAP1 PUSH2 0xE2B JUMP JUMPDEST PUSH1 0x40 DUP1 MLOAD SWAP3 DUP4 MSTORE PUSH1 0x20 DUP4 ADD SWAP2 SWAP1 SWAP2 MSTORE ADD PUSH1 0x40 MLOAD DUP1 SWAP2 SUB SWAP1 LOG1 PUSH1 0x40 MLOAD PUSH4 0xF52E9BB PUSH1 0xE4 SHL DUP2 MSTORE PUSH1 0x4 ADD PUSH1 0x40 MLOAD DUP1 SWAP2 SUB SWAP1 REVERT JUMPDEST CALLVALUE PUSH1 0x0 PUSH1 0x1 ADD PUSH1 0x0 DUP3 DUP3 SLOAD PUSH2 0x999 SWAP2 SWAP1 PUSH2 0xD26 JUMP JUMPDEST SWAP1 SWAP2 SSTORE POP POP JUMPDEST PUSH1 0x4 DUP1 SLOAD SWAP1 PUSH1 0x0 PUSH2 0x9AF DUP4 PUSH2 0xD3F JUMP JUMPDEST SWAP2 SWAP1 POP SSTORE POP PUSH1 0x0 DUP4 PUSH1 0x1 PUSH1 0x1 PUSH1 0xA0 SHL SUB AND CALLVALUE DUP5 DUP5 PUSH1 0x40 MLOAD PUSH2 0x9D1 SWAP3 SWAP2 SWAP1 PUSH2 0xDC1 JUMP JUMPDEST PUSH1 0x0 PUSH1 0x40 MLOAD DUP1 DUP4 SUB DUP2 DUP6 DUP8 GAS CALL SWAP3 POP POP POP RETURNDATASIZE DUP1 PUSH1 0x0 DUP2 EQ PUSH2 0xA0E JUMPI PUSH1 0x40 MLOAD SWAP2 POP PUSH1 0x1F NOT PUSH1 0x3F RETURNDATASIZE ADD AND DUP3 ADD PUSH1 0x40 MSTORE RETURNDATASIZE DUP3 MSTORE RETURNDATASIZE PUSH1 0x0 PUSH1 0x20 DUP5 ADD RETURNDATACOPY PUSH2 0xA13 JUMP JUMPDEST PUSH1 0x60 SWAP2 POP JUMPDEST POP POP SWAP1 POP DUP1 PUSH2 0xA35 JUMPI PUSH1 0x40 MLOAD PUSH4 0x2B3F6D11 PUSH1 0xE2 SHL DUP2 MSTORE PUSH1 0x4 ADD PUSH1 0x40 MLOAD DUP1 SWAP2 SUB SWAP1 REVERT JUMPDEST PUSH1 0x0 PUSH2 0xA44 PUSH1 0x4 DUP3 DUP6 DUP8 PUSH2 0xDD1 JUMP JUMPDEST PUSH2 0xA4D SWAP2 PUSH2 0xDFB JUMP JUMPDEST SWAP1 POP DUP1 PUSH1 0x1 PUSH1 0x1 PUSH1 0xE0 SHL SUB NOT AND DUP6 PUSH1 0x1 PUSH1 0x1 PUSH1 0xA0 SHL SUB AND PUSH32 0x324742D34A8340672F51F63C91BBF1F55CA1D8D580C455A92CF45F5413F2EAF0 DUP5 PUSH1 0x40 MLOAD PUSH2 0xA97 SWAP2 ISZERO ISZERO DUP2 MSTORE PUSH1 0x20 ADD SWAP1 JUMP JUMPDEST PUSH1 0x40 MLOAD DUP1 SWAP2 SUB SWAP1 LOG3 POP POP POP POP POP JUMP JUMPDEST CALLER ADDRESS EQ PUSH2 0xAC5 JUMPI PUSH1 0x40 MLOAD PUSH3 0x4B0EBD PUSH1 0xE4 SHL DUP2 MSTORE PUSH1 0x4 ADD PUSH1 0x40 MLOAD DUP1 SWAP2 SUB SWAP1 REVERT JUMPDEST SELFBALANCE DUP1 ISZERO PUSH2 0xB37 JUMPI PUSH1 0x40 MLOAD PUSH1 0x0 SWAP1 ADDRESS SWAP1 DUP4 SWAP1 DUP4 DUP2 DUP2 DUP2 DUP6 DUP8 GAS CALL SWAP3 POP POP POP RETURNDATASIZE DUP1 PUSH1 0x0 DUP2 EQ PUSH2 0xB0E JUMPI PUSH1 0x40 MLOAD SWAP2 POP PUSH1 0x1F NOT PUSH1 0x3F RETURNDATASIZE ADD AND DUP3 ADD PUSH1 0x40 MSTORE RETURNDATASIZE DUP3 MSTORE RETURNDATASIZE PUSH1 0x0 PUSH1 0x20 DUP5 ADD RETURNDATACOPY PUSH2 0xB13 JUMP JUMPDEST PUSH1 0x60 SWAP2 POP JUMPDEST POP POP SWAP1 POP DUP1 PUSH2 0xB35 JUMPI PUSH1 0x40 MLOAD PUSH4 0x2B3F6D11 PUSH1 0xE2 SHL DUP2 MSTORE PUSH1 0x4 ADD PUSH1 0x40 MLOAD DUP1 SWAP2 SUB SWAP1 REVERT JUMPDEST POP JUMPDEST POP JUMP JUMPDEST PUSH1 0x0 DUP1 DUP4 PUSH1 0x1F DUP5 ADD SLT PUSH2 0xB4C JUMPI PUSH1 0x0 DUP1 REVERT JUMPDEST POP DUP2 CALLDATALOAD PUSH8 0xFFFFFFFFFFFFFFFF DUP2 GT ISZERO PUSH2 0xB64 JUMPI PUSH1 0x0 DUP1 REVERT JUMPDEST PUSH1 0x20 DUP4 ADD SWAP2 POP DUP4 PUSH1 0x20 DUP3 PUSH1 0x5 SHL DUP6 ADD ADD GT ISZERO PUSH2 0xB7F JUMPI PUSH1 0x0 DUP1 REVERT JUMPDEST SWAP3 POP SWAP3 SWAP1 POP JUMP JUMPDEST PUSH1 0x0 DUP1 PUSH1 0x0 DUP1 PUSH1 0x0 DUP1 PUSH1 0x60 DUP8 DUP10 SUB SLT ISZERO PUSH2 0xB9F JUMPI PUSH1 0x0 DUP1 REVERT JUMPDEST DUP7 CALLDATALOAD PUSH8 0xFFFFFFFFFFFFFFFF DUP1 DUP3 GT ISZERO PUSH2 0xBB7 JUMPI PUSH1 0x0 DUP1 REVERT JUMPDEST PUSH2 0xBC3 DUP11 DUP4 DUP12 ADD PUSH2 0xB3A JUMP JUMPDEST SWAP1 SWAP9 POP SWAP7 POP PUSH1 0x20 DUP10 ADD CALLDATALOAD SWAP2 POP DUP1 DUP3 GT ISZERO PUSH2 0xBDC JUMPI PUSH1 0x0 DUP1 REVERT JUMPDEST PUSH2 0xBE8 DUP11 DUP4 DUP12 ADD PUSH2 0xB3A JUMP JUMPDEST SWAP1 SWAP7 POP SWAP5 POP PUSH1 0x40 DUP10 ADD CALLDATALOAD SWAP2 POP DUP1 DUP3 GT ISZERO PUSH2 0xC01 JUMPI PUSH1 0x0 DUP1 REVERT JUMPDEST POP PUSH2 0xC0E DUP10 DUP3 DUP11 ADD PUSH2 0xB3A JUMP JUMPDEST SWAP8 SWAP11 SWAP7 SWAP10 POP SWAP5 SWAP8 POP SWAP3 SWAP6 SWAP4 SWAP5 SWAP3 POP POP POP JUMP JUMPDEST PUSH1 0x0 PUSH1 0x20 DUP3 DUP5 SUB SLT ISZERO PUSH2 0xC32 JUMPI PUSH1 0x0 DUP1 REVERT JUMPDEST POP CALLDATALOAD SWAP2 SWAP1 POP JUMP JUMPDEST PUSH1 0x0 DUP1 PUSH1 0x40 DUP4 DUP6 SUB SLT ISZERO PUSH2 0xC4C JUMPI PUSH1 0x0 DUP1 REVERT JUMPDEST POP POP DUP1 CALLDATALOAD SWAP3 PUSH1 0x20 SWAP1 SWAP2 ADD CALLDATALOAD SWAP2 POP JUMP JUMPDEST DUP1 CALLDATALOAD PUSH1 0x1 PUSH1 0x1 PUSH1 0xA0 SHL SUB DUP2 AND DUP2 EQ PUSH2 0xC72 JUMPI PUSH1 0x0 DUP1 REVERT JUMPDEST SWAP2 SWAP1 POP JUMP JUMPDEST PUSH1 0x0 DUP1 PUSH1 0x0 PUSH1 0x40 DUP5 DUP7 SUB SLT ISZERO PUSH2 0xC8C JUMPI PUSH1 0x0 DUP1 REVERT JUMPDEST PUSH2 0xC95 DUP5 PUSH2 0xC5B JUMP JUMPDEST SWAP3 POP PUSH1 0x20 DUP5 ADD CALLDATALOAD PUSH8 0xFFFFFFFFFFFFFFFF DUP1 DUP3 GT ISZERO PUSH2 0xCB2 JUMPI PUSH1 0x0 DUP1 REVERT JUMPDEST DUP2 DUP7 ADD SWAP2 POP DUP7 PUSH1 0x1F DUP4 ADD SLT PUSH2 0xCC6 JUMPI PUSH1 0x0 DUP1 REVERT JUMPDEST DUP2 CALLDATALOAD DUP2 DUP2 GT ISZERO PUSH2 0xCD5 JUMPI PUSH1 0x0 DUP1 REVERT JUMPDEST DUP8 PUSH1 0x20 DUP3 DUP6 ADD ADD GT ISZERO PUSH2 0xCE7 JUMPI PUSH1 0x0 DUP1 REVERT JUMPDEST PUSH1 0x20 DUP4 ADD SWAP5 POP DUP1 SWAP4 POP POP POP POP SWAP3 POP SWAP3 POP SWAP3 JUMP JUMPDEST PUSH4 0x4E487B71 PUSH1 0xE0 SHL PUSH1 0x0 MSTORE PUSH1 0x32 PUSH1 0x4 MSTORE PUSH1 0x24 PUSH1 0x0 REVERT JUMPDEST PUSH4 0x4E487B71 PUSH1 0xE0 SHL PUSH1 0x0 MSTORE PUSH1 0x11 PUSH1 0x4 MSTORE PUSH1 0x24 PUSH1 0x0 REVERT JUMPDEST DUP1 DUP3 ADD DUP1 DUP3 GT ISZERO PUSH2 0xD39 JUMPI PUSH2 0xD39 PUSH2 0xD10 JUMP JUMPDEST SWAP3 SWAP2 POP POP JUMP JUMPDEST PUSH1 0x0 PUSH1 0x1 DUP3 ADD PUSH2 0xD51 JUMPI PUSH2 0xD51 PUSH2 0xD10 JUMP JUMPDEST POP PUSH1 0x1 ADD SWAP1 JUMP JUMPDEST PUSH1 0x0 PUSH1 0x20 DUP3 DUP5 SUB SLT ISZERO PUSH2 0xD6A JUMPI PUSH1 0x0 DUP1 REVERT JUMPDEST PUSH2 0xD73 DUP3 PUSH2 0xC5B JUMP JUMPDEST SWAP4 SWAP3 POP POP POP JUMP JUMPDEST PUSH1 0x0 DUP1 DUP4 CALLDATALOAD PUSH1 0x1E NOT DUP5 CALLDATASIZE SUB ADD DUP2 SLT PUSH2 0xD91 JUMPI PUSH1 0x0 DUP1 REVERT JUMPDEST DUP4 ADD DUP1 CALLDATALOAD SWAP2 POP PUSH8 0xFFFFFFFFFFFFFFFF DUP3 GT ISZERO PUSH2 0xDAC JUMPI PUSH1 0x0 DUP1 REVERT JUMPDEST PUSH1 0x20 ADD SWAP2 POP CALLDATASIZE DUP2 SWAP1 SUB DUP3 SGT ISZERO PUSH2 0xB7F JUMPI PUSH1 0x0 DUP1 REVERT JUMPDEST DUP2 DUP4 DUP3 CALLDATACOPY PUSH1 0x0 SWAP2 ADD SWAP1 DUP2 MSTORE SWAP2 SWAP1 POP JUMP JUMPDEST PUSH1 0x0 DUP1 DUP6 DUP6 GT ISZERO PUSH2 0xDE1 JUMPI PUSH1 0x0 DUP1 REVERT JUMPDEST DUP4 DUP7 GT ISZERO PUSH2 0xDEE JUMPI PUSH1 0x0 DUP1 REVERT JUMPDEST POP POP DUP3 ADD SWAP4 SWAP2 SWAP1 SWAP3 SUB SWAP2 POP JUMP JUMPDEST PUSH1 0x1 PUSH1 0x1 PUSH1 0xE0 SHL SUB NOT DUP2 CALLDATALOAD DUP2 DUP2 AND SWAP2 PUSH1 0x4 DUP6 LT ISZERO PUSH2 0xE23 JUMPI DUP1 DUP2 DUP7 PUSH1 0x4 SUB PUSH1 0x3 SHL SHL DUP4 AND AND SWAP3 POP JUMPDEST POP POP SWAP3 SWAP2 POP POP JUMP JUMPDEST DUP2 DUP2 SUB DUP2 DUP2 GT ISZERO PUSH2 0xD39 JUMPI PUSH2 0xD39 PUSH2 0xD10 JUMP INVALID LOG2 PUSH5 0x6970667358 0x22 SLT KECCAK256 0xE2 CODESIZE 0x5E 0x25 MULMOD DUP13 CALLVALUE PUSH8 0xAABCD2380814E1AB 0xBE 0xCA 0x4A 0xB6 DUP9 0xEB PUSH32 0xBAF788CC8DC398FAEF64736F6C63430008170033000000000000000000000000 "},"methodIdentifiers":{"AGENT_ADDRESS()":"cd5e944d","batchExecuteGameActions(address[],bytes[],uint256[])":"00782173","emergencyWithdraw()":"db2e21bc","executeGameAction(address,bytes)":"db168348","extendSession(uint256)":"251d10b0","getAuthorizedAgent()":"32b9708c","getSessionInfo()":"9463b1cd","increaseSpendingLimit(uint256)":"28f58b92","initializeSession(uint256,uint256)":"69bd69a6","isSessionValid()":"45bb4634","revokeSession()":"c4605d8c","session()":"5e3568b8"}}}}}