{"contracts/AdvancedPermissions.sol":{"AdvancedPermissions":{"abi":[{"inputs":[],"stateMutability":"nonpayable","type":"constructor"},{"anonymous":false,"inputs":[{"indexed":true,"internalType":"address","name":"owner","type":"address"},{"indexed":true,"internalType":"address","name":"delegate","type":"address"},{"indexed":false,"internalType":"uint256","name":"amount","type":"uint256"}],"name":"FundsSpent","type":"event"},{"anonymous":false,"inputs":[{"indexed":true,"internalType":"address","name":"owner","type":"address"},{"indexed":true,"internalType":"address","name":"delegate","type":"address"},{"indexed":false,"internalType":"uint256","name":"maxAmount","type":"uint256"},{"indexed":false,"internalType":"uint256","name":"expiry","type":"uint256"}],"name":"PermissionGranted","type":"event"},{"anonymous":false,"inputs":[{"indexed":true,"internalType":"address","name":"owner","type":"address"},{"indexed":true,"internalType":"address","name":"delegate","type":"address"}],"name":"PermissionRevoked","type":"event"},{"anonymous":false,"inputs":[{"indexed":true,"internalType":"address","name":"leader","type":"address"},{"indexed":false,"internalType":"uint256","name":"totalAmount","type":"uint256"}],"name":"TeamActionExecuted","type":"event"},{"inputs":[],"name":"DOMAIN_SEPARATOR","outputs":[{"internalType":"bytes32","name":"","type":"bytes32"}],"stateMutability":"view","type":"function"},{"inputs":[],"name":"SPEND_TYPEHASH","outputs":[{"internalType":"bytes32","name":"","type":"bytes32"}],"stateMutability":"view","type":"function"},{"inputs":[{"internalType":"address[]","name":"owners","type":"address[]"},{"internalType":"uint256[]","name":"amounts","type":"uint256[]"}],"name":"executeTeamAction","outputs":[],"stateMutability":"payable","type":"function"},{"inputs":[{"internalType":"address payable[]","name":"owners","type":"address[]"},{"internalType":"uint256[]","name":"amounts","type":"uint256[]"},{"internalType":"uint8[]","name":"v","type":"uint8[]"},{"internalType":"bytes32[]","name":"r","type":"bytes32[]"},{"internalType":"bytes32[]","name":"s","type":"bytes32[]"}],"name":"executeWithSignatures","outputs":[],"stateMutability":"payable","type":"function"},{"inputs":[{"internalType":"address","name":"owner","type":"address"},{"internalType":"address","name":"delegate","type":"address"}],"name":"getAvailableAmount","outputs":[{"internalType":"uint256","name":"","type":"uint256"}],"stateMutability":"view","type":"function"},{"inputs":[{"internalType":"address","name":"owner","type":"address"},{"internalType":"address","name":"delegate","type":"address"}],"name":"getPermission","outputs":[{"internalType":"uint256","name":"maxAmount","type":"uint256"},{"internalType":"uint256","name":"spent","type":"uint256"},{"internalType":"uint256","name":"expiry","type":"uint256"},{"internalType":"bool","name":"active","type":"bool"},{"internalType":"uint256","name":"available","type":"uint256"}],"stateMutability":"view","type":"function"},{"inputs":[{"internalType":"address","name":"delegate","type":"address"},{"internalType":"uint256","name":"maxAmount","type":"uint256"},{"internalType":"uint256","name":"duration","type":"uint256"}],"name":"grantPermission","outputs":[],"stateMutability":"nonpayable","type":"function"},{"inputs":[{"internalType":"address","name":"","type":"address"}],"name":"nonces","outputs":[{"internalType":"uint256","name":"","type":"uint256"}],"stateMutability":"view","type":"function"},{"inputs":[{"internalType":"address","name":"","type":"address"},{"internalType":"address","name":"","type":"address"}],"name":"permissions","outputs":[{"internalType":"uint256","name":"maxAmount","type":"uint256"},{"internalType":"uint256","name":"spent","type":"uint256"},{"internalType":"uint256","name":"expiry","type":"uint256"},{"internalType":"bool","name":"active","type":"bool"}],"stateMutability":"view","type":"function"},{"inputs":[{"internalType":"address","name":"delegate","type":"address"}],"name":"revokePermission","outputs":[],"stateMutability":"nonpayable","type":"function"}],"evm":{"bytecode":{"linkReferences":{},"object":"60a060405234801561001057600080fd5b50604080518082018252601381527f416476616e6365645065726d697373696f6e73000000000000000000000000006020918201528151808301835260018152603160f81b9082015281517f8b73c3c69bb8fe3d512ecc4cf759cc79239f7b179b0ffacaa9a75d522b39400f918101919091527fb25dfd651f0082e3a923d6468bac2d33fd13bbb9dd4f436dd7cad1799c8120f1918101919091527fc89efdaa54c0f20c7adf612882df0950f5a951637e0307cdcb4c672f298b8bc660608201524660808201523060a082015260c00160408051601f1981840301815291905280516020909101206080526080516110d561011d6000396000818161011c0152610b5101526110d56000f3fe6080604052600436106100915760003560e01c80637371edaa116100595780637371edaa146101b55780637ecebe00146101d5578063910185dd14610202578063a3bf5b9a1461024c578063fe38c28e1461026c57600080fd5b80631f9838b5146100965780633644e5151461010a5780635ee2429b1461014c578063642428871461016e578063643706d7146101a2575b600080fd5b3480156100a257600080fd5b506100e36100b1366004610dd6565b600060208181529281526040808220909352908152208054600182015460028301546003909301549192909160ff1684565b60408051948552602085019390935291830152151560608201526080015b60405180910390f35b34801561011657600080fd5b5061013e7f000000000000000000000000000000000000000000000000000000000000000081565b604051908152602001610101565b34801561015857600080fd5b5061016c610167366004610e0f565b61027f565b005b34801561017a57600080fd5b5061013e7fb773031c326e9a9653ea5403e505d242e5f355672ef686bc348acd0d95eb2acf81565b61016c6101b0366004610e90565b6103da565b3480156101c157600080fd5b5061013e6101d0366004610dd6565b61070d565b3480156101e157600080fd5b5061013e6101f0366004610efc565b60016020526000908152604090205481565b34801561020e57600080fd5b5061022261021d366004610dd6565b6107a3565b6040805195865260208601949094529284019190915215156060830152608082015260a001610101565b34801561025857600080fd5b5061016c610267366004610efc565b61085e565b61016c61027a366004610f20565b6108b5565b6001600160a01b0383166102cd5760405162461bcd60e51b815260206004820152601060248201526f496e76616c69642064656c656761746560801b60448201526064015b60405180910390fd5b6000821161030e5760405162461bcd60e51b815260206004820152600e60248201526d125b9d985b1a5908185b5bdd5b9d60921b60448201526064016102c4565b604080516080810182528381526000602082015290810161032f8342611027565b81526001602091820181905233600081815280845260408082206001600160a01b038a16808452908652918190208651815594860151938501939093559184015160028401556060909301516003909201805460ff191692151592909217909155907f47e8fe1cf951ed6c2bd6e674655fb4f681a72e9a2a7bcb56fddfecb4c23afcc5846103bd8542611027565b6040805192835260208301919091520160405180910390a3505050565b82811461041b5760405162461bcd60e51b815260206004820152600f60248201526e098cadccee8d040dad2e6dac2e8c6d608b1b60448201526064016102c4565b6000805b8481101561066057600080600088888581811061043e5761043e61103a565b90506020020160208101906104539190610efc565b6001600160a01b03168152602080820192909252604090810160009081203382529092529020600381015490915060ff166104c85760405162461bcd60e51b81526020600482015260156024820152745065726d697373696f6e206e6f742061637469766560581b60448201526064016102c4565b806002015442106105105760405162461bcd60e51b815260206004820152601260248201527114195c9b5a5cdcda5bdb88195e1c1a5c995960721b60448201526064016102c4565b80548585848181106105245761052461103a565b90506020020135826001015461053a9190611027565b111561057d5760405162461bcd60e51b8152602060048201526012602482015271115e18d959591cc81b585e08185b5bdd5b9d60721b60448201526064016102c4565b84848381811061058f5761058f61103a565b905060200201358160010160008282546105a99190611027565b9091555085905084838181106105c1576105c161103a565b90506020020135836105d39190611027565b9250338787848181106105e8576105e861103a565b90506020020160208101906105fd9190610efc565b6001600160a01b03167fa6b5ff986627794655ee0966b919cb8ce3b7b374629f5e71b1ba4f4598da1bba8787868181106106395761063961103a565b9050602002013560405161064f91815260200190565b60405180910390a35060010161041f565b508034146106a45760405162461bcd60e51b8152602060048201526011602482015270125b98dbdc9c9958dd081c185e5b595b9d607a1b60448201526064016102c4565b60405133903480156108fc02916000818181858888f193505050501580156106d0573d6000803e3d6000fd5b5060405181815233907f9ff994879aa5395e64075c2f2cf1c6785b14ebbf574c5b2a708975e2c1e741579060200160405180910390a25050505050565b6001600160a01b03808316600090815260208181526040808320938516835292815282822083516080810185528154815260018201549281019290925260028101549382019390935260039092015460ff16158015606084015290919080610779575080604001514210155b1561078857600091505061079d565b602081015181516107999190611050565b9150505b92915050565b6001600160a01b03808316600090815260208181526040808320938516835292815282822083516080810185528154815260018201549281019290925260028101549382019390935260039092015460ff161580156060840181905291928392839283928392909183919061081b5750816040015142105b905060008161082b57600061083c565b6020830151835161083c9190611050565b83516020850151604090950151909c949b509950919750909550909350505050565b336000818152602081815260408083206001600160a01b0386168085529252808320600301805460ff19169055519092917f5f708ef9fc37d19d88246c264788c8cdf640c9ff500bd168e941ea1421c4f6c491a350565b8887146108f65760405162461bcd60e51b815260206004820152600f60248201526e098cadccee8d040dad2e6dac2e8c6d608b1b60448201526064016102c4565b8885146109455760405162461bcd60e51b815260206004820152601960248201527f5369676e6174757265206c656e677468206d69736d617463680000000000000060448201526064016102c4565b6000805b8a811015610d385760008c8c838181106109655761096561103a565b905060200201602081019061097a9190610efc565b905060008b8b848181106109905761099061103a565b6001600160a01b03851660009081526020818152604080832033845282529091206003810154929091029390930135935060ff169050610a0a5760405162461bcd60e51b81526020600482015260156024820152745065726d697373696f6e206e6f742061637469766560581b60448201526064016102c4565b80600201544210610a525760405162461bcd60e51b815260206004820152601260248201527114195c9b5a5cdcda5bdb88195e1c1a5c995960721b60448201526064016102c4565b80546001820154610a64908490611027565b1115610aa75760405162461bcd60e51b8152602060048201526012602482015271115e18d959591cc81b585e08185b5bdd5b9d60721b60448201526064016102c4565b6001600160a01b038316600090815260016020526040812080547fb773031c326e9a9653ea5403e505d242e5f355672ef686bc348acd0d95eb2acf918691339187919086610af483611063565b909155506040805160208101969096526001600160a01b0394851690860152929091166060840152608083015260a082015260c00160408051601f1981840301815290829052805160209182012061190160f01b918301919091527f0000000000000000000000000000000000000000000000000000000000000000602283015260428201819052915060009060620160405160208183030381529060405280519060200120905060006001828f8f8a818110610bb357610bb361103a565b9050602002016020810190610bc8919061107c565b8e8e8b818110610bda57610bda61103a565b905060200201358d8d8c818110610bf357610bf361103a565b9050602002013560405160008152602001604052604051610c30949392919093845260ff9290921660208401526040830152606082015260800190565b6020604051602081039080840390855afa158015610c52573d6000803e3d6000fd5b505050602060405103519050856001600160a01b0316816001600160a01b031614610cb35760405162461bcd60e51b8152602060048201526011602482015270496e76616c6964207369676e617475726560781b60448201526064016102c4565b84846001016000828254610cc79190611027565b90915550610cd790508589611027565b9750336001600160a01b0316866001600160a01b03167fa6b5ff986627794655ee0966b919cb8ce3b7b374629f5e71b1ba4f4598da1bba87604051610d1e91815260200190565b60405180910390a350506001909401935061094992505050565b50803414610d7c5760405162461bcd60e51b8152602060048201526011602482015270125b98dbdc9c9958dd081c185e5b595b9d607a1b60448201526064016102c4565b60405181815233907f9ff994879aa5395e64075c2f2cf1c6785b14ebbf574c5b2a708975e2c1e741579060200160405180910390a25050505050505050505050565b6001600160a01b0381168114610dd357600080fd5b50565b60008060408385031215610de957600080fd5b8235610df481610dbe565b91506020830135610e0481610dbe565b809150509250929050565b600080600060608486031215610e2457600080fd5b8335610e2f81610dbe565b95602085013595506040909401359392505050565b60008083601f840112610e5657600080fd5b50813567ffffffffffffffff811115610e6e57600080fd5b6020830191508360208260051b8501011115610e8957600080fd5b9250929050565b60008060008060408587031215610ea657600080fd5b843567ffffffffffffffff80821115610ebe57600080fd5b610eca88838901610e44565b90965094506020870135915080821115610ee357600080fd5b50610ef087828801610e44565b95989497509550505050565b600060208284031215610f0e57600080fd5b8135610f1981610dbe565b9392505050565b60008060008060008060008060008060a08b8d031215610f3f57600080fd5b8a3567ffffffffffffffff80821115610f5757600080fd5b610f638e838f01610e44565b909c509a5060208d0135915080821115610f7c57600080fd5b610f888e838f01610e44565b909a50985060408d0135915080821115610fa157600080fd5b610fad8e838f01610e44565b909850965060608d0135915080821115610fc657600080fd5b610fd28e838f01610e44565b909650945060808d0135915080821115610feb57600080fd5b50610ff88d828e01610e44565b915080935050809150509295989b9194979a5092959850565b634e487b7160e01b600052601160045260246000fd5b8082018082111561079d5761079d611011565b634e487b7160e01b600052603260045260246000fd5b8181038181111561079d5761079d611011565b60006001820161107557611075611011565b5060010190565b60006020828403121561108e57600080fd5b813560ff81168114610f1957600080fdfea26469706673582212205b2471bef71b76573c4604bf8ce6a5ebfab69a8e02750399c53f4003c2086cca64736f6c63430008170033","opcodes":"PUSH1 0xA0 PUSH1 0x40 MSTORE CALLVALUE DUP1 ISZERO PUSH2 0x10 JUMPI PUSH1 0x0 DUP1 REVERT JUMPDEST POP PUSH1 0x40 DUP1 MLOAD DUP1 DUP3 ADD DUP3 MSTORE PUSH1 0x13 DUP2 MSTORE PUSH32 0x416476616E6365645065726D697373696F6E7300000000000000000000000000 PUSH1 0x20 SWAP2 DUP3 ADD MSTORE DUP2 MLOAD DUP1 DUP4 ADD DUP4 MSTORE PUSH1 0x1 DUP2 MSTORE PUSH1 0x31 PUSH1 0xF8 SHL SWAP1 DUP3 ADD MSTORE DUP2 MLOAD PUSH32 0x8B73C3C69BB8FE3D512ECC4CF759CC79239F7B179B0FFACAA9A75D522B39400F SWAP2 DUP2 ADD SWAP2 SWAP1 SWAP2 MSTORE PUSH32 0xB25DFD651F0082E3A923D6468BAC2D33FD13BBB9DD4F436DD7CAD1799C8120F1 SWAP2 DUP2 ADD SWAP2 SWAP1 SWAP2 MSTORE PUSH32 0xC89EFDAA54C0F20C7ADF612882DF0950F5A951637E0307CDCB4C672F298B8BC6 PUSH1 0x60 DUP3 ADD MSTORE CHAINID PUSH1 0x80 DUP3 ADD MSTORE ADDRESS PUSH1 0xA0 DUP3 ADD MSTORE PUSH1 0xC0 ADD PUSH1 0x40 DUP1 MLOAD PUSH1 0x1F NOT DUP2 DUP5 SUB ADD DUP2 MSTORE SWAP2 SWAP1 MSTORE DUP1 MLOAD PUSH1 0x20 SWAP1 SWAP2 ADD KECCAK256 PUSH1 0x80 MSTORE PUSH1 0x80 MLOAD PUSH2 0x10D5 PUSH2 0x11D PUSH1 0x0 CODECOPY PUSH1 0x0 DUP2 DUP2 PUSH2 0x11C ADD MSTORE PUSH2 0xB51 ADD MSTORE PUSH2 0x10D5 PUSH1 0x0 RETURN INVALID PUSH1 0x80 PUSH1 0x40 MSTORE PUSH1 0x4 CALLDATASIZE LT PUSH2 0x91 JUMPI PUSH1 0x0 CALLDATALOAD PUSH1 0xE0 SHR DUP1 PUSH4 0x7371EDAA GT PUSH2 0x59 JUMPI DUP1 PUSH4 0x7371EDAA EQ PUSH2 0x1B5 JUMPI DUP1 PUSH4 0x7ECEBE00 EQ PUSH2 0x1D5 JUMPI DUP1 PUSH4 0x910185DD EQ PUSH2 0x202 JUMPI DUP1 PUSH4 0xA3BF5B9A EQ PUSH2 0x24C JUMPI DUP1 PUSH4 0xFE38C28E EQ PUSH2 0x26C JUMPI PUSH1 0x0 DUP1 REVERT JUMPDEST DUP1 PUSH4 0x1F9838B5 EQ PUSH2 0x96 JUMPI DUP1 PUSH4 0x3644E515 EQ PUSH2 0x10A JUMPI DUP1 PUSH4 0x5EE2429B EQ PUSH2 0x14C JUMPI DUP1 PUSH4 0x64242887 EQ PUSH2 0x16E JUMPI DUP1 PUSH4 0x643706D7 EQ PUSH2 0x1A2 JUMPI JUMPDEST PUSH1 0x0 DUP1 REVERT JUMPDEST CALLVALUE DUP1 ISZERO PUSH2 0xA2 JUMPI PUSH1 0x0 DUP1 REVERT JUMPDEST POP PUSH2 0xE3 PUSH2 0xB1 CALLDATASIZE PUSH1 0x4 PUSH2 0xDD6 JUMP JUMPDEST PUSH1 0x0 PUSH1 0x20 DUP2 DUP2 MSTORE SWAP3 DUP2 MSTORE PUSH1 0x40 DUP1 DUP3 KECCAK256 SWAP1 SWAP4 MSTORE SWAP1 DUP2 MSTORE KECCAK256 DUP1 SLOAD PUSH1 0x1 DUP3 ADD SLOAD PUSH1 0x2 DUP4 ADD SLOAD PUSH1 0x3 SWAP1 SWAP4 ADD SLOAD SWAP2 SWAP3 SWAP1 SWAP2 PUSH1 0xFF AND DUP5 JUMP JUMPDEST PUSH1 0x40 DUP1 MLOAD SWAP5 DUP6 MSTORE PUSH1 0x20 DUP6 ADD SWAP4 SWAP1 SWAP4 MSTORE SWAP2 DUP4 ADD MSTORE ISZERO ISZERO PUSH1 0x60 DUP3 ADD MSTORE PUSH1 0x80 ADD JUMPDEST PUSH1 0x40 MLOAD DUP1 SWAP2 SUB SWAP1 RETURN JUMPDEST CALLVALUE DUP1 ISZERO PUSH2 0x116 JUMPI PUSH1 0x0 DUP1 REVERT JUMPDEST POP PUSH2 0x13E PUSH32 0x0 DUP2 JUMP JUMPDEST PUSH1 0x40 MLOAD SWAP1 DUP2 MSTORE PUSH1 0x20 ADD PUSH2 0x101 JUMP JUMPDEST CALLVALUE DUP1 ISZERO PUSH2 0x158 JUMPI PUSH1 0x0 DUP1 REVERT JUMPDEST POP PUSH2 0x16C PUSH2 0x167 CALLDATASIZE PUSH1 0x4 PUSH2 0xE0F JUMP JUMPDEST PUSH2 0x27F JUMP JUMPDEST STOP JUMPDEST CALLVALUE DUP1 ISZERO PUSH2 0x17A JUMPI PUSH1 0x0 DUP1 REVERT JUMPDEST POP PUSH2 0x13E PUSH32 0xB773031C326E9A9653EA5403E505D242E5F355672EF686BC348ACD0D95EB2ACF DUP2 JUMP JUMPDEST PUSH2 0x16C PUSH2 0x1B0 CALLDATASIZE PUSH1 0x4 PUSH2 0xE90 JUMP JUMPDEST PUSH2 0x3DA JUMP JUMPDEST CALLVALUE DUP1 ISZERO PUSH2 0x1C1 JUMPI PUSH1 0x0 DUP1 REVERT JUMPDEST POP PUSH2 0x13E PUSH2 0x1D0 CALLDATASIZE PUSH1 0x4 PUSH2 0xDD6 JUMP JUMPDEST PUSH2 0x70D JUMP JUMPDEST CALLVALUE DUP1 ISZERO PUSH2 0x1E1 JUMPI PUSH1 0x0 DUP1 REVERT JUMPDEST POP PUSH2 0x13E PUSH2 0x1F0 CALLDATASIZE PUSH1 0x4 PUSH2 0xEFC JUMP JUMPDEST PUSH1 0x1 PUSH1 0x20 MSTORE PUSH1 0x0 SWAP1 DUP2 MSTORE PUSH1 0x40 SWAP1 KECCAK256 SLOAD DUP2 JUMP JUMPDEST CALLVALUE DUP1 ISZERO PUSH2 0x20E JUMPI PUSH1 0x0 DUP1 REVERT JUMPDEST POP PUSH2 0x222 PUSH2 0x21D CALLDATASIZE PUSH1 0x4 PUSH2 0xDD6 JUMP JUMPDEST PUSH2 0x7A3 JUMP JUMPDEST PUSH1 0x40 DUP1 MLOAD SWAP6 DUP7 MSTORE PUSH1 0x20 DUP7 ADD SWAP5 SWAP1 SWAP5 MSTORE SWAP3 DUP5 ADD SWAP2 SWAP1 SWAP2 MSTORE ISZERO ISZERO PUSH1 0x60 DUP4 ADD MSTORE PUSH1 0x80 DUP3 ADD MSTORE PUSH1 0xA0 ADD PUSH2 0x101 JUMP JUMPDEST CALLVALUE DUP1 ISZERO PUSH2 0x258 JUMPI PUSH1 0x0 DUP1 REVERT JUMPDEST POP PUSH2 0x16C PUSH2 0x267 CALLDATASIZE PUSH1 0x4 PUSH2 0xEFC JUMP JUMPDEST PUSH2 0x85E JUMP JUMPDEST PUSH2 0x16C PUSH2 0x27A CALLDATASIZE PUSH1 0x4 PUSH2 0xF20 JUMP JUMPDEST PUSH2 0x8B5 JUMP JUMPDEST PUSH1 0x1 PUSH1 0x1 PUSH1 0xA0 SHL SUB DUP4 AND PUSH2 0x2CD JUMPI PUSH1 0x40 MLOAD PUSH3 0x461BCD PUSH1 0xE5 SHL DUP2 MSTORE PUSH1 0x20 PUSH1 0x4 DUP3 ADD MSTORE PUSH1 0x10 PUSH1 0x24 DUP3 ADD MSTORE PUSH16 0x496E76616C69642064656C6567617465 PUSH1 0x80 SHL PUSH1 0x44 DUP3 ADD MSTORE PUSH1 0x64 ADD JUMPDEST PUSH1 0x40 MLOAD DUP1 SWAP2 SUB SWAP1 REVERT JUMPDEST PUSH1 0x0 DUP3 GT PUSH2 0x30E JUMPI PUSH1 0x40 MLOAD PUSH3 0x461BCD PUSH1 0xE5 SHL DUP2 MSTORE PUSH1 0x20 PUSH1 0x4 DUP3 ADD MSTORE PUSH1 0xE PUSH1 0x24 DUP3 ADD MSTORE PUSH14 0x125B9D985B1A5908185B5BDD5B9D PUSH1 0x92 SHL PUSH1 0x44 DUP3 ADD MSTORE PUSH1 0x64 ADD PUSH2 0x2C4 JUMP JUMPDEST PUSH1 0x40 DUP1 MLOAD PUSH1 0x80 DUP2 ADD DUP3 MSTORE DUP4 DUP2 MSTORE PUSH1 0x0 PUSH1 0x20 DUP3 ADD MSTORE SWAP1 DUP2 ADD PUSH2 0x32F DUP4 TIMESTAMP PUSH2 0x1027 JUMP JUMPDEST DUP2 MSTORE PUSH1 0x1 PUSH1 0x20 SWAP2 DUP3 ADD DUP2 SWAP1 MSTORE CALLER PUSH1 0x0 DUP2 DUP2 MSTORE DUP1 DUP5 MSTORE PUSH1 0x40 DUP1 DUP3 KECCAK256 PUSH1 0x1 PUSH1 0x1 PUSH1 0xA0 SHL SUB DUP11 AND DUP1 DUP5 MSTORE SWAP1 DUP7 MSTORE SWAP2 DUP2 SWAP1 KECCAK256 DUP7 MLOAD DUP2 SSTORE SWAP5 DUP7 ADD MLOAD SWAP4 DUP6 ADD SWAP4 SWAP1 SWAP4 SSTORE SWAP2 DUP5 ADD MLOAD PUSH1 0x2 DUP5 ADD SSTORE PUSH1 0x60 SWAP1 SWAP4 ADD MLOAD PUSH1 0x3 SWAP1 SWAP3 ADD DUP1 SLOAD PUSH1 0xFF NOT AND SWAP3 ISZERO ISZERO SWAP3 SWAP1 SWAP3 OR SWAP1 SWAP2 SSTORE SWAP1 PUSH32 0x47E8FE1CF951ED6C2BD6E674655FB4F681A72E9A2A7BCB56FDDFECB4C23AFCC5 DUP5 PUSH2 0x3BD DUP6 TIMESTAMP PUSH2 0x1027 JUMP JUMPDEST PUSH1 0x40 DUP1 MLOAD SWAP3 DUP4 MSTORE PUSH1 0x20 DUP4 ADD SWAP2 SWAP1 SWAP2 MSTORE ADD PUSH1 0x40 MLOAD DUP1 SWAP2 SUB SWAP1 LOG3 POP POP POP JUMP JUMPDEST DUP3 DUP2 EQ PUSH2 0x41B JUMPI PUSH1 0x40 MLOAD PUSH3 0x461BCD PUSH1 0xE5 SHL DUP2 MSTORE PUSH1 0x20 PUSH1 0x4 DUP3 ADD MSTORE PUSH1 0xF PUSH1 0x24 DUP3 ADD MSTORE PUSH15 0x98CADCCEE8D040DAD2E6DAC2E8C6D PUSH1 0x8B SHL PUSH1 0x44 DUP3 ADD MSTORE PUSH1 0x64 ADD PUSH2 0x2C4 JUMP JUMPDEST PUSH1 0x0 DUP1 JUMPDEST DUP5 DUP2 LT ISZERO PUSH2 0x660 JUMPI PUSH1 0x0 DUP1 PUSH1 0x0 DUP9 DUP9 DUP6 DUP2 DUP2 LT PUSH2 0x43E JUMPI PUSH2 0x43E PUSH2 0x103A JUMP JUMPDEST SWAP1 POP PUSH1 0x20 MUL ADD PUSH1 0x20 DUP2 ADD SWAP1 PUSH2 0x453 SWAP2 SWAP1 PUSH2 0xEFC JUMP JUMPDEST PUSH1 0x1 PUSH1 0x1 PUSH1 0xA0 SHL SUB AND DUP2 MSTORE PUSH1 0x20 DUP1 DUP3 ADD SWAP3 SWAP1 SWAP3 MSTORE PUSH1 0x40 SWAP1 DUP2 ADD PUSH1 0x0 SWAP1 DUP2 KECCAK256 CALLER DUP3 MSTORE SWAP1 SWAP3 MSTORE SWAP1 KECCAK256 PUSH1 0x3 DUP2 ADD SLOAD SWAP1 SWAP2 POP PUSH1 0xFF AND PUSH2 0x4C8 JUMPI PUSH1 0x40 MLOAD PUSH3 0x461BCD PUSH1 0xE5 SHL DUP2 MSTORE PUSH1 0x20 PUSH1 0x4 DUP3 ADD MSTORE PUSH1 0x15 PUSH1 0x24 DUP3 ADD MSTORE PUSH21 0x5065726D697373696F6E206E6F7420616374697665 PUSH1 0x58 SHL PUSH1 0x44 DUP3 ADD MSTORE PUSH1 0x64 ADD PUSH2 0x2C4 JUMP JUMPDEST DUP1 PUSH1 0x2 ADD SLOAD TIMESTAMP LT PUSH2 0x510 JUMPI PUSH1 0x40 MLOAD PUSH3 0x461BCD PUSH1 0xE5 SHL DUP2 MSTORE PUSH1 0x20 PUSH1 0x4 DUP3 ADD MSTORE PUSH1 0x12 PUSH1 0x24 DUP3 ADD MSTORE PUSH18 0x14195C9B5A5CDCDA5BDB88195E1C1A5C9959 PUSH1 0x72 SHL PUSH1 0x44 DUP3 ADD MSTORE PUSH1 0x64 ADD PUSH2 0x2C4 JUMP JUMPDEST DUP1 SLOAD DUP6 DUP6 DUP5 DUP2 DUP2 LT PUSH2 0x524 JUMPI PUSH2 0x524 PUSH2 0x103A JUMP JUMPDEST SWAP1 POP PUSH1 0x20 MUL ADD CALLDATALOAD DUP3 PUSH1 0x1 ADD SLOAD PUSH2 0x53A SWAP2 SWAP1 PUSH2 0x1027 JUMP JUMPDEST GT ISZERO PUSH2 0x57D JUMPI PUSH1 0x40 MLOAD PUSH3 0x461BCD PUSH1 0xE5 SHL DUP2 MSTORE PUSH1 0x20 PUSH1 0x4 DUP3 ADD MSTORE PUSH1 0x12 PUSH1 0x24 DUP3 ADD MSTORE PUSH18 0x115E18D959591CC81B585E08185B5BDD5B9D PUSH1 0x72 SHL PUSH1 0x44 DUP3 ADD MSTORE PUSH1 0x64 ADD PUSH2 0x2C4 JUMP JUMPDEST DUP5 DUP5 DUP4 DUP2 DUP2 LT PUSH2 0x58F JUMPI PUSH2 0x58F PUSH2 0x103A JUMP JUMPDEST SWAP1 POP PUSH1 0x20 MUL ADD CALLDATALOAD DUP2 PUSH1 0x1 ADD PUSH1 0x0 DUP3 DUP3 SLOAD PUSH2 0x5A9 SWAP2 SWAP1 PUSH2 0x1027 JUMP JUMPDEST SWAP1 SWAP2 SSTORE POP DUP6 SWAP1 POP DUP5 DUP4 DUP2 DUP2 LT PUSH2 0x5C1 JUMPI PUSH2 0x5C1 PUSH2 0x103A JUMP JUMPDEST SWAP1 POP PUSH1 0x20 MUL ADD CALLDATALOAD DUP4 PUSH2 0x5D3 SWAP2 SWAP1 PUSH2 0x1027 JUMP JUMPDEST SWAP3 POP CALLER DUP8 DUP8 DUP5 DUP2 DUP2 LT PUSH2 0x5E8 JUMPI PUSH2 0x5E8 PUSH2 0x103A JUMP JUMPDEST SWAP1 POP PUSH1 0x20 MUL ADD PUSH1 0x20 DUP2 ADD SWAP1 PUSH2 0x5FD SWAP2 SWAP1 PUSH2 0xEFC JUMP JUMPDEST PUSH1 0x1 PUSH1 0x1 PUSH1 0xA0 SHL SUB AND PUSH32 0xA6B5FF986627794655EE0966B919CB8CE3B7B374629F5E71B1BA4F4598DA1BBA DUP8 DUP8 DUP7 DUP2 DUP2 LT PUSH2 0x639 JUMPI PUSH2 0x639 PUSH2 0x103A JUMP JUMPDEST SWAP1 POP PUSH1 0x20 MUL ADD CALLDATALOAD PUSH1 0x40 MLOAD PUSH2 0x64F SWAP2 DUP2 MSTORE PUSH1 0x20 ADD SWAP1 JUMP JUMPDEST PUSH1 0x40 MLOAD DUP1 SWAP2 SUB SWAP1 LOG3 POP PUSH1 0x1 ADD PUSH2 0x41F JUMP JUMPDEST POP DUP1 CALLVALUE EQ PUSH2 0x6A4 JUMPI PUSH1 0x40 MLOAD PUSH3 0x461BCD PUSH1 0xE5 SHL DUP2 MSTORE PUSH1 0x20 PUSH1 0x4 DUP3 ADD MSTORE PUSH1 0x11 PUSH1 0x24 DUP3 ADD MSTORE PUSH17 0x125B98DBDC9C9958DD081C185E5B595B9D PUSH1 0x7A SHL PUSH1 0x44 DUP3 ADD MSTORE PUSH1 0x64 ADD PUSH2 0x2C4 JUMP JUMPDEST PUSH1 0x40 MLOAD CALLER SWAP1 CALLVALUE DUP1 ISZERO PUSH2 0x8FC MUL SWAP2 PUSH1 0x0 DUP2 DUP2 DUP2 DUP6 DUP9 DUP9 CALL SWAP4 POP POP POP POP ISZERO DUP1 ISZERO PUSH2 0x6D0 JUMPI RETURNDATASIZE PUSH1 0x0 DUP1 RETURNDATACOPY RETURNDATASIZE PUSH1 0x0 REVERT JUMPDEST POP PUSH1 0x40 MLOAD DUP2 DUP2 MSTORE CALLER SWAP1 PUSH32 0x9FF994879AA5395E64075C2F2CF1C6785B14EBBF574C5B2A708975E2C1E74157 SWAP1 PUSH1 0x20 ADD PUSH1 0x40 MLOAD DUP1 SWAP2 SUB SWAP1 LOG2 POP POP POP POP POP JUMP JUMPDEST PUSH1 0x1 PUSH1 0x1 PUSH1 0xA0 SHL SUB DUP1 DUP4 AND PUSH1 0x0 SWAP1 DUP2 MSTORE PUSH1 0x20 DUP2 DUP2 MSTORE PUSH1 0x40 DUP1 DUP4 KECCAK256 SWAP4 DUP6 AND DUP4 MSTORE SWAP3 DUP2 MSTORE DUP3 DUP3 KECCAK256 DUP4 MLOAD PUSH1 0x80 DUP2 ADD DUP6 MSTORE DUP2 SLOAD DUP2 MSTORE PUSH1 0x1 DUP3 ADD SLOAD SWAP3 DUP2 ADD SWAP3 SWAP1 SWAP3 MSTORE PUSH1 0x2 DUP2 ADD SLOAD SWAP4 DUP3 ADD SWAP4 SWAP1 SWAP4 MSTORE PUSH1 0x3 SWAP1 SWAP3 ADD SLOAD PUSH1 0xFF AND ISZERO DUP1 ISZERO PUSH1 0x60 DUP5 ADD MSTORE SWAP1 SWAP2 SWAP1 DUP1 PUSH2 0x779 JUMPI POP DUP1 PUSH1 0x40 ADD MLOAD TIMESTAMP LT ISZERO JUMPDEST ISZERO PUSH2 0x788 JUMPI PUSH1 0x0 SWAP2 POP POP PUSH2 0x79D JUMP JUMPDEST PUSH1 0x20 DUP2 ADD MLOAD DUP2 MLOAD PUSH2 0x799 SWAP2 SWAP1 PUSH2 0x1050 JUMP JUMPDEST SWAP2 POP POP JUMPDEST SWAP3 SWAP2 POP POP JUMP JUMPDEST PUSH1 0x1 PUSH1 0x1 PUSH1 0xA0 SHL SUB DUP1 DUP4 AND PUSH1 0x0 SWAP1 DUP2 MSTORE PUSH1 0x20 DUP2 DUP2 MSTORE PUSH1 0x40 DUP1 DUP4 KECCAK256 SWAP4 DUP6 AND DUP4 MSTORE SWAP3 DUP2 MSTORE DUP3 DUP3 KECCAK256 DUP4 MLOAD PUSH1 0x80 DUP2 ADD DUP6 MSTORE DUP2 SLOAD DUP2 MSTORE PUSH1 0x1 DUP3 ADD SLOAD SWAP3 DUP2 ADD SWAP3 SWAP1 SWAP3 MSTORE PUSH1 0x2 DUP2 ADD SLOAD SWAP4 DUP3 ADD SWAP4 SWAP1 SWAP4 MSTORE PUSH1 0x3 SWAP1 SWAP3 ADD SLOAD PUSH1 0xFF AND ISZERO DUP1 ISZERO PUSH1 0x60 DUP5 ADD DUP2 SWAP1 MSTORE SWAP2 SWAP3 DUP4 SWAP3 DUP4 SWAP3 DUP4 SWAP3 DUP4 SWAP3 SWAP1 SWAP2 DUP4 SWAP2 SWAP1 PUSH2 0x81B JUMPI POP DUP2 PUSH1 0x40 ADD MLOAD TIMESTAMP LT JUMPDEST SWAP1 POP PUSH1 0x0 DUP2 PUSH2 0x82B JUMPI PUSH1 0x0 PUSH2 0x83C JUMP JUMPDEST PUSH1 0x20 DUP4 ADD MLOAD DUP4 MLOAD PUSH2 0x83C SWAP2 SWAP1 PUSH2 0x1050 JUMP JUMPDEST DUP4 MLOAD PUSH1 0x20 DUP6 ADD MLOAD PUSH1 0x40 SWAP1 SWAP6 ADD MLOAD SWAP1 SWAP13 SWAP5 SWAP12 POP SWAP10 POP SWAP2 SWAP8 POP SWAP1 SWAP6 POP SWAP1 SWAP4 POP POP POP POP JUMP JUMPDEST CALLER PUSH1 0x0 DUP2 DUP2 MSTORE PUSH1 0x20 DUP2 DUP2 MSTORE PUSH1 0x40 DUP1 DUP4 KECCAK256 PUSH1 0x1 PUSH1 0x1 PUSH1 0xA0 SHL SUB DUP7 AND DUP1 DUP6 MSTORE SWAP3 MSTORE DUP1 DUP4 KECCAK256 PUSH1 0x3 ADD DUP1 SLOAD PUSH1 0xFF NOT AND SWAP1 SSTORE MLOAD SWAP1 SWAP3 SWAP2 PUSH32 0x5F708EF9FC37D19D88246C264788C8CDF640C9FF500BD168E941EA1421C4F6C4 SWAP2 LOG3 POP JUMP JUMPDEST DUP9 DUP8 EQ PUSH2 0x8F6 JUMPI PUSH1 0x40 MLOAD PUSH3 0x461BCD PUSH1 0xE5 SHL DUP2 MSTORE PUSH1 0x20 PUSH1 0x4 DUP3 ADD MSTORE PUSH1 0xF PUSH1 0x24 DUP3 ADD MSTORE PUSH15 0x98CADCCEE8D040DAD2E6DAC2E8C6D PUSH1 0x8B SHL PUSH1 0x44 DUP3 ADD MSTORE PUSH1 0x64 ADD PUSH2 0x2C4 JUMP JUMPDEST DUP9 DUP6 EQ PUSH2 0x945 JUMPI PUSH1 0x40 MLOAD PUSH3 0x461BCD PUSH1 0xE5 SHL DUP2 MSTORE PUSH1 0x20 PUSH1 0x4 DUP3 ADD MSTORE PUSH1 0x19 PUSH1 0x24 DUP3 ADD MSTORE PUSH32 0x5369676E6174757265206C656E677468206D69736D6174636800000000000000 PUSH1 0x44 DUP3 ADD MSTORE PUSH1 0x64 ADD PUSH2 0x2C4 JUMP JUMPDEST PUSH1 0x0 DUP1 JUMPDEST DUP11 DUP2 LT ISZERO PUSH2 0xD38 JUMPI PUSH1 0x0 DUP13 DUP13 DUP4 DUP2 DUP2 LT PUSH2 0x965 JUMPI PUSH2 0x965 PUSH2 0x103A JUMP JUMPDEST SWAP1 POP PUSH1 0x20 MUL ADD PUSH1 0x20 DUP2 ADD SWAP1 PUSH2 0x97A SWAP2 SWAP1 PUSH2 0xEFC JUMP JUMPDEST SWAP1 POP PUSH1 0x0 DUP12 DUP12 DUP5 DUP2 DUP2 LT PUSH2 0x990 JUMPI PUSH2 0x990 PUSH2 0x103A JUMP JUMPDEST PUSH1 0x1 PUSH1 0x1 PUSH1 0xA0 SHL SUB DUP6 AND PUSH1 0x0 SWAP1 DUP2 MSTORE PUSH1 0x20 DUP2 DUP2 MSTORE PUSH1 0x40 DUP1 DUP4 KECCAK256 CALLER DUP5 MSTORE DUP3 MSTORE SWAP1 SWAP2 KECCAK256 PUSH1 0x3 DUP2 ADD SLOAD SWAP3 SWAP1 SWAP2 MUL SWAP4 SWAP1 SWAP4 ADD CALLDATALOAD SWAP4 POP PUSH1 0xFF AND SWAP1 POP PUSH2 0xA0A JUMPI PUSH1 0x40 MLOAD PUSH3 0x461BCD PUSH1 0xE5 SHL DUP2 MSTORE PUSH1 0x20 PUSH1 0x4 DUP3 ADD MSTORE PUSH1 0x15 PUSH1 0x24 DUP3 ADD MSTORE PUSH21 0x5065726D697373696F6E206E6F7420616374697665 PUSH1 0x58 SHL PUSH1 0x44 DUP3 ADD MSTORE PUSH1 0x64 ADD PUSH2 0x2C4 JUMP JUMPDEST DUP1 PUSH1 0x2 ADD SLOAD TIMESTAMP LT PUSH2 0xA52 JUMPI PUSH1 0x40 MLOAD PUSH3 0x461BCD PUSH1 0xE5 SHL DUP2 MSTORE PUSH1 0x20 PUSH1 0x4 DUP3 ADD MSTORE PUSH1 0x12 PUSH1 0x24 DUP3 ADD MSTORE PUSH18 0x14195C9B5A5CDCDA5BDB88195E1C1A5C9959 PUSH1 0x72 SHL PUSH1 0x44 DUP3 ADD MSTORE PUSH1 0x64 ADD PUSH2 0x2C4 JUMP JUMPDEST DUP1 SLOAD PUSH1 0x1 DUP3 ADD SLOAD PUSH2 0xA64 SWAP1 DUP5 SWAP1 PUSH2 0x1027 JUMP JUMPDEST GT ISZERO PUSH2 0xAA7 JUMPI PUSH1 0x40 MLOAD PUSH3 0x461BCD PUSH1 0xE5 SHL DUP2 MSTORE PUSH1 0x20 PUSH1 0x4 DUP3 ADD MSTORE PUSH1 0x12 PUSH1 0x24 DUP3 ADD MSTORE PUSH18 0x115E18D959591CC81B585E08185B5BDD5B9D PUSH1 0x72 SHL PUSH1 0x44 DUP3 ADD MSTORE PUSH1 0x64 ADD PUSH2 0x2C4 JUMP JUMPDEST PUSH1 0x1 PUSH1 0x1 PUSH1 0xA0 SHL SUB DUP4 AND PUSH1 0x0 SWAP1 DUP2 MSTORE PUSH1 0x1 PUSH1 0x20 MSTORE PUSH1 0x40 DUP2 KECCAK256 DUP1 SLOAD PUSH32 0xB773031C326E9A9653EA5403E505D242E5F355672EF686BC348ACD0D95EB2ACF SWAP2 DUP7 SWAP2 CALLER SWAP2 DUP8 SWAP2 SWAP1 DUP7 PUSH2 0xAF4 DUP4 PUSH2 0x1063 JUMP JUMPDEST SWAP1 SWAP2 SSTORE POP PUSH1 0x40 DUP1 MLOAD PUSH1 0x20 DUP2 ADD SWAP7 SWAP1 SWAP7 MSTORE PUSH1 0x1 PUSH1 0x1 PUSH1 0xA0 SHL SUB SWAP5 DUP6 AND SWAP1 DUP7 ADD MSTORE SWAP3 SWAP1 SWAP2 AND PUSH1 0x60 DUP5 ADD MSTORE PUSH1 0x80 DUP4 ADD MSTORE PUSH1 0xA0 DUP3 ADD MSTORE PUSH1 0xC0 ADD PUSH1 0x40 DUP1 MLOAD PUSH1 0x1F NOT DUP2 DUP5 SUB ADD DUP2 MSTORE SWAP1 DUP3 SWAP1 MSTORE DUP1 MLOAD PUSH1 0x20 SWAP2 DUP3 ADD KECCAK256 PUSH2 0x1901 PUSH1 0xF0 SHL SWAP2 DUP4 ADD SWAP2 SWAP1 SWAP2 MSTORE PUSH32 0x0 PUSH1 0x22 DUP4 ADD MSTORE PUSH1 0x42 DUP3 ADD DUP2 SWAP1 MSTORE SWAP2 POP PUSH1 0x0 SWAP1 PUSH1 0x62 ADD PUSH1 0x40 MLOAD PUSH1 0x20 DUP2 DUP4 SUB SUB DUP2 MSTORE SWAP1 PUSH1 0x40 MSTORE DUP1 MLOAD SWAP1 PUSH1 0x20 ADD KECCAK256 SWAP1 POP PUSH1 0x0 PUSH1 0x1 DUP3 DUP16 DUP16 DUP11 DUP2 DUP2 LT PUSH2 0xBB3 JUMPI PUSH2 0xBB3 PUSH2 0x103A JUMP JUMPDEST SWAP1 POP PUSH1 0x20 MUL ADD PUSH1 0x20 DUP2 ADD SWAP1 PUSH2 0xBC8 SWAP2 SWAP1 PUSH2 0x107C JUMP JUMPDEST DUP15 DUP15 DUP12 DUP2 DUP2 LT PUSH2 0xBDA JUMPI PUSH2 0xBDA PUSH2 0x103A JUMP JUMPDEST SWAP1 POP PUSH1 0x20 MUL ADD CALLDATALOAD DUP14 DUP14 DUP13 DUP2 DUP2 LT PUSH2 0xBF3 JUMPI PUSH2 0xBF3 PUSH2 0x103A JUMP JUMPDEST SWAP1 POP PUSH1 0x20 MUL ADD CALLDATALOAD PUSH1 0x40 MLOAD PUSH1 0x0 DUP2 MSTORE PUSH1 0x20 ADD PUSH1 0x40 MSTORE PUSH1 0x40 MLOAD PUSH2 0xC30 SWAP5 SWAP4 SWAP3 SWAP2 SWAP1 SWAP4 DUP5 MSTORE PUSH1 0xFF SWAP3 SWAP1 SWAP3 AND PUSH1 0x20 DUP5 ADD MSTORE PUSH1 0x40 DUP4 ADD MSTORE PUSH1 0x60 DUP3 ADD MSTORE PUSH1 0x80 ADD SWAP1 JUMP JUMPDEST PUSH1 0x20 PUSH1 0x40 MLOAD PUSH1 0x20 DUP2 SUB SWAP1 DUP1 DUP5 SUB SWAP1 DUP6 GAS STATICCALL ISZERO DUP1 ISZERO PUSH2 0xC52 JUMPI RETURNDATASIZE PUSH1 0x0 DUP1 RETURNDATACOPY RETURNDATASIZE PUSH1 0x0 REVERT JUMPDEST POP POP POP PUSH1 0x20 PUSH1 0x40 MLOAD SUB MLOAD SWAP1 POP DUP6 PUSH1 0x1 PUSH1 0x1 PUSH1 0xA0 SHL SUB AND DUP2 PUSH1 0x1 PUSH1 0x1 PUSH1 0xA0 SHL SUB AND EQ PUSH2 0xCB3 JUMPI PUSH1 0x40 MLOAD PUSH3 0x461BCD PUSH1 0xE5 SHL DUP2 MSTORE PUSH1 0x20 PUSH1 0x4 DUP3 ADD MSTORE PUSH1 0x11 PUSH1 0x24 DUP3 ADD MSTORE PUSH17 0x496E76616C6964207369676E6174757265 PUSH1 0x78 SHL PUSH1 0x44 DUP3 ADD MSTORE PUSH1 0x64 ADD PUSH2 0x2C4 JUMP JUMPDEST DUP5 DUP5 PUSH1 0x1 ADD PUSH1 0x0 DUP3 DUP3 SLOAD PUSH2 0xCC7 SWAP2 SWAP1 PUSH2 0x1027 JUMP JUMPDEST SWAP1 SWAP2 SSTORE POP PUSH2 0xCD7 SWAP1 POP DUP6 DUP10 PUSH2 0x1027 JUMP JUMPDEST SWAP8 POP CALLER PUSH1 0x1 PUSH1 0x1 PUSH1 0xA0 SHL SUB AND DUP7 PUSH1 0x1 PUSH1 0x1 PUSH1 0xA0 SHL SUB AND PUSH32 0xA6B5FF986627794655EE0966B919CB8CE3B7B374629F5E71B1BA4F4598DA1BBA DUP8 PUSH1 0x40 MLOAD PUSH2 0xD1E SWAP2 DUP2 MSTORE PUSH1 0x20 ADD SWAP1 JUMP JUMPDEST PUSH1 0x40 MLOAD DUP1 SWAP2 SUB SWAP1 LOG3 POP POP PUSH1 0x1 SWAP1 SWAP5 ADD SWAP4 POP PUSH2 0x949 SWAP3 POP POP POP JUMP JUMPDEST POP DUP1 CALLVALUE EQ PUSH2 0xD7C JUMPI PUSH1 0x40 MLOAD PUSH3 0x461BCD PUSH1 0xE5 SHL DUP2 MSTORE PUSH1 0x20 PUSH1 0x4 DUP3 ADD MSTORE PUSH1 0x11 PUSH1 0x24 DUP3 ADD MSTORE PUSH17 0x125B98DBDC9C9958DD081C185E5B595B9D PUSH1 0x7A SHL PUSH1 0x44 DUP3 ADD MSTORE PUSH1 0x64 ADD PUSH2 0x2C4 JUMP JUMPDEST PUSH1 0x40 MLOAD DUP2 DUP2 MSTORE CALLER SWAP1 PUSH32 0x9FF994879AA5395E64075C2F2CF1C6785B14EBBF574C5B2A708975E2C1E74157 SWAP1 PUSH1 0x20 ADD PUSH1 0x40 MLOAD DUP1 SWAP2 SUB SWAP1 LOG2 POP POP POP POP POP POP POP POP POP POP POP JUMP JUMPDEST PUSH1 0x1 PUSH1 0x1 PUSH1 0xA0 SHL SUB DUP2 AND DUP2 EQ PUSH2 0xDD3 JUMPI PUSH1 0x0 DUP1 REVERT JUMPDEST POP JUMP JUMPDEST PUSH1 0x0 DUP1 PUSH1 0x40 DUP4 DUP6 SUB SLT ISZERO PUSH2 0xDE9 JUMPI PUSH1 0x0 DUP1 REVERT JUMPDEST DUP3 CALLDATALOAD PUSH2 0xDF4 DUP2 PUSH2 0xDBE JUMP JUMPDEST SWAP2 POP PUSH1 0x20 DUP4 ADD CALLDATALOAD PUSH2 0xE04 DUP2 PUSH2 0xDBE JUMP JUMPDEST DUP1 SWAP2 POP POP SWAP3 POP SWAP3 SWAP1 POP JUMP JUMPDEST PUSH1 0x0 DUP1 PUSH1 0x0 PUSH1 0x60 DUP5 DUP7 SUB SLT ISZERO PUSH2 0xE24 JUMPI PUSH1 0x0 DUP1 REVERT JUMPDEST DUP4 CALLDATALOAD PUSH2 0xE2F DUP2 PUSH2 0xDBE JUMP JUMPDEST SWAP6 PUSH1 0x20 DUP6 ADD CALLDATALOAD SWAP6 POP PUSH1 0x40 SWAP1 SWAP5 ADD CALLDATALOAD SWAP4 SWAP3 POP POP POP JUMP JUMPDEST PUSH1 0x0 DUP1 DUP4 PUSH1 0x1F DUP5 ADD SLT PUSH2 0xE56 JUMPI PUSH1 0x0 DUP1 REVERT JUMPDEST POP DUP2 CALLDATALOAD PUSH8 0xFFFFFFFFFFFFFFFF DUP2 GT ISZERO PUSH2 0xE6E JUMPI PUSH1 0x0 DUP1 REVERT JUMPDEST PUSH1 0x20 DUP4 ADD SWAP2 POP DUP4 PUSH1 0x20 DUP3 PUSH1 0x5 SHL DUP6 ADD ADD GT ISZERO PUSH2 0xE89 JUMPI PUSH1 0x0 DUP1 REVERT JUMPDEST SWAP3 POP SWAP3 SWAP1 POP JUMP JUMPDEST PUSH1 0x0 DUP1 PUSH1 0x0 DUP1 PUSH1 0x40 DUP6 DUP8 SUB SLT ISZERO PUSH2 0xEA6 JUMPI PUSH1 0x0 DUP1 REVERT JUMPDEST DUP5 CALLDATALOAD PUSH8 0xFFFFFFFFFFFFFFFF DUP1 DUP3 GT ISZERO PUSH2 0xEBE JUMPI PUSH1 0x0 DUP1 REVERT JUMPDEST PUSH2 0xECA DUP9 DUP4 DUP10 ADD PUSH2 0xE44 JUMP JUMPDEST SWAP1 SWAP7 POP SWAP5 POP PUSH1 0x20 DUP8 ADD CALLDATALOAD SWAP2 POP DUP1 DUP3 GT ISZERO PUSH2 0xEE3 JUMPI PUSH1 0x0 DUP1 REVERT JUMPDEST POP PUSH2 0xEF0 DUP8 DUP3 DUP9 ADD PUSH2 0xE44 JUMP JUMPDEST SWAP6 SWAP9 SWAP5 SWAP8 POP SWAP6 POP POP POP POP JUMP JUMPDEST PUSH1 0x0 PUSH1 0x20 DUP3 DUP5 SUB SLT ISZERO PUSH2 0xF0E JUMPI PUSH1 0x0 DUP1 REVERT JUMPDEST DUP2 CALLDATALOAD PUSH2 0xF19 DUP2 PUSH2 0xDBE JUMP JUMPDEST SWAP4 SWAP3 POP POP POP JUMP JUMPDEST PUSH1 0x0 DUP1 PUSH1 0x0 DUP1 PUSH1 0x0 DUP1 PUSH1 0x0 DUP1 PUSH1 0x0 DUP1 PUSH1 0xA0 DUP12 DUP14 SUB SLT ISZERO PUSH2 0xF3F JUMPI PUSH1 0x0 DUP1 REVERT JUMPDEST DUP11 CALLDATALOAD PUSH8 0xFFFFFFFFFFFFFFFF DUP1 DUP3 GT ISZERO PUSH2 0xF57 JUMPI PUSH1 0x0 DUP1 REVERT JUMPDEST PUSH2 0xF63 DUP15 DUP4 DUP16 ADD PUSH2 0xE44 JUMP JUMPDEST SWAP1 SWAP13 POP SWAP11 POP PUSH1 0x20 DUP14 ADD CALLDATALOAD SWAP2 POP DUP1 DUP3 GT ISZERO PUSH2 0xF7C JUMPI PUSH1 0x0 DUP1 REVERT JUMPDEST PUSH2 0xF88 DUP15 DUP4 DUP16 ADD PUSH2 0xE44 JUMP JUMPDEST SWAP1 SWAP11 POP SWAP9 POP PUSH1 0x40 DUP14 ADD CALLDATALOAD SWAP2 POP DUP1 DUP3 GT ISZERO PUSH2 0xFA1 JUMPI PUSH1 0x0 DUP1 REVERT JUMPDEST PUSH2 0xFAD DUP15 DUP4 DUP16 ADD PUSH2 0xE44 JUMP JUMPDEST SWAP1 SWAP9 POP SWAP7 POP PUSH1 0x60 DUP14 ADD CALLDATALOAD SWAP2 POP DUP1 DUP3 GT ISZERO PUSH2 0xFC6 JUMPI PUSH1 0x0 DUP1 REVERT JUMPDEST PUSH2 0xFD2 DUP15 DUP4 DUP16 ADD PUSH2 0xE44 JUMP JUMPDEST SWAP1 SWAP7 POP SWAP5 POP PUSH1 0x80 DUP14 ADD CALLDATALOAD SWAP2 POP DUP1 DUP3 GT ISZERO PUSH2 0xFEB JUMPI PUSH1 0x0 DUP1 REVERT JUMPDEST POP PUSH2 0xFF8 DUP14 DUP3 DUP15 ADD PUSH2 0xE44 JUMP JUMPDEST SWAP2 POP DUP1 SWAP4 POP POP DUP1 SWAP2 POP POP SWAP3 SWAP6 SWAP9 SWAP12 SWAP2 SWAP5 SWAP8 SWAP11 POP SWAP3 SWAP6 SWAP9 POP JUMP JUMPDEST PUSH4 0x4E487B71 PUSH1 0xE0 SHL PUSH1 0x0 MSTORE PUSH1 0x11 PUSH1 0x4 MSTORE PUSH1 0x24 PUSH1 0x0 REVERT JUMPDEST DUP1 DUP3 ADD DUP1 DUP3 GT ISZERO PUSH2 0x79D JUMPI PUSH2 0x79D PUSH2 0x1011 JUMP JUMPDEST PUSH4 0x4E487B71 PUSH1 0xE0 SHL PUSH1 0x0 MSTORE PUSH1 0x32 PUSH1 0x4 MSTORE PUSH1 0x24 PUSH1 0x0 REVERT JUMPDEST DUP2 DUP2 SUB DUP2 DUP2 GT ISZERO PUSH2 0x79D JUMPI PUSH2 0x79D PUSH2 0x1011 JUMP JUMPDEST PUSH1 0x0 PUSH1 0x1 DUP3 ADD PUSH2 0x1075 JUMPI PUSH2 0x1075 PUSH2 0x1011 JUMP JUMPDEST POP PUSH1 0x1 ADD SWAP1 JUMP JUMPDEST PUSH1 0x0 PUSH1 0x20 DUP3 DUP5 SUB SLT ISZERO PUSH2 0x108E JUMPI PUSH1 0x0 DUP1 REVERT JUMPDEST DUP2 CALLDATALOAD PUSH1 0xFF DUP2 AND DUP2 EQ PUSH2 0xF19 JUMPI PUSH1 0x0 DUP1 REVERT INVALID LOG2 PUSH5 0x6970667358 0x22 SLT KECCAK256 JUMPDEST 0x24 PUSH18 0xBEF71B76573C4604BF8CE6A5EBFAB69A8E02 PUSH22 0x399C53F4003C2086CCA64736F6C6343000817003300 "},"methodIdentifiers":{"DOMAIN_SEPARATOR()":"3644e515","SPEND_TYPEHASH()":"64242887","executeTeamAction(address[],uint256[])":"643706d7","executeWithSignatures(address[],uint256[],uint8[],bytes32[],bytes32[])":"fe38c28e","getAvailableAmount(address,address)":"7371edaa","getPermission(address,address)":"910185dd","grantPermission(address,uint256,uint256)":"5ee2429b","nonces(address)":"7ecebe00","permissions(address,address)":"1f9838b5","revokePermission(address)":"a3bf5b9a"}}}}}