{"contracts/ERC20Permissions.sol":{"ERC20Permissions":{"abi":[{"inputs":[{"internalType":"address","name":"_token","type":"address"}],"stateMutability":"nonpayable","type":"constructor"},{"anonymous":false,"inputs":[{"indexed":true,"internalType":"address","name":"owner","type":"address"},{"indexed":true,"internalType":"address","name":"delegate","type":"address"},{"indexed":false,"internalType":"uint256","name":"amount","type":"uint256"}],"name":"FundsSpent","type":"event"},{"anonymous":false,"inputs":[{"indexed":true,"internalType":"address","name":"owner","type":"address"},{"indexed":true,"internalType":"address","name":"delegate","type":"address"},{"indexed":false,"internalType":"uint256","name":"maxAmount","type":"uint256"},{"indexed":false,"internalType":"uint256","name":"expiry","type":"uint256"}],"name":"PermissionGranted","type":"event"},{"anonymous":false,"inputs":[{"indexed":true,"internalType":"address","name":"owner","type":"address"},{"indexed":true,"internalType":"address","name":"delegate","type":"address"},{"indexed":false,"internalType":"uint256","name":"newMaxAmount","type":"uint256"}],"name":"PermissionIncreased","type":"event"},{"anonymous":false,"inputs":[{"indexed":true,"internalType":"address","name":"owner","type":"address"},{"indexed":true,"internalType":"address","name":"delegate","type":"address"}],"name":"PermissionRevoked","type":"event"},{"anonymous":false,"inputs":[{"indexed":true,"internalType":"address","name":"leader","type":"address"},{"indexed":false,"internalType":"uint256","name":"totalAmount","type":"uint256"},{"indexed":false,"internalType":"uint256","name":"memberCount","type":"uint256"}],"name":"TeamActionExecuted","type":"event"},{"inputs":[{"internalType":"address[]","name":"owners","type":"address[]"},{"internalType":"uint256[]","name":"amounts","type":"uint256[]"}],"name":"executeTeamAction","outputs":[],"stateMutability":"nonpayable","type":"function"},{"inputs":[{"internalType":"address","name":"owner","type":"address"},{"internalType":"address","name":"delegate","type":"address"}],"name":"getAvailableAmount","outputs":[{"internalType":"uint256","name":"","type":"uint256"}],"stateMutability":"view","type":"function"},{"inputs":[{"internalType":"address","name":"owner","type":"address"},{"internalType":"address","name":"delegate","type":"address"}],"name":"getPermission","outputs":[{"internalType":"uint256","name":"maxAmount","type":"uint256"},{"internalType":"uint256","name":"spent","type":"uint256"},{"internalType":"uint256","name":"expiry","type":"uint256"},{"internalType":"bool","name":"active","type":"bool"},{"internalType":"uint256","name":"available","type":"uint256"}],"stateMutability":"view","type":"function"},{"inputs":[{"internalType":"address","name":"leader","type":"address"},{"internalType":"address[]","name":"members","type":"address[]"}],"name":"getTotalPool","outputs":[{"internalType":"uint256","name":"","type":"uint256"}],"stateMutability":"view","type":"function"},{"inputs":[{"internalType":"address","name":"delegate","type":"address"},{"internalType":"uint256","name":"maxAmount","type":"uint256"},{"internalType":"uint256","name":"duration","type":"uint256"}],"name":"grantPermission","outputs":[],"stateMutability":"nonpayable","type":"function"},{"inputs":[{"internalType":"address","name":"delegate","type":"address"},{"internalType":"uint256","name":"additionalAmount","type":"uint256"}],"name":"increasePermission","outputs":[],"stateMutability":"nonpayable","type":"function"},{"inputs":[{"internalType":"address","name":"","type":"address"},{"internalType":"address","name":"","type":"address"}],"name":"permissions","outputs":[{"internalType":"uint256","name":"maxAmount","type":"uint256"},{"internalType":"uint256","name":"spent","type":"uint256"},{"internalType":"uint256","name":"expiry","type":"uint256"},{"internalType":"bool","name":"active","type":"bool"}],"stateMutability":"view","type":"function"},{"inputs":[{"internalType":"address","name":"delegate","type":"address"}],"name":"revokePermission","outputs":[],"stateMutability":"nonpayable","type":"function"},{"inputs":[],"name":"token","outputs":[{"internalType":"contract IERC20","name":"","type":"address"}],"stateMutability":"view","type":"function"}],"evm":{"bytecode":{"linkReferences":{},"object":"60a060405234801561001057600080fd5b506040516111c53803806111c583398101604081905261002f9161008a565b6001600160a01b0381166100795760405162461bcd60e51b815260206004820152600d60248201526c24b73b30b634b2103a37b5b2b760991b604482015260640160405180910390fd5b6001600160a01b03166080526100ba565b60006020828403121561009c57600080fd5b81516001600160a01b03811681146100b357600080fd5b9392505050565b6080516110d46100f1600039600081816101c3015281816102d101528181610505015281816105e201526109db01526110d46000f3fe608060405234801561001057600080fd5b50600436106100935760003560e01c80637371edaa116100665780637371edaa1461013a578063910185dd1461015b578063a3bf5b9a14610198578063a88a32c2146101ab578063fc0c546a146101be57600080fd5b80631f9838b5146100985780632aa77d45146100ff5780635ee2429b14610114578063643706d714610127575b600080fd5b6100d86100a6366004610e54565b600060208181529281526040808220909352908152208054600182015460028301546003909301549192909160ff1684565b60408051948552602085019390935291830152151560608201526080015b60405180910390f35b61011261010d366004610e87565b6101fd565b005b610112610122366004610eb1565b610412565b610112610135366004610f30565b6107c5565b61014d610148366004610e54565b610b57565b6040519081526020016100f6565b61016e610169366004610e54565b610bed565b6040805195865260208601949094529284019190915215156060830152608082015260a0016100f6565b6101126101a6366004610f9c565b610ca8565b61014d6101b9366004610fbe565b610d5a565b6101e57f000000000000000000000000000000000000000000000000000000000000000081565b6040516001600160a01b0390911681526020016100f6565b600081116102475760405162461bcd60e51b81526020600482015260126024820152710416d6f756e74206d757374206265203e20360741b60448201526064015b60405180910390fd5b336000908152602081815260408083206001600160a01b03861684529091529020600381015460ff166102b35760405162461bcd60e51b815260206004820152601460248201527327379030b1ba34bb32903832b936b4b9b9b4b7b760611b604482015260640161023e565b604051636eb1769f60e11b81523360048201523060248201526000907f00000000000000000000000000000000000000000000000000000000000000006001600160a01b03169063dd62ed3e90604401602060405180830381865afa158015610320573d6000803e3d6000fd5b505050506040513d601f19601f820116820180604052508101906103449190611011565b905060008260010154836000015461035c9190611040565b90506103688482611053565b8210156103b05760405162461bcd60e51b8152602060048201526016602482015275496e73756666696369656e7420616c6c6f77616e636560501b604482015260640161023e565b838360000160008282546103c49190611053565b909155505082546040519081526001600160a01b0386169033907fd0079448be1fcced370f8bac10087f0cd361ff575b87c7b23da6f4f5cc7e03889060200160405180910390a35050505050565b6001600160a01b03831661045b5760405162461bcd60e51b815260206004820152601060248201526f496e76616c69642064656c656761746560801b604482015260640161023e565b600082116104a45760405162461bcd60e51b815260206004820152601660248201527504d617820616d6f756e74206d757374206265203e20360541b604482015260640161023e565b600081116104e75760405162461bcd60e51b815260206004820152601060248201526f24b73b30b634b210323ab930ba34b7b760811b604482015260640161023e565b604051636eb1769f60e11b81523360048201523060248201526000907f00000000000000000000000000000000000000000000000000000000000000006001600160a01b03169063dd62ed3e90604401602060405180830381865afa158015610554573d6000803e3d6000fd5b505050506040513d601f19601f820116820180604052508101906105789190611011565b9050828110156105ca5760405162461bcd60e51b815260206004820152601c60248201527f496e73756666696369656e7420746f6b656e20616c6c6f77616e636500000000604482015260640161023e565b6040516370a0823160e01b81523360048201526000907f00000000000000000000000000000000000000000000000000000000000000006001600160a01b0316906370a0823190602401602060405180830381865afa158015610631573d6000803e3d6000fd5b505050506040513d601f19601f820116820180604052508101906106559190611011565b9050838110156106a75760405162461bcd60e51b815260206004820152601a60248201527f496e73756666696369656e7420746f6b656e2062616c616e6365000000000000604482015260640161023e565b336000908152602081815260408083206001600160a01b03891684529091529020600381015460ff161561074557848160000160008282546106e99190611053565b909155506106f990508442611053565b600282015580546040519081526001600160a01b0387169033907fd0079448be1fcced370f8bac10087f0cd361ff575b87c7b23da6f4f5cc7e03889060200160405180910390a36107bd565b848155600060018201556107598442611053565b600282015560038101805460ff191660011790556001600160a01b038616337f47e8fe1cf951ed6c2bd6e674655fb4f681a72e9a2a7bcb56fddfecb4c23afcc5876107a48842611053565b6040805192835260208301919091520160405180910390a35b505050505050565b8281146108065760405162461bcd60e51b815260206004820152600f60248201526e098cadccee8d040dad2e6dac2e8c6d608b1b604482015260640161023e565b8261083f5760405162461bcd60e51b81526020600482015260096024820152684e6f206f776e65727360b81b604482015260640161023e565b6000805b84811015610b1457600086868381811061085f5761085f611066565b90506020020160208101906108749190610f9c565b9050600085858481811061088a5761088a611066565b6001600160a01b03851660009081526020818152604080832033845282529091206003810154929091029390930135935060ff1690506109045760405162461bcd60e51b81526020600482015260156024820152745065726d697373696f6e206e6f742061637469766560581b604482015260640161023e565b8060020154421061094c5760405162461bcd60e51b815260206004820152601260248201527114195c9b5a5cdcda5bdb88195e1c1a5c995960721b604482015260640161023e565b8054600182015461095e908490611053565b11156109ac5760405162461bcd60e51b815260206004820152601860248201527f45786365656473207065726d697373696f6e206c696d69740000000000000000604482015260640161023e565b6040516323b872dd60e01b81526001600160a01b038481166004830152336024830152604482018490526000917f0000000000000000000000000000000000000000000000000000000000000000909116906323b872dd906064016020604051808303816000875af1158015610a26573d6000803e3d6000fd5b505050506040513d601f19601f82011682018060405250810190610a4a919061107c565b905080610a915760405162461bcd60e51b8152602060048201526015602482015274151bdad95b881d1c985b9cd9995c8819985a5b1959605a1b604482015260640161023e565b82826001016000828254610aa59190611053565b90915550610ab590508387611053565b9550336001600160a01b0316846001600160a01b03167fa6b5ff986627794655ee0966b919cb8ce3b7b374629f5e71b1ba4f4598da1bba85604051610afc91815260200190565b60405180910390a35050600190920191506108439050565b50604080518281526020810186905233917f616d645823135ef16cc7628f8ed2dcefa184a73064cf6b7b60c007c497bd7421910160405180910390a25050505050565b6001600160a01b03808316600090815260208181526040808320938516835292815282822083516080810185528154815260018201549281019290925260028101549382019390935260039092015460ff16158015606084015290919080610bc3575080604001514210155b15610bd2576000915050610be7565b60208101518151610be39190611040565b9150505b92915050565b6001600160a01b03808316600090815260208181526040808320938516835292815282822083516080810185528154815260018201549281019290925260028101549382019390935260039092015460ff1615801560608401819052919283928392839283929091839190610c655750816040015142105b9050600081610c75576000610c86565b60208301518351610c869190611040565b83516020850151604090950151909c949b509950919750909550909350505050565b336000908152602081815260408083206001600160a01b03851684529091529020600381015460ff16610d145760405162461bcd60e51b815260206004820152601460248201527327379030b1ba34bb32903832b936b4b9b9b4b7b760611b604482015260640161023e565b60038101805460ff191690556040516001600160a01b0383169033907f5f708ef9fc37d19d88246c264788c8cdf640c9ff500bd168e941ea1421c4f6c490600090a35050565b600080805b83811015610e2f576000806000878785818110610d7e57610d7e611066565b9050602002016020810190610d939190610f9c565b6001600160a01b03908116825260208083019390935260409182016000908120918b1681529083528190208151608081018352815481526001820154938101939093526002810154918301919091526003015460ff1615801560608301819052919250610e035750806040015142105b15610e265760208101518151610e199190611040565b610e239084611053565b92505b50600101610d5f565b50949350505050565b80356001600160a01b0381168114610e4f57600080fd5b919050565b60008060408385031215610e6757600080fd5b610e7083610e38565b9150610e7e60208401610e38565b90509250929050565b60008060408385031215610e9a57600080fd5b610ea383610e38565b946020939093013593505050565b600080600060608486031215610ec657600080fd5b610ecf84610e38565b95602085013595506040909401359392505050565b60008083601f840112610ef657600080fd5b50813567ffffffffffffffff811115610f0e57600080fd5b6020830191508360208260051b8501011115610f2957600080fd5b9250929050565b60008060008060408587031215610f4657600080fd5b843567ffffffffffffffff80821115610f5e57600080fd5b610f6a88838901610ee4565b90965094506020870135915080821115610f8357600080fd5b50610f9087828801610ee4565b95989497509550505050565b600060208284031215610fae57600080fd5b610fb782610e38565b9392505050565b600080600060408486031215610fd357600080fd5b610fdc84610e38565b9250602084013567ffffffffffffffff811115610ff857600080fd5b61100486828701610ee4565b9497909650939450505050565b60006020828403121561102357600080fd5b5051919050565b634e487b7160e01b600052601160045260246000fd5b81810381811115610be757610be761102a565b80820180821115610be757610be761102a565b634e487b7160e01b600052603260045260246000fd5b60006020828403121561108e57600080fd5b81518015158114610fb757600080fdfea26469706673582212205f0834f11999aeb5bfe552fa8b5e2d4b28cad8c97749cab45e836499b0e07e7864736f6c63430008170033","opcodes":"PUSH1 0xA0 PUSH1 0x40 MSTORE CALLVALUE DUP1 ISZERO PUSH2 0x10 JUMPI PUSH1 0x0 DUP1 REVERT JUMPDEST POP PUSH1 0x40 MLOAD PUSH2 0x11C5 CODESIZE SUB DUP1 PUSH2 0x11C5 DUP4 CODECOPY DUP2 ADD PUSH1 0x40 DUP2 SWAP1 MSTORE PUSH2 0x2F SWAP2 PUSH2 0x8A JUMP JUMPDEST PUSH1 0x1 PUSH1 0x1 PUSH1 0xA0 SHL SUB DUP2 AND PUSH2 0x79 JUMPI PUSH1 0x40 MLOAD PUSH3 0x461BCD PUSH1 0xE5 SHL DUP2 MSTORE PUSH1 0x20 PUSH1 0x4 DUP3 ADD MSTORE PUSH1 0xD PUSH1 0x24 DUP3 ADD MSTORE PUSH13 0x24B73B30B634B2103A37B5B2B7 PUSH1 0x99 SHL PUSH1 0x44 DUP3 ADD MSTORE PUSH1 0x64 ADD PUSH1 0x40 MLOAD DUP1 SWAP2 SUB SWAP1 REVERT JUMPDEST PUSH1 0x1 PUSH1 0x1 PUSH1 0xA0 SHL SUB AND PUSH1 0x80 MSTORE PUSH2 0xBA JUMP JUMPDEST PUSH1 0x0 PUSH1 0x20 DUP3 DUP5 SUB SLT ISZERO PUSH2 0x9C JUMPI PUSH1 0x0 DUP1 REVERT JUMPDEST DUP2 MLOAD PUSH1 0x1 PUSH1 0x1 PUSH1 0xA0 SHL SUB DUP2 AND DUP2 EQ PUSH2 0xB3 JUMPI PUSH1 0x0 DUP1 REVERT JUMPDEST SWAP4 SWAP3 POP POP POP JUMP JUMPDEST PUSH1 0x80 MLOAD PUSH2 0x10D4 PUSH2 0xF1 PUSH1 0x0 CODECOPY PUSH1 0x0 DUP2 DUP2 PUSH2 0x1C3 ADD MSTORE DUP2 DUP2 PUSH2 0x2D1 ADD MSTORE DUP2 DUP2 PUSH2 0x505 ADD MSTORE DUP2 DUP2 PUSH2 0x5E2 ADD MSTORE PUSH2 0x9DB ADD MSTORE PUSH2 0x10D4 PUSH1 0x0 RETURN INVALID PUSH1 0x80 PUSH1 0x40 MSTORE CALLVALUE DUP1 ISZERO PUSH2 0x10 JUMPI PUSH1 0x0 DUP1 REVERT JUMPDEST POP PUSH1 0x4 CALLDATASIZE LT PUSH2 0x93 JUMPI PUSH1 0x0 CALLDATALOAD PUSH1 0xE0 SHR DUP1 PUSH4 0x7371EDAA GT PUSH2 0x66 JUMPI DUP1 PUSH4 0x7371EDAA EQ PUSH2 0x13A JUMPI DUP1 PUSH4 0x910185DD EQ PUSH2 0x15B JUMPI DUP1 PUSH4 0xA3BF5B9A EQ PUSH2 0x198 JUMPI DUP1 PUSH4 0xA88A32C2 EQ PUSH2 0x1AB JUMPI DUP1 PUSH4 0xFC0C546A EQ PUSH2 0x1BE JUMPI PUSH1 0x0 DUP1 REVERT JUMPDEST DUP1 PUSH4 0x1F9838B5 EQ PUSH2 0x98 JUMPI DUP1 PUSH4 0x2AA77D45 EQ PUSH2 0xFF JUMPI DUP1 PUSH4 0x5EE2429B EQ PUSH2 0x114 JUMPI DUP1 PUSH4 0x643706D7 EQ PUSH2 0x127 JUMPI JUMPDEST PUSH1 0x0 DUP1 REVERT JUMPDEST PUSH2 0xD8 PUSH2 0xA6 CALLDATASIZE PUSH1 0x4 PUSH2 0xE54 JUMP JUMPDEST PUSH1 0x0 PUSH1 0x20 DUP2 DUP2 MSTORE SWAP3 DUP2 MSTORE PUSH1 0x40 DUP1 DUP3 KECCAK256 SWAP1 SWAP4 MSTORE SWAP1 DUP2 MSTORE KECCAK256 DUP1 SLOAD PUSH1 0x1 DUP3 ADD SLOAD PUSH1 0x2 DUP4 ADD SLOAD PUSH1 0x3 SWAP1 SWAP4 ADD SLOAD SWAP2 SWAP3 SWAP1 SWAP2 PUSH1 0xFF AND DUP5 JUMP JUMPDEST PUSH1 0x40 DUP1 MLOAD SWAP5 DUP6 MSTORE PUSH1 0x20 DUP6 ADD SWAP4 SWAP1 SWAP4 MSTORE SWAP2 DUP4 ADD MSTORE ISZERO ISZERO PUSH1 0x60 DUP3 ADD MSTORE PUSH1 0x80 ADD JUMPDEST PUSH1 0x40 MLOAD DUP1 SWAP2 SUB SWAP1 RETURN JUMPDEST PUSH2 0x112 PUSH2 0x10D CALLDATASIZE PUSH1 0x4 PUSH2 0xE87 JUMP JUMPDEST PUSH2 0x1FD JUMP JUMPDEST STOP JUMPDEST PUSH2 0x112 PUSH2 0x122 CALLDATASIZE PUSH1 0x4 PUSH2 0xEB1 JUMP JUMPDEST PUSH2 0x412 JUMP JUMPDEST PUSH2 0x112 PUSH2 0x135 CALLDATASIZE PUSH1 0x4 PUSH2 0xF30 JUMP JUMPDEST PUSH2 0x7C5 JUMP JUMPDEST PUSH2 0x14D PUSH2 0x148 CALLDATASIZE PUSH1 0x4 PUSH2 0xE54 JUMP JUMPDEST PUSH2 0xB57 JUMP JUMPDEST PUSH1 0x40 MLOAD SWAP1 DUP2 MSTORE PUSH1 0x20 ADD PUSH2 0xF6 JUMP JUMPDEST PUSH2 0x16E PUSH2 0x169 CALLDATASIZE PUSH1 0x4 PUSH2 0xE54 JUMP JUMPDEST PUSH2 0xBED JUMP JUMPDEST PUSH1 0x40 DUP1 MLOAD SWAP6 DUP7 MSTORE PUSH1 0x20 DUP7 ADD SWAP5 SWAP1 SWAP5 MSTORE SWAP3 DUP5 ADD SWAP2 SWAP1 SWAP2 MSTORE ISZERO ISZERO PUSH1 0x60 DUP4 ADD MSTORE PUSH1 0x80 DUP3 ADD MSTORE PUSH1 0xA0 ADD PUSH2 0xF6 JUMP JUMPDEST PUSH2 0x112 PUSH2 0x1A6 CALLDATASIZE PUSH1 0x4 PUSH2 0xF9C JUMP JUMPDEST PUSH2 0xCA8 JUMP JUMPDEST PUSH2 0x14D PUSH2 0x1B9 CALLDATASIZE PUSH1 0x4 PUSH2 0xFBE JUMP JUMPDEST PUSH2 0xD5A JUMP JUMPDEST PUSH2 0x1E5 PUSH32 0x0 DUP2 JUMP JUMPDEST PUSH1 0x40 MLOAD PUSH1 0x1 PUSH1 0x1 PUSH1 0xA0 SHL SUB SWAP1 SWAP2 AND DUP2 MSTORE PUSH1 0x20 ADD PUSH2 0xF6 JUMP JUMPDEST PUSH1 0x0 DUP2 GT PUSH2 0x247 JUMPI PUSH1 0x40 MLOAD PUSH3 0x461BCD PUSH1 0xE5 SHL DUP2 MSTORE PUSH1 0x20 PUSH1 0x4 DUP3 ADD MSTORE PUSH1 0x12 PUSH1 0x24 DUP3 ADD MSTORE PUSH18 0x416D6F756E74206D757374206265203E203 PUSH1 0x74 SHL PUSH1 0x44 DUP3 ADD MSTORE PUSH1 0x64 ADD JUMPDEST PUSH1 0x40 MLOAD DUP1 SWAP2 SUB SWAP1 REVERT JUMPDEST CALLER PUSH1 0x0 SWAP1 DUP2 MSTORE PUSH1 0x20 DUP2 DUP2 MSTORE PUSH1 0x40 DUP1 DUP4 KECCAK256 PUSH1 0x1 PUSH1 0x1 PUSH1 0xA0 SHL SUB DUP7 AND DUP5 MSTORE SWAP1 SWAP2 MSTORE SWAP1 KECCAK256 PUSH1 0x3 DUP2 ADD SLOAD PUSH1 0xFF AND PUSH2 0x2B3 JUMPI PUSH1 0x40 MLOAD PUSH3 0x461BCD PUSH1 0xE5 SHL DUP2 MSTORE PUSH1 0x20 PUSH1 0x4 DUP3 ADD MSTORE PUSH1 0x14 PUSH1 0x24 DUP3 ADD MSTORE PUSH20 0x27379030B1BA34BB32903832B936B4B9B9B4B7B7 PUSH1 0x61 SHL PUSH1 0x44 DUP3 ADD MSTORE PUSH1 0x64 ADD PUSH2 0x23E JUMP JUMPDEST PUSH1 0x40 MLOAD PUSH4 0x6EB1769F PUSH1 0xE1 SHL DUP2 MSTORE CALLER PUSH1 0x4 DUP3 ADD MSTORE ADDRESS PUSH1 0x24 DUP3 ADD MSTORE PUSH1 0x0 SWAP1 PUSH32 0x0 PUSH1 0x1 PUSH1 0x1 PUSH1 0xA0 SHL SUB AND SWAP1 PUSH4 0xDD62ED3E SWAP1 PUSH1 0x44 ADD PUSH1 0x20 PUSH1 0x40 MLOAD DUP1 DUP4 SUB DUP2 DUP7 GAS STATICCALL ISZERO DUP1 ISZERO PUSH2 0x320 JUMPI RETURNDATASIZE PUSH1 0x0 DUP1 RETURNDATACOPY RETURNDATASIZE PUSH1 0x0 REVERT JUMPDEST POP POP POP POP PUSH1 0x40 MLOAD RETURNDATASIZE PUSH1 0x1F NOT PUSH1 0x1F DUP3 ADD AND DUP3 ADD DUP1 PUSH1 0x40 MSTORE POP DUP2 ADD SWAP1 PUSH2 0x344 SWAP2 SWAP1 PUSH2 0x1011 JUMP JUMPDEST SWAP1 POP PUSH1 0x0 DUP3 PUSH1 0x1 ADD SLOAD DUP4 PUSH1 0x0 ADD SLOAD PUSH2 0x35C SWAP2 SWAP1 PUSH2 0x1040 JUMP JUMPDEST SWAP1 POP PUSH2 0x368 DUP5 DUP3 PUSH2 0x1053 JUMP JUMPDEST DUP3 LT ISZERO PUSH2 0x3B0 JUMPI PUSH1 0x40 MLOAD PUSH3 0x461BCD PUSH1 0xE5 SHL DUP2 MSTORE PUSH1 0x20 PUSH1 0x4 DUP3 ADD MSTORE PUSH1 0x16 PUSH1 0x24 DUP3 ADD MSTORE PUSH22 0x496E73756666696369656E7420616C6C6F77616E6365 PUSH1 0x50 SHL PUSH1 0x44 DUP3 ADD MSTORE PUSH1 0x64 ADD PUSH2 0x23E JUMP JUMPDEST DUP4 DUP4 PUSH1 0x0 ADD PUSH1 0x0 DUP3 DUP3 SLOAD PUSH2 0x3C4 SWAP2 SWAP1 PUSH2 0x1053 JUMP JUMPDEST SWAP1 SWAP2 SSTORE POP POP DUP3 SLOAD PUSH1 0x40 MLOAD SWAP1 DUP2 MSTORE PUSH1 0x1 PUSH1 0x1 PUSH1 0xA0 SHL SUB DUP7 AND SWAP1 CALLER SWAP1 PUSH32 0xD0079448BE1FCCED370F8BAC10087F0CD361FF575B87C7B23DA6F4F5CC7E0388 SWAP1 PUSH1 0x20 ADD PUSH1 0x40 MLOAD DUP1 SWAP2 SUB SWAP1 LOG3 POP POP POP POP POP JUMP JUMPDEST PUSH1 0x1 PUSH1 0x1 PUSH1 0xA0 SHL SUB DUP4 AND PUSH2 0x45B JUMPI PUSH1 0x40 MLOAD PUSH3 0x461BCD PUSH1 0xE5 SHL DUP2 MSTORE PUSH1 0x20 PUSH1 0x4 DUP3 ADD MSTORE PUSH1 0x10 PUSH1 0x24 DUP3 ADD MSTORE PUSH16 0x496E76616C69642064656C6567617465 PUSH1 0x80 SHL PUSH1 0x44 DUP3 ADD MSTORE PUSH1 0x64 ADD PUSH2 0x23E JUMP JUMPDEST PUSH1 0x0 DUP3 GT PUSH2 0x4A4 JUMPI PUSH1 0x40 MLOAD PUSH3 0x461BCD PUSH1 0xE5 SHL DUP2 MSTORE PUSH1 0x20 PUSH1 0x4 DUP3 ADD MSTORE PUSH1 0x16 PUSH1 0x24 DUP3 ADD MSTORE PUSH22 0x4D617820616D6F756E74206D757374206265203E203 PUSH1 0x54 SHL PUSH1 0x44 DUP3 ADD MSTORE PUSH1 0x64 ADD PUSH2 0x23E JUMP JUMPDEST PUSH1 0x0 DUP2 GT PUSH2 0x4E7 JUMPI PUSH1 0x40 MLOAD PUSH3 0x461BCD PUSH1 0xE5 SHL DUP2 MSTORE PUSH1 0x20 PUSH1 0x4 DUP3 ADD MSTORE PUSH1 0x10 PUSH1 0x24 DUP3 ADD MSTORE PUSH16 0x24B73B30B634B210323AB930BA34B7B7 PUSH1 0x81 SHL PUSH1 0x44 DUP3 ADD MSTORE PUSH1 0x64 ADD PUSH2 0x23E JUMP JUMPDEST PUSH1 0x40 MLOAD PUSH4 0x6EB1769F PUSH1 0xE1 SHL DUP2 MSTORE CALLER PUSH1 0x4 DUP3 ADD MSTORE ADDRESS PUSH1 0x24 DUP3 ADD MSTORE PUSH1 0x0 SWAP1 PUSH32 0x0 PUSH1 0x1 PUSH1 0x1 PUSH1 0xA0 SHL SUB AND SWAP1 PUSH4 0xDD62ED3E SWAP1 PUSH1 0x44 ADD PUSH1 0x20 PUSH1 0x40 MLOAD DUP1 DUP4 SUB DUP2 DUP7 GAS STATICCALL ISZERO DUP1 ISZERO PUSH2 0x554 JUMPI RETURNDATASIZE PUSH1 0x0 DUP1 RETURNDATACOPY RETURNDATASIZE PUSH1 0x0 REVERT JUMPDEST POP POP POP POP PUSH1 0x40 MLOAD RETURNDATASIZE PUSH1 0x1F NOT PUSH1 0x1F DUP3 ADD AND DUP3 ADD DUP1 PUSH1 0x40 MSTORE POP DUP2 ADD SWAP1 PUSH2 0x578 SWAP2 SWAP1 PUSH2 0x1011 JUMP JUMPDEST SWAP1 POP DUP3 DUP2 LT ISZERO PUSH2 0x5CA JUMPI PUSH1 0x40 MLOAD PUSH3 0x461BCD PUSH1 0xE5 SHL DUP2 MSTORE PUSH1 0x20 PUSH1 0x4 DUP3 ADD MSTORE PUSH1 0x1C PUSH1 0x24 DUP3 ADD MSTORE PUSH32 0x496E73756666696369656E7420746F6B656E20616C6C6F77616E636500000000 PUSH1 0x44 DUP3 ADD MSTORE PUSH1 0x64 ADD PUSH2 0x23E JUMP JUMPDEST PUSH1 0x40 MLOAD PUSH4 0x70A08231 PUSH1 0xE0 SHL DUP2 MSTORE CALLER PUSH1 0x4 DUP3 ADD MSTORE PUSH1 0x0 SWAP1 PUSH32 0x0 PUSH1 0x1 PUSH1 0x1 PUSH1 0xA0 SHL SUB AND SWAP1 PUSH4 0x70A08231 SWAP1 PUSH1 0x24 ADD PUSH1 0x20 PUSH1 0x40 MLOAD DUP1 DUP4 SUB DUP2 DUP7 GAS STATICCALL ISZERO DUP1 ISZERO PUSH2 0x631 JUMPI RETURNDATASIZE PUSH1 0x0 DUP1 RETURNDATACOPY RETURNDATASIZE PUSH1 0x0 REVERT JUMPDEST POP POP POP POP PUSH1 0x40 MLOAD RETURNDATASIZE PUSH1 0x1F NOT PUSH1 0x1F DUP3 ADD AND DUP3 ADD DUP1 PUSH1 0x40 MSTORE POP DUP2 ADD SWAP1 PUSH2 0x655 SWAP2 SWAP1 PUSH2 0x1011 JUMP JUMPDEST SWAP1 POP DUP4 DUP2 LT ISZERO PUSH2 0x6A7 JUMPI PUSH1 0x40 MLOAD PUSH3 0x461BCD PUSH1 0xE5 SHL DUP2 MSTORE PUSH1 0x20 PUSH1 0x4 DUP3 ADD MSTORE PUSH1 0x1A PUSH1 0x24 DUP3 ADD MSTORE PUSH32 0x496E73756666696369656E7420746F6B656E2062616C616E6365000000000000 PUSH1 0x44 DUP3 ADD MSTORE PUSH1 0x64 ADD PUSH2 0x23E JUMP JUMPDEST CALLER PUSH1 0x0 SWAP1 DUP2 MSTORE PUSH1 0x20 DUP2 DUP2 MSTORE PUSH1 0x40 DUP1 DUP4 KECCAK256 PUSH1 0x1 PUSH1 0x1 PUSH1 0xA0 SHL SUB DUP10 AND DUP5 MSTORE SWAP1 SWAP2 MSTORE SWAP1 KECCAK256 PUSH1 0x3 DUP2 ADD SLOAD PUSH1 0xFF AND ISZERO PUSH2 0x745 JUMPI DUP5 DUP2 PUSH1 0x0 ADD PUSH1 0x0 DUP3 DUP3 SLOAD PUSH2 0x6E9 SWAP2 SWAP1 PUSH2 0x1053 JUMP JUMPDEST SWAP1 SWAP2 SSTORE POP PUSH2 0x6F9 SWAP1 POP DUP5 TIMESTAMP PUSH2 0x1053 JUMP JUMPDEST PUSH1 0x2 DUP3 ADD SSTORE DUP1 SLOAD PUSH1 0x40 MLOAD SWAP1 DUP2 MSTORE PUSH1 0x1 PUSH1 0x1 PUSH1 0xA0 SHL SUB DUP8 AND SWAP1 CALLER SWAP1 PUSH32 0xD0079448BE1FCCED370F8BAC10087F0CD361FF575B87C7B23DA6F4F5CC7E0388 SWAP1 PUSH1 0x20 ADD PUSH1 0x40 MLOAD DUP1 SWAP2 SUB SWAP1 LOG3 PUSH2 0x7BD JUMP JUMPDEST DUP5 DUP2 SSTORE PUSH1 0x0 PUSH1 0x1 DUP3 ADD SSTORE PUSH2 0x759 DUP5 TIMESTAMP PUSH2 0x1053 JUMP JUMPDEST PUSH1 0x2 DUP3 ADD SSTORE PUSH1 0x3 DUP2 ADD DUP1 SLOAD PUSH1 0xFF NOT AND PUSH1 0x1 OR SWAP1 SSTORE PUSH1 0x1 PUSH1 0x1 PUSH1 0xA0 SHL SUB DUP7 AND CALLER PUSH32 0x47E8FE1CF951ED6C2BD6E674655FB4F681A72E9A2A7BCB56FDDFECB4C23AFCC5 DUP8 PUSH2 0x7A4 DUP9 TIMESTAMP PUSH2 0x1053 JUMP JUMPDEST PUSH1 0x40 DUP1 MLOAD SWAP3 DUP4 MSTORE PUSH1 0x20 DUP4 ADD SWAP2 SWAP1 SWAP2 MSTORE ADD PUSH1 0x40 MLOAD DUP1 SWAP2 SUB SWAP1 LOG3 JUMPDEST POP POP POP POP POP POP JUMP JUMPDEST DUP3 DUP2 EQ PUSH2 0x806 JUMPI PUSH1 0x40 MLOAD PUSH3 0x461BCD PUSH1 0xE5 SHL DUP2 MSTORE PUSH1 0x20 PUSH1 0x4 DUP3 ADD MSTORE PUSH1 0xF PUSH1 0x24 DUP3 ADD MSTORE PUSH15 0x98CADCCEE8D040DAD2E6DAC2E8C6D PUSH1 0x8B SHL PUSH1 0x44 DUP3 ADD MSTORE PUSH1 0x64 ADD PUSH2 0x23E JUMP JUMPDEST DUP3 PUSH2 0x83F JUMPI PUSH1 0x40 MLOAD PUSH3 0x461BCD PUSH1 0xE5 SHL DUP2 MSTORE PUSH1 0x20 PUSH1 0x4 DUP3 ADD MSTORE PUSH1 0x9 PUSH1 0x24 DUP3 ADD MSTORE PUSH9 0x4E6F206F776E657273 PUSH1 0xB8 SHL PUSH1 0x44 DUP3 ADD MSTORE PUSH1 0x64 ADD PUSH2 0x23E JUMP JUMPDEST PUSH1 0x0 DUP1 JUMPDEST DUP5 DUP2 LT ISZERO PUSH2 0xB14 JUMPI PUSH1 0x0 DUP7 DUP7 DUP4 DUP2 DUP2 LT PUSH2 0x85F JUMPI PUSH2 0x85F PUSH2 0x1066 JUMP JUMPDEST SWAP1 POP PUSH1 0x20 MUL ADD PUSH1 0x20 DUP2 ADD SWAP1 PUSH2 0x874 SWAP2 SWAP1 PUSH2 0xF9C JUMP JUMPDEST SWAP1 POP PUSH1 0x0 DUP6 DUP6 DUP5 DUP2 DUP2 LT PUSH2 0x88A JUMPI PUSH2 0x88A PUSH2 0x1066 JUMP JUMPDEST PUSH1 0x1 PUSH1 0x1 PUSH1 0xA0 SHL SUB DUP6 AND PUSH1 0x0 SWAP1 DUP2 MSTORE PUSH1 0x20 DUP2 DUP2 MSTORE PUSH1 0x40 DUP1 DUP4 KECCAK256 CALLER DUP5 MSTORE DUP3 MSTORE SWAP1 SWAP2 KECCAK256 PUSH1 0x3 DUP2 ADD SLOAD SWAP3 SWAP1 SWAP2 MUL SWAP4 SWAP1 SWAP4 ADD CALLDATALOAD SWAP4 POP PUSH1 0xFF AND SWAP1 POP PUSH2 0x904 JUMPI PUSH1 0x40 MLOAD PUSH3 0x461BCD PUSH1 0xE5 SHL DUP2 MSTORE PUSH1 0x20 PUSH1 0x4 DUP3 ADD MSTORE PUSH1 0x15 PUSH1 0x24 DUP3 ADD MSTORE PUSH21 0x5065726D697373696F6E206E6F7420616374697665 PUSH1 0x58 SHL PUSH1 0x44 DUP3 ADD MSTORE PUSH1 0x64 ADD PUSH2 0x23E JUMP JUMPDEST DUP1 PUSH1 0x2 ADD SLOAD TIMESTAMP LT PUSH2 0x94C JUMPI PUSH1 0x40 MLOAD PUSH3 0x461BCD PUSH1 0xE5 SHL DUP2 MSTORE PUSH1 0x20 PUSH1 0x4 DUP3 ADD MSTORE PUSH1 0x12 PUSH1 0x24 DUP3 ADD MSTORE PUSH18 0x14195C9B5A5CDCDA5BDB88195E1C1A5C9959 PUSH1 0x72 SHL PUSH1 0x44 DUP3 ADD MSTORE PUSH1 0x64 ADD PUSH2 0x23E JUMP JUMPDEST DUP1 SLOAD PUSH1 0x1 DUP3 ADD SLOAD PUSH2 0x95E SWAP1 DUP5 SWAP1 PUSH2 0x1053 JUMP JUMPDEST GT ISZERO PUSH2 0x9AC JUMPI PUSH1 0x40 MLOAD PUSH3 0x461BCD PUSH1 0xE5 SHL DUP2 MSTORE PUSH1 0x20 PUSH1 0x4 DUP3 ADD MSTORE PUSH1 0x18 PUSH1 0x24 DUP3 ADD MSTORE PUSH32 0x45786365656473207065726D697373696F6E206C696D69740000000000000000 PUSH1 0x44 DUP3 ADD MSTORE PUSH1 0x64 ADD PUSH2 0x23E JUMP JUMPDEST PUSH1 0x40 MLOAD PUSH4 0x23B872DD PUSH1 0xE0 SHL DUP2 MSTORE PUSH1 0x1 PUSH1 0x1 PUSH1 0xA0 SHL SUB DUP5 DUP2 AND PUSH1 0x4 DUP4 ADD MSTORE CALLER PUSH1 0x24 DUP4 ADD MSTORE PUSH1 0x44 DUP3 ADD DUP5 SWAP1 MSTORE PUSH1 0x0 SWAP2 PUSH32 0x0 SWAP1 SWAP2 AND SWAP1 PUSH4 0x23B872DD SWAP1 PUSH1 0x64 ADD PUSH1 0x20 PUSH1 0x40 MLOAD DUP1 DUP4 SUB DUP2 PUSH1 0x0 DUP8 GAS CALL ISZERO DUP1 ISZERO PUSH2 0xA26 JUMPI RETURNDATASIZE PUSH1 0x0 DUP1 RETURNDATACOPY RETURNDATASIZE PUSH1 0x0 REVERT JUMPDEST POP POP POP POP PUSH1 0x40 MLOAD RETURNDATASIZE PUSH1 0x1F NOT PUSH1 0x1F DUP3 ADD AND DUP3 ADD DUP1 PUSH1 0x40 MSTORE POP DUP2 ADD SWAP1 PUSH2 0xA4A SWAP2 SWAP1 PUSH2 0x107C JUMP JUMPDEST SWAP1 POP DUP1 PUSH2 0xA91 JUMPI PUSH1 0x40 MLOAD PUSH3 0x461BCD PUSH1 0xE5 SHL DUP2 MSTORE PUSH1 0x20 PUSH1 0x4 DUP3 ADD MSTORE PUSH1 0x15 PUSH1 0x24 DUP3 ADD MSTORE PUSH21 0x151BDAD95B881D1C985B9CD9995C8819985A5B1959 PUSH1 0x5A SHL PUSH1 0x44 DUP3 ADD MSTORE PUSH1 0x64 ADD PUSH2 0x23E JUMP JUMPDEST DUP3 DUP3 PUSH1 0x1 ADD PUSH1 0x0 DUP3 DUP3 SLOAD PUSH2 0xAA5 SWAP2 SWAP1 PUSH2 0x1053 JUMP JUMPDEST SWAP1 SWAP2 SSTORE POP PUSH2 0xAB5 SWAP1 POP DUP4 DUP8 PUSH2 0x1053 JUMP JUMPDEST SWAP6 POP CALLER PUSH1 0x1 PUSH1 0x1 PUSH1 0xA0 SHL SUB AND DUP5 PUSH1 0x1 PUSH1 0x1 PUSH1 0xA0 SHL SUB AND PUSH32 0xA6B5FF986627794655EE0966B919CB8CE3B7B374629F5E71B1BA4F4598DA1BBA DUP6 PUSH1 0x40 MLOAD PUSH2 0xAFC SWAP2 DUP2 MSTORE PUSH1 0x20 ADD SWAP1 JUMP JUMPDEST PUSH1 0x40 MLOAD DUP1 SWAP2 SUB SWAP1 LOG3 POP POP PUSH1 0x1 SWAP1 SWAP3 ADD SWAP2 POP PUSH2 0x843 SWAP1 POP JUMP JUMPDEST POP PUSH1 0x40 DUP1 MLOAD DUP3 DUP2 MSTORE PUSH1 0x20 DUP2 ADD DUP7 SWAP1 MSTORE CALLER SWAP2 PUSH32 0x616D645823135EF16CC7628F8ED2DCEFA184A73064CF6B7B60C007C497BD7421 SWAP2 ADD PUSH1 0x40 MLOAD DUP1 SWAP2 SUB SWAP1 LOG2 POP POP POP POP POP JUMP JUMPDEST PUSH1 0x1 PUSH1 0x1 PUSH1 0xA0 SHL SUB DUP1 DUP4 AND PUSH1 0x0 SWAP1 DUP2 MSTORE PUSH1 0x20 DUP2 DUP2 MSTORE PUSH1 0x40 DUP1 DUP4 KECCAK256 SWAP4 DUP6 AND DUP4 MSTORE SWAP3 DUP2 MSTORE DUP3 DUP3 KECCAK256 DUP4 MLOAD PUSH1 0x80 DUP2 ADD DUP6 MSTORE DUP2 SLOAD DUP2 MSTORE PUSH1 0x1 DUP3 ADD SLOAD SWAP3 DUP2 ADD SWAP3 SWAP1 SWAP3 MSTORE PUSH1 0x2 DUP2 ADD SLOAD SWAP4 DUP3 ADD SWAP4 SWAP1 SWAP4 MSTORE PUSH1 0x3 SWAP1 SWAP3 ADD SLOAD PUSH1 0xFF AND ISZERO DUP1 ISZERO PUSH1 0x60 DUP5 ADD MSTORE SWAP1 SWAP2 SWAP1 DUP1 PUSH2 0xBC3 JUMPI POP DUP1 PUSH1 0x40 ADD MLOAD TIMESTAMP LT ISZERO JUMPDEST ISZERO PUSH2 0xBD2 JUMPI PUSH1 0x0 SWAP2 POP POP PUSH2 0xBE7 JUMP JUMPDEST PUSH1 0x20 DUP2 ADD MLOAD DUP2 MLOAD PUSH2 0xBE3 SWAP2 SWAP1 PUSH2 0x1040 JUMP JUMPDEST SWAP2 POP POP JUMPDEST SWAP3 SWAP2 POP POP JUMP JUMPDEST PUSH1 0x1 PUSH1 0x1 PUSH1 0xA0 SHL SUB DUP1 DUP4 AND PUSH1 0x0 SWAP1 DUP2 MSTORE PUSH1 0x20 DUP2 DUP2 MSTORE PUSH1 0x40 DUP1 DUP4 KECCAK256 SWAP4 DUP6 AND DUP4 MSTORE SWAP3 DUP2 MSTORE DUP3 DUP3 KECCAK256 DUP4 MLOAD PUSH1 0x80 DUP2 ADD DUP6 MSTORE DUP2 SLOAD DUP2 MSTORE PUSH1 0x1 DUP3 ADD SLOAD SWAP3 DUP2 ADD SWAP3 SWAP1 SWAP3 MSTORE PUSH1 0x2 DUP2 ADD SLOAD SWAP4 DUP3 ADD SWAP4 SWAP1 SWAP4 MSTORE PUSH1 0x3 SWAP1 SWAP3 ADD SLOAD PUSH1 0xFF AND ISZERO DUP1 ISZERO PUSH1 0x60 DUP5 ADD DUP2 SWAP1 MSTORE SWAP2 SWAP3 DUP4 SWAP3 DUP4 SWAP3 DUP4 SWAP3 DUP4 SWAP3 SWAP1 SWAP2 DUP4 SWAP2 SWAP1 PUSH2 0xC65 JUMPI POP DUP2 PUSH1 0x40 ADD MLOAD TIMESTAMP LT JUMPDEST SWAP1 POP PUSH1 0x0 DUP2 PUSH2 0xC75 JUMPI PUSH1 0x0 PUSH2 0xC86 JUMP JUMPDEST PUSH1 0x20 DUP4 ADD MLOAD DUP4 MLOAD PUSH2 0xC86 SWAP2 SWAP1 PUSH2 0x1040 JUMP JUMPDEST DUP4 MLOAD PUSH1 0x20 DUP6 ADD MLOAD PUSH1 0x40 SWAP1 SWAP6 ADD MLOAD SWAP1 SWAP13 SWAP5 SWAP12 POP SWAP10 POP SWAP2 SWAP8 POP SWAP1 SWAP6 POP SWAP1 SWAP4 POP POP POP POP JUMP JUMPDEST CALLER PUSH1 0x0 SWAP1 DUP2 MSTORE PUSH1 0x20 DUP2 DUP2 MSTORE PUSH1 0x40 DUP1 DUP4 KECCAK256 PUSH1 0x1 PUSH1 0x1 PUSH1 0xA0 SHL SUB DUP6 AND DUP5 MSTORE SWAP1 SWAP2 MSTORE SWAP1 KECCAK256 PUSH1 0x3 DUP2 ADD SLOAD PUSH1 0xFF AND PUSH2 0xD14 JUMPI PUSH1 0x40 MLOAD PUSH3 0x461BCD PUSH1 0xE5 SHL DUP2 MSTORE PUSH1 0x20 PUSH1 0x4 DUP3 ADD MSTORE PUSH1 0x14 PUSH1 0x24 DUP3 ADD MSTORE PUSH20 0x27379030B1BA34BB32903832B936B4B9B9B4B7B7 PUSH1 0x61 SHL PUSH1 0x44 DUP3 ADD MSTORE PUSH1 0x64 ADD PUSH2 0x23E JUMP JUMPDEST PUSH1 0x3 DUP2 ADD DUP1 SLOAD PUSH1 0xFF NOT AND SWAP1 SSTORE PUSH1 0x40 MLOAD PUSH1 0x1 PUSH1 0x1 PUSH1 0xA0 SHL SUB DUP4 AND SWAP1 CALLER SWAP1 PUSH32 0x5F708EF9FC37D19D88246C264788C8CDF640C9FF500BD168E941EA1421C4F6C4 SWAP1 PUSH1 0x0 SWAP1 LOG3 POP POP JUMP JUMPDEST PUSH1 0x0 DUP1 DUP1 JUMPDEST DUP4 DUP2 LT ISZERO PUSH2 0xE2F JUMPI PUSH1 0x0 DUP1 PUSH1 0x0 DUP8 DUP8 DUP6 DUP2 DUP2 LT PUSH2 0xD7E JUMPI PUSH2 0xD7E PUSH2 0x1066 JUMP JUMPDEST SWAP1 POP PUSH1 0x20 MUL ADD PUSH1 0x20 DUP2 ADD SWAP1 PUSH2 0xD93 SWAP2 SWAP1 PUSH2 0xF9C JUMP JUMPDEST PUSH1 0x1 PUSH1 0x1 PUSH1 0xA0 SHL SUB SWAP1 DUP2 AND DUP3 MSTORE PUSH1 0x20 DUP1 DUP4 ADD SWAP4 SWAP1 SWAP4 MSTORE PUSH1 0x40 SWAP2 DUP3 ADD PUSH1 0x0 SWAP1 DUP2 KECCAK256 SWAP2 DUP12 AND DUP2 MSTORE SWAP1 DUP4 MSTORE DUP2 SWAP1 KECCAK256 DUP2 MLOAD PUSH1 0x80 DUP2 ADD DUP4 MSTORE DUP2 SLOAD DUP2 MSTORE PUSH1 0x1 DUP3 ADD SLOAD SWAP4 DUP2 ADD SWAP4 SWAP1 SWAP4 MSTORE PUSH1 0x2 DUP2 ADD SLOAD SWAP2 DUP4 ADD SWAP2 SWAP1 SWAP2 MSTORE PUSH1 0x3 ADD SLOAD PUSH1 0xFF AND ISZERO DUP1 ISZERO PUSH1 0x60 DUP4 ADD DUP2 SWAP1 MSTORE SWAP2 SWAP3 POP PUSH2 0xE03 JUMPI POP DUP1 PUSH1 0x40 ADD MLOAD TIMESTAMP LT JUMPDEST ISZERO PUSH2 0xE26 JUMPI PUSH1 0x20 DUP2 ADD MLOAD DUP2 MLOAD PUSH2 0xE19 SWAP2 SWAP1 PUSH2 0x1040 JUMP JUMPDEST PUSH2 0xE23 SWAP1 DUP5 PUSH2 0x1053 JUMP JUMPDEST SWAP3 POP JUMPDEST POP PUSH1 0x1 ADD PUSH2 0xD5F JUMP JUMPDEST POP SWAP5 SWAP4 POP POP POP POP JUMP JUMPDEST DUP1 CALLDATALOAD PUSH1 0x1 PUSH1 0x1 PUSH1 0xA0 SHL SUB DUP2 AND DUP2 EQ PUSH2 0xE4F JUMPI PUSH1 0x0 DUP1 REVERT JUMPDEST SWAP2 SWAP1 POP JUMP JUMPDEST PUSH1 0x0 DUP1 PUSH1 0x40 DUP4 DUP6 SUB SLT ISZERO PUSH2 0xE67 JUMPI PUSH1 0x0 DUP1 REVERT JUMPDEST PUSH2 0xE70 DUP4 PUSH2 0xE38 JUMP JUMPDEST SWAP2 POP PUSH2 0xE7E PUSH1 0x20 DUP5 ADD PUSH2 0xE38 JUMP JUMPDEST SWAP1 POP SWAP3 POP SWAP3 SWAP1 POP JUMP JUMPDEST PUSH1 0x0 DUP1 PUSH1 0x40 DUP4 DUP6 SUB SLT ISZERO PUSH2 0xE9A JUMPI PUSH1 0x0 DUP1 REVERT JUMPDEST PUSH2 0xEA3 DUP4 PUSH2 0xE38 JUMP JUMPDEST SWAP5 PUSH1 0x20 SWAP4 SWAP1 SWAP4 ADD CALLDATALOAD SWAP4 POP POP POP JUMP JUMPDEST PUSH1 0x0 DUP1 PUSH1 0x0 PUSH1 0x60 DUP5 DUP7 SUB SLT ISZERO PUSH2 0xEC6 JUMPI PUSH1 0x0 DUP1 REVERT JUMPDEST PUSH2 0xECF DUP5 PUSH2 0xE38 JUMP JUMPDEST SWAP6 PUSH1 0x20 DUP6 ADD CALLDATALOAD SWAP6 POP PUSH1 0x40 SWAP1 SWAP5 ADD CALLDATALOAD SWAP4 SWAP3 POP POP POP JUMP JUMPDEST PUSH1 0x0 DUP1 DUP4 PUSH1 0x1F DUP5 ADD SLT PUSH2 0xEF6 JUMPI PUSH1 0x0 DUP1 REVERT JUMPDEST POP DUP2 CALLDATALOAD PUSH8 0xFFFFFFFFFFFFFFFF DUP2 GT ISZERO PUSH2 0xF0E JUMPI PUSH1 0x0 DUP1 REVERT JUMPDEST PUSH1 0x20 DUP4 ADD SWAP2 POP DUP4 PUSH1 0x20 DUP3 PUSH1 0x5 SHL DUP6 ADD ADD GT ISZERO PUSH2 0xF29 JUMPI PUSH1 0x0 DUP1 REVERT JUMPDEST SWAP3 POP SWAP3 SWAP1 POP JUMP JUMPDEST PUSH1 0x0 DUP1 PUSH1 0x0 DUP1 PUSH1 0x40 DUP6 DUP8 SUB SLT ISZERO PUSH2 0xF46 JUMPI PUSH1 0x0 DUP1 REVERT JUMPDEST DUP5 CALLDATALOAD PUSH8 0xFFFFFFFFFFFFFFFF DUP1 DUP3 GT ISZERO PUSH2 0xF5E JUMPI PUSH1 0x0 DUP1 REVERT JUMPDEST PUSH2 0xF6A DUP9 DUP4 DUP10 ADD PUSH2 0xEE4 JUMP JUMPDEST SWAP1 SWAP7 POP SWAP5 POP PUSH1 0x20 DUP8 ADD CALLDATALOAD SWAP2 POP DUP1 DUP3 GT ISZERO PUSH2 0xF83 JUMPI PUSH1 0x0 DUP1 REVERT JUMPDEST POP PUSH2 0xF90 DUP8 DUP3 DUP9 ADD PUSH2 0xEE4 JUMP JUMPDEST SWAP6 SWAP9 SWAP5 SWAP8 POP SWAP6 POP POP POP POP JUMP JUMPDEST PUSH1 0x0 PUSH1 0x20 DUP3 DUP5 SUB SLT ISZERO PUSH2 0xFAE JUMPI PUSH1 0x0 DUP1 REVERT JUMPDEST PUSH2 0xFB7 DUP3 PUSH2 0xE38 JUMP JUMPDEST SWAP4 SWAP3 POP POP POP JUMP JUMPDEST PUSH1 0x0 DUP1 PUSH1 0x0 PUSH1 0x40 DUP5 DUP7 SUB SLT ISZERO PUSH2 0xFD3 JUMPI PUSH1 0x0 DUP1 REVERT JUMPDEST PUSH2 0xFDC DUP5 PUSH2 0xE38 JUMP JUMPDEST SWAP3 POP PUSH1 0x20 DUP5 ADD CALLDATALOAD PUSH8 0xFFFFFFFFFFFFFFFF DUP2 GT ISZERO PUSH2 0xFF8 JUMPI PUSH1 0x0 DUP1 REVERT JUMPDEST PUSH2 0x1004 DUP7 DUP3 DUP8 ADD PUSH2 0xEE4 JUMP JUMPDEST SWAP5 SWAP8 SWAP1 SWAP7 POP SWAP4 SWAP5 POP POP POP POP JUMP JUMPDEST PUSH1 0x0 PUSH1 0x20 DUP3 DUP5 SUB SLT ISZERO PUSH2 0x1023 JUMPI PUSH1 0x0 DUP1 REVERT JUMPDEST POP MLOAD SWAP2 SWAP1 POP JUMP JUMPDEST PUSH4 0x4E487B71 PUSH1 0xE0 SHL PUSH1 0x0 MSTORE PUSH1 0x11 PUSH1 0x4 MSTORE PUSH1 0x24 PUSH1 0x0 REVERT JUMPDEST DUP2 DUP2 SUB DUP2 DUP2 GT ISZERO PUSH2 0xBE7 JUMPI PUSH2 0xBE7 PUSH2 0x102A JUMP JUMPDEST DUP1 DUP3 ADD DUP1 DUP3 GT ISZERO PUSH2 0xBE7 JUMPI PUSH2 0xBE7 PUSH2 0x102A JUMP JUMPDEST PUSH4 0x4E487B71 PUSH1 0xE0 SHL PUSH1 0x0 MSTORE PUSH1 0x32 PUSH1 0x4 MSTORE PUSH1 0x24 PUSH1 0x0 REVERT JUMPDEST PUSH1 0x0 PUSH1 0x20 DUP3 DUP5 SUB SLT ISZERO PUSH2 0x108E JUMPI PUSH1 0x0 DUP1 REVERT JUMPDEST DUP2 MLOAD DUP1 ISZERO ISZERO DUP2 EQ PUSH2 0xFB7 JUMPI PUSH1 0x0 DUP1 REVERT INVALID LOG2 PUSH5 0x6970667358 0x22 SLT KECCAK256 PUSH0 ADDMOD CALLVALUE CALL NOT SWAP10 0xAE 0xB5 0xBF 0xE5 MSTORE STATICCALL DUP12 0x5E 0x2D 0x4B 0x28 0xCA 0xD8 0xC9 PUSH24 0x49CAB45E836499B0E07E7864736F6C634300081700330000 "},"methodIdentifiers":{"executeTeamAction(address[],uint256[])":"643706d7","getAvailableAmount(address,address)":"7371edaa","getPermission(address,address)":"910185dd","getTotalPool(address,address[])":"a88a32c2","grantPermission(address,uint256,uint256)":"5ee2429b","increasePermission(address,uint256)":"2aa77d45","permissions(address,address)":"1f9838b5","revokePermission(address)":"a3bf5b9a","token()":"fc0c546a"}}}}}