{"contracts/AdvancedPermissions.sol":{"AdvancedPermissions":{"abi":[{"anonymous":false,"inputs":[{"indexed":true,"internalType":"address","name":"owner","type":"address"},{"indexed":true,"internalType":"address","name":"delegate","type":"address"},{"indexed":false,"internalType":"uint256","name":"amount","type":"uint256"}],"name":"FundsSpent","type":"event"},{"anonymous":false,"inputs":[{"indexed":true,"internalType":"address","name":"owner","type":"address"},{"indexed":true,"internalType":"address","name":"delegate","type":"address"},{"indexed":false,"internalType":"uint256","name":"maxAmount","type":"uint256"},{"indexed":false,"internalType":"uint256","name":"expiry","type":"uint256"}],"name":"PermissionGranted","type":"event"},{"anonymous":false,"inputs":[{"indexed":true,"internalType":"address","name":"owner","type":"address"},{"indexed":true,"internalType":"address","name":"delegate","type":"address"}],"name":"PermissionRevoked","type":"event"},{"anonymous":false,"inputs":[{"indexed":true,"internalType":"address","name":"leader","type":"address"},{"indexed":false,"internalType":"uint256","name":"totalAmount","type":"uint256"},{"indexed":false,"internalType":"uint256","name":"memberCount","type":"uint256"}],"name":"TeamActionExecuted","type":"event"},{"inputs":[{"internalType":"address[]","name":"owners","type":"address[]"},{"internalType":"uint256[]","name":"amounts","type":"uint256[]"}],"name":"executeTeamAction","outputs":[],"stateMutability":"payable","type":"function"},{"inputs":[{"internalType":"address","name":"owner","type":"address"},{"internalType":"address","name":"delegate","type":"address"}],"name":"getAvailableAmount","outputs":[{"internalType":"uint256","name":"","type":"uint256"}],"stateMutability":"view","type":"function"},{"inputs":[{"internalType":"address","name":"owner","type":"address"},{"internalType":"address","name":"delegate","type":"address"}],"name":"getPermission","outputs":[{"internalType":"uint256","name":"maxAmount","type":"uint256"},{"internalType":"uint256","name":"spent","type":"uint256"},{"internalType":"uint256","name":"expiry","type":"uint256"},{"internalType":"bool","name":"active","type":"bool"},{"internalType":"uint256","name":"available","type":"uint256"}],"stateMutability":"view","type":"function"},{"inputs":[{"internalType":"address","name":"leader","type":"address"},{"internalType":"address[]","name":"members","type":"address[]"}],"name":"getTotalPool","outputs":[{"internalType":"uint256","name":"","type":"uint256"}],"stateMutability":"view","type":"function"},{"inputs":[{"internalType":"address","name":"delegate","type":"address"},{"internalType":"uint256","name":"maxAmount","type":"uint256"},{"internalType":"uint256","name":"duration","type":"uint256"}],"name":"grantPermission","outputs":[],"stateMutability":"nonpayable","type":"function"},{"inputs":[{"internalType":"address","name":"delegate","type":"address"},{"internalType":"uint256","name":"additionalAmount","type":"uint256"}],"name":"increasePermission","outputs":[],"stateMutability":"nonpayable","type":"function"},{"inputs":[{"internalType":"address","name":"","type":"address"},{"internalType":"address","name":"","type":"address"}],"name":"permissions","outputs":[{"internalType":"uint256","name":"maxAmount","type":"uint256"},{"internalType":"uint256","name":"spent","type":"uint256"},{"internalType":"uint256","name":"expiry","type":"uint256"},{"internalType":"bool","name":"active","type":"bool"}],"stateMutability":"view","type":"function"},{"inputs":[{"internalType":"address","name":"delegate","type":"address"}],"name":"revokePermission","outputs":[],"stateMutability":"nonpayable","type":"function"}],"evm":{"bytecode":{"linkReferences":{},"object":"608060405234801561001057600080fd5b50610d76806100206000396000f3fe60806040526004361061007b5760003560e01c80637371edaa1161004e5780637371edaa14610149578063910185dd14610177578063a3bf5b9a146101c1578063a88a32c2146101e157600080fd5b80631f9838b5146100805780632aa77d45146100f45780635ee2429b14610116578063643706d714610136575b600080fd5b34801561008c57600080fd5b506100cd61009b366004610b31565b600060208181529281526040808220909352908152208054600182015460028301546003909301549192909160ff1684565b60408051948552602085019390935291830152151560608201526080015b60405180910390f35b34801561010057600080fd5b5061011461010f366004610b64565b610201565b005b34801561012257600080fd5b50610114610131366004610b8e565b61036c565b610114610144366004610c0d565b610505565b34801561015557600080fd5b50610169610164366004610b31565b610834565b6040519081526020016100eb565b34801561018357600080fd5b50610197610192366004610b31565b6108ca565b6040805195865260208601949094529284019190915215156060830152608082015260a0016100eb565b3480156101cd57600080fd5b506101146101dc366004610c79565b610985565b3480156101ed57600080fd5b506101696101fc366004610c9b565b610a37565b336000908152602081815260408083206001600160a01b03861684529091529020600381015460ff166102725760405162461bcd60e51b815260206004820152601460248201527327379030b1ba34bb32903832b936b4b9b9b4b7b760611b60448201526064015b60405180910390fd5b806002015442106102ba5760405162461bcd60e51b815260206004820152601260248201527114195c9b5a5cdcda5bdb88195e1c1a5c995960721b6044820152606401610269565b600082116102ff5760405162461bcd60e51b81526020600482015260126024820152710416d6f756e74206d757374206265203e20360741b6044820152606401610269565b818160000160008282546103139190610d04565b9091555050805460028201546040805192835260208301919091526001600160a01b0385169133917f47e8fe1cf951ed6c2bd6e674655fb4f681a72e9a2a7bcb56fddfecb4c23afcc591015b60405180910390a3505050565b6001600160a01b0383166103b55760405162461bcd60e51b815260206004820152601060248201526f496e76616c69642064656c656761746560801b6044820152606401610269565b600082116103fe5760405162461bcd60e51b815260206004820152601660248201527504d617820616d6f756e74206d757374206265203e20360541b6044820152606401610269565b600081116104415760405162461bcd60e51b815260206004820152601060248201526f24b73b30b634b210323ab930ba34b7b760811b6044820152606401610269565b60408051608081018252838152600060208201529081016104628342610d04565b81526001602091820181905233600081815280845260408082206001600160a01b038a16808452908652918190208651815594860151938501939093559184015160028401556060909301516003909201805460ff191692151592909217909155907f47e8fe1cf951ed6c2bd6e674655fb4f681a72e9a2a7bcb56fddfecb4c23afcc5846104f08542610d04565b6040805192835260208301919091520161035f565b8281146105465760405162461bcd60e51b815260206004820152600f60248201526e098cadccee8d040dad2e6dac2e8c6d608b1b6044820152606401610269565b826105895760405162461bcd60e51b8152602060048201526013602482015272139bc81bdddb995c9cc81cdc1958da599a5959606a1b6044820152606401610269565b6000805b848110156107745760008686838181106105a9576105a9610d17565b90506020020160208101906105be9190610c79565b905060008585848181106105d4576105d4610d17565b6001600160a01b03851660009081526020818152604080832033845282529091206003810154929091029390930135935060ff16905061064e5760405162461bcd60e51b81526020600482015260156024820152745065726d697373696f6e206e6f742061637469766560581b6044820152606401610269565b806002015442106106965760405162461bcd60e51b815260206004820152601260248201527114195c9b5a5cdcda5bdb88195e1c1a5c995960721b6044820152606401610269565b805460018201546106a8908490610d04565b11156106f65760405162461bcd60e51b815260206004820152601860248201527f45786365656473207065726d697373696f6e206c696d697400000000000000006044820152606401610269565b8181600101600082825461070a9190610d04565b9091555061071a90508286610d04565b9450336001600160a01b0316836001600160a01b03167fa6b5ff986627794655ee0966b919cb8ce3b7b374629f5e71b1ba4f4598da1bba8460405161076191815260200190565b60405180910390a350505060010161058d565b508034146107c45760405162461bcd60e51b815260206004820152601c60248201527f4d7573742073656e6420657861637420746f74616c20616d6f756e74000000006044820152606401610269565b604051339082156108fc029083906000818181858888f193505050501580156107f1573d6000803e3d6000fd5b50604080518281526020810186905233917f616d645823135ef16cc7628f8ed2dcefa184a73064cf6b7b60c007c497bd7421910160405180910390a25050505050565b6001600160a01b03808316600090815260208181526040808320938516835292815282822083516080810185528154815260018201549281019290925260028101549382019390935260039092015460ff161580156060840152909190806108a0575080604001514210155b156108af5760009150506108c4565b602081015181516108c09190610d2d565b9150505b92915050565b6001600160a01b03808316600090815260208181526040808320938516835292815282822083516080810185528154815260018201549281019290925260028101549382019390935260039092015460ff16158015606084018190529192839283928392839290918391906109425750816040015142105b9050600081610952576000610963565b602083015183516109639190610d2d565b83516020850151604090950151909c949b509950919750909550909350505050565b336000908152602081815260408083206001600160a01b03851684529091529020600381015460ff166109f15760405162461bcd60e51b815260206004820152601460248201527327379030b1ba34bb32903832b936b4b9b9b4b7b760611b6044820152606401610269565b60038101805460ff191690556040516001600160a01b0383169033907f5f708ef9fc37d19d88246c264788c8cdf640c9ff500bd168e941ea1421c4f6c490600090a35050565b600080805b83811015610b0c576000806000878785818110610a5b57610a5b610d17565b9050602002016020810190610a709190610c79565b6001600160a01b03908116825260208083019390935260409182016000908120918b1681529083528190208151608081018352815481526001820154938101939093526002810154918301919091526003015460ff1615801560608301819052919250610ae05750806040015142105b15610b035760208101518151610af69190610d2d565b610b009084610d04565b92505b50600101610a3c565b50949350505050565b80356001600160a01b0381168114610b2c57600080fd5b919050565b60008060408385031215610b4457600080fd5b610b4d83610b15565b9150610b5b60208401610b15565b90509250929050565b60008060408385031215610b7757600080fd5b610b8083610b15565b946020939093013593505050565b600080600060608486031215610ba357600080fd5b610bac84610b15565b95602085013595506040909401359392505050565b60008083601f840112610bd357600080fd5b50813567ffffffffffffffff811115610beb57600080fd5b6020830191508360208260051b8501011115610c0657600080fd5b9250929050565b60008060008060408587031215610c2357600080fd5b843567ffffffffffffffff80821115610c3b57600080fd5b610c4788838901610bc1565b90965094506020870135915080821115610c6057600080fd5b50610c6d87828801610bc1565b95989497509550505050565b600060208284031215610c8b57600080fd5b610c9482610b15565b9392505050565b600080600060408486031215610cb057600080fd5b610cb984610b15565b9250602084013567ffffffffffffffff811115610cd557600080fd5b610ce186828701610bc1565b9497909650939450505050565b634e487b7160e01b600052601160045260246000fd5b808201808211156108c4576108c4610cee565b634e487b7160e01b600052603260045260246000fd5b818103818111156108c4576108c4610cee56fea264697066735822122033ef34727128f10fc880668c0b6903bae9e7fa595873c24a24d5117e6274b98164736f6c63430008170033","opcodes":"PUSH1 0x80 PUSH1 0x40 MSTORE CALLVALUE DUP1 ISZERO PUSH2 0x10 JUMPI PUSH1 0x0 DUP1 REVERT JUMPDEST POP PUSH2 0xD76 DUP1 PUSH2 0x20 PUSH1 0x0 CODECOPY PUSH1 0x0 RETURN INVALID PUSH1 0x80 PUSH1 0x40 MSTORE PUSH1 0x4 CALLDATASIZE LT PUSH2 0x7B JUMPI PUSH1 0x0 CALLDATALOAD PUSH1 0xE0 SHR DUP1 PUSH4 0x7371EDAA GT PUSH2 0x4E JUMPI DUP1 PUSH4 0x7371EDAA EQ PUSH2 0x149 JUMPI DUP1 PUSH4 0x910185DD EQ PUSH2 0x177 JUMPI DUP1 PUSH4 0xA3BF5B9A EQ PUSH2 0x1C1 JUMPI DUP1 PUSH4 0xA88A32C2 EQ PUSH2 0x1E1 JUMPI PUSH1 0x0 DUP1 REVERT JUMPDEST DUP1 PUSH4 0x1F9838B5 EQ PUSH2 0x80 JUMPI DUP1 PUSH4 0x2AA77D45 EQ PUSH2 0xF4 JUMPI DUP1 PUSH4 0x5EE2429B EQ PUSH2 0x116 JUMPI DUP1 PUSH4 0x643706D7 EQ PUSH2 0x136 JUMPI JUMPDEST PUSH1 0x0 DUP1 REVERT JUMPDEST CALLVALUE DUP1 ISZERO PUSH2 0x8C JUMPI PUSH1 0x0 DUP1 REVERT JUMPDEST POP PUSH2 0xCD PUSH2 0x9B CALLDATASIZE PUSH1 0x4 PUSH2 0xB31 JUMP JUMPDEST PUSH1 0x0 PUSH1 0x20 DUP2 DUP2 MSTORE SWAP3 DUP2 MSTORE PUSH1 0x40 DUP1 DUP3 KECCAK256 SWAP1 SWAP4 MSTORE SWAP1 DUP2 MSTORE KECCAK256 DUP1 SLOAD PUSH1 0x1 DUP3 ADD SLOAD PUSH1 0x2 DUP4 ADD SLOAD PUSH1 0x3 SWAP1 SWAP4 ADD SLOAD SWAP2 SWAP3 SWAP1 SWAP2 PUSH1 0xFF AND DUP5 JUMP JUMPDEST PUSH1 0x40 DUP1 MLOAD SWAP5 DUP6 MSTORE PUSH1 0x20 DUP6 ADD SWAP4 SWAP1 SWAP4 MSTORE SWAP2 DUP4 ADD MSTORE ISZERO ISZERO PUSH1 0x60 DUP3 ADD MSTORE PUSH1 0x80 ADD JUMPDEST PUSH1 0x40 MLOAD DUP1 SWAP2 SUB SWAP1 RETURN JUMPDEST CALLVALUE DUP1 ISZERO PUSH2 0x100 JUMPI PUSH1 0x0 DUP1 REVERT JUMPDEST POP PUSH2 0x114 PUSH2 0x10F CALLDATASIZE PUSH1 0x4 PUSH2 0xB64 JUMP JUMPDEST PUSH2 0x201 JUMP JUMPDEST STOP JUMPDEST CALLVALUE DUP1 ISZERO PUSH2 0x122 JUMPI PUSH1 0x0 DUP1 REVERT JUMPDEST POP PUSH2 0x114 PUSH2 0x131 CALLDATASIZE PUSH1 0x4 PUSH2 0xB8E JUMP JUMPDEST PUSH2 0x36C JUMP JUMPDEST PUSH2 0x114 PUSH2 0x144 CALLDATASIZE PUSH1 0x4 PUSH2 0xC0D JUMP JUMPDEST PUSH2 0x505 JUMP JUMPDEST CALLVALUE DUP1 ISZERO PUSH2 0x155 JUMPI PUSH1 0x0 DUP1 REVERT JUMPDEST POP PUSH2 0x169 PUSH2 0x164 CALLDATASIZE PUSH1 0x4 PUSH2 0xB31 JUMP JUMPDEST PUSH2 0x834 JUMP JUMPDEST PUSH1 0x40 MLOAD SWAP1 DUP2 MSTORE PUSH1 0x20 ADD PUSH2 0xEB JUMP JUMPDEST CALLVALUE DUP1 ISZERO PUSH2 0x183 JUMPI PUSH1 0x0 DUP1 REVERT JUMPDEST POP PUSH2 0x197 PUSH2 0x192 CALLDATASIZE PUSH1 0x4 PUSH2 0xB31 JUMP JUMPDEST PUSH2 0x8CA JUMP JUMPDEST PUSH1 0x40 DUP1 MLOAD SWAP6 DUP7 MSTORE PUSH1 0x20 DUP7 ADD SWAP5 SWAP1 SWAP5 MSTORE SWAP3 DUP5 ADD SWAP2 SWAP1 SWAP2 MSTORE ISZERO ISZERO PUSH1 0x60 DUP4 ADD MSTORE PUSH1 0x80 DUP3 ADD MSTORE PUSH1 0xA0 ADD PUSH2 0xEB JUMP JUMPDEST CALLVALUE DUP1 ISZERO PUSH2 0x1CD JUMPI PUSH1 0x0 DUP1 REVERT JUMPDEST POP PUSH2 0x114 PUSH2 0x1DC CALLDATASIZE PUSH1 0x4 PUSH2 0xC79 JUMP JUMPDEST PUSH2 0x985 JUMP JUMPDEST CALLVALUE DUP1 ISZERO PUSH2 0x1ED JUMPI PUSH1 0x0 DUP1 REVERT JUMPDEST POP PUSH2 0x169 PUSH2 0x1FC CALLDATASIZE PUSH1 0x4 PUSH2 0xC9B JUMP JUMPDEST PUSH2 0xA37 JUMP JUMPDEST CALLER PUSH1 0x0 SWAP1 DUP2 MSTORE PUSH1 0x20 DUP2 DUP2 MSTORE PUSH1 0x40 DUP1 DUP4 KECCAK256 PUSH1 0x1 PUSH1 0x1 PUSH1 0xA0 SHL SUB DUP7 AND DUP5 MSTORE SWAP1 SWAP2 MSTORE SWAP1 KECCAK256 PUSH1 0x3 DUP2 ADD SLOAD PUSH1 0xFF AND PUSH2 0x272 JUMPI PUSH1 0x40 MLOAD PUSH3 0x461BCD PUSH1 0xE5 SHL DUP2 MSTORE PUSH1 0x20 PUSH1 0x4 DUP3 ADD MSTORE PUSH1 0x14 PUSH1 0x24 DUP3 ADD MSTORE PUSH20 0x27379030B1BA34BB32903832B936B4B9B9B4B7B7 PUSH1 0x61 SHL PUSH1 0x44 DUP3 ADD MSTORE PUSH1 0x64 ADD JUMPDEST PUSH1 0x40 MLOAD DUP1 SWAP2 SUB SWAP1 REVERT JUMPDEST DUP1 PUSH1 0x2 ADD SLOAD TIMESTAMP LT PUSH2 0x2BA JUMPI PUSH1 0x40 MLOAD PUSH3 0x461BCD PUSH1 0xE5 SHL DUP2 MSTORE PUSH1 0x20 PUSH1 0x4 DUP3 ADD MSTORE PUSH1 0x12 PUSH1 0x24 DUP3 ADD MSTORE PUSH18 0x14195C9B5A5CDCDA5BDB88195E1C1A5C9959 PUSH1 0x72 SHL PUSH1 0x44 DUP3 ADD MSTORE PUSH1 0x64 ADD PUSH2 0x269 JUMP JUMPDEST PUSH1 0x0 DUP3 GT PUSH2 0x2FF JUMPI PUSH1 0x40 MLOAD PUSH3 0x461BCD PUSH1 0xE5 SHL DUP2 MSTORE PUSH1 0x20 PUSH1 0x4 DUP3 ADD MSTORE PUSH1 0x12 PUSH1 0x24 DUP3 ADD MSTORE PUSH18 0x416D6F756E74206D757374206265203E203 PUSH1 0x74 SHL PUSH1 0x44 DUP3 ADD MSTORE PUSH1 0x64 ADD PUSH2 0x269 JUMP JUMPDEST DUP2 DUP2 PUSH1 0x0 ADD PUSH1 0x0 DUP3 DUP3 SLOAD PUSH2 0x313 SWAP2 SWAP1 PUSH2 0xD04 JUMP JUMPDEST SWAP1 SWAP2 SSTORE POP POP DUP1 SLOAD PUSH1 0x2 DUP3 ADD SLOAD PUSH1 0x40 DUP1 MLOAD SWAP3 DUP4 MSTORE PUSH1 0x20 DUP4 ADD SWAP2 SWAP1 SWAP2 MSTORE PUSH1 0x1 PUSH1 0x1 PUSH1 0xA0 SHL SUB DUP6 AND SWAP2 CALLER SWAP2 PUSH32 0x47E8FE1CF951ED6C2BD6E674655FB4F681A72E9A2A7BCB56FDDFECB4C23AFCC5 SWAP2 ADD JUMPDEST PUSH1 0x40 MLOAD DUP1 SWAP2 SUB SWAP1 LOG3 POP POP POP JUMP JUMPDEST PUSH1 0x1 PUSH1 0x1 PUSH1 0xA0 SHL SUB DUP4 AND PUSH2 0x3B5 JUMPI PUSH1 0x40 MLOAD PUSH3 0x461BCD PUSH1 0xE5 SHL DUP2 MSTORE PUSH1 0x20 PUSH1 0x4 DUP3 ADD MSTORE PUSH1 0x10 PUSH1 0x24 DUP3 ADD MSTORE PUSH16 0x496E76616C69642064656C6567617465 PUSH1 0x80 SHL PUSH1 0x44 DUP3 ADD MSTORE PUSH1 0x64 ADD PUSH2 0x269 JUMP JUMPDEST PUSH1 0x0 DUP3 GT PUSH2 0x3FE JUMPI PUSH1 0x40 MLOAD PUSH3 0x461BCD PUSH1 0xE5 SHL DUP2 MSTORE PUSH1 0x20 PUSH1 0x4 DUP3 ADD MSTORE PUSH1 0x16 PUSH1 0x24 DUP3 ADD MSTORE PUSH22 0x4D617820616D6F756E74206D757374206265203E203 PUSH1 0x54 SHL PUSH1 0x44 DUP3 ADD MSTORE PUSH1 0x64 ADD PUSH2 0x269 JUMP JUMPDEST PUSH1 0x0 DUP2 GT PUSH2 0x441 JUMPI PUSH1 0x40 MLOAD PUSH3 0x461BCD PUSH1 0xE5 SHL DUP2 MSTORE PUSH1 0x20 PUSH1 0x4 DUP3 ADD MSTORE PUSH1 0x10 PUSH1 0x24 DUP3 ADD MSTORE PUSH16 0x24B73B30B634B210323AB930BA34B7B7 PUSH1 0x81 SHL PUSH1 0x44 DUP3 ADD MSTORE PUSH1 0x64 ADD PUSH2 0x269 JUMP JUMPDEST PUSH1 0x40 DUP1 MLOAD PUSH1 0x80 DUP2 ADD DUP3 MSTORE DUP4 DUP2 MSTORE PUSH1 0x0 PUSH1 0x20 DUP3 ADD MSTORE SWAP1 DUP2 ADD PUSH2 0x462 DUP4 TIMESTAMP PUSH2 0xD04 JUMP JUMPDEST DUP2 MSTORE PUSH1 0x1 PUSH1 0x20 SWAP2 DUP3 ADD DUP2 SWAP1 MSTORE CALLER PUSH1 0x0 DUP2 DUP2 MSTORE DUP1 DUP5 MSTORE PUSH1 0x40 DUP1 DUP3 KECCAK256 PUSH1 0x1 PUSH1 0x1 PUSH1 0xA0 SHL SUB DUP11 AND DUP1 DUP5 MSTORE SWAP1 DUP7 MSTORE SWAP2 DUP2 SWAP1 KECCAK256 DUP7 MLOAD DUP2 SSTORE SWAP5 DUP7 ADD MLOAD SWAP4 DUP6 ADD SWAP4 SWAP1 SWAP4 SSTORE SWAP2 DUP5 ADD MLOAD PUSH1 0x2 DUP5 ADD SSTORE PUSH1 0x60 SWAP1 SWAP4 ADD MLOAD PUSH1 0x3 SWAP1 SWAP3 ADD DUP1 SLOAD PUSH1 0xFF NOT AND SWAP3 ISZERO ISZERO SWAP3 SWAP1 SWAP3 OR SWAP1 SWAP2 SSTORE SWAP1 PUSH32 0x47E8FE1CF951ED6C2BD6E674655FB4F681A72E9A2A7BCB56FDDFECB4C23AFCC5 DUP5 PUSH2 0x4F0 DUP6 TIMESTAMP PUSH2 0xD04 JUMP JUMPDEST PUSH1 0x40 DUP1 MLOAD SWAP3 DUP4 MSTORE PUSH1 0x20 DUP4 ADD SWAP2 SWAP1 SWAP2 MSTORE ADD PUSH2 0x35F JUMP JUMPDEST DUP3 DUP2 EQ PUSH2 0x546 JUMPI PUSH1 0x40 MLOAD PUSH3 0x461BCD PUSH1 0xE5 SHL DUP2 MSTORE PUSH1 0x20 PUSH1 0x4 DUP3 ADD MSTORE PUSH1 0xF PUSH1 0x24 DUP3 ADD MSTORE PUSH15 0x98CADCCEE8D040DAD2E6DAC2E8C6D PUSH1 0x8B SHL PUSH1 0x44 DUP3 ADD MSTORE PUSH1 0x64 ADD PUSH2 0x269 JUMP JUMPDEST DUP3 PUSH2 0x589 JUMPI PUSH1 0x40 MLOAD PUSH3 0x461BCD PUSH1 0xE5 SHL DUP2 MSTORE PUSH1 0x20 PUSH1 0x4 DUP3 ADD MSTORE PUSH1 0x13 PUSH1 0x24 DUP3 ADD MSTORE PUSH19 0x139BC81BDDDB995C9CC81CDC1958DA599A5959 PUSH1 0x6A SHL PUSH1 0x44 DUP3 ADD MSTORE PUSH1 0x64 ADD PUSH2 0x269 JUMP JUMPDEST PUSH1 0x0 DUP1 JUMPDEST DUP5 DUP2 LT ISZERO PUSH2 0x774 JUMPI PUSH1 0x0 DUP7 DUP7 DUP4 DUP2 DUP2 LT PUSH2 0x5A9 JUMPI PUSH2 0x5A9 PUSH2 0xD17 JUMP JUMPDEST SWAP1 POP PUSH1 0x20 MUL ADD PUSH1 0x20 DUP2 ADD SWAP1 PUSH2 0x5BE SWAP2 SWAP1 PUSH2 0xC79 JUMP JUMPDEST SWAP1 POP PUSH1 0x0 DUP6 DUP6 DUP5 DUP2 DUP2 LT PUSH2 0x5D4 JUMPI PUSH2 0x5D4 PUSH2 0xD17 JUMP JUMPDEST PUSH1 0x1 PUSH1 0x1 PUSH1 0xA0 SHL SUB DUP6 AND PUSH1 0x0 SWAP1 DUP2 MSTORE PUSH1 0x20 DUP2 DUP2 MSTORE PUSH1 0x40 DUP1 DUP4 KECCAK256 CALLER DUP5 MSTORE DUP3 MSTORE SWAP1 SWAP2 KECCAK256 PUSH1 0x3 DUP2 ADD SLOAD SWAP3 SWAP1 SWAP2 MUL SWAP4 SWAP1 SWAP4 ADD CALLDATALOAD SWAP4 POP PUSH1 0xFF AND SWAP1 POP PUSH2 0x64E JUMPI PUSH1 0x40 MLOAD PUSH3 0x461BCD PUSH1 0xE5 SHL DUP2 MSTORE PUSH1 0x20 PUSH1 0x4 DUP3 ADD MSTORE PUSH1 0x15 PUSH1 0x24 DUP3 ADD MSTORE PUSH21 0x5065726D697373696F6E206E6F7420616374697665 PUSH1 0x58 SHL PUSH1 0x44 DUP3 ADD MSTORE PUSH1 0x64 ADD PUSH2 0x269 JUMP JUMPDEST DUP1 PUSH1 0x2 ADD SLOAD TIMESTAMP LT PUSH2 0x696 JUMPI PUSH1 0x40 MLOAD PUSH3 0x461BCD PUSH1 0xE5 SHL DUP2 MSTORE PUSH1 0x20 PUSH1 0x4 DUP3 ADD MSTORE PUSH1 0x12 PUSH1 0x24 DUP3 ADD MSTORE PUSH18 0x14195C9B5A5CDCDA5BDB88195E1C1A5C9959 PUSH1 0x72 SHL PUSH1 0x44 DUP3 ADD MSTORE PUSH1 0x64 ADD PUSH2 0x269 JUMP JUMPDEST DUP1 SLOAD PUSH1 0x1 DUP3 ADD SLOAD PUSH2 0x6A8 SWAP1 DUP5 SWAP1 PUSH2 0xD04 JUMP JUMPDEST GT ISZERO PUSH2 0x6F6 JUMPI PUSH1 0x40 MLOAD PUSH3 0x461BCD PUSH1 0xE5 SHL DUP2 MSTORE PUSH1 0x20 PUSH1 0x4 DUP3 ADD MSTORE PUSH1 0x18 PUSH1 0x24 DUP3 ADD MSTORE PUSH32 0x45786365656473207065726D697373696F6E206C696D69740000000000000000 PUSH1 0x44 DUP3 ADD MSTORE PUSH1 0x64 ADD PUSH2 0x269 JUMP JUMPDEST DUP2 DUP2 PUSH1 0x1 ADD PUSH1 0x0 DUP3 DUP3 SLOAD PUSH2 0x70A SWAP2 SWAP1 PUSH2 0xD04 JUMP JUMPDEST SWAP1 SWAP2 SSTORE POP PUSH2 0x71A SWAP1 POP DUP3 DUP7 PUSH2 0xD04 JUMP JUMPDEST SWAP5 POP CALLER PUSH1 0x1 PUSH1 0x1 PUSH1 0xA0 SHL SUB AND DUP4 PUSH1 0x1 PUSH1 0x1 PUSH1 0xA0 SHL SUB AND PUSH32 0xA6B5FF986627794655EE0966B919CB8CE3B7B374629F5E71B1BA4F4598DA1BBA DUP5 PUSH1 0x40 MLOAD PUSH2 0x761 SWAP2 DUP2 MSTORE PUSH1 0x20 ADD SWAP1 JUMP JUMPDEST PUSH1 0x40 MLOAD DUP1 SWAP2 SUB SWAP1 LOG3 POP POP POP PUSH1 0x1 ADD PUSH2 0x58D JUMP JUMPDEST POP DUP1 CALLVALUE EQ PUSH2 0x7C4 JUMPI PUSH1 0x40 MLOAD PUSH3 0x461BCD PUSH1 0xE5 SHL DUP2 MSTORE PUSH1 0x20 PUSH1 0x4 DUP3 ADD MSTORE PUSH1 0x1C PUSH1 0x24 DUP3 ADD MSTORE PUSH32 0x4D7573742073656E6420657861637420746F74616C20616D6F756E7400000000 PUSH1 0x44 DUP3 ADD MSTORE PUSH1 0x64 ADD PUSH2 0x269 JUMP JUMPDEST PUSH1 0x40 MLOAD CALLER SWAP1 DUP3 ISZERO PUSH2 0x8FC MUL SWAP1 DUP4 SWAP1 PUSH1 0x0 DUP2 DUP2 DUP2 DUP6 DUP9 DUP9 CALL SWAP4 POP POP POP POP ISZERO DUP1 ISZERO PUSH2 0x7F1 JUMPI RETURNDATASIZE PUSH1 0x0 DUP1 RETURNDATACOPY RETURNDATASIZE PUSH1 0x0 REVERT JUMPDEST POP PUSH1 0x40 DUP1 MLOAD DUP3 DUP2 MSTORE PUSH1 0x20 DUP2 ADD DUP7 SWAP1 MSTORE CALLER SWAP2 PUSH32 0x616D645823135EF16CC7628F8ED2DCEFA184A73064CF6B7B60C007C497BD7421 SWAP2 ADD PUSH1 0x40 MLOAD DUP1 SWAP2 SUB SWAP1 LOG2 POP POP POP POP POP JUMP JUMPDEST PUSH1 0x1 PUSH1 0x1 PUSH1 0xA0 SHL SUB DUP1 DUP4 AND PUSH1 0x0 SWAP1 DUP2 MSTORE PUSH1 0x20 DUP2 DUP2 MSTORE PUSH1 0x40 DUP1 DUP4 KECCAK256 SWAP4 DUP6 AND DUP4 MSTORE SWAP3 DUP2 MSTORE DUP3 DUP3 KECCAK256 DUP4 MLOAD PUSH1 0x80 DUP2 ADD DUP6 MSTORE DUP2 SLOAD DUP2 MSTORE PUSH1 0x1 DUP3 ADD SLOAD SWAP3 DUP2 ADD SWAP3 SWAP1 SWAP3 MSTORE PUSH1 0x2 DUP2 ADD SLOAD SWAP4 DUP3 ADD SWAP4 SWAP1 SWAP4 MSTORE PUSH1 0x3 SWAP1 SWAP3 ADD SLOAD PUSH1 0xFF AND ISZERO DUP1 ISZERO PUSH1 0x60 DUP5 ADD MSTORE SWAP1 SWAP2 SWAP1 DUP1 PUSH2 0x8A0 JUMPI POP DUP1 PUSH1 0x40 ADD MLOAD TIMESTAMP LT ISZERO JUMPDEST ISZERO PUSH2 0x8AF JUMPI PUSH1 0x0 SWAP2 POP POP PUSH2 0x8C4 JUMP JUMPDEST PUSH1 0x20 DUP2 ADD MLOAD DUP2 MLOAD PUSH2 0x8C0 SWAP2 SWAP1 PUSH2 0xD2D JUMP JUMPDEST SWAP2 POP POP JUMPDEST SWAP3 SWAP2 POP POP JUMP JUMPDEST PUSH1 0x1 PUSH1 0x1 PUSH1 0xA0 SHL SUB DUP1 DUP4 AND PUSH1 0x0 SWAP1 DUP2 MSTORE PUSH1 0x20 DUP2 DUP2 MSTORE PUSH1 0x40 DUP1 DUP4 KECCAK256 SWAP4 DUP6 AND DUP4 MSTORE SWAP3 DUP2 MSTORE DUP3 DUP3 KECCAK256 DUP4 MLOAD PUSH1 0x80 DUP2 ADD DUP6 MSTORE DUP2 SLOAD DUP2 MSTORE PUSH1 0x1 DUP3 ADD SLOAD SWAP3 DUP2 ADD SWAP3 SWAP1 SWAP3 MSTORE PUSH1 0x2 DUP2 ADD SLOAD SWAP4 DUP3 ADD SWAP4 SWAP1 SWAP4 MSTORE PUSH1 0x3 SWAP1 SWAP3 ADD SLOAD PUSH1 0xFF AND ISZERO DUP1 ISZERO PUSH1 0x60 DUP5 ADD DUP2 SWAP1 MSTORE SWAP2 SWAP3 DUP4 SWAP3 DUP4 SWAP3 DUP4 SWAP3 DUP4 SWAP3 SWAP1 SWAP2 DUP4 SWAP2 SWAP1 PUSH2 0x942 JUMPI POP DUP2 PUSH1 0x40 ADD MLOAD TIMESTAMP LT JUMPDEST SWAP1 POP PUSH1 0x0 DUP2 PUSH2 0x952 JUMPI PUSH1 0x0 PUSH2 0x963 JUMP JUMPDEST PUSH1 0x20 DUP4 ADD MLOAD DUP4 MLOAD PUSH2 0x963 SWAP2 SWAP1 PUSH2 0xD2D JUMP JUMPDEST DUP4 MLOAD PUSH1 0x20 DUP6 ADD MLOAD PUSH1 0x40 SWAP1 SWAP6 ADD MLOAD SWAP1 SWAP13 SWAP5 SWAP12 POP SWAP10 POP SWAP2 SWAP8 POP SWAP1 SWAP6 POP SWAP1 SWAP4 POP POP POP POP JUMP JUMPDEST CALLER PUSH1 0x0 SWAP1 DUP2 MSTORE PUSH1 0x20 DUP2 DUP2 MSTORE PUSH1 0x40 DUP1 DUP4 KECCAK256 PUSH1 0x1 PUSH1 0x1 PUSH1 0xA0 SHL SUB DUP6 AND DUP5 MSTORE SWAP1 SWAP2 MSTORE SWAP1 KECCAK256 PUSH1 0x3 DUP2 ADD SLOAD PUSH1 0xFF AND PUSH2 0x9F1 JUMPI PUSH1 0x40 MLOAD PUSH3 0x461BCD PUSH1 0xE5 SHL DUP2 MSTORE PUSH1 0x20 PUSH1 0x4 DUP3 ADD MSTORE PUSH1 0x14 PUSH1 0x24 DUP3 ADD MSTORE PUSH20 0x27379030B1BA34BB32903832B936B4B9B9B4B7B7 PUSH1 0x61 SHL PUSH1 0x44 DUP3 ADD MSTORE PUSH1 0x64 ADD PUSH2 0x269 JUMP JUMPDEST PUSH1 0x3 DUP2 ADD DUP1 SLOAD PUSH1 0xFF NOT AND SWAP1 SSTORE PUSH1 0x40 MLOAD PUSH1 0x1 PUSH1 0x1 PUSH1 0xA0 SHL SUB DUP4 AND SWAP1 CALLER SWAP1 PUSH32 0x5F708EF9FC37D19D88246C264788C8CDF640C9FF500BD168E941EA1421C4F6C4 SWAP1 PUSH1 0x0 SWAP1 LOG3 POP POP JUMP JUMPDEST PUSH1 0x0 DUP1 DUP1 JUMPDEST DUP4 DUP2 LT ISZERO PUSH2 0xB0C JUMPI PUSH1 0x0 DUP1 PUSH1 0x0 DUP8 DUP8 DUP6 DUP2 DUP2 LT PUSH2 0xA5B JUMPI PUSH2 0xA5B PUSH2 0xD17 JUMP JUMPDEST SWAP1 POP PUSH1 0x20 MUL ADD PUSH1 0x20 DUP2 ADD SWAP1 PUSH2 0xA70 SWAP2 SWAP1 PUSH2 0xC79 JUMP JUMPDEST PUSH1 0x1 PUSH1 0x1 PUSH1 0xA0 SHL SUB SWAP1 DUP2 AND DUP3 MSTORE PUSH1 0x20 DUP1 DUP4 ADD SWAP4 SWAP1 SWAP4 MSTORE PUSH1 0x40 SWAP2 DUP3 ADD PUSH1 0x0 SWAP1 DUP2 KECCAK256 SWAP2 DUP12 AND DUP2 MSTORE SWAP1 DUP4 MSTORE DUP2 SWAP1 KECCAK256 DUP2 MLOAD PUSH1 0x80 DUP2 ADD DUP4 MSTORE DUP2 SLOAD DUP2 MSTORE PUSH1 0x1 DUP3 ADD SLOAD SWAP4 DUP2 ADD SWAP4 SWAP1 SWAP4 MSTORE PUSH1 0x2 DUP2 ADD SLOAD SWAP2 DUP4 ADD SWAP2 SWAP1 SWAP2 MSTORE PUSH1 0x3 ADD SLOAD PUSH1 0xFF AND ISZERO DUP1 ISZERO PUSH1 0x60 DUP4 ADD DUP2 SWAP1 MSTORE SWAP2 SWAP3 POP PUSH2 0xAE0 JUMPI POP DUP1 PUSH1 0x40 ADD MLOAD TIMESTAMP LT JUMPDEST ISZERO PUSH2 0xB03 JUMPI PUSH1 0x20 DUP2 ADD MLOAD DUP2 MLOAD PUSH2 0xAF6 SWAP2 SWAP1 PUSH2 0xD2D JUMP JUMPDEST PUSH2 0xB00 SWAP1 DUP5 PUSH2 0xD04 JUMP JUMPDEST SWAP3 POP JUMPDEST POP PUSH1 0x1 ADD PUSH2 0xA3C JUMP JUMPDEST POP SWAP5 SWAP4 POP POP POP POP JUMP JUMPDEST DUP1 CALLDATALOAD PUSH1 0x1 PUSH1 0x1 PUSH1 0xA0 SHL SUB DUP2 AND DUP2 EQ PUSH2 0xB2C JUMPI PUSH1 0x0 DUP1 REVERT JUMPDEST SWAP2 SWAP1 POP JUMP JUMPDEST PUSH1 0x0 DUP1 PUSH1 0x40 DUP4 DUP6 SUB SLT ISZERO PUSH2 0xB44 JUMPI PUSH1 0x0 DUP1 REVERT JUMPDEST PUSH2 0xB4D DUP4 PUSH2 0xB15 JUMP JUMPDEST SWAP2 POP PUSH2 0xB5B PUSH1 0x20 DUP5 ADD PUSH2 0xB15 JUMP JUMPDEST SWAP1 POP SWAP3 POP SWAP3 SWAP1 POP JUMP JUMPDEST PUSH1 0x0 DUP1 PUSH1 0x40 DUP4 DUP6 SUB SLT ISZERO PUSH2 0xB77 JUMPI PUSH1 0x0 DUP1 REVERT JUMPDEST PUSH2 0xB80 DUP4 PUSH2 0xB15 JUMP JUMPDEST SWAP5 PUSH1 0x20 SWAP4 SWAP1 SWAP4 ADD CALLDATALOAD SWAP4 POP POP POP JUMP JUMPDEST PUSH1 0x0 DUP1 PUSH1 0x0 PUSH1 0x60 DUP5 DUP7 SUB SLT ISZERO PUSH2 0xBA3 JUMPI PUSH1 0x0 DUP1 REVERT JUMPDEST PUSH2 0xBAC DUP5 PUSH2 0xB15 JUMP JUMPDEST SWAP6 PUSH1 0x20 DUP6 ADD CALLDATALOAD SWAP6 POP PUSH1 0x40 SWAP1 SWAP5 ADD CALLDATALOAD SWAP4 SWAP3 POP POP POP JUMP JUMPDEST PUSH1 0x0 DUP1 DUP4 PUSH1 0x1F DUP5 ADD SLT PUSH2 0xBD3 JUMPI PUSH1 0x0 DUP1 REVERT JUMPDEST POP DUP2 CALLDATALOAD PUSH8 0xFFFFFFFFFFFFFFFF DUP2 GT ISZERO PUSH2 0xBEB JUMPI PUSH1 0x0 DUP1 REVERT JUMPDEST PUSH1 0x20 DUP4 ADD SWAP2 POP DUP4 PUSH1 0x20 DUP3 PUSH1 0x5 SHL DUP6 ADD ADD GT ISZERO PUSH2 0xC06 JUMPI PUSH1 0x0 DUP1 REVERT JUMPDEST SWAP3 POP SWAP3 SWAP1 POP JUMP JUMPDEST PUSH1 0x0 DUP1 PUSH1 0x0 DUP1 PUSH1 0x40 DUP6 DUP8 SUB SLT ISZERO PUSH2 0xC23 JUMPI PUSH1 0x0 DUP1 REVERT JUMPDEST DUP5 CALLDATALOAD PUSH8 0xFFFFFFFFFFFFFFFF DUP1 DUP3 GT ISZERO PUSH2 0xC3B JUMPI PUSH1 0x0 DUP1 REVERT JUMPDEST PUSH2 0xC47 DUP9 DUP4 DUP10 ADD PUSH2 0xBC1 JUMP JUMPDEST SWAP1 SWAP7 POP SWAP5 POP PUSH1 0x20 DUP8 ADD CALLDATALOAD SWAP2 POP DUP1 DUP3 GT ISZERO PUSH2 0xC60 JUMPI PUSH1 0x0 DUP1 REVERT JUMPDEST POP PUSH2 0xC6D DUP8 DUP3 DUP9 ADD PUSH2 0xBC1 JUMP JUMPDEST SWAP6 SWAP9 SWAP5 SWAP8 POP SWAP6 POP POP POP POP JUMP JUMPDEST PUSH1 0x0 PUSH1 0x20 DUP3 DUP5 SUB SLT ISZERO PUSH2 0xC8B JUMPI PUSH1 0x0 DUP1 REVERT JUMPDEST PUSH2 0xC94 DUP3 PUSH2 0xB15 JUMP JUMPDEST SWAP4 SWAP3 POP POP POP JUMP JUMPDEST PUSH1 0x0 DUP1 PUSH1 0x0 PUSH1 0x40 DUP5 DUP7 SUB SLT ISZERO PUSH2 0xCB0 JUMPI PUSH1 0x0 DUP1 REVERT JUMPDEST PUSH2 0xCB9 DUP5 PUSH2 0xB15 JUMP JUMPDEST SWAP3 POP PUSH1 0x20 DUP5 ADD CALLDATALOAD PUSH8 0xFFFFFFFFFFFFFFFF DUP2 GT ISZERO PUSH2 0xCD5 JUMPI PUSH1 0x0 DUP1 REVERT JUMPDEST PUSH2 0xCE1 DUP7 DUP3 DUP8 ADD PUSH2 0xBC1 JUMP JUMPDEST SWAP5 SWAP8 SWAP1 SWAP7 POP SWAP4 SWAP5 POP POP POP POP JUMP JUMPDEST PUSH4 0x4E487B71 PUSH1 0xE0 SHL PUSH1 0x0 MSTORE PUSH1 0x11 PUSH1 0x4 MSTORE PUSH1 0x24 PUSH1 0x0 REVERT JUMPDEST DUP1 DUP3 ADD DUP1 DUP3 GT ISZERO PUSH2 0x8C4 JUMPI PUSH2 0x8C4 PUSH2 0xCEE JUMP JUMPDEST PUSH4 0x4E487B71 PUSH1 0xE0 SHL PUSH1 0x0 MSTORE PUSH1 0x32 PUSH1 0x4 MSTORE PUSH1 0x24 PUSH1 0x0 REVERT JUMPDEST DUP2 DUP2 SUB DUP2 DUP2 GT ISZERO PUSH2 0x8C4 JUMPI PUSH2 0x8C4 PUSH2 0xCEE JUMP INVALID LOG2 PUSH5 0x6970667358 0x22 SLT KECCAK256 CALLER 0xEF CALLVALUE PUSH19 0x7128F10FC880668C0B6903BAE9E7FA595873C2 0x4A 0x24 0xD5 GT PUSH31 0x6274B98164736F6C6343000817003300000000000000000000000000000000 "},"methodIdentifiers":{"executeTeamAction(address[],uint256[])":"643706d7","getAvailableAmount(address,address)":"7371edaa","getPermission(address,address)":"910185dd","getTotalPool(address,address[])":"a88a32c2","grantPermission(address,uint256,uint256)":"5ee2429b","increasePermission(address,uint256)":"2aa77d45","permissions(address,address)":"1f9838b5","revokePermission(address)":"a3bf5b9a"}}}}}