{
  "_format": "hh-sol-artifact-1",
  "contractName": "SimpleGamePayment",
  "sourceName": "contracts/SimpleGamePayment.sol",
  "abi": [
    {
      "inputs": [
        {
          "internalType": "address",
          "name": "_wmantle",
          "type": "address"
        }
      ],
      "stateMutability": "nonpayable",
      "type": "constructor"
    },
    {
      "anonymous": false,
      "inputs": [
        {
          "indexed": true,
          "internalType": "address",
          "name": "player",
          "type": "address"
        },
        {
          "indexed": false,
          "internalType": "uint256",
          "name": "amount",
          "type": "uint256"
        }
      ],
      "name": "PaymentCollected",
      "type": "event"
    },
    {
      "anonymous": false,
      "inputs": [
        {
          "indexed": true,
          "internalType": "address",
          "name": "leader",
          "type": "address"
        },
        {
          "indexed": false,
          "internalType": "address[]",
          "name": "players",
          "type": "address[]"
        },
        {
          "indexed": false,
          "internalType": "uint256",
          "name": "totalCost",
          "type": "uint256"
        }
      ],
      "name": "WeaponPurchased",
      "type": "event"
    },
    {
      "inputs": [
        {
          "internalType": "address",
          "name": "player",
          "type": "address"
        }
      ],
      "name": "getBalance",
      "outputs": [
        {
          "internalType": "uint256",
          "name": "",
          "type": "uint256"
        }
      ],
      "stateMutability": "view",
      "type": "function"
    },
    {
      "inputs": [
        {
          "internalType": "address",
          "name": "player",
          "type": "address"
        }
      ],
      "name": "isApproved",
      "outputs": [
        {
          "internalType": "bool",
          "name": "",
          "type": "bool"
        }
      ],
      "stateMutability": "view",
      "type": "function"
    },
    {
      "inputs": [
        {
          "internalType": "address[]",
          "name": "players",
          "type": "address[]"
        },
        {
          "internalType": "uint256",
          "name": "costPerPlayer",
          "type": "uint256"
        }
      ],
      "name": "purchaseWeapon",
      "outputs": [],
      "stateMutability": "nonpayable",
      "type": "function"
    },
    {
      "inputs": [],
      "name": "wmantle",
      "outputs": [
        {
          "internalType": "contract IERC20",
          "name": "",
          "type": "address"
        }
      ],
      "stateMutability": "view",
      "type": "function"
    }
  ],
  "bytecode": "0x60a060405234801561001057600080fd5b506040516107db3803806107db83398101604081905261002f9161008a565b6001600160a01b0381166100795760405162461bcd60e51b815260206004820152600d60248201526c24b73b30b634b2103a37b5b2b760991b604482015260640160405180910390fd5b6001600160a01b03166080526100ba565b60006020828403121561009c57600080fd5b81516001600160a01b03811681146100b357600080fd5b9392505050565b6080516106eb6100f0600039600081816093015281816101c5015281816102a40152818161042301526104c301526106eb6000f3fe608060405234801561001057600080fd5b506004361061004c5760003560e01c80633092405314610051578063673448dd14610066578063d863f06f1461008e578063f8b2cb4f146100cd575b600080fd5b61006461005f366004610536565b6100ee565b005b6100796100743660046105cd565b6103f9565b60405190151581526020015b60405180910390f35b6100b57f000000000000000000000000000000000000000000000000000000000000000081565b6040516001600160a01b039091168152602001610085565b6100e06100db3660046105cd565b6104a1565b604051908152602001610085565b8161012d5760405162461bcd60e51b815260206004820152600a6024820152694e6f20706c617965727360b01b60448201526064015b60405180910390fd5b6000811161016c5760405162461bcd60e51b815260206004820152600c60248201526b125b9d985b1a590818dbdcdd60a21b6044820152606401610124565b6000805b838110156103ad57600085858381811061018c5761018c6105ef565b90506020020160208101906101a191906105cd565b6040516370a0823160e01b81526001600160a01b03808316600483015291925085917f000000000000000000000000000000000000000000000000000000000000000016906370a0823190602401602060405180830381865afa15801561020c573d6000803e3d6000fd5b505050506040513d601f19601f820116820180604052508101906102309190610605565b10156102755760405162461bcd60e51b8152602060048201526014602482015273496e73756666696369656e742062616c616e636560601b6044820152606401610124565b6040516323b872dd60e01b81526001600160a01b038281166004830152336024830152604482018690526000917f0000000000000000000000000000000000000000000000000000000000000000909116906323b872dd906064016020604051808303816000875af11580156102ef573d6000803e3d6000fd5b505050506040513d601f19601f82011682018060405250810190610313919061061e565b9050806103545760405162461bcd60e51b815260206004820152600f60248201526e151c985b9cd9995c8819985a5b1959608a1b6044820152606401610124565b61035e8585610640565b9350816001600160a01b03167fc7c4b03bbffb69e57d563d128b086a40e09e1fe79dbc24be2102aed7921301958660405161039b91815260200190565b60405180910390a25050600101610170565b50336001600160a01b03167fde718e96451a84bbe7d760eb77bd2f2bb8a79565792692254c9f064100a71c528585846040516103eb93929190610661565b60405180910390a250505050565b604051636eb1769f60e11b81526001600160a01b03828116600483015230602483015260009182917f0000000000000000000000000000000000000000000000000000000000000000169063dd62ed3e90604401602060405180830381865afa15801561046a573d6000803e3d6000fd5b505050506040513d601f19601f8201168201806040525081019061048e9190610605565b683635c9adc5dea0000011159392505050565b6040516370a0823160e01b81526001600160a01b0382811660048301526000917f0000000000000000000000000000000000000000000000000000000000000000909116906370a0823190602401602060405180830381865afa15801561050c573d6000803e3d6000fd5b505050506040513d601f19601f820116820180604052508101906105309190610605565b92915050565b60008060006040848603121561054b57600080fd5b833567ffffffffffffffff8082111561056357600080fd5b818601915086601f83011261057757600080fd5b81358181111561058657600080fd5b8760208260051b850101111561059b57600080fd5b6020928301989097509590910135949350505050565b80356001600160a01b03811681146105c857600080fd5b919050565b6000602082840312156105df57600080fd5b6105e8826105b1565b9392505050565b634e487b7160e01b600052603260045260246000fd5b60006020828403121561061757600080fd5b5051919050565b60006020828403121561063057600080fd5b815180151581146105e857600080fd5b8082018082111561053057634e487b7160e01b600052601160045260246000fd5b6040808252810183905260008460608301825b868110156106a2576001600160a01b0361068d846105b1565b16825260209283019290910190600101610674565b506020939093019390935250939250505056fea2646970667358221220b944ae212e21778f2e4312fafe6cc84c28513946df48ae22ff2cf6c99214ae5b64736f6c63430008170033",
  "linkReferences": {},
  "deployedLinkReferences": {}
}