{
  "_format": "hh-sol-artifact-1",
  "contractName": "TeamDelegationV2",
  "sourceName": "contracts/TeamDelegationV2.sol",
  "abi": [
    {
      "inputs": [],
      "stateMutability": "nonpayable",
      "type": "constructor"
    },
    {
      "anonymous": false,
      "inputs": [
        {
          "indexed": true,
          "internalType": "address",
          "name": "owner",
          "type": "address"
        },
        {
          "indexed": true,
          "internalType": "address",
          "name": "delegate",
          "type": "address"
        },
        {
          "indexed": false,
          "internalType": "uint256",
          "name": "amount",
          "type": "uint256"
        }
      ],
      "name": "FundsSpent",
      "type": "event"
    },
    {
      "anonymous": false,
      "inputs": [
        {
          "indexed": true,
          "internalType": "address",
          "name": "owner",
          "type": "address"
        },
        {
          "indexed": true,
          "internalType": "address",
          "name": "delegate",
          "type": "address"
        },
        {
          "indexed": false,
          "internalType": "uint256",
          "name": "maxAmount",
          "type": "uint256"
        },
        {
          "indexed": false,
          "internalType": "uint256",
          "name": "expiry",
          "type": "uint256"
        }
      ],
      "name": "PermissionGranted",
      "type": "event"
    },
    {
      "anonymous": false,
      "inputs": [
        {
          "indexed": true,
          "internalType": "address",
          "name": "owner",
          "type": "address"
        },
        {
          "indexed": true,
          "internalType": "address",
          "name": "delegate",
          "type": "address"
        }
      ],
      "name": "PermissionRevoked",
      "type": "event"
    },
    {
      "anonymous": false,
      "inputs": [
        {
          "indexed": true,
          "internalType": "address",
          "name": "leader",
          "type": "address"
        },
        {
          "indexed": false,
          "internalType": "uint256",
          "name": "totalAmount",
          "type": "uint256"
        },
        {
          "indexed": false,
          "internalType": "uint256",
          "name": "memberCount",
          "type": "uint256"
        }
      ],
      "name": "TeamActionExecuted",
      "type": "event"
    },
    {
      "inputs": [],
      "name": "DOMAIN_SEPARATOR",
      "outputs": [
        {
          "internalType": "bytes32",
          "name": "",
          "type": "bytes32"
        }
      ],
      "stateMutability": "view",
      "type": "function"
    },
    {
      "inputs": [],
      "name": "PERMISSION_TYPEHASH",
      "outputs": [
        {
          "internalType": "bytes32",
          "name": "",
          "type": "bytes32"
        }
      ],
      "stateMutability": "view",
      "type": "function"
    },
    {
      "inputs": [
        {
          "internalType": "address[]",
          "name": "owners",
          "type": "address[]"
        },
        {
          "internalType": "uint256[]",
          "name": "amounts",
          "type": "uint256[]"
        }
      ],
      "name": "executeTeamAction",
      "outputs": [],
      "stateMutability": "payable",
      "type": "function"
    },
    {
      "inputs": [
        {
          "internalType": "address",
          "name": "owner",
          "type": "address"
        },
        {
          "internalType": "address",
          "name": "delegate",
          "type": "address"
        }
      ],
      "name": "getAvailableAmount",
      "outputs": [
        {
          "internalType": "uint256",
          "name": "",
          "type": "uint256"
        }
      ],
      "stateMutability": "view",
      "type": "function"
    },
    {
      "inputs": [
        {
          "internalType": "address",
          "name": "owner",
          "type": "address"
        },
        {
          "internalType": "address",
          "name": "delegate",
          "type": "address"
        }
      ],
      "name": "getPermission",
      "outputs": [
        {
          "internalType": "uint256",
          "name": "maxAmount",
          "type": "uint256"
        },
        {
          "internalType": "uint256",
          "name": "spent",
          "type": "uint256"
        },
        {
          "internalType": "uint256",
          "name": "expiry",
          "type": "uint256"
        },
        {
          "internalType": "bool",
          "name": "active",
          "type": "bool"
        },
        {
          "internalType": "uint256",
          "name": "available",
          "type": "uint256"
        }
      ],
      "stateMutability": "view",
      "type": "function"
    },
    {
      "inputs": [
        {
          "internalType": "address",
          "name": "leader",
          "type": "address"
        },
        {
          "internalType": "address[]",
          "name": "members",
          "type": "address[]"
        }
      ],
      "name": "getTotalPool",
      "outputs": [
        {
          "internalType": "uint256",
          "name": "",
          "type": "uint256"
        }
      ],
      "stateMutability": "view",
      "type": "function"
    },
    {
      "inputs": [
        {
          "internalType": "address",
          "name": "delegate",
          "type": "address"
        },
        {
          "internalType": "uint256",
          "name": "maxAmount",
          "type": "uint256"
        },
        {
          "internalType": "uint256",
          "name": "duration",
          "type": "uint256"
        }
      ],
      "name": "grantPermission",
      "outputs": [],
      "stateMutability": "nonpayable",
      "type": "function"
    },
    {
      "inputs": [
        {
          "internalType": "address",
          "name": "owner",
          "type": "address"
        },
        {
          "internalType": "address",
          "name": "delegate",
          "type": "address"
        },
        {
          "internalType": "uint256",
          "name": "maxAmount",
          "type": "uint256"
        },
        {
          "internalType": "uint256",
          "name": "expiry",
          "type": "uint256"
        },
        {
          "internalType": "uint8",
          "name": "v",
          "type": "uint8"
        },
        {
          "internalType": "bytes32",
          "name": "r",
          "type": "bytes32"
        },
        {
          "internalType": "bytes32",
          "name": "s",
          "type": "bytes32"
        }
      ],
      "name": "grantPermissionWithSignature",
      "outputs": [],
      "stateMutability": "nonpayable",
      "type": "function"
    },
    {
      "inputs": [
        {
          "internalType": "address",
          "name": "delegate",
          "type": "address"
        },
        {
          "internalType": "uint256",
          "name": "additionalAmount",
          "type": "uint256"
        }
      ],
      "name": "increasePermission",
      "outputs": [],
      "stateMutability": "nonpayable",
      "type": "function"
    },
    {
      "inputs": [
        {
          "internalType": "address",
          "name": "",
          "type": "address"
        }
      ],
      "name": "nonces",
      "outputs": [
        {
          "internalType": "uint256",
          "name": "",
          "type": "uint256"
        }
      ],
      "stateMutability": "view",
      "type": "function"
    },
    {
      "inputs": [
        {
          "internalType": "address",
          "name": "",
          "type": "address"
        },
        {
          "internalType": "address",
          "name": "",
          "type": "address"
        }
      ],
      "name": "permissions",
      "outputs": [
        {
          "internalType": "uint256",
          "name": "maxAmount",
          "type": "uint256"
        },
        {
          "internalType": "uint256",
          "name": "spent",
          "type": "uint256"
        },
        {
          "internalType": "uint256",
          "name": "expiry",
          "type": "uint256"
        },
        {
          "internalType": "bool",
          "name": "active",
          "type": "bool"
        }
      ],
      "stateMutability": "view",
      "type": "function"
    },
    {
      "inputs": [
        {
          "internalType": "address",
          "name": "delegate",
          "type": "address"
        }
      ],
      "name": "revokePermission",
      "outputs": [],
      "stateMutability": "nonpayable",
      "type": "function"
    }
  ],
  "bytecode": "0x608060405234801561001057600080fd5b50604080518082018252601081526f2a32b0b6a232b632b3b0ba34b7b72b1960811b6020918201528151808301835260018152603160f81b9082015281517f8b73c3c69bb8fe3d512ecc4cf759cc79239f7b179b0ffacaa9a75d522b39400f918101919091527f6c7ac6a316d9264f1e47a9981f2a351c1035a9efefca6bdddc8b44f5f93ad816918101919091527fc89efdaa54c0f20c7adf612882df0950f5a951637e0307cdcb4c672f298b8bc660608201524660808201523060a082015260c00160408051601f19818403018152919052805160209091012060015561117e806100fd6000396000f3fe6080604052600436106100a75760003560e01c80637ecebe00116100645780637ecebe00146101b9578063910185dd146101e6578063a3bf5b9a14610230578063a88a32c214610250578063b338b20114610270578063b4559fbc146102a457600080fd5b80631f9838b5146100ac5780632aa77d45146101205780633644e515146101425780635ee2429b14610166578063643706d7146101865780637371edaa14610199575b600080fd5b3480156100b857600080fd5b506100f96100c7366004610ead565b600060208181529281526040808220909352908152208054600182015460028301546003909301549192909160ff1684565b60408051948552602085019390935291830152151560608201526080015b60405180910390f35b34801561012c57600080fd5b5061014061013b366004610ee0565b6102c4565b005b34801561014e57600080fd5b5061015860015481565b604051908152602001610117565b34801561017257600080fd5b50610140610181366004610f0a565b6103ea565b610140610194366004610f89565b61057b565b3480156101a557600080fd5b506101586101b4366004610ead565b61087e565b3480156101c557600080fd5b506101586101d4366004610ff5565b60026020526000908152604090205481565b3480156101f257600080fd5b50610206610201366004610ead565b610914565b6040805195865260208601949094529284019190915215156060830152608082015260a001610117565b34801561023c57600080fd5b5061014061024b366004610ff5565b6109cf565b34801561025c57600080fd5b5061015861026b366004611017565b610a81565b34801561027c57600080fd5b506101587f64efe9fe04c26d6ac8d96e2b6d0bbd87634d8eebd5c018773eb007a2e146511d81565b3480156102b057600080fd5b506101406102bf36600461106a565b610b5f565b336000908152602081815260408083206001600160a01b03861684529091529020600381015460ff166103355760405162461bcd60e51b815260206004820152601460248201527327379030b1ba34bb32903832b936b4b9b9b4b7b760611b60448201526064015b60405180910390fd5b8060020154421061037d5760405162461bcd60e51b815260206004820152601260248201527114195c9b5a5cdcda5bdb88195e1c1a5c995960721b604482015260640161032c565b8181600001600082825461039191906110f3565b9091555050805460028201546040805192835260208301919091526001600160a01b0385169133917f47e8fe1cf951ed6c2bd6e674655fb4f681a72e9a2a7bcb56fddfecb4c23afcc591015b60405180910390a3505050565b6001600160a01b0383166104335760405162461bcd60e51b815260206004820152601060248201526f496e76616c69642064656c656761746560801b604482015260640161032c565b600082116104745760405162461bcd60e51b815260206004820152600e60248201526d125b9d985b1a5908185b5bdd5b9d60921b604482015260640161032c565b600081116104b75760405162461bcd60e51b815260206004820152601060248201526f24b73b30b634b210323ab930ba34b7b760811b604482015260640161032c565b60408051608081018252838152600060208201529081016104d883426110f3565b81526001602091820181905233600081815280845260408082206001600160a01b038a16808452908652918190208651815594860151938501939093559184015160028401556060909301516003909201805460ff191692151592909217909155907f47e8fe1cf951ed6c2bd6e674655fb4f681a72e9a2a7bcb56fddfecb4c23afcc58461056685426110f3565b604080519283526020830191909152016103dd565b8281146105bc5760405162461bcd60e51b815260206004820152600f60248201526e098cadccee8d040dad2e6dac2e8c6d608b1b604482015260640161032c565b826105ff5760405162461bcd60e51b8152602060048201526013602482015272139bc81bdddb995c9cc81cdc1958da599a5959606a1b604482015260640161032c565b6000805b8481101561083b57600086868381811061061f5761061f611106565b90506020020160208101906106349190610ff5565b9050600085858481811061064a5761064a611106565b6001600160a01b03851660009081526020818152604080832033845282529091206003810154929091029390930135935060ff1690506106c45760405162461bcd60e51b81526020600482015260156024820152745065726d697373696f6e206e6f742061637469766560581b604482015260640161032c565b8060020154421061070c5760405162461bcd60e51b815260206004820152601260248201527114195c9b5a5cdcda5bdb88195e1c1a5c995960721b604482015260640161032c565b8054600182015461071e9084906110f3565b111561076c5760405162461bcd60e51b815260206004820152601860248201527f45786365656473207065726d697474656420616d6f756e740000000000000000604482015260640161032c565b81836001600160a01b03163110156107bd5760405162461bcd60e51b8152602060048201526014602482015273496e73756666696369656e742062616c616e636560601b604482015260640161032c565b818160010160008282546107d191906110f3565b909155506107e1905082866110f3565b9450336001600160a01b0316836001600160a01b03167fa6b5ff986627794655ee0966b919cb8ce3b7b374629f5e71b1ba4f4598da1bba8460405161082891815260200190565b60405180910390a3505050600101610603565b50604080518281526020810186905233917f616d645823135ef16cc7628f8ed2dcefa184a73064cf6b7b60c007c497bd7421910160405180910390a25050505050565b6001600160a01b03808316600090815260208181526040808320938516835292815282822083516080810185528154815260018201549281019290925260028101549382019390935260039092015460ff161580156060840152909190806108ea575080604001514210155b156108f957600091505061090e565b6020810151815161090a919061111c565b9150505b92915050565b6001600160a01b03808316600090815260208181526040808320938516835292815282822083516080810185528154815260018201549281019290925260028101549382019390935260039092015460ff161580156060840181905291928392839283928392909183919061098c5750816040015142105b905060008161099c5760006109ad565b602083015183516109ad919061111c565b83516020850151604090950151909c949b509950919750909550909350505050565b336000908152602081815260408083206001600160a01b03851684529091529020600381015460ff16610a3b5760405162461bcd60e51b815260206004820152601460248201527327379030b1ba34bb32903832b936b4b9b9b4b7b760611b604482015260640161032c565b60038101805460ff191690556040516001600160a01b0383169033907f5f708ef9fc37d19d88246c264788c8cdf640c9ff500bd168e941ea1421c4f6c490600090a35050565b600080805b83811015610b56576000806000878785818110610aa557610aa5611106565b9050602002016020810190610aba9190610ff5565b6001600160a01b03908116825260208083019390935260409182016000908120918b1681529083528190208151608081018352815481526001820154938101939093526002810154918301919091526003015460ff1615801560608301819052919250610b2a5750806040015142105b15610b4d5760208101518151610b40919061111c565b610b4a90846110f3565b92505b50600101610a86565b50949350505050565b834210610ba25760405162461bcd60e51b815260206004820152601160248201527014da59db985d1d5c9948195e1c1a5c9959607a1b604482015260640161032c565b6001600160a01b038716600090815260026020526040812080547f64efe9fe04c26d6ac8d96e2b6d0bbd87634d8eebd5c018773eb007a2e146511d918a918a918a918a9187610bf08361112f565b909155506040805160208101979097526001600160a01b0395861690870152939092166060850152608084015260a083015260c082015260e001604051602081830303815290604052805190602001209050600060015482604051602001610c6f92919061190160f01b81526002810192909252602282015260420190565b60408051601f198184030181528282528051602091820120600080855291840180845281905260ff89169284019290925260608301879052608083018690529092509060019060a0016020604051602081039080840390855afa158015610cda573d6000803e3d6000fd5b505050602060405103519050896001600160a01b0316816001600160a01b031614610d3b5760405162461bcd60e51b8152602060048201526011602482015270496e76616c6964207369676e617475726560781b604482015260640161032c565b6001600160a01b038116610d825760405162461bcd60e51b815260206004820152600e60248201526d24b73b30b634b21039b4b3b732b960911b604482015260640161032c565b604051806080016040528089815260200160008152602001888152602001600115158152506000808c6001600160a01b03166001600160a01b0316815260200190815260200160002060008b6001600160a01b03166001600160a01b0316815260200190815260200160002060008201518160000155602082015181600101556040820151816002015560608201518160030160006101000a81548160ff021916908315150217905550905050886001600160a01b03168a6001600160a01b03167f47e8fe1cf951ed6c2bd6e674655fb4f681a72e9a2a7bcb56fddfecb4c23afcc58a8a604051610e7d929190918252602082015260400190565b60405180910390a350505050505050505050565b80356001600160a01b0381168114610ea857600080fd5b919050565b60008060408385031215610ec057600080fd5b610ec983610e91565b9150610ed760208401610e91565b90509250929050565b60008060408385031215610ef357600080fd5b610efc83610e91565b946020939093013593505050565b600080600060608486031215610f1f57600080fd5b610f2884610e91565b95602085013595506040909401359392505050565b60008083601f840112610f4f57600080fd5b50813567ffffffffffffffff811115610f6757600080fd5b6020830191508360208260051b8501011115610f8257600080fd5b9250929050565b60008060008060408587031215610f9f57600080fd5b843567ffffffffffffffff80821115610fb757600080fd5b610fc388838901610f3d565b90965094506020870135915080821115610fdc57600080fd5b50610fe987828801610f3d565b95989497509550505050565b60006020828403121561100757600080fd5b61101082610e91565b9392505050565b60008060006040848603121561102c57600080fd5b61103584610e91565b9250602084013567ffffffffffffffff81111561105157600080fd5b61105d86828701610f3d565b9497909650939450505050565b600080600080600080600060e0888a03121561108557600080fd5b61108e88610e91565b965061109c60208901610e91565b95506040880135945060608801359350608088013560ff811681146110c057600080fd5b9699959850939692959460a0840135945060c09093013592915050565b634e487b7160e01b600052601160045260246000fd5b8082018082111561090e5761090e6110dd565b634e487b7160e01b600052603260045260246000fd5b8181038181111561090e5761090e6110dd565b600060018201611141576111416110dd565b506001019056fea2646970667358221220b80c0ef3d895c48a8c4fe98a7a5e562b24419594699dd8afe278c25243c29d2f64736f6c63430008170033",
  "linkReferences": {},
  "deployedLinkReferences": {}
}